:1000000091C000009FC000009DC000009BC0000088
:1000100099C0000097C0000095C0000004C3000014
:1000200091C000008FC000008DC000008BC0000098
:1000300089C0000087C0000085C0000083C00000A8
:1000400081C000007FC000007DC000007BC00000B8
:1000500079C0000077C0000075C0000073C00000C8
:1000600071C000006FC000000D0A000D0A0031369B
:10007000303030303030003A20002020465F43508E
:100080005500726F626F6C69622F64656C61792FC5
:1000900064656C61792E632032372E30392E323010
:1000A00031352056312E302E300D0A000D0A002039
:1000B000205B656D7074795D0D0A0064656C617913
:1000C0003A0D0A000D0A0020205B656D7074795DA1
:1000D0000D0A00726F626F6C69622F737472696EC1
:1000E000672F737472696E672E632030352E31303E
:1000F0002E323031352056312E312E300D0A000D82
:100100000A0020205B656D7074795D0D0A007374C0
:1001100072696E673A0D0A0066616C7365007472ED
:100120007565000011241FBECFEFD8E0DEBFCDBF44
:1001300021E0A0E0B1E001C01D92A530B207E1F7D7
:1001400057D478C45DCFBF92CF92DF92EF92FF92E7
:100150000F931F93CF93DF93E82ED62E65D140E007
:100160006E2D81E0F3D040E06D2D82E0EFD088EE7F
:1001700093E096D201E011E0D0E0C0E087E0F82EF5
:1001800096D181117CC080D1B82E88D1C82EBB20D9
:10019000A9F0111112C0002369F1ED1014C078D23A
:1001A000FF2031F06F2D70E031D401E0811101C0EA
:1001B00000E0FA94C11059C05DC010E0CC20E9F015
:1001C000002339F004C0882309F44AC0C9E100E0E3
:1001D00014C0112309F442C0ED1019C059D2FF20F8
:1001E00031F06F2D70E012D411E0811101C010E0E8
:1001F000FA943EC0C9E1811131C0ED1005C0DC1791
:1002000010F0CD2F01C0DC2FCC2359F004C0CC233B
:1002100051F111E0D9E1C15041E06E2D81E096D05D
:100220000BC0112339F040E06E2D81E08FD011E03A
:10023000C0E002C081E075D0DD2319F0D15041E06B
:1002400003C0002329F040E06D2D82E07FD002C082
:1002500082E067D080E090E034D192CFD9E1CDCF79
:1002600001E0C9E1D8CFD9E1DECF0111AFCFC9E1BB
:10027000D9E1C5CFD93108F0C4CFD9E1F2CFDF91B0
:10028000CF911F910F91FF90EF90DF90CF90BF9093
:100290000895FED163E070E0B9D38130910529F073
:1002A000029731F060E081E005C062E080E002C0CA
:1002B00061E082E048CFECD169E070E0A7D36BEA5F
:1002C000869F612D11246695962F990F960F891B95
:1002D0003ACFCF93C0E040E06C2F81E037D08CE282
:1002E00091E0EFD00DD040E06C2F82E02FD08CE277
:1002F00091E0E7D005D0CF5FC33069F7CF91089583
:1003000029982A985D98809104018E7F809304013A
:10031000409841984298809104018D7F8093040118
:100320000895813019F0823041F008952A98299873
:100330005D98809104018E7F06C041984098429854
:10034000809104018D7F809304010895813019F01C
:10035000823071F10895613071F028F06230B9F0A7
:100360006330F1F00895442319F0299A2A9807C0C0
:1003700029982A9A07C0299A442319F02A9A5D9A43
:1003800008952A985D9880910401816032C04423C9
:1003900019F0299A2A9A08C029982A985D9AF3CFC9
:1003A000442321F029982A985D980895299AE6CF48
:1003B000613071F028F0623089F06330E9F008951F
:1003C000442319F0409A41981FC04098419A04C0B4
:1003D000409A411118C04198429808C0442319F02E
:1003E000409A419A0DC040984198429A80910401E8
:1003F0008260809304010895442321F0409841983D
:1004000042980895409A419A429A08959091040121
:1004100080FB90F99093040108959091040180FB72
:1004200091F9909304010895E0E0F1E08081877EE6
:100430008F7D80830895CF93DF93C0E0D1E08881E2
:100440008C7F8B7F8883F0DF19821A821B82DF9179
:10045000CF9108958EE084B987E087B988E28AB9A0
:1004600020983B98549882E08093B00091E090935C
:10047000B10092ED9093B3008093700082E390E01E
:100480000FD1D9DF78940895E0E0F1E08081982FD2
:10049000977F908383FB882780F90895E0E0F1E05F
:1004A0008081982F9F7E9083829581700895E0E0EF
:1004B000F1E08081982F9F7D908385FB882780F9CC
:1004C0000895FF920F931F93CF93DF936AE070E03C
:1004D0009DD2EB0111E002E384E1F82E93B191701B
:1004E000912780910001282F2170921781F090FBB5
:1004F00080F980930001911103C00093010107C0AE
:1005000090910101911103C0886080930001809156
:100510000101882319F081508093010196B193FB6A
:10052000992790F991278091000181FB222720F9DA
:10053000921781F090FB81F980930001911103C023
:100540000093020107C090910201911103C08061E4
:100550008093000180910201882319F081508093DB
:10056000020199B19295917091278091000182FBCF
:10057000222720F9921781F090FB82F980930001E5
:10058000911103C0F092030107C0909103019111F2
:1005900003C080628093000180910301882319F0D9
:1005A0008150809303018AE090E07AD0219708F08F
:1005B00095CFDF91CF911F910F91FF900895A0DE0D
:1005C00080910401816080930401299A84EF91E075
:1005D00078DF2A9A299884EF91E073DF5D9A2A9850
:1005E00084EF91E06EDF5D98809104018E7F8093AF
:1005F000040180910401826080930401409A84EF99
:1006000091E05FDF419A409884EF91E05ADF429A8F
:10061000419884EF91E055DF4298809104018D7FED
:10062000809304016DCE1F920F920FB60F9211248A
:100630008F938091040182FF12C0809104018B7F0F
:10064000809304018091040180FF02C05B9A01C085
:100650005B988091040181FF08C02B9A07C08091AC
:1006600004018460809304015B982B988F910F9014
:100670000FBE0F901F9018951092800081E080931C
:100680008100109285001092840010926F000895EE
:100690002FB7F89480918400909185002FBF089522
:1006A000009759F020ED37E0000000000000000046
:1006B00021503109C9F70197F3CF08958A95F1F7D1
:1006C000089534E3009729F0232F2A95F1F7019735
:1006D000F9CF0895CF93DF93EC016BEB70E026D157
:1006E0006FEA70E0CE0122D16CEA70E0CE01DF91BA
:1006F000CF911CC1CF93DF93EC0162E870E016D17B
:100700004FE06AE770E0CE012DD167E770E0CE01DF
:100710000DD16EE670E0CE0109D16BE670E0CE013E
:1007200005D168E670E0CE01DF91CF91FFC0EF9276
:10073000FF921F93CF93DF9300D000D000D0CDB7AE
:10074000DEB77C01CB01413208F040E220E0EAE074
:10075000F0E011E0120F61E070E06C0F7D1F620F9E
:10076000711D9B01BF0152D190E3980FD9019C9359
:10077000CB01212F009769F7141738F480E24E83DC
:10078000F70109954E814150F7CF115050F0E1E04B
:10079000F0E0EC0FFD1FE10FF11D8081F7010995DD
:1007A000F4CF26960FB6F894DEBF0FBECDBFDF9113
:1007B000CF911F91FF90EF9008950F931F93CF93C8
:1007C000DF9300D01F92CDB7DEB78C0177FF13C047
:1007D0007195619571098DE24B8369837A83F80184
:1007E00009954B8169817A81413218F4442319F0CB
:1007F00001C040E24150C8010F900F900F90DF916F
:10080000CF911F910F9193CFEF92FF920F931F9370
:10081000CF93DF931F92CDB7DEB77C018B0147FFEB
:1008200009C0419580E34983F701099588E7F701FD
:100830000995498145304CF424E030E0241B31090E
:1008400047FD3395220F220F01C020E0022E02C087
:10085000000F111F0A94E2F72031A4F4912F929512
:100860009F709A3010F480E301C087E3890F2983D9
:10087000F701099584E0000F111F8A95E1F729819E
:100880002C5FEACF0F90DF91CF911F910F91FF90D6
:10089000EF900895DF92EF92FF920F931F93CF9303
:1008A000DF931F92CDB7DEB77C018B0147FF09C0F4
:1008B000419580E34983F701099582E6F70109959F
:1008C0004981413124F480E1D82ED41A01C0D12CC1
:1008D0000D2C02C0000F111F0A94E2F7FFE0FD1576
:1008E0005CF017FF02C081E301C080E3F7010995C6
:1008F000000F111FD394F2CF0F90DF91CF911F9172
:100900000F91FF90EF90DF9008950F931F93CF9377
:10091000DF938C01EB018991882319F0F801099587
:10092000FACFDF91CF911F910F9108950F931F93ED
:10093000CF93DF938C01FB018491EB0121968823F7
:1009400021F0F8010995BE01F6CFDF91CF911F91FB
:100950000F910895662319F06EE171E002C068E11D
:1009600071E0E4CFEF92FF920F931F93CF93DF9349
:100970007C01CFEFC40FFB01CF3F99F084918F0131
:100980000F5F1F4FDFEFDC0F811106C0C15048F031
:1009900080E2F7010995FACFF7010995F801CD2F0B
:1009A000EBCFDF91CF911F910F91FF90EF900895C2
:1009B000CF93DF93EC016EE071E0B8DF62E071E0AD
:1009C000CE01B4DF6FEF70E0CE01DF91CF91AECFFB
:1009D000CF93DF93EC0163ED70E0A8DF67EC70E08C
:1009E000CE01A4DF64EC70E0CE01DF91CF919ECF09
:1009F00043DE30DD8AE090E064DD59DD811103C023
:100A0000DEDD47DCFECF65DC56DCFECFAA1BBB1B60
:100A100051E107C0AA1FBB1FA617B70710F0A61BFE
:100A2000B70B881F991F5A95A9F780959095BC011F
:080A3000CD010895F894FFCFF9
:00000001FF
