:10000000B8C00000D3C00000D1C00000CFC00000C5
:10001000CDC00000CBC00000C9C000000C945D132F
:10002000C5C00000C3C00000C1C00000BFC00000C8
:10003000BDC00000BBC00000B9C00000B7C00000D8
:10004000B5C00000B3C00000B1C00000AFC00000E8
:10005000ADC00000ABC00000A9C00000A7C00000F8
:10006000A5C00000A3C000001A1C2E1C651C2F1D7B
:10007000CA1CEF1C361DFA13FC13FF1301140414E1
:10008000061409140B140F141114141417141C144F
:1000900019142014231427142B142D143114F613BF
:1000A000F81343144514471449144B144D144F14BA
:1000B0005114531455140D0A000D0A00323030301B
:1000C00030303030003A20002020465F4350550049
:1000D000726F626F6C69622F64656C61792F646501
:1000E0006C61792E632032372E30392E3230313523
:1000F0002056312E302E300D0A000D0A0020205BD4
:10010000656D7074795D0D0A0064656C61793A0DF6
:100110000A000D0A0020205B656D7074795D0D0A80
:1001200000726F626F6C69622F737472696E672FF1
:10013000737472696E672E632030352E31302E3223
:100140003031352056312E312E300D0A000D0A0087
:1001500020205B656D7074795D0D0A00737472699F
:100160006E673A0D0A0066616C736500747275659E
:10017000000011241FBECFEFD8E0DEBFCDBF14E0DA
:10018000A0E0B1E0E8E7FCE302C005900D92AA32DE
:10019000B107D9F726E0AAE2B4E001C01D92AC3A5B
:1001A000B207E1F70E94FB1A0C943A1E29CF81E0B6
:1001B0008093A0060E947B18E091A306F091A4060C
:1001C00040E061E080E00994909193069130E9F479
:1001D00081111BC010925A0490E0809196069817E6
:1001E00090F4E92FF0E0EE0FFF1FDF01A65DBB4F9B
:1001F0008C9181608C93E55DFB4F80818F70806571
:1002000080839F5FEACF80E0089581E008950F9397
:100210001F93CF9382E00E947817811110925A04A5
:1002200000E010E0802F0E944F10882369F0F80151
:10023000EE0FFF1FE65DFB4F80818E7F80838091F4
:100240005A048D5F80935A040F5F1F4F08311105C8
:1002500049F7C0E080919606C81708F040C00C2FFF
:1002600010E0000F111FF801E65DFB4F808180FF59
:1002700009C066E08C2F0E948E1361E08C2F0E94D3
:1002800015102BC061E08C2F0E941510F801E55D60
:10029000FB4F808182958F70E1F080FF02C062E1A8
:1002A00001C06DE08C2F0E948E13F801E55DFB4FBD
:1002B0008081982F9F7029F0915F9F70807F892B9C
:1002C00006C082958F7049F0815F8295807F808320
:1002D00004C06DE08C2F0E948E13CF5FBBCF809146
:1002E0005A04CF911F910F910C94B2154F925F92C7
:1002F0006F927F928F929F92AF92BF92CF92DF9236
:10030000EF92FF920F931F93CF93DF936090960627
:1003100080909606482C881508F4482E80915A043F
:100320000E94B215862D880F680E712CE12CF12CDD
:10033000C4E1D0E008E010E0512C912C81E0881A53
:1003400091088CE0C82ED12C98E1A92EB12C541420
:1003500009F44DC020915A04C701B4010E94D61D72
:10036000822F90E068177907E8F480919306813036
:1003700031F487E1851578F0CE01B50109C080918F
:100380009306823051F48BE0851548F0C801B60120
:100390000E94EA1D05C088E103C0852D01C08CE0E4
:1003A00062E11CC080919306813031F487E18515AC
:1003B00078F0CE01B50109C080919306823051F4E6
:1003C0008BE0851548F0C801B6010E94EA1D05C002
:1003D00088E103C0852D01C08CE06DE00E948E1382
:1003E00053940F5F1F4F2196E60CF71CB0CFDF919F
:1003F000CF911F910F91FF90EF90DF90CF90BF9022
:10040000AF909F908F907F906F905F904F900895E6
:10041000DB01811107C08CE591E08D939C9384E60C
:1004200091E015C06AE00E94CA1DE82FF0E0EE0FCF
:10043000FF1FE050FF4F208131812D933C93E92F26
:10044000F0E0EE0FFF1FE050FF4F80819181FA0135
:10045000918380830895EF92FF920F931F93CF9320
:10046000DF9381E08093A0060E947B18E091A306B1
:10047000F091A40640E061E080E00995C0E0D0E0A2
:10048000FE01E45AFB4F8081807F846080836DE0B1
:100490008C2F0E948E132196C831D10589F740E038
:1004A00050E030E081E06AE073E196E0F92E22E16D
:1004B000E22EC1E1D5E1813089F048F08230A1F42B
:1004C0008093AE041092AD04C093AF040DC0F092BF
:1004D000840410928304E092850406C0609399041A
:1004E0001092980470939A04D89FF0011124E30F9E
:1004F000F11DEB58FB4F942F9F71292F220F9081F4
:10050000917C922B90838A01045A1B4F282F2F70C5
:10051000932F9295907F922BD8019C93908191601C
:100520009083882329F08150813019F43F5F01C006
:1005300082E04F5F5F4F4831510509F0BCCFDF913A
:10054000CF911F910F91FF90EF900895CF9320E0EE
:1005500030E0C5E148E0C29FC001C39F900D112467
:10056000FC01EC58FB4F108211864287DC01A85732
:10057000BB4F5C915F715C93DC01AA57BB4F5C91F0
:100580005F715C9344874587468760E070E0FC01BB
:10059000E60FF71FEB58FB4F5081516050836F5FA0
:1005A0007F4F6830710599F72F5F3F4F233031053A
:1005B00091F680E0CF9108952F923F924F925F92F3
:1005C0006F927F928F929F92AF92BF92CF92DF9263
:1005D000EF92FF920F931F93CF93DF9300D000D041
:1005E000CDB7DEB7C12CD12C65E1F62EAA24A39499
:1005F000B12CE8E06E2E77247394F7E08F2EA6E0FE
:100600009A2E8C2D0E944F10811108C02FEFC21A14
:10061000D20A38E1C316D104A1F72CC2F601E45A7C
:10062000FB4F4081342F32953F704F70642F70E044
:100630007A836983F69EC001F79E900D1124FC0118
:10064000E30FF11DEB58FB4F4081FC01EC58FB4FD1
:10065000232F277040FF9AC181858F5F8187858511
:1006600086878485858734878185833110F012865B
:100670002CC08185803110F0728627C081858D3035
:1006800010F082E004C081858A3018F083E0828710
:100690001CC08185873010F084E0F9CF81858430DB
:1006A00010F085E0F4CF8185823010F092860DC085
:1006B0008185882351F089819A81F89EF001F99E05
:1006C000F00D1124EC58FB4F8286E981FA81FE9EE1
:1006D000C001FF9E900D1124DC01AC58BB4F1B964E
:1006E0001C921B97FC01EA57FB4F3081387F232B6C
:1006F000208320812861208320812F71206A20831C
:10070000FC01E957FB4F20812861208320812F7154
:10071000206A20831A962C91462D421B20E030E05F
:1007200058E0452E00E010E0BC01FB01E20FF31F92
:10073000EB58FB4F908196959F71983151F4C5010C
:10074000022E02C0880F991F0A94E2F7082B192B7A
:100750004A942F5F3F4F2830310539F71416B4F013
:1007600080E090E049815A81F49E9001F59E300D21
:100770001124F901E80FF91FEB58FB4F408141604C
:100780004083019688309105A1F740CF842F042E35
:10079000000C990B242D30E082179307B4F080E011
:1007A00090E069817A81F69E9001F79E300D1124C8
:1007B000F901E80FF91FEB58FB4F40814E7F408352
:1007C000019688309105A1F721CF69817A81F69E43
:1007D000F001F79EF00D1124EC58FB4F5385850F67
:1007E000911D821793078CF055245A94540C21E0E4
:1007F00030E040E050E089819A81F89EB001F99E96
:10080000700D11246C587B4F28C05384540EEFCFC9
:10081000FB01E40FF51F8485883010F58485F50110
:1008200002C0EE0FFF1F8A95E2F70E2B1F2B5A9482
:100830004A94E22E2330310599F0852D57FE02C0EF
:1008400081E0850D8595082E000C990B2817390736
:100850003CF44F5F5F4F2F5F3F4FE42E5110D8CFD6
:1008600029813A81F29EF001F39EF00D1124EC589B
:10087000FB4F828590E0252D052C000C330B2817AB
:10088000390744F093858285981738F4528483851C
:10089000581A05C03324339403C055245394312C83
:1008A0000E94871815147CF5642D70E00E94D61DF7
:1008B000582FCB0120E030E0E8E040E0F22FB50116
:1008C000022E02C0660F771F0A94E2F7602371239D
:1008D000672B21F45413FE2F4F5FEF2F2F5F3F4FF5
:1008E0002830310559F7541758F4950102C0220FEA
:1008F000331FEA95E2F7022B132B5A944A94D2CF76
:1009000000E010E004C0332011F00095109580E065
:1009100090E069817A81F69EA001F79E500D112426
:10092000FA01EC58FB4F898320E030E02E15C8F423
:10093000B901DF01A20FB31F1C96AC912F5F3F4F8F
:10094000B981AB13F3CFDF01A60FB71F1C962C9113
:10095000DA01A20FB11DAB58BB4F2C912E7F2C9307
:1009600010C0DA01A80FB91FAB58BB4F6C919801AA
:10097000082E02C0369527950A94E2F720FB60F90D
:100980006C9301968830910571F640CE43854F5F98
:10099000438745854687448545873487FC01E8576A
:1009A000FB4F3081387F232B2083208128612083D7
:1009B00020812F71206A208320E030E010E000E0E9
:1009C000AC01FA01E20FF31FEB58FB4F808180FF6F
:1009D0000DC0908196959F71983141F0C501022E0E
:1009E00001C0880F0A94EAF7082B1F5F2F5F3F4F63
:1009F0002830310531F712300CF408CE0E948718E8
:100A0000612F110F770B0E94D61D20E030E0E12C02
:100A100010E0E981FA81FE9EA001FF9E500D112495
:100A2000FA01EA57FB4FB801022E02C0759567958F
:100A30000A94E2F760FF18C08E1115C0DA01A20F08
:100A4000B31FAB58BB4F9C919E7F9C939081987F26
:100A5000622F6770962B908390819861908390812C
:100A60009F71906A9083E3942F5F3F4F2830310548
:100A7000D1F6CCCD80915B04882331F081508093F6
:100A80005B04A12CB12C22C086E0F9CFF601EE0D5B
:100A9000FF1DEB58FB4F808186958F71782EF7E113
:100AA000F817C8F5FFEFEF1AFF0A28E0E216F10485
:100AB00069F780915B04882309F4CDC04FEFA41A35
:100AC000B40A53E0A516B10409F4F3C0E12CF12CEB
:100AD00065E16A9D60016B9DD00C1124C6018957A8
:100AE0009B4F9A83898386010A571B4FF601E8576B
:100AF000FB4FFC83EB83C6018C589B4F4C01F0E10C
:100B00008F0E911C2C012FE0420E511C1C0131E173
:100B1000230E311CBBCFE981FA81808185FF07C09C
:100B2000F1016081872D0E948E1320E001C021E039
:100B3000F8018081877090E0E816F90699F58081C8
:100B400085FF06C0F4016081872D0E948E1320E08E
:100B500080915B04811126C0F8018081869586957D
:100B60008695837071F080818695869586958D5FD8
:100B70008370982F990F990F990F8081877E892B09
:100B800010C0F801808182958695877059F0808128
:100B9000807E90EE980F80818F71892B8083808179
:100BA00088618083EB81FC818081877090E0E8160A
:100BB000F906A9F5808185FF06C0F2016081872DC5
:100BC0000E948E1320E080915B04811128C0EB818C
:100BD000FC818081869586958695837071F08081F1
:100BE0008695869586958D5F8370982F990F990FBE
:100BF000990F8081877E892B11C0EB81FC818081D8
:100C000082958695877059F08081807E90EE980F4E
:100C100080818F71892B8083808188618083F60138
:100C2000EE0DFF1DEB58FB4F808180FF09C0222392
:100C300029F0F4016081872D0E948E1361E007C0C6
:100C4000222321F06DE0872D0E948E1360E0872D16
:100C50000E94151027CF35E13A9DF0013B9DF00D24
:100C60001124E957FB4F8081869586958695837080
:100C700071F080818695869586958D5F8370982F1B
:100C8000990F990F990F8081877E892B10C08081E1
:100C900082958695877009F411CF8081807E90EED1
:100CA000980F80818F71892B8083808188618083F8
:100CB00005CF8091A70480939E0480917D048823B2
:100CC00049F080917D0490919E04282F220F820F7D
:100CD000890F01C080E0809374048091920488237E
:100CE00049F08091920490919E04282F220F820F48
:100CF000890F01C080E0809389046091890480910C
:100D000074040F900F900F900F90DF91CF911F916F
:100D10000F91FF90EF90DF90CF90BF90AF909F909A
:100D20008F907F906F905F904F903F902F900C949A
:100D30005F157F928F929F92AF92BF92CF92DF9278
:100D4000EF92FF920F931F93CF93DF93782E8CE057
:100D5000871510F42CE0722E60FF0AC060918904A0
:100D6000809174040E945F158BE4C1E000E007C02D
:100D700080919E040E94B21582E1C2E002E0E82E5A
:100D8000F12CC12CD12CD0E0E5E10E9F8001112483
:100D90000C581B4F9BE0A92EB12C4801F0E18F0E9F
:100DA000911CD715B1F0F8012081C601B5010E9450
:100DB000D61D822F90E06817790718F4F40160813E
:100DC00001C06DE08D2F0E948E13DF5FCE0CDF1C03
:100DD000E8CF07E10D1BC12CD12C17E1F5E1CF9F26
:100DE000E0011124CC58DB4F8BE0A82EB12C4E0132
:100DF00080E1880E911C1017A9F02881C601B50169
:100E00000E94D61D822F90E06817790718F4F4012C
:100E1000608101C06DE0812F0E948E131150CE0CB5
:100E2000DF1CE9CFDF91CF911F910F91FF90EF90E1
:100E3000DF90CF90BF90AF909F908F907F9008955C
:100E4000DB016AE00E94CA1DE82FF0E0EE0FFF1FF1
:100E5000E459FE4F208131812D933C93E92FF0E03E
:100E6000EE0FFF1FE459FE4F80819181FA019183BB
:100E70008083089582E08093A0060E947B18E09111
:100E8000A306F091A40640E061E080E009941F937E
:100E9000CF93DF9390919306913011F4813059F004
:100EA00090919306913029F090919306923009F039
:100EB000A7C08111A5C0C82F6093B4044093B304A8
:100EC00081E08093940682E08093950686E080938B
:100ED000DC0493E09093DB041092CE041092CD04D6
:100EE0001092DD048093DE048AE08093EE049093F8
:100EF000ED041092E0041092DF041092EF0480934E
:100F0000F0041092CF041092D3041092D7041092E0
:100F1000E1041092E5041092E9040E948718AC01E4
:100F2000C13019F4A2E0B0E002C0A1E0B0E090E06E
:100F300012E1692F70E06A177B07ECF420E030E0E3
:100F4000169FE001179FD00D1124842F81708F5FB1
:100F5000F901EE0FFF1FEE0FFF1FEC0FFD1FE35314
:100F6000FB4F8283569547952F5F3F4F23303105C6
:100F700061F79F5FDECF20E030E04CE052E18091EE
:100F80009606869586953817C8F5832F642F0E949C
:100F9000CA1D96959695E22FF0E0EB54FB4F6081C9
:100FA0006C7F62606083E1E0E20F589FD001112402
:100FB00064E0969FA00DB11D1124A353BB4F13965F
:100FC000EC93F0E08370EB54FB4F990F990F682F6F
:100FD000692B6083E2E0E20FF0E0EB54FB4F962FC9
:100FE00090629083E3E0E20FF0E0EB54FB4F8081EE
:100FF0008C7F826080833F5F2C5FC1CF80E001C027
:1010000081E0DF91CF911F9108952F923F924F92EF
:101010005F926F927F928F929F92AF92BF92CF9288
:10102000DF92EF92FF920F931F93CF93DF93CDB791
:10103000DEB727970FB6F894DEBF0FBECDBF1D8277
:101040001C82ACE06A2E712CB8E1EB2EF12C12E17F
:10105000912E0BEA402E84E0582E8C8190919306BD
:10106000913029F48C819D814496B7010AC09091FA
:101070009306923049F48C3048F48C819D81089617
:10108000B3010E94EA1D03C08C8101C08CE00E9464
:101090004F10882309F4BFC0EC81FD81EB54FB4F56
:1010A0002081022F0370023008F0B5C0822E869492
:1010B0008694882D8770882E10E090E06C01CC0C0F
:1010C000DD1CCC0CDD1C909EF001919EF00D1124D6
:1010D000D601AE0FBF1FA353BB4F12963C91129780
:1010E000332309F498C0229526952770E353FB4FCC
:1010F00031813F5F318312964C91129750E030E07E
:101100002F5F3F4F4217530729F420812D5F208323
:10111000218901C0208915962C93DC011196AA0F14
:10112000BB1FAA0FBB1F909EF001919EF00D1124D2
:10113000AE0FBF1FA353BB4F9CE79C938091B40499
:10114000811140C0E353FB4F81818530D8F18091FC
:10115000B304811105C0128216821286568632C0EF
:10116000A080A49CA12C1124A6942784312CA31424
:1011700001F1BB24B39480919606B816C0F40E9486
:101180008714622D8B2D0E948E1382E390E00E94C3
:10119000A2140E948714622D81E08B0D0E948E1391
:1011A00082E390E00E94A21424E0B20EE4CF3394D4
:1011B000DECF909EF001919EF00D1124E353FB4F82
:1011C00010821182909E5001919EB00C1124F60164
:1011D000EA0DFB1DE353FB4F1282F501E353FB4F76
:1011E0008685833080F4C684D12C0E948718817054
:1011F0008F5FF601EE0FFF1FEE0FFF1FEA0DFB1DC5
:10120000E353FB4F8283909EF001919EF00D1124D9
:10121000E353FB4F86868C819D8101969D838C8351
:10122000489709F01ACF8DE00E946514A12CB12CCB
:101230005CE0E52EF12C68E1C62ED12C92E19A9D5E
:1012400090019B9D300D1124F901E353FB4F8785DD
:101250008A8380E090E03901FC01EE0FFF1FEE0F62
:10126000FF1FE60DF71DE353FB4F228129835380B7
:101270001C012FEF221A320AD101AA0FBB1FAA0F9D
:10128000BB1FA60DB71DA353BB4F8C918B8345800D
:10129000052D10E088248394912C1F830E8399815F
:1012A000892F90E09D838C8329812821809193064A
:1012B000813039F4083111059CF4C8014496B60117
:1012C0000AC080919306823049F40C30110554F421
:1012D000C8010896B7010E94EA1D05C0802F03C00F
:1012E00088E101C08CE0622FA0D68C819D8188218D
:1012F0009921892B01F180919306813039F40831CD
:1013000011059CF4C8014496B6010AC08091930669
:10131000823049F40C30110554F4C8010896B70125
:101320000E94EA1D05C0802F03C088E101C08CE047
:101330006A810E948E132FEF821A920A0F5F1F4F4D
:1013400083E08816910409F0AFCF9B81992309F4BB
:1013500097C0F101EE0FFF1FEE0FFF1FE60DF71D07
:10136000E353FB4F808181508083809193068130CD
:1013700041F48E819F8189319105A4F44396B60191
:101380000BC080919306823051F48E819F818D3005
:10139000910554F40796B7010E94EA1D06C08FEF2D
:1013A000850D03C088E101C08CE0642D0E948E137E
:1013B00080919306813041F497E1951598F08E81E4
:1013C0009F814496B6010BC080919306823061F4F0
:1013D0002BE0251558F08E819F810896B7010E9459
:1013E000EA1D05C088E103C0852D01C08CE0642D95
:1013F0000E948E1380919306813041F48E819F81EB
:1014000087319105A4F44596B6010BC080919306EF
:10141000823051F48E819F818B30910554F409966E
:10142000B7010E94EA1D06C081E0850D03C088E176
:1014300001C08CE0642D0E948E1380919306813050
:1014400041F48E819F8186319105A4F44696B601C0
:101450000BC080919306823051F48E819F818A3037
:10146000910554F40A96B7010E94EA1D06C082E075
:10147000850D03C088E101C08CE0642D0E948E13AD
:10148000C1018330910509F0E7CE9FEFA91AB90A8F
:1014900022E0A216B10409F0D1CE6091DF04809160
:1014A000CD0427960FB6F894DEBF0FBECDBFDF91F7
:1014B000CF911F910F91FF90EF90DF90CF90BF9051
:1014C000AF909F908F907F906F905F904F903F90E4
:1014D0002F900C945F155F926F927F928F929F92E4
:1014E000AF92BF92CF92DF92EF92FF920F931F9332
:1014F000CF93DF93709096067694672C871508F447
:10150000682E6091DF048091CD040E945F15E12C6C
:10151000F12C04E110E0C8E0D0E0512C872C912C94
:1015200081E0881A91082CE0C22ED12C38E1A32E3C
:10153000B12C561409F450C02091CD04C701B40158
:101540000E94D61D822F90E068177907F8F4209149
:10155000DC0480919306813031F487E1851578F0C1
:10156000C801B50109C080919306823051F48BE027
:10157000851548F0CE01B6010E94EA1D05C088E13C
:1015800003C0852D01C08CE0622F1CC080919306A2
:10159000813031F487E1851578F0C801B50109C0C3
:1015A00080919306823051F48BE0851548F0CE018E
:1015B000B6010E94EA1D05C088E103C0852D01C067
:1015C0008CE06DE00E948E13539421960F5F1F4FA5
:1015D0008FE0E80EF11CADCF80919306813009F0C9
:1015E00065C0E12CF12C04E110E0C8E0D0E0512C02
:1015F000872C912C81E0881A91088CE0C82ED12C80
:1016000098E1A92EB12C561409F450C02091DF04A2
:10161000C701B4010E94D61D822F90E06817790798
:10162000F8F42091EE0480919306813031F487E143
:10163000851578F0C801B50109C080919306823004
:1016400051F48BE0851548F0CE01B6010E94EA1DE9
:1016500005C088E103C0852D01C08CE0622F1CC04D
:1016600080919306813031F487E1851578F0C801C7
:10167000B50109C080919306823051F48BE0851545
:1016800048F0CE01B6010E94EA1D05C088E103C002
:10169000852D01C08CE06DE00E948E13539421963D
:1016A0000F5F1F4F8FE0E80EF11CADCFDF91CF91A0
:1016B0001F910F91FF90EF90DF90CF90BF90AF9070
:1016C0009F908F907F906F905F900895CF93DF935E
:1016D000EB01DA01882329F0813051F484E292E0B1
:1016E00002C08CE292E09983888384E392E015C083
:1016F0006AE00E94CA1DE82FF0E0EE0FFF1FE053E2
:10170000FE4F2081318139832883E92FF0E0EE0FED
:10171000FF1FE053FE4F808191818D939C93DF9159
:10172000CF91089583E08093A006E091A306F09105
:10173000A40640E061E080E009948093F1041092F7
:1017400002051092F304E4E0F5E0A5EFB4E0119295
:101750001D9285E0E031F807D1F780E00895EF921F
:10176000FF920F931F93CF93DF93C0E011E0DCE76C
:101770000AE098E0F92E8C2F92D4882309F445C012
:10178000C43010F498E005C09CEF9C0F9C3038F0FA
:1017900090EF9C0F42EF54E0E1E0F5E004C041E03F
:1017A00055E0E2EFF4E03091F104892F90E032301F
:1017B00011F5DF01A80FB91F13962C91139722235F
:1017C000D1F021812F5F2183223039F0233041F085
:1017D000213081F4D083F2820EC0D08312820BC0FC
:1017E000D0830283118213961C92FA01E80FF91F2D
:1017F00013830BC01182E80FF91F1383315032306D
:1018000020F4FA01E80FF91F1382CF5FC83109F005
:10181000B2CF81E0E82E85E0F82E02EF14E0C0E0C0
:10182000C83010F4D0E101C0D8EFDC0F8091010581
:10183000882341F0815080930105609103058D2F2D
:101840006DD719C0F7018381882329F066E08D2FB9
:1018500065D761E00EC08091F104882331F0F80172
:101860008381882311F06EE001C06DE08D2F56D783
:1018700060E08D2FDAD3D4E0DC0F8091F20488236E
:1018800041F081508093F2046091F4048D2F46D78B
:1018900019C0F8018381882329F062E08D2F3ED79B
:1018A00061E00EC08091F104882331F0F70183815B
:1018B000882311F06FE001C06DE08D2F2FD760E01D
:1018C0008D2FB3D3CF5FFFEFEF1AFF0A0F5F1F4FCC
:1018D000CC3009F0A5CFDF91CF911F910F91FF90F0
:1018E000EF9008959091F204E4E0F5E060E080E08C
:1018F000219121118D5F91116D5F25E0E031F2079B
:10190000B9F70C945F15CF93DF93EB01DA018130C7
:1019100069F048F0823089F480EB92E09983888303
:1019200088EA92E01FC088E992E002C080E992E074
:101930009983888380EA92E015C06AE00E94CA1DFC
:10194000E82FF0E0EE0FFF1FE45CFD4F20813181B6
:1019500039832883E92FF0E0EE0FFF1FE45CFD4F91
:10196000808191818D939C93DF91CF9108953C98D4
:101970003D9822980C944617813061F038F08230FF
:1019800099F483B182FB882780F90BC086B18295D8
:10199000817007C096B1929596959770892781704E
:1019A000089591E08927089580E00895389A399A3A
:1019B000239A259A3A9A3B9A109258051092130549
:1019C0001092170581E080931405E5E1F5E08FE0C2
:1019D000808381830895CF93DF93643008F04AC0F9
:1019E00070E0FB01E454FD4F2081FB01E854FD4F02
:1019F00030815CEF531B30E0F901EB5EFA4F408120
:101A0000540F652FEFE1F0E0DF0102C0AA0FBB1F0A
:101A10005A95E2F7AD0140955095E0911705DC012C
:101A2000C9018E0F911D8E0F911D24E0880F991F03
:101A30002A95E1F7FC01E85EFA4FED012796208137
:101A4000318124233523318320838D91982F9F71F9
:101A5000892F90E0062E02C0880F991F0A94E2F7A2
:101A6000822B932B81939193AC17BD0741F781E0B3
:101A700080931405DF91CF9108958430E0F5282FED
:101A800030E0F901E454FD4F8081F901E854FD4F45
:101A900090814CEF491B90E0FC01EB5EFA4F2081F6
:101AA000420F2FE130E002C0220F331F4A95E2F7C8
:101AB0002095309540911705840F911D840F911D3D
:101AC00044E0880F991F4A95E1F7FC01E85EFA4F60
:101AD00047E080819181B901682B792B60957095E1
:101AE00082239323862B972B81939193415089F7DF
:101AF00081E0809314050895623008F042C0FC0133
:101B0000368547852091170570E0620F711D620FC1
:101B1000711D24E0660F771F2A95E1F73B3018F519
:101B2000FB01E85EFA4F36874787FC0180E090E0D2
:101B300040E150E0431B510921913191DC01A60F96
:101B4000B71FA85EBA4F042E02C0220F331F0A949B
:101B5000E2F72D933C9302968E30910569F781E070
:101B600080931405089580E090E0FB01E80FF91FD1
:101B7000E85EFA4F11821082029680319105A9F732
:101B8000EECF08958230E8F42091170590E0820F9F
:101B9000911D820F911D24E0880F991F2A95E1F76E
:101BA00020E030E0F901E80FF91FE85EFA4F1182FA
:101BB00010822E5F3F4F20313105A1F781E08093E5
:101BC000140508958230D8F42091170590E0820F13
:101BD000911D820F911D24E0880F991F2A95E1F72E
:101BE000FC01E85EFA4F87E0208131812095309535
:101BF000219331938150C1F781E0809314050895BA
:101C0000EF92FF920F931F93CF93DF93EC0162301B
:101C100008F071C08F818F70E0911705F0E070E0DF
:101C20009F01220F331FD901A60FB71F14E0AA0F7F
:101C3000BB1F1A95E1F7A85EBA4F1E969C914423EC
:101C400049F0992339F0A82FB0E0A90FB11D41E068
:101C50001A970CF040E0940F9B3020F081E08093C5
:101C6000140549C0D901A60FB71F24E0AA0FBB1F56
:101C70002A95E1F7A85EBA4F292F30E01F963C93D2
:101C80002E931E97A1E0B0E0082E02C0AA0FBB1F42
:101C90000A94E2F71197EE0FFF1FE60FF71F54E0CB
:101CA000EE0FFF1F5A95E1F7E85EFA4F8E01095FCC
:101CB0001F4F20E130E07901E81AF108608171815D
:101CC000042E02C0769567950A94E2F771836083CB
:101CD0009991292F30E02A233B230E2C02C0220F9A
:101CE000331F0A94E2F7262B372B21933193C01729
:101CF000D10721F7B3CFDF91CF911F910F91FF90C3
:101D0000EF9008950F931F93CF93DF938C01623070
:101D100008F071C0EC019F819F70E0911705F0E021
:101D200070E09F01220F331FD901A60FB71FC4E037
:101D3000AA0FBB1FCA95E1F7A85EBA4F1E968C91F9
:101D4000442351F0882341F0492F50E0480F511DA2
:101D5000C1E04A3051050CF0C0E0C80F892F8C0F4C
:101D60008B3020F081E08093140545C0D901A60F87
:101D7000B71F24E0AA0FBB1F2A95E1F7A85EBA4F50
:101D8000282F30E01F963C932E931E9741E050E0A1
:101D9000092E02C0440F551F0A94E2F74150510921
:101DA000D801EE0FFF1FE60FF71F64E0EE0FFF1FD5
:101DB0006A95E1F7E85EFA4FB801695F7F4F20E16D
:101DC00030E02C1B3109E901C91BD109CE012D914D
:101DD00030E024233523082E02C0220F331F0A943B
:101DE000E2F700811181202B312B219331936A1767
:101DF0007B0769F7B7CFDF91CF911F910F910895BE
:101E000080911405882329F181E00E9439188823E4
:101E100001F11092130581E080931705A8E1B5E068
:101E2000E8E2F5E090968D919C9191978D939D932A
:101E3000EA17FB07B9F788E395E020A131A12193C8
:101E400031938E179F07C9F71092140581E00C9407
:101E5000471808952D9A00000000000000000000BF
:101E600000000000000000002D98000000000000AD
:101E70000000000000000000000000000895603134
:101E800010F59091130550E0490F511D490F511D58
:101E9000FA0193E0EE0FFF1F9A95E1F7E80FF11DAD
:101EA000EE0FFF1FE85EFA4F81E090E002C0880F5E
:101EB000991F6A95E2F72081318182239323892B30
:101EC00011F02B9A01C02B98C5CF419A0000000059
:101ED0000000000000000000000000000000419829
:101EE00000000000000000000000000000000000F2
:101EF00000000895809159058F5F809359058830BF
:101F000020F010925905409A01C04098DECFCF933F
:101F100010925905C0E0C73011F4409A01C04098B2
:101F2000D4DFCF5FC830B9F7CF910895429A00004F
:101F300000000000000000000000000000000000A1
:101F400042980000000000000000000000000000B7
:101F5000000000000895EF92FF920F931F93CF931C
:101F6000DF9380915905873041F00CEB12E088EB4C
:101F7000E82E82E0F82ED6E02CC080915805882308
:101F800051F1DF91CF911F910F91FF90EF90CECF44
:101F90002B9860DFC150E1F7F8014381E42FF0E0B6
:101FA000EB5EFA4F6081F7018381681B6C0F8091B3
:101FB0005905FD2FF81B8F2F62DFC150CB3F61F712
:101FC0000150110981E0E81AF10892E0083B190775
:101FD000C1F2C3E0DDCFDF91CF911F910F91FF9050
:101FE000EF900895CF93DF93EC01209741F082DFCB
:101FF000B2DF81E090E00E946A192197F6CFDF916D
:10200000CF91089577DFA7CF883170F49BE0899F47
:10201000F0011124E657FA4F6083418322838091B7
:10202000920684608093920608959091960689178F
:10203000A8F4E0919606F0E0E81BF109319791E0F1
:10204000611101C090E0E65AFA4F808190FB81F95E
:10205000808380919206806180939206089580E04B
:1020600090E0FC01EE58FA4F20812B7F20830196EF
:1020700088319105B1F7089580E090E0FC01EE58B9
:10208000FA4F20812E7F208320812D7F2083208185
:10209000286F208301968831910581F7E0CF883140
:1020A00060F4E82FF0E0EE58FA4F808190819B7F3A
:1020B000908382FB882780F9089580E00895599ADB
:1020C000F89480E090E06BE020E030E0689FA001B1
:1020D000699F500D112446575A4F7091C00075FDED
:1020E00002C00000FACFFA01E20FF31F7381709370
:1020F000C6002F5F3F4F2830310579F701968831B0
:10210000910511F7789408958091920684FF2DC06F
:1021100080E1AFD7882349F180E090E0FC01E65AE6
:10212000FA4F208126952170308120FB30F93083D1
:10213000FC01EE58FA4F208126952170308132FB48
:10214000332730F9232B308120FB32F93083208173
:102150002D7F208301968831910501F780919206A9
:102160008F7E8093920680E192D78091920682FFC3
:1021700044C184E07ED7811101C0089580E090E0E1
:102180002BE062E140E050E0289FF001299FF00D34
:102190001124E657FA4FDF01A40FB51F13966C9375
:1021A0004F5F5F4F48305105B1F7318137FD03C0B4
:1021B00043814160438336FD0AC0289FF001299F77
:1021C000F00D1124E657FA4F43814860438335FDF3
:1021D0000AC0289FF001299FF00D1124E657FA4FFD
:1021E00043814064438334FD0AC0289FF001299F46
:1021F000F00D1124E657FA4F44814160448333FDCA
:102200000AC0289FF001299FF00D1124E657FA4FCC
:1022100044814860448332FD0AC0289FF001299F11
:10222000F00D1124E657FA4F44814064448331FD98
:102230000AC0289FF001299FF00D1124E657FA4F9C
:1022400045814160458330FD0AC0289FF001299FE8
:10225000F00D1124E657FA4F358138603583289FF9
:10226000F001299FF00D1124E657FA4F308137FD18
:1022700003C045814064458336FD0AC0289FF001B4
:10228000299FF00D1124E657FA4F4681416046839D
:1022900035FD0AC0289FF001299FF00D1124E65753
:1022A000FA4F46814860468334FD0AC0289FF001FA
:1022B000299FF00D1124E657FA4F4681406446836A
:1022C00033FD0AC0289FF001299FF00D1124E65725
:1022D000FA4F47814160478332FD0AC0289FF001D1
:1022E000299FF00D1124E657FA4F47814860478334
:1022F00031FD0AC0289FF001299FF00D1124E657F7
:10230000FA4F47814064478330FD0AC0289FF0019F
:10231000299FF00D1124E657FA4F30853160308740
:10232000289FF001299FF00D1124E657FA4F3281C2
:1023300037FD03C040854860408736FD0AC0289FAE
:10234000F001299FF00D1124E657FA4F40854064B3
:10235000408735FD0AC0289FF001299FF00D112408
:10236000E657FA4F41854160418734FD0AC0289FF6
:10237000F001299FF00D1124E657FA4F418548607E
:10238000418733FD0AC0289FF001299FF00D1124D9
:10239000E657FA4F41854064418732FD0AC0289FC5
:1023A000F001299FF00D1124E657FA4F4285416054
:1023B000428731FD0AC0289FF001299FF00D1124AA
:1023C000E657FA4F42854860428730FD0AC0289F91
:1023D000F001299FF00D1124E657FA4F3285306441
:1023E000328701968831910509F0CCCE8091920612
:1023F0008B7F8093920684E04AC608955E9A00001F
:1024000000000000000000000000000000000000CC
:102410005E980000000000000000000000000000C6
:10242000000000000895CF93DF9328985B9A81E025
:1024300090E061D7D0EF289AC9B15B98DFDFD15027
:10244000D1F7C2FBCC27C0F981E08C271092960609
:10245000C1E081110BC02898D1DF809196068F5F73
:102460008093960680919606893130F08091960689
:10247000883149F481E00CC089B182FB882780F95A
:102480008C275B98E6CF809196068C3021F482E011
:102490008093930602C0109293068091960689312C
:1024A00018F088E180939606DF91CF9108955298B5
:1024B000539A5B98549A5C98579A5F98559A5D988E
:1024C000569A5E98519A599A5098209A289882E480
:1024D0008093C00088E08093C10084E08093C200B4
:1024E0001092C5001092C400519A82E184BD82E02E
:1024F00085BD80E287BD0BD223D2BEDD789493DF09
:1025000085E18093920608955F9A00000000000024
:102510000000000000000000000000005F980000C4
:1025200000000000000000000000000000000000AB
:102530000895CF93DF9328985B9A81E090E0DBD6F3
:1025400080911005882311F0815001C088E08093AC
:102550001005C0E0D0E0FE01E65AFA4F808180FF0E
:1025600002C05C9A01C05C9849DF99B181E0292FD3
:10257000247092FD80E05B98FE01EE58FA4F908146
:1025800091708917B1F0908180FB90F990838081E0
:10259000869586958695F1F48081222311F0886FC7
:1025A00018C0826080838091920680618093920639
:1025B00011C08091100581110DC08081869586958E
:1025C000869541F08081887F98EF980F8081877091
:1025D000892B80832196C831D10509F0BCCFDF91CA
:1025E000CF9192CF1092580560E080EC92E084DAAF
:1025F00061E080ED92E080DA84E167C1B8D957DF0D
:10260000D5D94AD080E0E1D5C2D1ECCF882319F0EA
:10261000813031F0089507DF8091960668E14FC25E
:10262000CDD46C307E4F8F4F9F4F40F0809112057C
:102630008F5F6CE00E94CA1D9093120568D1E091F3
:102640001205F0E0E951FD4F60818091110566D0DF
:1026500077D161E080911105E8DC809111051FDDE3
:10266000882329F0809111058F5F8093110581E007
:102670002FD4882329F0809111058F5F8093110555
:1026800082E026D4882339F080911105882319F03F
:1026900081508093110508951092B60082E08093D6
:1026A000B00095E09093B1001092B2009CE9909335
:1026B000B3008093700087BB73C41F920F920FB654
:1026C0000F9211242F933F934F935F936F937F93B8
:1026D0008F939F93AF93BF93CF93DF93EF93FF932A
:1026E000C0E7D0E088818D7F88837894D6D4F89431
:1026F000888182608883FF91EF91DF91CF91BF91B4
:10270000AF919F918F917F916F915F914F913F9189
:102710002F910F900FBE0F901F9018957F928F9260
:102720009F92AF92BF92CF92DF92EF92FF920F9360
:102730001F93CF93DF93382FE62FC82FD0E00CE004
:1027400010E0CE01B8010E94EA1D282FCE010196AB
:10275000B8010E94EA1D782ECE010B96B8010E94A6
:10276000EA1D482FCE010A96B8010E94EA1DF82EF4
:10277000CE010996B8010E94EA1DE82ECE01089606
:10278000B8010E94EA1DD82ECE010796B8010E941A
:10279000EA1DC82ECE010696B8010E94EA1DB82E89
:1027A000CE010596B8010E94EA1DA82ECE0104961E
:1027B000B8010E94EA1D982ECE010396B8010E942E
:1027C000EA1D882ECE010296B8010E94EA1D582FFC
:1027D000383108F06CC08E2F90E08032910508F0FF
:1027E00066C0FC01E55CFF4F0C941F1EE42FF0CF88
:1027F000EF2DEECF2FEF19C02FEF40E00EC02FEFDF
:1028000019C02FEF4EE12BC02FEF01C02EE14FEF8B
:1028100026C020E0FCCF20E04FEF6EE125C020E095
:102820000CC020E04EE10AC020E040E007C02EE1ED
:10283000FCCF20E040E013C02FEF4FEF6FEF14C04C
:1028400022E34AE002C02AE042E36AE00DC02AE047
:102850004AE062E309C024E6EDCF20E044E660E010
:1028600003C020E040E064E6832FDF91CF911F9109
:102870000F91FF90EF90DF90CF90BF90AF909F901F
:102880008F907F90C1CBEE2DA3CFED2DA1CFEC2D5E
:102890009FCFEB2D9DCFEA2D9BCFE92D99CFE82D32
:1028A00097CFE52F95CFE72D93CFE22F91CFDF91F3
:1028B000CF911F910F91FF90EF90DF90CF90BF903D
:1028C000AF909F908F907F900895CF93DF93D82FF4
:1028D000C0E06D2F8C2F22DFCF5FC831D1F7DF91A1
:1028E000CF9108950F931F93CF93DF93D82F162F77
:1028F000042FC0E0202F412F6D2F8C2F85DBCF5F61
:10290000C831C1F7DF91CF911F910F910895CF93F7
:10291000C0E020E040E060E08C2F76DBCF5FC83184
:10292000C1F7CF910895CF93DF93D82FC0E06D2FDB
:102930008C2F7BDBCF5FC831D1F7DF91CF9108952A
:1029400080E0F1CF8F929F92AF92BF92CF92DF92B1
:10295000EF92FF926C0132D34B015C01E12CF12C20
:102960004FDAD2DB2BD3DC01CB0188199909AA09F4
:10297000BB098C159D05AE05BF0590F3FF90EF9048
:10298000DF90CF90BF90AF909F908F90089580E0A0
:1029900090E0D8CFCF92DF92EF92FF920F931F93E8
:1029A000CF93DF938C01D62F662321F081E08093B3
:1029B000580502C010925805C8016AE070E00E94F4
:1029C000D61D7B016C01FC01EE0FFF1FED50FD4F8A
:1029D00063E0808191810E94EB0CCC2011F0C8E073
:1029E00001C0C0E0C701DD2349F066E070E00E944D
:1029F000D61DD82FC8016CE370E008C06AE070E013
:102A00000E94D61DD82FC80164E670E00E94D61D32
:102A10008B01ED2FF0E0EE0FFF1FED50FD4F62E058
:102A2000808191810E94EB0CD111C460C8016AE0E1
:102A300070E00E94D61D7B018C01FC01EE0FFF1F90
:102A4000ED50FD4F61E0808191810E94EB0C0111FE
:102A5000C260C7016AE070E00E94D61D8C01FC01D3
:102A6000EE0FFF1FED50FD4F60E0808191810E94CD
:102A7000EB0C01111BC060E087EB93E00E94EB0CB4
:102A8000C1FD14C061E087EB93E00E94EB0CC2FD36
:102A90000DC062E087EB93E0DF91CF911F910F9122
:102AA000FF90EF90DF90CF900C94EB0CDF91CF91E3
:102AB0001F910F91FF90EF90DF90CF900895CF93EB
:102AC000DF93D62F91E090935805843648F060E06C
:102AD0008FE593E00E94EB0C61E08FE593E018C076
:102AE0006AE00E94CA1DC92FE82FF0E0EE0FFF1F19
:102AF000ED50FD4F60E0808191810E94EB0CEC2F46
:102B0000F0E0EE0FFF1FED50FD4F61E080819181FD
:102B10000E94EB0CD43648F062E08FE593E00E940F
:102B2000EB0C63E08FE593E019C08D2F6AE00E9403
:102B3000CA1DC92FE82FF0E0EE0FFF1FED50FD4F2B
:102B400062E0808191810E94EB0CEC2FF0E0EE0FAF
:102B5000FF1FED50FD4F63E080819181DF91CF91A8
:102B60000C94EB0CCF93C82F1092580560E087EBC4
:102B700093E00E94EB0C61E087EB93E00E94EB0C8A
:102B8000C43648F062E08FE593E00E94EB0C63E00E
:102B90008FE593E018C08C2F6AE0FCD7C92FE82F8F
:102BA000F0E0EE0FFF1FED50FD4F62E0808191815C
:102BB0000E94EB0CEC2FF0E0EE0FFF1FED50FD4FED
:102BC00063E080819181CF910C94EB0C0F931F9364
:102BD000CF93DF93CDB7DEB728970FB6F894DEBF5B
:102BE0000FBECDBF162F10925805813069F138F015
:102BF000823009F45EC0833009F49FC000C180E0D8
:102C000067FD09C00E94C20D41E060E087E993E0E2
:102C100079D841E024C00E94C20D41E060E087E91C
:102C200093E070D841E060E08FEA93E06BD881E0F8
:102C30000E94C20D41E061E087E893E063D841E083
:102C400061E08FE993E005C180E067FD26C00E9446
:102C5000C20D40E060E08FE693E054D840E060E0D1
:102C600087E893E04FD881E00E94C20D8091A006D2
:102C700090E0212F012E000C330B2817390759F54E
:102C80009E01295F3F4FAE014B5F5F4FBE016D5FFD
:102C90007F4FCE0101968DD2D2C00E94C20D41E07D
:102CA00060E08FE693E02ED841E060E08FE993E0AA
:102CB00034C080E067FD25C00E94C20D41E060E0A5
:102CC0008FE893E01FD841E060E087E993E01AD8ED
:102CD00081E00E94C20DE091A706F091A806AE0126
:102CE0004D5F5F4FBE016F5F7F4F812F099541E0C0
:102CF00061E089819A8106D841E061E08B819C8105
:102D0000A8C00E94C20D41E060E08FE893E00E94FD
:102D1000820E41E060E08FEA93E00E94820E81E043
:102D20000E94C20D41E061E087E793E00E94820EBD
:102D300041E061E08FE693E08CC0662301F16130F1
:102D400009F040C080E00E94C20D41E060E087E7EA
:102D500093E00E94820E41E060E087E893E00E94E9
:102D6000820E81E00E94C20D41E061E08FE693E0B7
:102D70000E94820E41E061E087E893E06AC080E053
:102D80000E94C20D41E060E087E793E00E94820E5E
:102D900041E060E087E893E00E94820E81E00E94BB
:102DA000C20D41E061E08FE793E00E94820E40E0B7
:102DB00061E087E693E00E94820E40E061E087E5F3
:102DC00093E047C080E00E94C20D41E060E087E7E9
:102DD00093E00E94820E41E060E087EA93E00E9467
:102DE000820E81E00E94C20D41E061E08FEA93E033
:102DF0000E94820E41E061E08FE793E02AC08E01DD
:102E0000095F1F4F9E012B5F3F4FAE014D5F5F4F2C
:102E1000BE016F5F7F4F835082D180E00E94C20D60
:102E200041E060E089819A810E94820E41E060E089
:102E30008B819C810E94820E81E00E94C20D41E044
:102E400061E08D819E810E94820E41E061E08F8170
:102E500098850E94820E28960FB6F894DEBF0FBEAA
:102E6000CDBFDF91CF911F910F910895E8E9F6E072
:102E700080818D7F8083E9E9F6E080818D7F80838A
:102E8000EAE9F6E080818D7F80830895E8E9F6E045
:102E900080818E7F808380818C6F808380818D7F15
:102EA0008083E9E9F6E080818E7F808380818C6F6A
:102EB000808380818D7F8083EAE9F6E080818E7F48
:102EC000808380818C6F808380818D7F8083CECF53
:102ED0008150833058F4E82FF0E0E856F94F8081B4
:102EE00090819D7F908386958170089580E00895FC
:102EF00081508330B0F4E82FF0E0E856F94F80813C
:102F000081FF06C080818095282F217030E002C0AB
:102F100020E030E0232B29F080818D7F808381E0C9
:102F2000089580E008958150833038F4E82FF0E070
:102F3000E856F94F80818170089580E00895CF931D
:102F4000DF93C0E0D0E08C2F0E94BC0CFE01E8565D
:102F5000F94F90819170891781F0908180FB90F9F1
:102F60009083908196959695A1F4811103C08081FC
:102F70008C6F0EC0808182600BC0808186958695A3
:102F800041F080818C7F9CEF980F80818370892B2A
:102F900080832196C330D105B1F6DF91CF9108959A
:102FA0008FB7F89410929B0610929C0610929D0683
:102FB00010929E0610929F068FBF08952FB7F89427
:102FC00060919B0670919C0680919D0690919E0653
:102FD0002FBF08958F929F92AF92BF92CF92DF92B0
:102FE000EF92FF926C01EADF4B015C01E12CF12CC6
:102FF000E5DFDC01CB0188199909AA09BB098C1509
:103000009D05AE05BF0510F47894F2CFFF90EF90C8
:10301000DF90CF90BF90AF909F908F90089520E861
:103020003EEE46E350E0E9D5822F089520E63AEEE1
:1030300040E050E0E2D5CA01B9012CE330E040E0C5
:1030400050E0DBD5862F089528EE33E040E050E0D5
:10305000D4D5CA01B9012CE330E040E050E0CDD531
:10306000862F089528EE33E040E050E0C6D5CB012E
:10307000089590919F0697FD08C090919F068095B6
:10308000892380939F0681E0089580E008959091C0
:103090009F06892B80939F06089580919B069091AF
:1030A0009C06A0919D06B0919E060196A11DB11DA2
:1030B00080939B0690939C06A0939D06B0939E06DA
:1030C00080919F06806880939F0680919F0680FD77
:1030D0000E94021080919F0682FD0E945F108091E5
:1030E0009F0684FF02C025DA2ADF80919F068F7732
:1030F00080939F0608951092800081E08093810064
:10310000109285001092840010926F0008952FB7DE
:10311000F89480918400909185002FBF0895EF92DC
:10312000FF920F931F93CF93DF93EB017A018111ED
:1031300001C084E0E82FF0E0EE0FFF1FE454FC4FE5
:103140008081918168EE73E031D5660F771FFB01B6
:10315000EA53FC4F408151815983488364E670E013
:1031600025D5660F771FFB01EA53FC4F4081518143
:10317000F701518340836AE070E018D5660F771F2E
:10318000FB01EA53FC4F40815181F9015183408397
:10319000FC01EE0FFF1FEA53FC4F80819181F80183
:1031A00091838083DF91CF911F910F91FF90EF90DA
:1031B00008950F931F9389019A01AB01BC0180917F
:1031C000A906ADDF1F910F9108958093A90688236A
:1031D00009F45DC0823029F1F0F4813009F075C046
:1031E00082E99BE09093A6068093A5068DE99BE07B
:1031F0009093A4068093A3068FEA9BE09093AB067E
:103200008093AA0682E79CE09093A2068093A10691
:1032100083E89CE056C08330F9F0843009F055C053
:1032200036C08BE292E09093A6068093A50686EACC
:1032300092E09093A4068093A3068CED92E0909385
:10324000AB068093AA0689E996E09093A206809344
:10325000A10680E297E035C08AE397E09093A60646
:103260008093A50687E497E09093A4068093A30635
:1032700085E098E09093AB068093AA068BE69AE0EF
:103280009093A2068093A10686E69BE01AC087ED84
:1032900090E09093A6068093A50684EE90E090932C
:1032A000A4068093A30687E091E09093AB068093F9
:1032B000AA0686E791E09093A2068093A10688E093
:1032C00092E09093A8068093A706E091A506F0915E
:1032D000A6060994009759F024EC39E0000000009C
:1032E0000000000021503109C9F70197F3CF08957C
:1032F0008A95F1F7089531E4009729F0232F2A9554
:10330000F1F70197F9CF0895CF93DF93EC0169E0CE
:1033100071E00FD16DEF70E0CE010BD16AEF70E07C
:10332000CE01DF91CF9105C1CF93DF93EC0160ED2A
:1033300070E0FFD04FE068EC70E0CE0116D165EC94
:1033400070E0CE01F6D06CEB70E0CE01F2D069EB0C
:1033500070E0CE01EED066EB70E0CE01DF91CF9150
:10336000E8C0DF92EF92FF920F931F93CF93DF930A
:1033700000D000D01F92CDB7DEB77C01CB01042F67
:10338000413208F000E210E02AE030E0DD24D3947E
:10339000D10EE1E0F0E0EC0FFD1FE10FF11DB901EE
:1033A00005D4805D8083CB01009711F01D2DEECFF9
:1033B000D01628F480E2F70109950150F9CF1F3F9C
:1033C00059F0E1E0F0E0EC0FFD1FE10FF11D80810D
:1033D000F70109951150F3CF0F900F900F900F90B8
:1033E0000F90DF91CF911F910F91FF90EF90DF90A1
:1033F0000895EF92FF920F931F93CF937C018B015F
:10340000C42F77FF0DC01195019511098DE2F701C9
:103410000995C13218F4CC2319F001C0C0E2C150A3
:103420004C2FB801C701CF911F910F91FF90EF90E2
:1034300098CFEF92FF920F931F93CF938C017B0154
:10344000C42F47FF07C0C19580E3F801099588E7BD
:10345000F8010995C53054F484E090E08C1B910983
:10346000C7FD9395C82FCC0FCC0F01C0C0E00C2E28
:1034700002C0EE0CFF1C0A94E2F7C0318CF48F2DD1
:1034800082958F708A3010F4805D01C0895CF801EC
:10349000099584E0EE0CFF1C8A95E1F7CC5FEDCF37
:1034A000CF911F910F91FF90EF900895EF92FF92AF
:1034B0000F931F93CF93DF937C018B01D42F47FF92
:1034C00007C0D19580E3F701099582E6F7010995D8
:1034D000D1311CF4C0E1CD1B01C0C0E00C2E02C0F4
:1034E000000F111F0A94E2F7C0315CF417FF02C00D
:1034F00081E301C080E3F7010995000F111FCF5F41
:10350000F3CFDF91CF911F910F91FF90EF9008952E
:103510000F931F93CF93DF938C01EB018991882345
:1035200019F0F8010995FACFDF91CF911F910F9112
:1035300008950F931F93CF93DF938C01FB01849128
:10354000EB012196882321F0F8010995BE01F6CF01
:10355000DF91CF911F910F910895662319F06CE6CA
:1035600071E002C066E671E0E4CFEF92FF920F9344
:103570001F93CF93DF937C01CFEFC40FFB01CF3FAD
:1035800099F084918F010F5F1F4FDFEFDC0F8111E6
:1035900006C0C15048F080E2F7010995FACFF70163
:1035A0000995F801CD2FEBCFDF91CF911F910F91AE
:1035B000FF90EF900895CF93DF93EC016CE571E0FD
:1035C000B8DF60E571E0CE01B4DF6DE471E0CE01FB
:1035D000DF91CF91AECFCF93DF93EC0161E271E049
:1035E000A8DF65E171E0CE01A4DF62E171E0CE0108
:1035F000DF91CF919ECFCF93DF93CDB7DEB76897A2
:103600000FB6F894DEBF0FBECDBF0E94FE129091A0
:10361000A0069F5FFE01319680E021E032E082301B
:1036200020F0833021F43C8303C0908301C02083C9
:103630008F5F3196883099F7C1DC6B017C012B01DB
:103640003C016D877E878F87988B69877A878B8708
:103650009C87312C21E02A8B1C8A1B8A212C198AF9
:1036600000E0812C912C540110E0133018F015303B
:1036700049F18BC0332019F08AE027D986C08D85A7
:103680009E85AF85B8898C509E4FAF4FBF4F8C152C
:103690009D05AE05BF0550F08D859E85AF85B88927
:1036A000C816D906EA06FB0608F06FC081E0820D55
:1036B0006CE070D2292EE92FF0E0E951FD4F8081B6
:1036C00004D95FC09B89A92FB0E01196409196065E
:1036D00020E137E2BAD2242F30E040E050E08DD232
:1036E0002D8B3E8B4F8B588FD701C60129853A858C
:1036F0004B855C85821B930BA40BB50B2D893E89F2
:103700004F89588D281739074A075B0708F03DC0D5
:1037100081E0820D3B893F5F3B8B6CE03BD2292EE1
:10372000E92FF0E0E951FD4F8081CFD81D861E863C
:103730001F86188A9B89892F90E0A0E0B0E08D8BCE
:103740009E8BAF8BB88F8D859E85AF85B8892D896F
:103750003E894F89588D82179307A407B50788F4CF
:103760006DE08D850E948E132D853E854F8558898D
:103770002F5F3F4F4F4F5F4F2D873E874F87588BAF
:10378000E2CFCD86DE86EF86F88A18DC6B017C01FD
:1037900083E0AEDB882309F441C0173038F41530DC
:1037A00060F5113081F01230F1F043C0173009F0AC
:1037B00040C081E0B8DB882309F457C182E0B3DB65
:1037C000811137C052C1E1E0F0E0EC0FFD1FE00FC6
:1037D000F11D8081823008F03DC0812C912C540174
:1037E000813039F571C081E09EDB882309F46CC01B
:1037F00082E099DB81111DC067C081E094DB8111FB
:1038000007C081E03C89311180E08C8B312C06C0EF
:1038100082E089DB8823A9F31A8A27C1812F90E0EF
:10382000FC013197E730F10508F052C1EC5CFF4F25
:1038300006C2312C81E04CDB882311F00F5F07704A
:1038400082E046DB882309F442C1002309F43BC12E
:1038500001503DC1312C812C912C540181E038DB89
:10386000882399F0C501B4016F5F7F4F8F4F9F4F41
:10387000E1E0F0E0EC0FFD1FE00FF11D208130E0F2
:1038800040E050E0BAD14B015C0182E021DB8823AB
:1038900009F41BC181149104A104B10479F4E1E09D
:1038A000F0E0EC0FFD1FE00FF11D608170E0615052
:1038B00071094B01770FAA08BB0807C141E0841AC0
:1038C0009108A108B10801C1312C0230B8F48091EF
:1038D000A00690E0A0E0B0E088169906AA06BB0614
:1038E000C8F4E091A306F091A40640E001114DC197
:1038F00060E0882D0995382E0E943C10013071F04F
:1039000088F00230A1F10330C1F4882D0E94061323
:1039100013E02FC0013021F43324339414E029C084
:10392000332433943DDB4ADB6B017C0169877A8762
:103930008B879C871B8A15E01CC08DEF800F45DCB0
:103940009091A0069F5FFE01319680E0823028F0C2
:10395000833029F452E05C8304C0908302C0A1E06C
:10396000A0838F5F3196883089F711E002C01A8AF0
:1039700017E0332009F4ACC0E1E0F0E0EC0FFD1FEC
:10398000E00FF11D8081823008F09FC0813009F086
:103990009FC09DC089859A85AB85BC85805F984D09
:1039A000AF4FBF4F8C159D05AE05BF0540F40E947B
:1039B0003C10C986DA86EB86FC8616E089C0BC011D
:1039C000CD016C197D098E099F092AE030E040E0A5
:1039D00050E013D160E0C9010E94CA1479C0E0919F
:1039E000AA06F091AB06099529853A854B855C8539
:1039F000205E30444D4F5F4F2D8B3E8B4F8B588F49
:103A000089859A85AB85BC8588579B47AD4FBF4F4D
:103A10008C159D05AE05BF0518F03C89311112C00B
:103A20006D897E898F89988D6C197D098E099F0912
:103A300028EE33E040E050E0E0D061E0C9010E94B0
:103A4000CA141C8A8D899E89AF89B88D8C159D05F5
:103A5000AE05BF05E8F50E94F2121A8A32C0E09165
:103A6000AA06F091AB06099533C0312C89859A8559
:103A7000AB85BC858854944FAF4FBF4F8C159D05C7
:103A8000AE05BF0540F49A899F5F9A8BC986DA8696
:103A9000EB86FC8616C0C701B60129853A854B85A1
:103AA0005C85621B730B840B950B24E630E040E0D1
:103AB00050E0A3D0822FE091A106F091A2066A897E
:103AC000099517E005C007E002C012E001C011E04F
:103AD0003989313069F5D301C2018C559E4FAF4F02
:103AE000BF4F8C159D05AE05BF0530F0C414D5043D
:103AF000E604F70408F046C0113019F0123059F00E
:103B000046C060E080EE92E00E94EB0C61E080EE47
:103B100092E00E94EB0C62E080EE92E00E94EB0CDF
:103B200063E080EE92E00E94EB0C2601370103C0B7
:103B30004989411127C0D301C20188539F4FAF4F1C
:103B4000BF4F8C159D05AE05BF0528F0C414D504E4
:103B5000E604F704B0F4113051F0123081F4682D0E
:103B6000802F34D82601370181E0898B0BC06FEF9D
:103B7000802F2CD82601370151E0598B03C0260134
:103B80003701198A0E94C71470CD61E0B2CE2601B8
:103B90003701F8CF991B79E004C0991F961708F0F8
:103BA000961B881F7A95C9F780950895AA1BBB1BA1
:103BB00051E107C0AA1FBB1FA617B70710F0A61B2D
:103BC000B70B881F991F5A95A9F780959095BC014E
:103BD000CD01089597FB072E16F4009406D077FDCB
:103BE00008D0E4DF07FC05D03EF4909581959F4F07
:103BF0000895709561957F4F0895A1E21A2EAA1B32
:103C0000BB1BFD010DC0AA1FBB1FEE1FFF1FA2178C
:103C1000B307E407F50720F0A21BB30BE40BF50B89
:103C2000661F771F881F991F1A9469F76095709512
:103C3000809590959B01AC01BD01CF010895EE0FD9
:103C4000FF1F0590F491E02D099405D0B7FF08956A
:103C5000821B930B0895A29FB001B39FC001A39F45
:103C6000700D811D1124911DB29F700D811D1124B5
:083C7000911D0895F894FFCFA7
:103C780014015C0154014C0144013C0134012C0144
:103C880024011C010609090909090674060909071E
:103C98000101067406090906090906740F010204E0
:103CA800040404740608080E090906740F080E01B6
:103CB8000109067402040A0F0202027406090106C9
:103CC800010906740609010204080F7402060A02B3
:103CD800020202740E09090E080808748001C8015E
:103CE800C001B801B001A801A001980190018801A4
:103CF8000609090909090674060909070101067474
:103D080006090906090906740F010204040404746B
:103D18000608080E090906740F080E010109067441
:103D280002040A0F02020274060901060109067458
:103D38000609010204080F7402060A02020202744C
:103D4800E4012C0224021C0214020C020402FC01ED
:103D5800F401EC01060909090909067406090907AD
:103D68000101067406090906090906740F0102040F
:103D7800040404740608080E090906740F080E01E5
:103D88000109067402040A0F0202027406090106F8
:103D9800010906740609010204080F7402060A02E2
:103DA800020202740E09090E0808087450029802EB
:103DB800900288028002780270026802600258024B
:103DC80006090909090906740609090701010674A3
:103DD80006090906090906740F010204040404749B
:103DE8000608080E090906740F080E010109067471
:103DF80002040A0F02020274060901060109067488
:103E08000609010204080F7402060A02020202747B
:103E18000E09090E08080874111B1F1511111175D8
:103E28000909090F090909740005000500000101C5
:103E3800B5024A01B40078003000780048000A074B
:103E48007800FE01FF03CD023102860178000A07DF
:103E5800000000000000001415161718191A1B1C82
:103E68001D1E1F07034F0347033F0337032F032775
:103E7800031F0317030F0306090909090906740636
:103E88000909070101067406090906090906740FDC
:103E9800010204040404740608080E090906740FD4
:103EA800080E010109067402040A0F0202027406D0
:103EB800090106010906740609010204080F7402C3
:103EC800060A0202020274000000000000017106E6
:103ED800090102020002740000000B040404741FAC
:103EE800150404040404750609080601090674117A
:103EF800191D1713111175111B1F151111117508B3
:103F080008080808080F74070908080B0907740F40
:103F180008080F08080F7407080808080807740637
:103F280009090F0909097400000000000000E207F0
:103F3800E307E407E607DA0322041A0412040A0472
:103F48000204FA03F203EA03E2030609090909096C
:103F58000674060909070101067406090906090914
:103F680006740F010204040404740608080E090903
:103F780006740F080E010109067402040A0F0202F2
:103F880002740609010601090674060901020408FB
:0A3F98000F7402060A02020202740E
:00000001FF
