:100000009CC00000B7C00000B5C00000B3C0000035
:10001000B1C00000AFC00000ADC00000ABC0000028
:10002000A9C00000A7C00000F1C60000A3C00000E6
:10003000A1C000009FC000009DC000009BC0000048
:1000400099C0000097C0000095C0000093C0000058
:1000500091C000008FC000008DC000008BC0000068
:1000600089C0000087C00000F404F604F804FA0414
:10007000FC04FF04020506050A050C050F050D0A20
:10008000000D0A003230303030303030003A20007D
:100090002020465F43505500726F626F6C69622F7B
:1000A00064656C61792F64656C61792E63203237E9
:1000B0002E30392E323031352056312E302E300D43
:1000C0000A000D0A0020205B656D7074795D0D0AD1
:1000D0000064656C61793A0D0A000D0A0020205B0E
:1000E000656D7074795D0D0A00726F626F6C696284
:1000F0002F737472696E672F737472696E672E63E3
:100100002030352E31302E323031352056312E31DF
:100110002E300D0A000D0A0020205B656D70747989
:100120005D0D0A00737472696E673A0D0A006661AC
:100130006C73650074727565000011241FBECFEFEB
:10014000D8E0DEBFCDBF11E0A0E0B1E0EEE0F4E129
:1001500002C005900D92A239B107D9F723E0A2E9B8
:10016000B1E001C01D92AE30B207E1F70E94D308A2
:100170000C94050A45CFE9E9F1E080818D7F808309
:10018000EAE9F1E080818D7F8083EBE9F1E0808115
:100190008D7F80830895E9E9F1E080818E7F8083FF
:1001A0008081837084668083EAE9F1E080818E7FBC
:1001B00080838081837084668083EBE9F1E08081B5
:1001C0008E7F80838081837084668083D4CF519AB0
:1001D000549A599A5C983C983D982298DCCF81506B
:1001E000833058F4E82FF0E0E756FE4F808190818D
:1001F0009D7F908386958170089580E0089520E02A
:1002000030E041E0222339F0213049F486B185FB0A
:10021000882780F908C086B18295817004C083B1B7
:1002200082FB882780F98427F901E756FE4F9081E9
:100230009170891789F0908180FB90F990838111EA
:1002400004C080818370846612C080818695869503
:1002500079F4808182600BC080818695869541F01B
:1002600080818C7F9CEF980F80818370892B8083A5
:100270002F5F3F4F2330310529F60895389A399A78
:10028000239A259A3A9A3B9A1092B10108956330C5
:10029000B0F4FC0129EF2603B001112480E090E0C6
:1002A0002191DC01A60FB71FA456BE4F220F220FCB
:1002B000220F1E962C9301968730910589F7089599
:1002C000CF93DF93C82FD0E0282F39EF3203C0013E
:1002D000112442E0242F042E000C330B2C173D0771
:1002E000E4F027E04202B0011124DB01A80FB91F9E
:1002F00020E030E0F901EA0FFB1FE456FE4F508189
:10030000F901E60FF71FE456FE4F50832F5F3F4F72
:100310002730310579F74150DDCFDF91CF91089536
:10032000282F39EF3203D00111248330E4F497E011
:100330008902A0011124BA016A0F7B1F20E030E07E
:10034000F901E40FF51FE456FE4F9081F901E60F25
:10035000F71FE456FE4F90832F5F3F4F2730310544
:1003600079F78F5FE2CF08952D9A0000000000001A
:100370000000000000000000000000002D980000B8
:10038000000000000000000000000000000000006D
:10039000089597E0499FA0011124480F511DFA01CB
:1003A000E456FE4F808190E002C0959587956A954E
:1003B000E2F780FF02C02B9A01C02B98D5CF419A5B
:1003C000000000000000000000000000000000002D
:1003D0000000419800000000000000000000000044
:1003E00000000000000008958091B2018F5F8093AB
:1003F000B201883020F01092B201409A01C04098BA
:10040000DECFCF931092B201C0E0C73011F4409A12
:1004100001C04098D4DFCF5FC830B9F7CF910895BD
:10042000429A0000000000000000000000000000F0
:1004300000000000429800000000000000000000E2
:1004400000000000000000000895CF93DF9380912A
:10045000B201873039F48091B101882389F0DF91AE
:10046000CF91DECFD0E0C0E04D2F6C2F8091B20154
:1004700090DFCF5FC830C1F7DF5FD330A1F7EFCF98
:10048000DF91CF910895CF93DF93EC01209739F05E
:10049000ABDFDBDF81E090E0DED42197F7CFDF91A7
:1004A000CF910895A1DFD1DF85E090E0D4C4109210
:1004B000C4011092B50180E090E0FC01ED53FE4FC5
:1004C0001382FC01EC54FE4F138201968C3091058F
:1004D000A1F708951092B301EACF0F931F93CF9322
:1004E000DF93C0E0D0E01C2F0C2FC830D10510F4F2
:1004F000005F01C008508091C301882341F0815002
:100500008093C3016091C501802F61D21DC0FE019F
:10051000ED53FE4F8381882329F062E0802F57D26C
:1005200061E010C08091B301882341F0FE01EC54DA
:10053000FE4F8381882311F069E001C060E0802FC5
:1005400046D260E0802F9ED21C5F8091B401882348
:1005500041F081508093B4016091B601812F37D270
:100560001DC0FE01EC54FE4F8381882329F064E016
:10057000812F2DD261E010C08091B301882341F01A
:10058000FE01ED53FE4F8381882311F06AE001C024
:1005900060E0812F1CD260E0812F74D22196CC3094
:1005A000D10509F0A0CFDF91CF911F910F91089550
:1005B000FC019091B301923041F550E0DF01A40FAE
:1005C000B51F13968C911397882301F181818F5F5A
:1005D0008183823041F0833059F08130A9F480EF7B
:1005E000808383E003C080EF808385E082830DC039
:1005F00080EF808381E08283118213961C92FB013D
:10060000E40FF51F83830895118280E0089550E080
:10061000840F951F21E0FC0123838091B301815059
:10062000823020F4FB01E40FF51F13820895EF924E
:10063000FF920F931F93CF93843010F4C8E005C04E
:10064000CCEFC80FCC3048F0C0EFC80F94EBE92EC8
:1006500091E0F92E03EC11E006C083ECE82E81E076
:10066000F82E04EB11E04C2FB701C801A1DF811176
:1006700009C04C2FB701C801CF911F910F91FF9076
:10068000EF90C5CFCF911F910F91FF90EF900895FC
:10069000CF93DF93883108F097C1E82FF0E09BE01B
:1006A000899FD0011124AE5FBD4F6C9311964C937E
:1006B000119712962C93129780E090E022E1ED01C1
:1006C000C80FD91F2B83019688309105C1F7119669
:1006D0008C91119787FD06C013969C91139791609A
:1006E00013969C9386FD0EC09BE09E9FD0019F9F1A
:1006F000B00D1124AE5FBD4F13969C911397986077
:1007000013969C9385FD0EC09BE09E9FD0019F9FFA
:10071000B00D1124AE5FBD4F13969C91139790645A
:1007200013969C9384FD0EC09BE09E9FD0019F9FDB
:10073000B00D1124AE5FBD4F14969C91149791603B
:1007400014969C9383FD0EC09BE09E9FD0019F9FBB
:10075000B00D1124AE5FBD4F14969C911497986014
:1007600014969C9382FD0EC09BE09E9FD0019F9F9C
:10077000B00D1124AE5FBD4F14969C9114979064F8
:1007800014969C9381FD0EC09BE09E9FD0019F9F7D
:10079000B00D1124AE5FBD4F15969C9115979160D9
:1007A00015969C9380FD0EC08BE08E9FD0018F9F8D
:1007B000B00D1124AE5FBD4F15968C9115978860D2
:1007C00015968C938BE08E9FD0018F9FB00D1124D6
:1007D000AE5FBD4F8C9187FD06C015969C91159715
:1007E000906415969C9386FD0EC09BE09E9FD00161
:1007F0009F9FB00D1124AE5FBD4F16969C9116972A
:10080000916016969C9385FD0EC09BE09E9FD00143
:100810009F9FB00D1124AE5FBD4F16969C91169709
:10082000986016969C9384FD0EC09BE09E9FD0011D
:100830009F9FB00D1124AE5FBD4F16969C911697E9
:10084000906416969C9383FD0EC09BE09E9FD00102
:100850009F9FB00D1124AE5FBD4F17969C911797C7
:10086000916017969C9382FD0EC09BE09E9FD001E5
:100870009F9FB00D1124AE5FBD4F17969C911797A7
:10088000986017969C9381FD0EC09BE09E9FD001BF
:100890009F9FB00D1124AE5FBD4F17969C91179787
:1008A000906417969C9380FD0EC08BE08E9FD001C4
:1008B0008F9FB00D1124AE5FBD4F18968C91189785
:1008C000816018968C938BE08E9FD0018F9FB00D26
:1008D0001124AE5FBD4F12968C91129787FD06C012
:1008E00018969C911897986018969C9386FD0EC058
:1008F0009BE09E9FD0019F9FB00D1124AE5FBD4F26
:1009000018969C911897906418969C9385FD0EC03C
:100910009BE09E9FD0019F9FB00D1124AE5FBD4F05
:1009200019969C911997916019969C9384FD0EC01D
:100930009BE09E9FD0019F9FB00D1124AE5FBD4FE5
:1009400019969C911997986019969C9383FD0EC0F7
:100950009BE09E9FD0019F9FB00D1124AE5FBD4FC5
:1009600019969C911997906419969C9382FD0EC0DC
:100970009BE09E9FD0019F9FB00D1124AE5FBD4FA5
:100980001A969C911A9791601A969C9381FD0EC0BD
:100990009BE09E9FD0019F9FB00D1124AE5FBD4F85
:1009A0001A969C911A9798601A969C9380FD0CC099
:1009B0002BE02E9FC0012F9F900D1124FC01EE5FB4
:1009C000FD4F828580648287DF91CF910895982FB3
:1009D0009770883140F5462F50E04B30510518F59F
:1009E000FA01EC5CFF4F0BC520E007C020E008C017
:1009F00020E009C020E00BC02FEF40E005C02FEF42
:100A000040E006C02FEF4FEF60E00CC02FEF4FEF3C
:100A10006FEF08C0692FDDCF22E34AE002C02AE071
:100A200042E36AE035CE0895CF93DF93D82FC0E03C
:100A30006D2F8C2FCCDFCF5FC831D1F7DF91CF91F5
:100A400008950F931F93CF93DF93D82F162F042F62
:100A5000C0E0202F412F6D2F8C2F1ADECF5FC831C1
:100A6000C1F7DF91CF911F910F910895CF93C0E00F
:100A700020E040E060E08C2F0BDECF5FC831C1F793
:100A8000CF910895883138F4E7E1F0E0E81BF109EF
:100A9000EE52FE4F60830895CF93DF93D82FC0E0CE
:100AA0006D2F8C2FEFDFCF5FC831D1F7DF91CF9162
:100AB000089580E0F1CF80E090E0FC01E651FE4F28
:100AC00020812D7F2083019688319105B1F708950B
:100AD00020E030E0F901E651FE4F80818E7F808377
:100AE00080818370806F80832F5F3F4F2831310575
:100AF00089F7E1CF5298539A5B98549A5C98579A29
:100B00005F98559A5D98569A5E98519A599A50985E
:100B1000209A289882E48093C00088E08093C100E6
:100B200084E08093C2001092C5001092C400519AD4
:100B300082E184BD82E085BD80E287BD97DFB9DFB9
:100B4000C7DF78940895883158F4E82FF0E0E65133
:100B5000FE4F808190819D7F90838695817008955E
:100B600080E00895599AF89480E090E06BE020E0EE
:100B700030E0689FA001699F500D11244E5F5D4FCA
:100B80007091C00075FD02C00000FACFFA01E20FBB
:100B9000F31F73817093C6002F5F3F4F28303105DC
:100BA00079F701968831910511F7789408955E9A46
:100BB0000000000000000000000000000000000035
:100BC00000005E980000000000000000000000002F
:100BD00000000000000008955F9A0000000000007F
:100BE0000000000000000000000000005F9800000E
:100BF00000000000000000000000000000000000F5
:100C000008951F93CF93DF9328985B9A81E090E03B
:100C100033D1C0E0D0E011E0FE01EE52FE4F808102
:100C2000882311F05C9A01C05C98C1DF89B182FB16
:100C3000882780F981275B98FE01E651FE4F90815D
:100C40009170891789F0908180FB90F990838111D0
:100C500004C080818370806F12C0808186958695E4
:100C600079F4808182600BC080818695869541F001
:100C700080818C7F9CEF980F80818370892B80838B
:100C80002196C831D10541F6DF91CF911F91A4CFB4
:100C90000F931F93CF93DF9321E02093B101CAE01C
:100CA000D0E0BE0176D38B01FC01EE0FFF1FE050B8
:100CB000FF4F62E080819181EADAC80166E070E06E
:100CC00068D38B01FC01EE0FFF1FE050FF4F61E086
:100CD00080819181DCDAC801BE015BD3FC01EE0F9B
:100CE000FF1FE050FF4F60E080819181DF91CF9145
:100CF0001F910F91CCCA0F931F93CF93DF9366235D
:100D000029F0DF91CF911F910F91C2CF1092B101C5
:100D1000CAE0D0E0BE013DD38B01FC01EE0FFF1F06
:100D2000E050FF4F62E080819181B1DAC801BE01DD
:100D300030D38B01FC01EE0FFF1FE050FF4F61E04D
:100D400080819181A4DAC801BE0123D3FC01EE0F9A
:100D5000FF1FE050FF4F60E080819181DF91CF91D4
:100D60001F910F9194CA08951092800089E1809399
:100D70008100109285001092840080E29EE490939E
:100D800087008093860080E280936F0086BB789412
:100D900008958FB7F89410920A0310920B031092E3
:100DA0000C0310920D038FBF08952FB7F894609134
:100DB0000A0370910B0380910C0390910D032FBFD8
:100DC00008958F929F92AF92BF92CF92DF92EF924F
:100DD000FF926C01EADF4B015C01E12CF12CE5DFB5
:100DE000DC01CB0188199909AA09BB098C159D055D
:100DF000AE05BF0510F47894F2CFFF90EF90DF902E
:100E0000CF90BF90AF909F908F9008951F920F92B8
:100E10000FB60F9211248F939F93AF93BF9380913E
:100E20000A0390910B03A0910C03B0910D0301965E
:100E3000A11DB11D80930A0390930B03A0930C0393
:100E4000B0930D03BF91AF919F918F910F900FBE03
:100E50000F901F901895009759F024EC39E000008E
:100E600000000000000021503109C9F70197F3CFBD
:100E700008958A95F1F7089531E4009729F0232F1A
:100E80002A95F1F70197F9CF0895CF93DF93EC01FD
:100E900061ED70E026D165EC70E0CE0122D162EC0C
:100EA00070E0CE01DF91CF911CC1CF93DF93EC01B5
:100EB00068E970E016D14FE060E970E0CE012DD115
:100EC0006DE870E0CE010DD164E870E0CE0109D18B
:100ED00061E870E0CE0105D16EE770E0CE01DF91F0
:100EE000CF91FFC0EF92FF921F93CF93DF9300D07B
:100EF00000D000D0CDB7DEB77C01CB01413208F085
:100F000040E220E0EAE0F0E011E0120F61E070E082
:100F10006C0F7D1F620F711D9B01BF013AD290E3E0
:100F2000980FD9019C93CB01212F009769F71417D3
:100F300038F480E24E83F70109954E814150F7CF96
:100F4000115050F0E1E0F0E0EC0FFD1FE10FF11D5A
:100F50008081F7010995F4CF26960FB6F894DEBF8D
:100F60000FBECDBFDF91CF911F91FF90EF900895FD
:100F70000F931F93CF93DF9300D01F92CDB7DEB7AF
:100F80008C0177FF13C07195619571098DE24B83D8
:100F900069837A83F80109954B8169817A814132AD
:100FA00018F4442319F001C040E24150C8010F90E9
:100FB0000F900F90DF91CF911F910F9193CFEF92F0
:100FC000FF920F931F93CF93DF931F92CDB7DEB79E
:100FD0007C018B0147FF09C0419580E34983F701FC
:100FE000099588E7F7010995498145304CF424E0DB
:100FF00030E0241B310947FD3395220F220F01C039
:1010000020E0022E02C0000F111F0A94E2F72031E7
:10101000A4F4912F92959F709A3010F480E301C050
:1010200087E3890F2983F701099584E0000F111FD9
:101030008A95E1F729812C5FEACF0F90DF91CF915C
:101040001F910F91FF90EF900895DF92EF92FF9222
:101050000F931F93CF93DF931F92CDB7DEB77C0121
:101060008B0147FF09C0419580E34983F70109954A
:1010700082E6F70109954981413124F480E1D82EB7
:10108000D41A01C0D12C0D2C02C0000F111F0A94DC
:10109000E2F7FFE0FD155CF017FF02C081E301C03D
:1010A00080E3F7010995000F111FD394F2CF0F9041
:1010B000DF91CF911F910F91FF90EF90DF900895F6
:1010C0000F931F93CF93DF938C01EB0189918823BA
:1010D00019F0F8010995FACFDF91CF911F910F9187
:1010E00008950F931F93CF93DF938C01FB0184919D
:1010F000EB012196882321F0F8010995BE01F6CF76
:10110000DF91CF911F910F910895662319F064E349
:1011100071E002C06EE271E0E4CFEF92FF920F93B4
:101120001F93CF93DF937C01CFEFC40FFB01CF3F21
:1011300099F084918F010F5F1F4FDFEFDC0F81115A
:1011400006C0C15048F080E2F7010995FACFF701D7
:101150000995F801CD2FEBCFDF91CF911F910F9122
:10116000FF90EF900895CF93DF93EC0164E271E07C
:10117000B8DF68E171E0CE01B4DF65E171E0CE0176
:10118000DF91CF91AECFCF93DF93EC0169EE70E0AA
:10119000A8DF6DED70E0CE01A4DF6AED70E0CE0156
:1011A000DF91CF919ECF13D8A5DC68D8DDDD92D931
:1011B0001092B10160E08BE891E069D861E084E8C9
:1011C00091E065D862E082E991E061D888E02CDCAA
:1011D000C12CD12C7601C0E08AE0482E512C612C24
:1011E000712CC23308F051C081E00E94EF008823C7
:1011F00041F1C13031F4CDDDD8DD6B017C01C3E6B6
:1012000020C08091B301813061F030F0823071F400
:101210001092B30182E00DC081E08093B30183E0BE
:1012200008C082E08093B30181E003C01092B30153
:1012300088E0FADB3EDCE5DC95DC80E293E023D954
:1012400036D982E00E94EF008823F9F0CF5F109238
:10125000B10160E0C13061F484E891E018D861E048
:1012600081E691E014D862E08AE591E010D86AC086
:101270008FE691E00CD861E08DE791E008D862E05C
:1012800086E791E004D8C0E05DC0C33631F588E060
:10129000CBDB26E0C20E27E2D21EE11CF11C85DD6D
:1012A0006C157D058E059F0598F47FDDA7019601DD
:1012B000261B370B480B590BCA01B901A301920138
:1012C0007CD060E0C90117DD88E090E0DCD8E7CF92
:1012D000EED86BDD6B017C0102C0C43699F565DD8B
:1012E0004601570130E2830E3FEB931E32E0A31E0E
:1012F000B11CA5019401261B370B480B590BCA01E1
:10130000B90128EE33E040E050E057D0C901C0DC1D
:101310004CDD86169706A806B90698F41092B1011E
:1013200060E084E891E00E94470161E08DE791E090
:101330000E94470162E086E791E00E944701CDE20A
:1013400001C0C4E681E00E94EF00882319F059989B
:1013500083E06ADB83E00E94EF00882329F0599A3A
:101360005C9882E061DBA5DBCD3269F0D0E08D2FA7
:10137000EADB882311F08D2F5AD9DF5FD831B9F716
:10138000ACD83FDCEFDB0E94FF0088E090E07BD828
:1013900028CFAA1BBB1B51E107C0AA1FBB1FA61762
:1013A000B70710F0A61BB70B881F991F5A95A9F70E
:1013B00080959095BC01CD010895A1E21A2EAA1B3B
:1013C000BB1BFD010DC0AA1FBB1FEE1FFF1FA217F5
:1013D000B307E407F50720F0A21BB30BE40BF50BF2
:1013E000661F771F881F991F1A9469F7609570957B
:1013F000809590959B01AC01BD01CF010895EE0F42
:0E140000FF1F0590F491E02D0994F894FFCFA2
:10140E00140153014C0145013E0137013001290100
:10141E0022011B01060909090909060E11110F0106
:10142E00010E0E11110E11110E1F020408080808EC
:10143E000E10101E11110E0E10100E01010E0204D0
:10144E000A1F0202020E11010E01110E06090102FF
:10145E0004080F02060A020202020E110804000C12
:10146E000C0E11100E01110E1111151515150E1F62
:10147E000404040404041818121C120806030315AD
:10148E000F01020C0A0A0A04111F0E1F151F1B0E54
:02149E00151B1C
:00000001FF
