:10000000B1C00000CCC00000CAC00000C8C00000E1
:10001000C6C00000C4C00000C2C000000C94E50EC1
:10002000BEC00000BCC00000BAC00000B8C00000E4
:10003000B6C00000B4C000000C94930FB0C0000024
:10004000AEC00000ACC00000AAC00000A8C0000004
:10005000A6C00000A4C00000A2C00000A0C0000014
:100060009EC000009CC000003010321035103710C8
:100070003A103C103F104110451047104A104D10E7
:1000800052104F10561059105D1061106310671018
:100090002C102E1079107B107D107F108110831092
:1000A0008510871089108B100D0A000D0A0031365B
:1000B000303030303030003A20002020465F43504E
:1000C0005500726F626F6C69622F64656C61792F85
:1000D00064656C61792E632032372E30392E3230D0
:1000E00031352056312E302E300D0A000D0A0020F9
:1000F000205B656D7074795D0D0A0064656C6179D3
:100100003A0D0A000D0A0020205B656D7074795D60
:100110000D0A00726F626F6C69622F737472696E80
:10012000672F737472696E672E632030352E3130FD
:100130002E323031352056312E312E300D0A000D41
:100140000A0020205B656D7074795D0D0A00737480
:1001500072696E673A0D0A0066616C7365007472AD
:100160007565000011241FBECFEFD8E0DEBFCDBF04
:1001700014E0A0E0B1E0EEEAF2E302C005900D92D7
:10018000AC3CB107D9F726E0ACECB4E001C01D925D
:10019000AC35B207E1F70E94C0180C94551930CF66
:1001A00083E080934806E0915306F091540640E0C6
:1001B00061E080E009948093CC041092DD041092F9
:1001C000CE04EFEDF4E0A0EDB4E011921D9284E0D6
:1001D000EB3EF807D1F780E00895EF92FF920F937E
:1001E0001F93CF93DF93C0E011E0DCE70AE098E0D3
:1001F000F92E8C2F0E948C0D882309F445C0C43041
:1002000010F498E005C09CEF9C0F9C3038F090EF04
:100210009C0F4DEC54E0ECEDF4E004C04CED54E0E8
:10022000EDECF4E03091CC04892F90E0323011F500
:10023000DF01A80FB91F13962C9113972223D1F039
:1002400021812F5F2183223039F0233041F021308A
:1002500081F4D083F2820EC0D08312820BC0D0838F
:100260000283118213961C92FA01E80FF91F13837F
:100270000BC01182E80FF91F13833150323020F484
:10028000FA01E80FF91F1382CF5FC83109F0B1CF2F
:100290008CEDE82E84E0F82E0DEC14E0C0E0C830C0
:1002A00010F4D0E101C0D8EFDC0F8091DC0488238A
:1002B00049F081508093DC046091DE048D2F0E9410
:1002C000C40F1CC0F7018381882331F066E08D2FB5
:1002D0000E94C40F61E00FC08091CC04882331F0EC
:1002E000F8018381882311F06EE001C06DE08D2F4D
:1002F0000E94C40F60E08D2F0E942E0DD4E0DC0F11
:100300008091CD04882349F081508093CD04609181
:10031000CF048D2F0E94C40F1CC0F8018381882355
:1003200031F062E08D2F0E94C40F61E00FC0809118
:10033000CC04882331F0F7018381882311F06FE02A
:1003400001C06DE08D2F0E94C40F60E08D2F0E94D0
:100350002E0DCF5FFFEFEF1AFF0A0F5F1F4FCC305C
:1003600009F09DCFDF91CF911F910F91FF90EF90FA
:100370000895CF93DF9300D000D000D0CDB7DEB783
:100380008091CD04EFEDF4E020E040E091919111F7
:100390002D5F81114D5F94E0EB3EF907B9F736E030
:1003A00052E064E270E080E090E026960FB6F894A8
:1003B000DEBF0FBECDBFDF91CF910895CF93DF9306
:1003C000EB01DA01813069F048F0823089F485E789
:1003D00091E0998388838DE691E01FC08DE591E0DF
:1003E00002C085E591E09983888385E691E015C098
:1003F0006AE00E94E118E82FF0E0EE0FFF1FEF5FC8
:10040000FE4F2081318139832883E92FF0E0EE0F00
:10041000FF1FEF5FFE4F808191818D939C93DF9151
:10042000CF91089581E0809348060E94F915E091EC
:100430005306F091540640E061E080E00994909109
:100440003B069130E9F481111BC010921B0590E02E
:1004500080913E06981790F4E92FF0E0EE0FFF1F11
:10046000DF01A551BB4F8C9181608C93E451FB4F10
:1004700080818F70806580839F5FEACF80E00895E0
:1004800081E008950F931F93CF9382E00E94F614AA
:10049000811110921B0500E010E0802F0E948C0D4E
:1004A000882369F0F801EE0FFF1FE551FB4F8081B3
:1004B0008E7F808380911B058D5F80931B050F5F6E
:1004C0001F4F0831110549F7C0E080913E06C8175B
:1004D00008F040C00C2F10E0000F111FF801E5518B
:1004E000FB4F808180FF09C066E08C2F0E94C40F03
:1004F00061E08C2F0E942E0D2BC061E08C2F0E949A
:100500002E0DF801E451FB4F808182958F70E1F050
:1005100080FF02C062E101C06DE08C2F0E94C40F19
:10052000F801E451FB4F8081982F9F7029F0915F73
:100530009F70807F892B06C082958F7049F0815F04
:100540008295807F808304C06DE08C2F0E94C40F51
:10055000CF5FBBCF80911B05CF911F910F910C9462
:10056000D611CF93DF9300D000D000D0CDB7DEB747
:1005700060913E0620911B05862F880F680F4B81E6
:100580005C8132E172E080E090E026960FB6F8944C
:10059000DEBF0FBECDBFDF91CF910895DB0181118A
:1005A00007C089ED91E08D939C9381EE91E015C099
:1005B0006AE00E94E118E82FF0E0EE0FFF1FE35819
:1005C000FE4F208131812D933C93E92FF0E0EE0F17
:1005D000FF1FE358FE4F80819181FA019183808350
:1005E000089582E0809348060E94F915E091530631
:1005F000F091540640E061E080E009941F93CF93AE
:10060000DF9390913B06913011F4813059F0909135
:100610003B06913029F090913B06923009F0A7C03B
:100620008111A5C0C82F60931D0540931C0581E072
:1006300080933C0682E080933D0686E080934505EA
:1006400093E090934405109237051092360510926E
:100650004605809347058AE0809357059093560599
:10066000109249051092480510925805809359053B
:100670001092380510923C051092400510924A05E0
:1006800010924E05109252050E940516AC01C13021
:1006900019F4A2E0B0E002C0A1E0B0E090E012E105
:1006A000692F70E06A177B07ECF420E030E0169FBA
:1006B000E001179FD00D1124842F81708F5FF90105
:1006C000EE0FFF1FEE0FFF1FEC0FFD1FEA5CFA4F4E
:1006D0008283569547952F5F3F4F2330310561F751
:1006E0009F5FDECF20E030E04CE052E180913E069B
:1006F000869586953817C8F5832F642F0E94E118D8
:1007000096959695E22FF0E0E25EFA4F60816C7F5D
:1007100062606083E1E0E20F589FD001112464E041
:10072000969FA00DB11D1124AA5CBA4F1396EC93AD
:10073000F0E08370E25EFA4F990F990F682F692BF2
:100740006083E2E0E20FF0E0E25EFA4F962F906203
:100750009083E3E0E20FF0E0E25EFA4F80818C7F6D
:10076000826080833F5F2C5FC1CF80E001C081E069
:10077000DF91CF911F9108952F923F924F925F92F8
:100780006F927F928F929F92AF92BF92CF92DF92A1
:10079000EF92FF920F931F93CF93DF93CDB7DEB706
:1007A00027970FB6F894DEBF0FBECDBF1D821C8207
:1007B000ACE06A2E712CB8E1EB2EF12C12E1912EF7
:1007C0000BEA402E84E0582E8C8190913B069130AC
:1007D00029F48C819D814496B7010AC090913B0613
:1007E000923049F48C3048F48C819D810896B30195
:1007F0000E94011903C08C8101C08CE00E948C0D05
:10080000882309F4BFC0EC81FD81E25EFA4F2081AC
:10081000022F0370023008F0B5C0822E86948694B1
:10082000882D8770882E10E090E06C01CC0CDD1CC8
:10083000CC0CDD1C909EF001919EF00D1124D60190
:10084000AE0FBF1FAA5CBA4F12963C91129733238A
:1008500009F498C0229526952770EA5CFA4F3181F9
:100860003F5F318312964C91129750E030E02F5F3A
:100870003F4F4217530729F420812D5F20832189A0
:1008800001C0208915962C93DC011196AA0FBB1F7D
:10089000AA0FBB1F909EF001919EF00D1124AE0F88
:1008A000BF1FAA5CBA4F9CE79C9380911D058111E4
:1008B00040C0EA5CFA4F81818530D8F180911C05F7
:1008C000811105C0128216821286568632C0A0801F
:1008D000A49CA12C1124A6942784312CA31401F1EB
:1008E000BB24B39480913E06B816C0F40E94BD109C
:1008F000622D8B2D0E94C40F82E390E00E94E010D5
:100900000E94BD10622D81E08B0D0E94C40F82E316
:1009100090E00E94E01024E0B20EE4CF3394DECFEA
:10092000909EF001919EF00D1124EA5CFA4F108226
:100930001182909E5001919EB00C1124F601EA0D97
:10094000FB1DEA5CFA4F1282F501EA5CFA4F8685DC
:10095000833080F4C684D12C0E94051681708F5F8D
:10096000F601EE0FFF1FEE0FFF1FEA0DFB1DEA5C05
:10097000FA4F8283909EF001919EF00D1124EA5C63
:10098000FA4F86868C819D8101969D838C83489742
:1009900009F01ACF8DE00E949B10A12CB12C5CE0D5
:1009A000E52EF12C68E1C62ED12C92E19A9D9001A2
:1009B0009B9D300D1124F901EA5CFA4F87858A83EB
:1009C00080E090E03901FC01EE0FFF1FEE0FFF1FEA
:1009D000E60DF71DEA5CFA4F2281298353801C0142
:1009E0002FEF221A320AD101AA0FBB1FAA0FBB1F79
:1009F000A60DB71DAA5CBA4F8C918B834580052D3F
:100A000010E088248394912C1F830E839981892F71
:100A100090E09D838C832981282180913B06813041
:100A200039F4083111059CF4C8014496B6010AC096
:100A300080913B06823049F40C30110554F4C80112
:100A40000896B7010E94011905C0802F03C088E1F4
:100A500001C08CE0622F0E942E0D8C819D81882127
:100A60009921892B01F180913B06813039F40831BD
:100A700011059CF4C8014496B6010AC080913B065A
:100A8000823049F40C30110554F4C8010896B701BE
:100A90000E94011905C0802F03C088E101C08CE0CD
:100AA0006A810E94C40F2FEF821A920A0F5F1F4FB4
:100AB00083E08816910409F0AECF9B81992309F455
:100AC00097C0F101EE0FFF1FEE0FFF1FE60DF71DA0
:100AD000EA5CFA4F80818150808380913B068130AF
:100AE00041F48E819F8189319105A4F44396B6012A
:100AF0000BC080913B06823051F48E819F818D30F6
:100B0000910554F40796B7010E94011906C08FEFB2
:100B1000850D03C088E101C08CE0642D0E94C40FE4
:100B200080913B06813041F497E1951598F08E81D4
:100B30009F814496B6010BC080913B06823061F4E0
:100B40002BE0251558F08E819F810896B7010E94F1
:100B5000011905C088E103C0852D01C08CE0642D1A
:100B60000E94C40F80913B06813041F48E819F81A9
:100B700087319105A4F44596B6010BC080913B06E0
:100B8000823051F48E819F818B30910554F4099607
:100B9000B7010E94011906C081E0850D03C088E1FC
:100BA00001C08CE0642D0E94C40F80913B0681300F
:100BB00041F48E819F8186319105A4F44696B60159
:100BC0000BC080913B06823051F48E819F818A3028
:100BD000910554F40A96B7010E94011906C082E0FB
:100BE000850D03C088E101C08CE0642D0E94C40F14
:100BF000C1018330910509F0E6CE9FEFA91AB90A29
:100C000022E0A216B10409F0D0CE6091480580918F
:100C1000360527960FB6F894DEBF0FBECDBFDF9125
:100C2000CF911F910F91FF90EF90DF90CF90BF90E9
:100C3000AF909F908F907F906F905F904F903F907C
:100C40002F900C949011CF93DF9300D000D000D060
:100C5000CDB7DEB7E6E3F5E020814289378551A1C3
:100C60006FE070E080E090E026960FB6F894DEBF6B
:100C70000FBECDBFDF91CF910895CF93DF93EB01EE
:100C8000DA01882329F0813051F48DE392E002C02B
:100C900085E492E0998388838DE492E015C06AE050
:100CA0000E94E118E82FF0E0EE0FFF1FE751FE4F22
:100CB0002081318139832883E92FF0E0EE0FFF1F77
:100CC000E751FE4F808191818D939C93DF91CF916D
:100CD0000895EF92FF920F931F93CF93DF9381E0DC
:100CE000809348060E94F915E0915306F09154064E
:100CF00040E061E080E00995C0E0D0E0FE01E55A07
:100D0000FA4F8081807F846080836DE08C2F0E9409
:100D1000C40F2196C831D10589F740E050E030E09A
:100D200081E06AE073E196E0F92E22E1E22EC1E172
:100D3000D5E1813089F048F08230A1F48093AD058F
:100D40001092AC05C093AE050DC0F09283051092D1
:100D50008205E092840506C060939805109297057D
:100D600070939905D89FF0011124E30FF11DEC5801
:100D7000FA4F942F9F71292F220F9081917C922BF3
:100D800090838A01055A1A4F282F2F70932F92951E
:100D9000907F922BD8019C939081916090838823BF
:100DA00029F08150813019F43F5F01C082E04F5F2C
:100DB0005F4F4831510509F0BCCFDF91CF911F91B2
:100DC0000F91FF90EF900895CF9320E030E0C5E1C0
:100DD00048E0C29FC001C39F900D1124FC01ED5853
:100DE000FA4F108211864287DC01A957BA4F5C91F5
:100DF0005F715C93DC01AB57BA4F5C915F715C93A0
:100E000044874587468760E070E0FC01E60FF71FE6
:100E1000EC58FA4F5081516050836F5F7F4F6830BC
:100E2000710599F72F5F3F4F2330310591F680E030
:100E3000CF9108952F923F924F925F926F927F923F
:100E40008F929F92AF92BF92CF92DF92EF92FF92DA
:100E50000F931F93CF93DF9300D000D0CDB7DEB7B1
:100E6000C12CD12C65E1F62EAA24A394B12CE8E084
:100E70006E2E77247394F7E08F2EA6E09A2E8C2D99
:100E80004BD6811108C02FEFC21AD20A38E1C3161F
:100E9000D104A9F72CC2F601E55AFA4F4081342F4C
:100EA00032953F704F70642F70E07A836983F69EAD
:100EB000C001F79E900D1124FC01E30FF11DEC58C9
:100EC000FA4F4081FC01ED58FA4F232F277040FF65
:100ED0009AC181858F5F818785858687848585878F
:100EE00034878185833110F012862CC08185803152
:100EF00010F0728627C081858D3010F082E004C02A
:100F000081858A3018F083E082871CC08185873014
:100F100010F084E0F9CF8185843010F085E0F4CFC3
:100F20008185823010F092860DC08185882351F032
:100F300089819A81F89EF001F99EF00D1124ED58F7
:100F4000FA4F8286E981FA81FE9EC001FF9E900DD4
:100F50001124DC01AD58BA4F1B961C921B97FC0163
:100F6000EB57FA4F3081387F232B20832081286173
:100F7000208320812F71206A2083FC01EA57FA4FD9
:100F800020812861208320812F71206A20831A9676
:100F90002C91462D421B20E030E058E0452E00E029
:100FA00010E0BC01FB01E20FF31FEC58FA4F9081F7
:100FB00096959F71983151F4C501022E02C0880F99
:100FC000991F0A94E2F7082B192B4A942F5F3F4F81
:100FD0002830310539F71416B4F080E090E04981EB
:100FE0005A81F49E9001F59E300D1124F901E80F0D
:100FF000F91FEC58FA4F40814160408301968830D8
:101000009105A1F740CF842F042E000C990B242DBD
:1010100030E082179307B4F080E090E069817A8134
:10102000F69E9001F79E300D1124F901E80FF91F8B
:10103000EC58FA4F40814E7F4083019688309105ED
:10104000A1F721CF69817A81F69EF001F79EF00D1C
:101050001124ED58FA4F5385850F911D8217930780
:101060008CF055245A94540C21E030E040E050E0DC
:1010700089819A81F89EB001F99E700D11246D58F6
:101080007A4F28C05384540EEFCFFB01E40FF51FB5
:101090008485883010F58485F50102C0EE0FFF1FAE
:1010A0008A95E2F70E2B1F2B5A944A94E22E233096
:1010B000310599F0852D57FE02C081E0850D85959B
:1010C000082E000C990B281739073CF44F5F5F4F2F
:1010D0002F5F3F4FE42E5110D8CF29813A81F29EE5
:1010E000F001F39EF00D1124ED58FA4F828590E047
:1010F000252D052C000C330B2817390744F0938558
:101100008285981738F452848385581A05C0332491
:10111000339403C055245394312C0E9405161514A2
:101120007CF5642D70E00E94ED18582FCB0120E073
:1011300030E0E8E040E0F22FB501022E02C0660F79
:10114000771F0A94E2F760237123672B21F454136D
:10115000FE2F4F5FEF2F2F5F3F4F2830310559F79C
:10116000541758F4950102C0220F331FEA95E2F795
:10117000022B132B5A944A94D2CF00E010E004C003
:10118000332011F00095109580E090E069817A811C
:10119000F69EA001F79E500D1124FA01ED58FA4F6A
:1011A000898320E030E02E15C8F4B901DF01A20FD9
:1011B000B31F1C96AC912F5F3F4FB981AB13F3CF98
:1011C000DF01A60FB71F1C962C91DA01A20FB11DEB
:1011D000AC58BA4F2C912E7F2C9310C0DA01A80F77
:1011E000B91FAC58BA4F6C919801082E02C03695C1
:1011F00027950A94E2F720FB60F96C9301968830FA
:10120000910571F640CE43854F5F438745854687FC
:10121000448545873487FC01E957FA4F3081387F90
:10122000232B208320812861208320812F71206A35
:10123000208320E030E010E000E0AC01FA01E20F92
:10124000F31FEC58FA4F808180FF0DC09081969576
:101250009F71983141F0C501022E01C0880F0A9498
:10126000EAF7082B1F5F2F5F3F4F2830310531F71A
:1012700012300CF408CE0E940516612F110F770B67
:101280000E94ED1820E030E0E12C10E0E981FA81C5
:10129000FE9EA001FF9E500D1124FA01EB57FA4F5C
:1012A000B801022E02C0759567950A94E2F760FFB7
:1012B00018C08E1115C0DA01A20FB31FAC58BA4F77
:1012C0009C919E7F9C939081987F622F6770962B54
:1012D000908390819861908390819F71906A9083B0
:1012E000E3942F5F3F4F28303105D1F6CCCD80916C
:1012F0005A05882331F0815080935A05A12CB12CD6
:1013000022C086E0F9CFF601EE0DFF1DEC58FA4F32
:10131000808186958F71782EF7E1F817C8F5FFEF79
:10132000EF1AFF0A28E0E216F10469F780915A05E6
:10133000882309F4C7C04FEFA41AB40A53E0A516D6
:10134000B10409F4EDC0E12CF12C65E16A9D600166
:101350006B9DD00C1124C6018A579A4F9A838983BA
:1013600086010B571A4FF601E957FA4FFC83EB83BE
:10137000C6018D589A4F4C01F0E18F0E911C2C0143
:101380002FE0420E511C1C0131E1230E311CBBCF5A
:10139000E981FA81808185FF06C0F1016081872D96
:1013A000F3D520E001C021E0F8018081877090E052
:1013B000E816F90691F5808185FF05C0F40160818A
:1013C000872DE2D520E080915A05811126C0F801D1
:1013D0008081869586958695837071F0808186954B
:1013E000869586958D5F8370982F990F990F990F29
:1013F0008081877E892B10C0F80180818295869537
:10140000877059F08081807E90EE980F80818F7177
:10141000892B8083808188618083EB81FC8180813E
:10142000877090E0E816F906A1F5808185FF05C078
:10143000F2016081872DA8D520E080915A058111A5
:1014400028C0EB81FC818081869586958695837086
:1014500071F080818695869586958D5F8370982F33
:10146000990F990F990F8081877E892B11C0EB818D
:10147000FC81808182958695877059F08081807E7D
:1014800090EE980F80818F71892B80838081886195
:101490008083F601EE0DFF1DEC58FA4F808180FF2E
:1014A00008C0222321F0F4016081872D6DD561E011
:1014B00006C0222319F06DE0872D66D560E0872DE8
:1014C000CDD22DCF35E13A9DF0013B9DF00D112499
:1014D000EA57FA4F8081869586958695837071F0DC
:1014E00080818695869586958D5F8370982F990F5C
:1014F000990F990F8081877E892B10C080818295FA
:101500008695877009F417CF8081807E90EE980FC2
:1015100080818F71892B80838081886180830BCF4C
:101520008091A60580939D0580917C05882349F0D4
:1015300080917C0590919D05282F220F820F890FA5
:1015400001C080E08093730580919105882349F064
:101550008091910590919D05282F220F820F890F70
:1015600001C080E0809388056091880580917305B3
:101570000F900F900F900F90DF91CF911F910F91CF
:10158000FF90EF90DF90CF90BF90AF909F908F90A3
:101590007F906F905F904F903F902F90C1C6CF93F8
:1015A000DF9300D000D000D0CDB7DEB780FD03C000
:1015B00062E172E002C06BE470E03091830550910B
:1015C0009805272F41E080E090E026960FB6F8942A
:1015D000DEBF0FBECDBFDF91CF910895DB016AE082
:1015E0000E94E118E82FF0E0EE0FFF1FEB5AFD4FCD
:1015F000208131812D933C93E92FF0E0EE0FFF1F06
:10160000EB5AFD4F80819181FA0191838083089587
:10161000833008F0825F0895833010F4845F08956A
:101620008E5F0895833010F48F5F08959FEE980FBA
:10163000933010F48D5008959BEF980F933010F471
:1016400091E005C094EF980F933020F49BE0981B35
:10165000892F089580E0089582E080934806E09104
:101660005306F091540640E061E080E009949091C7
:101670003B069130E9F48230D8F4413029F41092DD
:101680003C069CE090933D068093B205A9EBB5E043
:10169000E3EBF5E091E09D93811102C0908301C0DE
:1016A0001082319625E0E93BF207A9F780E0089522
:1016B00081E00895DF92EF92FF920F931F93CF93F3
:1016C000DF93C0E0DD24D3948C2F26D2882329F128
:1016D0008C2FA8DF18164CF4DFEFD80F23EBE22E87
:1016E00025E0F22E09EB15E00AC0882341F0D82F3F
:1016F000D09599EBE92E95E0F92E03EB15E08D2FAF
:1017000090E0F801E80FF91F10822091B205211135
:1017100004C0F701E80FF91FD082CF5FC831A1F6EE
:101720008DE009D580E035D509EB15E083EBE82E97
:1017300085E0F82ED0E0C0E0F8018081882329F010
:1017400066E08C2F21D461E004C06DE08C2F1CD4A6
:1017500060E08C2F83D18D2F5FDFC82FF70181913F
:101760007F01882329F062E08C2F0ED461E004C051
:101770006DE08C2F09D460E08C2F70D181E08D0F4B
:10178000863051F0833018F0CFE0CD0F01C0C82F64
:101790000F5F1F4FD82FD0CFDF91CF911F910F91A7
:1017A000FF90EF90DF900895CF93DF9300D000D0AB
:1017B00000D0CDB7DEB78091B205E9EBF5E081301E
:1017C00069F48FEB95E020E03191311101C02D5F7C
:1017D0008E179F07C9F772E040E012C0A3EBB5E097
:1017E0008FEB95E020E040E03191311101C02D5F99
:1017F0003D91311101C04D5F8E179F07A9F771E030
:1018000036E052E062E180E090E026960FB6F89470
:10181000DEBF0FBECDBFDF91CF910895CF93DF9391
:10182000EB01DA01882329F0813051F485E193E05E
:1018300002C08DE093E0998388838DE193E015C029
:101840006AE00E94E118E82FF0E0EE0FFF1FE75476
:10185000FD4F2081318139832883E92FF0E0EE0F9D
:10186000FF1FE754FD4F808191818D939C93DF9101
:10187000CF91089581E080934806E0915306F0915E
:10188000540640E061E080E0099490913B0691307D
:1018900039F4811105C081E0413019F080E00895EC
:1018A00081E008958F929F92AF92BF92CF92DF9284
:1018B000EF92FF920F931F93CF93DF93C0E08C2F93
:1018C0002BD1CF5FC831D9F780E063D48DE033D41A
:1018D0006091490670914A0680914B0690914C06A2
:1018E00020E6822E2AEE922EA12CB12CA501940185
:1018F0000E94141969017A019B01AC01A0913E0676
:10190000B0E00E943C19A50194010E941419022F15
:10191000C114D104E104F10479F081E0C816D104C6
:10192000E104F10461F082E0C816D104E104F1049D
:1019300049F016E0D2E008C01DE0DAE005C01AE088
:10194000D8E002C018E0D6E0C0E080913E06C8179B
:1019500048F40C1710F4612F01C06D2F8C2F14D395
:10196000CF5FF3CFDF91CF911F910F91FF90EF9059
:10197000DF90CF90BF90AF909F908F900895CF93BE
:10198000DF9300D000D000D0CDB7DEB724E636E03C
:1019900044E65AE064E670E080E090E026960FB6F8
:1019A000F894DEBF0FBECDBFDF91CF910895DB016C
:1019B000811105C089E893E08D939C9315C06AE07E
:1019C0000E94E118E82FF0E0EE0FFF1FEB5DFC4FE7
:1019D000208131812D933C93E92FF0E0EE0FFF1F22
:1019E000EB5DFC4F80819181FA01918380830895A2
:1019F0005498CAC7823031F489B18295817091E0E0
:101A00008927089580E00895089508950895089518
:101A100008950895089508950895089508950895DE
:101A200008950895089588E180933E0681E08093AB
:101A30003B060895883188F490E0FC01EE0FFF1F0B
:101A40008E0F9F1FFC01EF50FA4F6083418322836A
:101A5000809139068460809339060895883188F42E
:101A6000E82FF0E091E0611101C090E0EF53FA4FF0
:101A7000808190FB80F9808380913906806180931A
:101A80003906089580E090E0FC01E752FA4F20818A
:101A90002D7F2083019688319105B1F7089520E0CC
:101AA00030E0F901E752FA4F80818E7F8083808198
:101AB0008D7F8083808183708C6780832F5F3F4F11
:101AC0002831310571F7DECFCF938EE084B987E0FE
:101AD00087B988E28AB920983B9882E08093B00069
:101AE000C1E0C093B10092ED9093B3008093700079
:101AF00082E390E00E942F17789495DF10923C06C5
:101B0000C0933D06C0933F0638D350D3C8DF85E16C
:101B100080933906CF910895883158F4E82FF0E08A
:101B2000E752FA4F808190819D7F908386958170E6
:101B3000089580E0089520910001205F2093000126
:101B400080913C0690E0FC01EE0FFF1F8E0F9F1F5F
:101B5000FC01EF50FA4F8081821710F0299A01C0E2
:101B6000299880913C0690E0FC01EE0FFF1F8E0F3C
:101B70009F1FFC01EF50FA4F91818091000198174F
:101B800010F02A9A01C02A9880913C0690E0FC014E
:101B9000EE0FFF1F8E0F9F1FFC01EF50FA4F928137
:101BA00080910001981710F05D9A01C05D988091B6
:101BB0003D0690E0FC01EE0FFF1F8E0F9F1FFC0102
:101BC000EF50FA4F908180910001981710F0409AE1
:101BD00001C0409880913D0690E0FC01EE0FFF1F90
:101BE0008E0F9F1FFC01EF50FA4F918180910001F1
:101BF000981710F0419A01C0419880913D0690E0FD
:101C0000FC01EE0FFF1F8E0F9F1FFC01EF50FA4FDC
:101C1000928180910001981710F0429A089542989D
:101C200008958091BF05882311F0815001C088E09C
:101C30008093BF05E0913C06F0E0EF53FA4F9081AE
:101C400080913A0690FB80F980933A0683B18170C7
:101C500091E09827E0913C06F0E0E752FA4F2081AE
:101C60002170291731F1E0913C06F0E0E752FA4F7C
:101C7000208190FB20F92083E0913C06F0E0E752C0
:101C8000FA4F908196959695A1F4E0913C06F0E08C
:101C9000E752FA4F882329F0808183708C67808314
:101CA00008C0808182608083809139068061809342
:101CB00039062091BF05211116C0E0913C06F0E0E5
:101CC000E752FA4F80818695869569F0E0913C064F
:101CD000F0E0E752FA4F80818C7F9CEF980F808173
:101CE0008370892B8083E0913D06F0E0EF53FA4F3B
:101CF000908180913A0690FB81F980933A0696B1E3
:101D000081E0392F387093FD80E0E0913D06F0E0EE
:101D1000E752FA4F908191708917F9F0E0913D06F2
:101D2000F0E0E752FA4F908180FB90F99083E091C8
:101D30003D06F0E0E752FA4F80818695869569F47A
:101D4000E0913D06F0E0E752FA4F8081332319F02D
:101D500083708C6701C082608083211116C0E0917E
:101D60003D06F0E0E752FA4F80818695869569F04E
:101D7000E0913D06F0E0E752FA4F80818C7F9CEFC6
:101D8000980F80818370892B808308958091390614
:101D900084FF0BC080E1EBD6882339F080913906AF
:101DA0008F7E8093390680E1F0D68091390682FFDC
:101DB0000BC084E0DCD6882339F0809139068B7F14
:101DC0008093390684E0E1C608951F920F920FB602
:101DD0000F9211248F9380913A0682FF12C0809156
:101DE0003A068B7F80933A0680913A0680FF02C0C4
:101DF0005B9A01C05B9880913A0681FF08C02B9ADC
:101E000007C080913A06846080933A065B982B98CD
:101E10008F910F900FBE0F901F901895E9DD54DE43
:101E2000F3DD74D080E04FD784E690E0C9D184E63A
:101E300090E0C6D184E690E0C3C19FD181E0A9D1F2
:101E40008AE079D184EF91E0BBD186E074D184EF50
:101E500091E0B6D182E06FD184EF91E0B1D1A6D10B
:101E60008CC1CF93DF93D0913C0610923C06C09179
:101E70003D0681E080933D0680D16AE080E084D019
:101E800061E080E0EBDD8AEF90E09AD176D18ED1EF
:101E900068E081E079D061E081E0E0DD8AEF90E008
:101EA0008FD16BD183D166E080E06ED061E080E0BD
:101EB000D5DD8AEF90E084D160D178D164E081E013
:101EC00063D061E081E0CADD8AEF90E079D155D13D
:101ED0006DD162E080E058D061E080E0BFDD8AEF44
:101EE00090E06ED14AD162D160E081E04DD061E0F6
:101EF00081E0B4DD8AEF90E063D13FD157D1D09338
:101F00003C06C0933D06DF91CF9108951092B60034
:101F100082E084BD94E095BD16BC9AEF97BD809396
:101F20006E0085BBBBC51F920F920FB60F92112496
:101F30002F933F934F935F936F937F938F939F93D1
:101F4000AF93BF93CF93DF93EF93FF93CEE6D0E0B1
:101F500088818D7F888378941ED6F89488818260EA
:101F60008883FF91EF91DF91CF91BF91AF919F91C6
:101F70008F917F916F915F914F913F912F910F9032
:101F80000FBE0F901F9018957F928F929F92AF92E5
:101F9000BF92CF92DF92EF92FF920F931F93CF9356
:101FA000DF93382FE62FC82FD0E00CE010E0CE01F1
:101FB000B8010E940119282FCE010196B8010E9494
:101FC0000119782ECE010B96B8010E940119482FF5
:101FD000CE010A96B8010E940119F82ECE01099689
:101FE000B8010E940119E82ECE010896B8010E949E
:101FF0000119D82ECE010796B8010E940119C82EEA
:10200000CE010696B8010E940119B82ECE010596A0
:10201000B8010E940119A82ECE010496B8010E94B1
:102020000119982ECE010396B8010E940119882E3D
:10203000CE010296B8010E940119582F383108F0DC
:102040006CC08E2F90E08032910508F066C0FC01D4
:10205000EC5CFF4F0C943619E42FF0CFEF2DEECF50
:102060002FEF19C02FEF40E00EC02FEF19C02FEF58
:102070004EE12BC02FEF01C02EE14FEF26C020E034
:10208000FCCF20E04FEF6EE125C020E00CC020E047
:102090004EE10AC020E040E007C02EE1FCCF20E086
:1020A00040E013C02FEF4FEF6FEF14C022E34AE080
:1020B00002C02AE042E36AE00DC02AE04AE062E39F
:1020C00009C024E6EDCF20E044E660E003C020E054
:1020D00040E064E6832FDF91CF911F910F91FF9035
:1020E000EF90DF90CF90BF90AF909F908F907F90B8
:1020F000A1CCEE2DA3CFED2DA1CFEC2D9FCFEB2DBD
:102100009DCFEA2D9BCFE92D99CFE82D97CFE52FD5
:1021100095CFE72D93CFE22F91CFDF91CF911F91F4
:102120000F91FF90EF90DF90CF90BF90AF909F9076
:102130008F907F900895CF93DF93D82FC0E06D2FBD
:102140008C2F22DFCF5FC831D1F7DF91CF91089577
:102150000F931F93CF93DF93D82F162F042FC0E038
:10216000202F412F6D2F8C2F65DCCF5FC831C1F739
:10217000DF91CF911F910F910895CF93C0E020E0A0
:1021800040E060E08C2F56DCCF5FC831C1F7CF91C3
:102190000895CF93DF93D82FC0E06D2F8C2F5EDC96
:1021A000CF5FC831D1F7DF91CF91089580E0F1CFB3
:1021B00062E08CEF93E029DC63E08CEF93E025CCC8
:1021C0008F929F92AF92BF92CF92DF92EF92FF9247
:1021D0006C0172D44B015C01E12CF12C23DCD6DDC7
:1021E0006BD4DC01CB0188199909AA09BB098C15AC
:1021F0009D05AE05BF0590F3FF90EF90DF90CF9067
:10220000BF90AF909F908F90089580E090E0D8CFDE
:10221000CF92DF92EF92FF920F931F93CF93DF93B2
:102220008C01D62F662321F081E08093C00502C087
:102230001092C005C8016AE070E0CFD77B016C0145
:10224000FC01EE0FFF1FE057FC4F63E0808191819E
:10225000DCDBCC2011F0C8E001C0C0E0C701DD2309
:1022600041F066E070E0B9D7D82FC8016CE370E0A8
:1022700007C06AE070E0B1D7D82FC80164E670E00B
:10228000ACD78B01ED2FF0E0EE0FFF1FE057FC4FB6
:1022900062E080819181B9DBD111C460C8016AE03C
:1022A00070E09BD77B018C01FC01EE0FFF1FE05714
:1022B000FC4F61E080819181A8DB0111C260C70100
:1022C0006AE070E08AD78C01FC01EE0FFF1FE05737
:1022D000FC4F60E08081918198DB011118C060E0C3
:1022E00084E594E092DBC1FD12C061E084E594E0F6
:1022F0008CDBC2FD0CC062E084E594E0DF91CF91FD
:102300001F910F91FF90EF90DF90CF907ECBDF91E8
:10231000CF911F910F91FF90EF90DF90CF90089594
:10232000CF93DF93D62F91E09093C005843640F091
:1023300060E08CEF93E069DB61E08CEF93E016C026
:102340006AE03FD7C92FE82FF0E0EE0FFF1FE057FC
:10235000FC4F60E08081918158DBEC2FF0E0EE0FC4
:10236000FF1FE057FC4F61E0808191814EDBD43646
:1023700018F0DF91CF911CCF8D2F6AE022D7C92FA3
:10238000E82FF0E0EE0FFF1FE057FC4F62E0808186
:1023900091813BDBEC2FF0E0EE0FFF1FE057FC4F8D
:1023A00063E080819181DF91CF912FCBCF93C82FB4
:1023B0001092C00560E084E594E027DB61E084E5ED
:1023C00094E023DBC43610F0CF91F2CE8C2F6AE07C
:1023D000F8D6C92FE82FF0E0EE0FFF1FE057FC4FB3
:1023E00062E08081918111DBEC2FF0E0EE0FFF1FA6
:1023F000E057FC4F63E080819181CF9106CBCF9372
:10240000DF9300D000D000D0CDB7DEB76B83842F30
:10241000923049F426960FB6F894DEBF0FBECDBFBA
:10242000DF91CF91C3CF6B8126960FB6F894DEBFB4
:102430000FBECDBFDF91CF9173CF6F927F928F92FE
:102440009F92AF92BF92CF92DF92EF92FF920F9343
:102450001F93CF93DF93C82F662EC42EF22E642FC6
:102460005FDF80913E0686958E1518F4E0903E065B
:10247000E69410E083E0782E7E18A12CB12C83E046
:10248000D82E8E2C912C81E0881A9108D0E0D71498
:10249000A9F02D2DD7FE03C020913E062D0DC501BC
:1024A000B4019BD66C177D0710F4662D01C06DE05A
:1024B000822F6ADDDA94A00EB11EE9CFA12CB12CD7
:1024C000C4E0D0E08E2C912C81E0881A9108D12CA8
:1024D0008C2F84508E15A8F460913E0670E0CE01DA
:1024E00090D6282FC501B40178D66C157D0510F45F
:1024F0006F2D01C06DE0822F47DD2196A00EB11E29
:10250000E7CFDF91CF911F910F91FF90EF90DF9078
:10251000CF90BF90AF909F908F907F906F900895D5
:102520006F927F928F929F92AF92BF92CF92DF92E3
:10253000EF92FF920F931F93CF93DF93C82F662ED6
:10254000C42EF22E642FECDE8DE0F5DD80913E0688
:102550008E1510F4E0903E0610E083E0782E7E1891
:1025600083E0D82E812C912CAE2CB12C81E0A81ABE
:10257000B108D0E0D71491F0C401B5012ED66C1784
:102580007D0740F48D2DD7FE03C080913E068D0D52
:10259000662DFADC800E911EDA94ECCFC4E0D0E018
:1025A000A12CB12C8E2C912C81E0881A9108D12C71
:1025B0008C2F84508E1588F4C501B4010ED66C158D
:1025C0007D0538F460913E0670E0CE011AD66F2D7D
:1025D000DBDCA00EB11E2196EBCFDF91CF911F91D6
:1025E0000F91FF90EF90DF90CF90BF90AF909F90B2
:1025F0008F907F906F9008959F92AF92BF92CF92ED
:10260000DF92EF92FF920F931F93CF93DF93082FE8
:10261000C62E942ED22FCADED12CE12CF12CC0E094
:10262000AD2EB12C81E0A81AB10810E0CD1779F0D9
:10263000C701B501D2D56017710710F4692D01C02B
:102640006DE08C2FA1DCCF5FEC0CFD1CEFCFDF9198
:10265000CF911F910F91FF90EF90DF90CF90BF909F
:10266000AF909F900895BF92CF92DF92EF92FF922A
:102670000F931F93CF93DF9300D000D000D0CDB73E
:10268000DEB7142F4983F52E5A836B837C838D83A9
:102690009E83082FB92EE0903E062E1508F4E22EF8
:1026A00082E0B81216C0812F81DE2E2D402F6F2DB3
:1026B000812F26960FB6F894DEBF0FBECDBFDF91F7
:1026C000CF911F910F91FF90EF90DF90CF90BF902F
:1026D00093CFDB80CC806D2D812F22DE2C2D4D2DD4
:1026E0006F2D812FB11002C0A8DE01C019DF269620
:1026F0000FB6F894DEBF0FBECDBFDF91CF911F9113
:102700000F91FF90EF90DF90CF90BF9008950F93BF
:102710001F93CF93DF93CDB7DEB728970FB6F8940A
:10272000DEBF0FBECDBF162F1092C005813051F114
:1027300038F0823009F458C0833009F492C0E3C005
:1027400080E067FD08C064D941E060E084E394E084
:1027500062D941E021C05CD941E060E084E394E0CB
:102760005AD941E060E08CE494E055D981E050D939
:1027700041E061E084E294E04ED941E061E08CE325
:1027800094E0E6C080E067FD24C042D940E060E00C
:102790008CE094E040D940E060E084E294E03BD9F2
:1027A00081E036D98091480690E0212F012E000C5F
:1027B000330B2817390741F59E01295F3F4FAE01C2
:1027C0004B5F5F4FBE016D5F7F4FCE0101966FD2B1
:1027D000B6C01ED941E060E08CE094E01CD941E035
:1027E00060E08CE394E030C080E067FD23C010D946
:1027F00041E060E08CE294E00ED941E060E084E3E7
:1028000094E009D981E004D9E0915706F091580687
:10281000AE014D5F5F4FBE016F5F7F4F812F099506
:1028200041E061E089819A81F6D841E061E08B81E5
:102830009C818EC0EDD841E060E08CE294E0EBD862
:1028400041E060E08CE494E0E6D881E0E1D841E04A
:1028500061E084E194E0DFD841E061E08CE094E065
:1028600077C06623D9F0613009F035C080E0D0D858
:1028700041E060E084E194E0CED841E060E084E2B1
:1028800094E0C9D881E0C4D841E061E08CE094E0F4
:10289000C2D841E061E084E294E05AC080E0B8D858
:1028A00041E060E084E194E0B6D841E060E084E299
:1028B00094E0B1D881E0ACD841E061E08CE194E0F3
:1028C000AAD840E061E084E094E0A5D840E061E06F
:1028D00084EF93E03DC080E09BD841E060E084E17C
:1028E00094E099D841E060E084E494E094D881E0F9
:1028F0008FD841E061E08CE494E08DD841E061E064
:102900008CE194E025C08E01095F1F4F9E012B5F73
:102910003F4FAE014D5F5F4FBE016F5F7F4F8350F2
:102920007CD180E075D841E060E089819A8173D8DC
:1029300041E060E08B819C816ED881E069D841E004
:1029400061E08D819E8167D841E061E08F8198854B
:1029500062D828960FB6F894DEBF0FBECDBFDF91C8
:10296000CF911F910F910895E0E4F6E080818D7F73
:102970008083E1E4F6E080818D7F8083E2E4F6E00D
:1029800080818D7F80830895E0E4F6E080818E7FF2
:10299000808380818C6F808380818D7F8083E1E460
:1029A000F6E080818E7F808380818C6F8083808140
:1029B0008D7F8083E2E4F6E080818E7F808380815A
:1029C0008C6F808380818D7F8083CECF81508330D8
:1029D00058F4E82FF0E0E05CF94F808190819D7F12
:1029E000908386958170089580E0089581508330AA
:1029F000B0F4E82FF0E0E05CF94F808181FF06C081
:102A000080818095282F217030E002C020E030E0E6
:102A1000232B29F080818D7F808381E0089580E0E1
:102A200008958150833038F4E82FF0E0E05CF94FEE
:102A300080818170089580E00895CF93DF93C0E096
:102A4000D0E08C2F0E94FA0CFE01E05CF94F9081DF
:102A50009170891781F0908180FB90F9908390812B
:102A600096959695A1F4811103C080818C6F0EC05C
:102A7000808182600BC080818695869541F080813F
:102A80008C7F9CEF980F80818370892B80832196A7
:102A9000C330D105B1F6DF91CF9108958FB7F89487
:102AA0001092430610924406109245061092460674
:102AB000109247068FBF08952FB7F8946091430690
:102AC0007091440680914506909146062FBF089567
:102AD0008F929F92AF92BF92CF92DF92EF92FF922E
:102AE0006C01EADF4B015C01E12CF12CE5DFDC013C
:102AF000CB0188199909AA09BB098C159D05AE055A
:102B0000BF0510F47894F2CFFF90EF90DF90CF9054
:102B1000BF90AF909F908F90089520E83EEE46E3DF
:102B200050E082D3822F089520E63AEE40E050E054
:102B30007BD3CA01B9012CE330E040E050E074D30C
:102B4000862F089528EE33E040E050E06DD3CA01AF
:102B5000B9012CE330E040E050E066D3862F0895C1
:102B600028EE33E040E050E05FD3CB010895909130
:102B7000470697FD08C0909147068095892380936A
:102B8000470681E0089580E0089590914706892BDB
:102B90008093470608958091430690914406A09142
:102BA0004506B09146060196A11DB11D80934306CE
:102BB00090934406A0934506B0934606809147063D
:102BC0008068809347068091470680FD0E94110D22
:102BD0008091470682FD0E949B0D8091470684FFED
:102BE00002C01FD82ADF809147068F77809347065F
:102BF00008951092800081E08093810010928500FA
:102C00001092840010926F0008952FB7F89480916D
:102C10008400909185002FBF0895EF92FF920F934B
:102C20001F93CF93DF93EB017A01811101C086E0FE
:102C3000E82FF0E0EE0FFF1FE75AFB4F80819181F4
:102C400068EE73E0CAD2660F771FFB01E959FB4FAC
:102C5000408151815983488364E670E0BED2660F9B
:102C6000771FFB01E959FB4F40815181F7015183E7
:102C700040836AE070E0B1D2660F771FFB01E9592B
:102C8000FB4F40815181F90151834083FC01EE0FDC
:102C9000FF1FE959FB4F80819181F8019183808367
:102CA000DF91CF911F910F91FF90EF9008950F93B7
:102CB0001F9389019A01AB01BC0180915906ADDFD8
:102CC0001F910F91089580935906882309F498C0A5
:102CD000833009F444C000F5813031F1823009F0CD
:102CE000ADC089E696E0909356068093550684EE33
:102CF00096E090935406809353068AE197E0909370
:102D00005B0680935A068FEC9AE090934E06809370
:102D10004D068EEE9AE08EC0853009F456C0D0F193
:102D2000863009F08BC06CC080ED90E09093560621
:102D3000809355068BED90E0909354068093530654
:102D40008DEE90E090935B0680935A0689EB91E0BC
:102D500090934E0680934D068EED91E06BC081EF0F
:102D600092E090935606809355068EEF92E09093F2
:102D70005406809353068CEB93E090935B0680930C
:102D80005A0683E296E090934E0680934D068DE3BB
:102D900096E050C082E192E09093560680935506EB
:102DA0008FE192E0909354068093530682E492E080
:102DB00090935B0680935A0681EB92E090934E06C7
:102DC00080934D068EEC92E035C08CE29BE09093B0
:102DD00056068093550687E39BE0909354068093B4
:102DE00053068AE59BE090935B0680935A0684ED38
:102DF0009BE090934E0680934D068EE09CE01AC0B7
:102E00008AE39CE0909356068093550685E49CE007
:102E1000909354068093530682E59CE090935B0662
:102E200080935A068FEB9CE090934E0680934D065C
:102E300087ED9CE0909358068093570680E29FEBC5
:102E4000A2E0B0E080934F0690935006A093510605
:102E5000B0935206E0915506F091560609940097FA
:102E600059F020ED37E00000000000000000215084
:102E70003109C9F70197F3CF08958A95F1F70895BD
:102E800034E3009729F0232F2A95F1F70197F9CF22
:102E90000895CF93DF93EC016BEF70E00FD16FEEED
:102EA00070E0CE010BD16CEE70E0CE01DF91CF91DE
:102EB00005C1CF93DF93EC0162EC70E0FFD04FE0EF
:102EC0006AEB70E0CE0116D167EB70E0CE01F6D070
:102ED0006EEA70E0CE01F2D06BEA70E0CE01EED087
:102EE00068EA70E0CE01DF91CF91E8C0DF92EF9207
:102EF000FF920F931F93CF93DF9300D000D01F92C8
:102F0000CDB7DEB77C01CB01042F413208F000E2DF
:102F100010E02AE030E0DD24D394D10EE1E0F0E0CF
:102F2000EC0FFD1FE10FF11DB90157D1805D8083CA
:102F3000CB01009711F01D2DEECFD01628F480E2C2
:102F4000F70109950150F9CF1F3F59F0E1E0F0E09A
:102F5000EC0FFD1FE10FF11D8081F7010995115064
:102F6000F3CF0F900F900F900F900F90DF91CF91B4
:102F70001F910F91FF90EF90DF900895EF92FF92D5
:102F80000F931F93CF937C018B01C42F77FF0DC04C
:102F90001195019511098DE2F7010995C13218F4D7
:102FA000CC2319F001C0C0E2C1504C2FB801C701B9
:102FB000CF911F910F91FF90EF9098CFEF92FF92DA
:102FC0000F931F93CF938C017B01C42F47FF07C042
:102FD000C19580E3F801099588E7F8010995C530A6
:102FE00054F484E090E08C1B9109C7FD9395C82FA1
:102FF000CC0FCC0F01C0C0E00C2E02C0EE0CFF1CA9
:103000000A94E2F7C0318CF48F2D82958F708A304C
:1030100010F4805D01C0895CF801099584E0EE0C34
:10302000FF1C8A95E1F7CC5FEDCFCF911F910F91F7
:10303000FF90EF900895EF92FF920F931F93CF931D
:10304000DF937C018B01D42F47FF07C0D19580E32C
:10305000F701099582E6F7010995D1311CF4C0E129
:10306000CD1B01C0C0E00C2E02C0000F111F0A943E
:10307000E2F7C0315CF417FF02C081E301C080E3D6
:10308000F7010995000F111FCF5FF3CFDF91CF91AB
:103090001F910F91FF90EF9008950F931F93CF937F
:1030A000DF938C01EB018991882319F0F8010995D0
:1030B000FACFDF91CF911F910F9108950F931F9336
:1030C000CF93DF938C01FB018491EB012196882340
:1030D00021F0F8010995BE01F6CFDF91CF911F9144
:1030E0000F910895662319F06EE571E002C068E55E
:1030F00071E0E4CFEF92FF920F931F93CF93DF9392
:103100007C01CFEFC40FFB01CF3F99F084918F0179
:103110000F5F1F4FDFEFDC0F811106C0C15048F079
:1031200080E2F7010995FACFF7010995F801CD2F53
:10313000EBCFDF91CF911F910F91FF90EF9008950A
:10314000CF93DF93EC016EE471E0B8DF62E471E0ED
:10315000CE01B4DF6FE371E0CE01DF91CF91AECF4E
:10316000CF93DF93EC0163E171E0A8DF67E071E0EA
:10317000CE01A4DF64E071E0CE01DF91CF919ECF5C
:103180000E940E0F0E941D0FE0915306F09154060D
:1031900041E061E080E009950E944F0DE0915A0600
:1031A000F0915B06099531D883E020DC8823B1F3E8
:1031B000E0915306F091540641E061E080E009950A
:1031C000EDCF991B79E004C0991F961708F0961B64
:1031D000881F7A95C9F780950895AA1BBB1B51E1FA
:1031E00007C0AA1FBB1FA617B70710F0A61BB70B77
:1031F000881F991F5A95A9F780959095BC01CD011C
:10320000089597FB072E16F4009406D077FD08D09A
:10321000E4DF07FC05D03EF4909581959F4F08951B
:10322000709561957F4F0895A1E21A2EAA1BBB1BD2
:10323000FD010DC0AA1FBB1FEE1FFF1FA217B30782
:10324000E407F50720F0A21BB30BE40BF50B661F98
:10325000771F881F991F1A9469F76095709580955C
:1032600090959B01AC01BD01CF010895EE0FFF1FAA
:103270000590F491E02D099409D0A59F900DB49F7D
:10328000900DA49F800D911D11240895A29FB0015F
:10329000B39FC001A39F700D811D1124911DB29F8A
:0E32A000700D811D1124911D0895F894FFCF2B
:1032AE000115015D0155014D0145013D0135012D10
:1032BE000125011D010609090909090674060909F6
:1032CE00070101067406090906090906740F0102B1
:1032DE0004040404740608080E090906740F080E87
:1032EE00010109067402040A0F02020274060901A2
:1032FE0006010906740609010204080F7402060A83
:10330E0002020202740E09090E08080874111B1F2E
:10331E0015111111750909090F090909749101D9BE
:10332E0001D101C901C101B901B101A901A10199DF
:10333E0001060909090909067406090907010106AA
:10334E007406090906090906740F0102040404042F
:10335E00740608080E090906740F080E0101090605
:10336E007402040A0F02020274060901060109061C
:10337E00740609010204080F7402060A0202020210
:10338E00740E09090E08080874FD0145023D023548
:10339E00022D0225021D0215020D02050206090963
:1033AE0009090906740609090701010674060909C7
:1033BE0006090906740F01020404040474060808C1
:1033CE000E090906740F080E010109067402040A9B
:1033DE000F020202740609010601090674060901AC
:1033EE000204080F7402060A02020202740E090990
:1033FE000E080808746902B102A902A1029902918D
:10340E000289028102790271020609090909090677
:10341E007406090907010106740609090609090659
:10342E00740F010204040404740608080E09090648
:10343E00740F080E010109067402040A0F0202023B
:10344E007406090106010906740609010204080F33
:10345E007402060A0202020274CD0215030D030560
:10346E0003FD02F502ED02E502DD02D502060909B1
:10347E0009090906740609090701010674060909F6
:10348E0006090906740F01020404040474060808F0
:10349E000E090906740F080E010109067402040ACA
:1034AE000F020202740609010601090674060901DB
:1034BE000204080F7402060A02020202740E0909BF
:1034CE000E080808743903810379037103690361D7
:1034DE000359035103490341030609090909090662
:1034EE007406090907010106740609090609090689
:1034FE00740F010204040404740608080E09090678
:10350E00740F080E010109067402040A0F0202026A
:10351E007406090106010906740609010204080F62
:10352E007402060A0202020274000000000000008B
:10353E00A403EC03E403DC03D403CC03C403BC03F5
:10354E00B403AC030609090909090674060909073B
:10355E000101067406090906090906740F01020421
:10356E00040404740608080E090906740F080E01F7
:10357E000109067402040A0F02020274060901060A
:10358E00010906740609010204080F7402060A02F4
:10359E00020202740000000000000171060901021F
:1035AE00020002740000000B040404741F150404CE
:1035BE0004040475060908060109067411191D177D
:1035CE0013111175111B1F1511111175080808081B
:1035DE0008080F74070908080B0907740F08080F6D
:1035EE0008080F7407080808080807740609090F69
:1035FE000909097400000000000000E207E307E477
:10360E0007E607E707E8077B04C304BB04B304AB74
:10361E0004A3049B0493048B04830406090909097B
:10362E000906740609090701010674060909060947
:10363E000906740F010204040404740608080E0936
:10364E000906740F080E010109067402040A0F021E
:10365E000202740609010601090674060901020434
:0C366E00080F7402060A02020202740037
:00000001FF
