:1000000091C000009FC000009DC000009BC0000088
:1000100099C0000097C0000095C0000046C20000D3
:1000200091C000008FC000008DC000008BC0000098
:1000300089C0000087C0000085C0000083C00000A8
:1000400081C000007FC000007DC000007BC00000B8
:1000500079C0000077C0000075C0000073C00000C8
:1000600071C000006FC000000D0A000D0A0031369B
:10007000303030303030003A20002020465F43508E
:100080005500726F626F6C69622F64656C61792FC5
:1000900064656C61792E632032372E30392E323010
:1000A00031352056312E302E300D0A000D0A002039
:1000B000205B656D7074795D0D0A0064656C617913
:1000C0003A0D0A000D0A0020205B656D7074795DA1
:1000D0000D0A00726F626F6C69622F737472696EC1
:1000E000672F737472696E672E632030352E31303E
:1000F0002E323031352056312E312E300D0A000D82
:100100000A0020205B656D7074795D0D0A007374C0
:1001100072696E673A0D0A0066616C7365007472ED
:100120007565000011241FBECFEFD8E0DEBFCDBF44
:1001300021E0A0E0B1E001C01D92A530B207E1F7D7
:1001400079D394C35DCF1F93CF93DF93C82FB1D0E2
:1001500061E0C13009F060E081E05CD061E0C23074
:1001600009F060E082E056D084E690E0DBD1D1E097
:10017000E3D0882321F0DF91CF911F910895C9D05A
:10018000182FD1D0DD2379F0112389F0C13099F4F3
:1001900062E081E03FD062E082E03CD08AEF90E014
:1001A000C1D112D0D0E090E080E0D0D0E1CF882360
:1001B000D1F3C23069F363E081E02CD063E0ECCF8F
:1001C000A9D181708F5FBFCF29982A985D988091BF
:1001D00004018E7F80930401409841984298809159
:1001E00004018D7F809304010895813019F08230DD
:1001F00051F008952A9829985D98809104018E7F86
:100200008093040108954198409842988091040198
:100210008D7FF6CF813019F0823001F10895613081
:1002200079F028F0623099F06330A9F008952998A8
:100230002A985D98809104018E7F8093040108952F
:10024000299A2A9A5D9A809104018160F6CF2998B3
:100250002A9A5D980895299A2A98FBCF613069F00F
:1002600028F0623089F0633099F008954098419801
:100270004298809104018D7FE0CF409A419A429A42
:10028000809104018260D9CF4098419A42980895A4
:10029000409A4198FBCF9091040180FB90F9909394
:1002A000040108959091040180FB91F99093040159
:1002B0000895E0E0F1E08081877E8F7D808308955E
:1002C000CF93DF93C0E0D1E088818C7F8B7F8883E0
:1002D000F0DF19821A821B82DF91CF9108958EE0A0
:1002E00084B987E087B988E28AB920983B98549806
:1002F00082E08093B00091E09093B10092ED9093F2
:10030000B3008093700082E390E00CD1D9DF789441
:100310000895E0E0F1E08081982F977F908383FB40
:10032000882780F90895E0E0F1E08081982F9F7E92
:100330009083829581700895E0E0F1E08081982FAC
:100340009F7D908385FB882780F908950F931F93E5
:10035000CF93DF936AE070E075D2EB0112E304E122
:1003600023B1922F9095917080910001382F3170B8
:10037000931741F090FB80F98093000120FF4CC05F
:100380001093010180910101882319F0815080931D
:10039000010186B191E0282F287083FD90E08091C3
:1003A000000181FB332730F9931741F090FB81F96D
:1003B000809300012223C1F1109302018091020178
:1003C000882319F081508093020189B191E0282F90
:1003D000207184FD90E08091000182FB332730F989
:1003E000931741F090FB82F980930001222321F1C1
:1003F0000093030180910301882319F081508093B9
:1004000003018AE090E08ED0219708F0A9CFDF9118
:10041000CF911F910F91089590910101911114C0F6
:10042000886080930001AECF9091020191110EC0BF
:10043000806180930001C2CF90910301911108C0A7
:10044000806280930001D6CF892FA0CF892FBACFA9
:10045000892FD4CFB9DE809104018160809304019B
:1004600080910401826080930401299A409A84EF6C
:1004700091E06CDF2A9A419A2998409884EF91E0A4
:1004800065DF5D9A429A2A98419884EF91E05EDF99
:100490005D984298809104018E7F80930401809141
:1004A00004018D7F809304018FCE1F920F920FB6AF
:1004B0000F9211248F938091040182FF17C08091C5
:1004C00004018B7F809304018091040180FF0CC0A4
:1004D0005B9A8091040181FF0FC02B9A8F910F903E
:1004E0000FBE0F901F9018955B98F3CF8091040179
:1004F0008460809304015B982B98F0CF1092800069
:1005000081E0809381001092850010928400109207
:100510006F0008952FB7F894809184009091850022
:100520002FBF0895009709F4089520ED37E00000EB
:1005300000000000000021503109C9F70197F2CFF7
:100540008A95F1F7089534E3009709F40895232F6D
:100550002A95F1F70197F8CFCF93DF93EC016BEB7E
:1005600070E008D16FEA70E0CE0104D16CEA70E06F
:10057000CE01DF91CF91FEC0CF93DF93EC0162E813
:1005800070E0F8D04FE06AE770E0CE010ED167E787
:1005900070E0CE01EFD06EE670E0CE01EBD06BE6FE
:1005A00070E0CE01E7D068E670E0CE01DF91CF9138
:1005B000E1C0EF92FF920F931F93CF93DF9300D090
:1005C00000D01F92CDB7DEB77C01CB01042F4132A2
:1005D00008F000E2E0E02AE030E011E01E0F41E028
:1005E00050E04C0F5D1F4E0F511DFA01B9012AD189
:1005F000805D8083CB01E12F009779F7101770F0B1
:10060000115088F40F900F900F900F900F90DF9182
:10061000CF911F910F91FF90EF90089580E2F70125
:1006200009950150EBCFE1E0F0E0EC0FFD1FE10F89
:10063000F11D8081F7010995E3CFEF92FF920F93AF
:100640001F93CF937C018B01C42F77FF0AC01195B4
:10065000019511098DE2F7010995C13258F4C111D4
:100660000AC04C2FB801C701CF911F910F91FF9085
:10067000EF909FCFC0E2C150F4CFEF92FF920F9363
:100680001F93CF938C017B01C42F47FF07C0C195F7
:1006900080E3F801099588E7F8010995C530BCF4B5
:1006A00084E090E08C1B9109C7FD9395C82FCC0F77
:1006B000CC0F0C2E02C0EE0CFF1C0A94E2F7C031E6
:1006C00044F0CF911F910F91FF90EF900895C0E0FB
:1006D000F0CF8F2D82958F708A3050F4805DF801B5
:1006E000099584E0EE0CFF1C8A95E1F7CC5FE7CF1B
:1006F000895CF5CFEF92FF920F931F93CF93DF9317
:100700007C018B01D42F47FF07C0D19580E3F7010F
:10071000099582E6F7010995C0E1CD1BD1310CF0B6
:10072000C0E00C2E02C0000F111F0A94E2F7C03186
:100730003CF0DF91CF911F910F91FF90EF900895C2
:1007400081E317FF80E3F7010995000F111FCF5FC9
:10075000EECF0F931F93CF93DF938C01EB01899121
:10076000882319F0F8010995FACFDF91CF911F91F5
:100770000F9108950F931F93CF93DF938C01EB019B
:10078000FE0184912196882319F0F8010995F8CF8C
:10079000DF91CF911F910F910895662319F06EE1BB
:1007A00071E0E8CF68E171E0FCCFEF92FF920F9328
:1007B0001F93CF93DF937C018B01CFEFC40FCF3F0B
:1007C00051F0F80184910F5F1F4FDFEFDC0F8111B3
:1007D0000DC0C15038F4DF91CF911F910F91FF9060
:1007E000EF90089580E2F7010995F3CFF70109959D
:1007F000CD2FE5CFCF93DF93EC016EE071E0BADF50
:1008000062E071E0CE01B6DF6FEF70E0CE01DF9104
:10081000CF91B0CFCF93DF93EC0163ED70E0AADF0F
:1008200067EC70E0CE01A6DF64EC70E0CE01DF91F2
:10083000CF91A0CF63DE53DD8AE090E087DD0ADE52
:10084000BFDCFECFAA1BBB1B51E107C0AA1FBB1F09
:10085000A617B70710F0A61BB70B881F991F5A954C
:10086000A9F780959095BC01CD010895F894FFCF2C
:00000001FF
