:1000000091C000009FC000009DC000009BC0000088
:1000100099C0000097C0000095C00000F1C2000028
:1000200091C000008FC000008DC000008BC0000098
:1000300089C0000087C0000085C0000083C00000A8
:1000400081C000007FC000007DC000007BC00000B8
:1000500079C0000077C0000075C0000073C00000C8
:1000600071C000006FC000000D0A000D0A0031369B
:10007000303030303030003A20002020465F43508E
:100080005500726F626F6C69622F64656C61792FC5
:1000900064656C61792E632032372E30392E323010
:1000A00031352056312E302E300D0A000D0A002039
:1000B000205B656D7074795D0D0A0064656C617913
:1000C0003A0D0A000D0A0020205B656D7074795DA1
:1000D0000D0A00726F626F6C69622F737472696EC1
:1000E000672F737472696E672E632030352E31303E
:1000F0002E323031352056312E312E300D0A000D82
:100100000A0020205B656D7074795D0D0A007374C0
:1001100072696E673A0D0A0066616C7365007472ED
:100120007565000011241FBECFEFD8E0DEBFCDBF44
:1001300021E0A0E0B1E001C01D92A530B207E1F7D7
:1001400030D456C45DCFEF92FF920F931F93CF939D
:10015000DF9338D156D1C0E010E0F12CD0E000E0C0
:1001600093D1811161C07DD1E82E85D1C13019F0C4
:10017000C23069F017C0EE2039F00F5F033008F489
:1001800049C0C2E000E046C08823A1F00FC0882328
:1001900079F0DF5FD33020F0C1E019E1D0E008C092
:1001A00019E106C0882321F0E11004C0C2E002C0BA
:1001B000E110C1E007D1FF2051F0FA94013021F0A5
:1001C000023019F42A9A01C05D9A299A06C0C130FA
:1001D00021F45D9A111103C00FC0112351F0115089
:1001E000D13021F0D23019F4429A01C0419A409A9C
:1001F00003C0C23009F4419A81E0C13009F080E0C7
:10020000F2D081E0C23009F080E0F4D080E090E0EC
:1002100045D1A6CF882329F0D5D0C2E099E1F92EA7
:10022000CCCF89E1F82EC6CFDF91CF911F910F91EE
:10023000FF90EF900895CF93DF93C4D0E2D0C0E059
:1002400023D181112BC00DD1D82F15D1C13019F078
:10025000C23049F003C0882359F009C0882319F03F
:10026000DD2329F005C0DD2319F0C1E001C0C2E0A3
:10027000A9D0C13011F45D9A03C0C23009F4419A8B
:1002800081E0C13009F080E0AED081E0C23009F0F9
:1002900080E0B0D080E090E001D1D2CFDF91CF916B
:1002A0000895FF920F931F93CF93DF93C82F8AD0A7
:1002B000A8D0D0E000E010E0E7D0811149C0D1D053
:1002C000F82ED9D0FF2041F0002329F0CF5FC330B2
:1002D00098F501E033C001E0882369F0DD2339F0AF
:1002E000CF5FC33030F0D0E019E1C0E004C0D1E00E
:1002F00002C0D1E019E166D0112381F01150C13064
:1003000031F0C23041F45D9A299A429A05C02A9A86
:10031000299A419A01C0299A409A06C001112A9A45
:10032000DD2311F0419AD1E0802F5DD08D2F62D076
:1003300080E090E0B3D0C0CF00E0C0E0811102C007
:1003400041D004C0D111CCCF3DD0D1E019E1D6CFFE
:100350008C2FDF91CF911F910F91FF900895CF9334
:10036000C3E0299A2A9A5D9A8CE291E097D02AD02C
:10037000409A419A429A8CE291E090D023D0C150A9
:1003800081F7CF910895CF93C3E05D9A8CE291E01D
:1003900085D018D0419A8CE291E080D013D0C15022
:1003A000A1F7CF910895CF93C3E02A9A419A8CE2A6
:1003B00091E074D007D08CE291E070D0C150A9F7E1
:1003C000CF91089529982A985D98809104018E7F95
:1003D00080930401409841984298809104018D7F58
:1003E0008093040108959091040180FB90F990930B
:1003F000040108959091040180FB91F99093040108
:100400000895E0E0F1E08081877E8F7D808308950C
:10041000CF93DF93C0E0D1E088818C7F8B7F88838E
:10042000F0DF19821A821B82DF91CF9108958EE04E
:1004300084B987E087B988E28AB920983B985498B4
:1004400082E08093B00091E09093B10092ED9093A0
:10045000B3008093700082E390E0FBD0D9DF789402
:100460000895E0E0F1E08081982F977F908383FBEF
:10047000882780F90895E0E0F1E08081982F9F7E41
:100480009083829581700895E0E0F1E08081982F5B
:100490009F7D908385FB882780F90895FF920F93B5
:1004A0001F93CF93DF936AE070E08ED2EB0111E0EF
:1004B00002E384E1F82E93B19170912780910001BD
:1004C000282F2170921781F090FB80F98093000112
:1004D000911103C00093010107C090910101911196
:1004E00003C088608093000180910101882319F086
:1004F00081508093010196B193FB992790F9912740
:100500008091000181FB222720F9921781F090FB56
:1005100081F980930001911103C00093020107C08B
:1005200090910201911103C080618093000180913C
:100530000201882319F081508093020199B19295AC
:10054000917091278091000182FB222720F9921758
:1005500081F090FB82F980930001911103C0F09229
:10056000030107C090910301911103C08062809341
:10057000000180910301882319F0815080930301C9
:100580008AE090E066D0219708F095CFDF91CF9177
:100590001F910F91FF90089515DF809104018160F4
:1005A00080930401299A84EF91E078DF2A9A2998B0
:1005B00084EF91E073DF5D9A2A9884EF91E06EDF1B
:1005C0005D98809104018E7F8093040180910401E5
:1005D000826080930401409A84EF91E05FDF419A4A
:1005E000409884EF91E05ADF429A419884EF91E07D
:1005F00055DF4298809104018D7F80930401E2CE03
:100600001F920F920FB60F9211248F9380910401C5
:1006100082FF12C0809104018B7F8093040180913E
:10062000040180FF02C05B9A01C05B9880910401C5
:1006300081FF08C02B9A07C08091040184608093D9
:1006400004015B982B988F910F900FBE0F901F9015
:100650001895009759F020ED37E0000000000000E9
:10066000000021503109C9F70197F3CF08958A9509
:10067000F1F7089534E3009729F0232F2A95F1F735
:100680000197F9CF0895CF93DF93EC016BEB70E006
:1006900026D16FEA70E0CE0122D16CEA70E0CE0183
:1006A000DF91CF911CC1CF93DF93EC0162E870E042
:1006B00016D14FE06AE770E0CE012DD167E770E018
:1006C000CE010DD16EE670E0CE0109D16BE670E08F
:1006D000CE0105D168E670E0CE01DF91CF91FFC079
:1006E000EF92FF921F93CF93DF9300D000D000D002
:1006F000CDB7DEB77C01CB01413208F040E220E00B
:10070000EAE0F0E011E0120F61E070E06C0F7D1F95
:10071000620F711D9B01BF0157D190E3980FD90162
:100720009C93CB01212F009769F7141738F480E2CE
:100730004E83F70109954E814150F7CF115050F08B
:10074000E1E0F0E0EC0FFD1FE10FF11D8081F7010A
:100750000995F4CF26960FB6F894DEBF0FBECDBF35
:10076000DF91CF911F91FF90EF9008950F931F930A
:10077000CF93DF9300D01F92CDB7DEB78C0177FF08
:1007800013C07195619571098DE24B8369837A83FA
:10079000F80109954B8169817A81413218F444232B
:1007A00019F001C040E24150C8010F900F900F9026
:1007B000DF91CF911F910F9193CFEF92FF920F9303
:1007C0001F93CF93DF931F92CDB7DEB77C018B01D0
:1007D00047FF09C0419580E34983F701099588E700
:1007E000F7010995498145304CF424E030E0241BA1
:1007F000310947FD3395220F220F01C020E0022E60
:1008000002C0000F111F0A94E2F72031A4F4912FC7
:1008100092959F709A3010F480E301C087E3890FAE
:100820002983F701099584E0000F111F8A95E1F7EC
:1008300029812C5FEACF0F90DF91CF911F910F910B
:10084000FF90EF900895DF92EF92FF920F931F9326
:10085000CF93DF931F92CDB7DEB77C018B0147FFAB
:1008600009C0419580E34983F701099582E6F701C4
:1008700009954981413124F480E1D82ED41A01C070
:10088000D12C0D2C02C0000F111F0A94E2F7FFE0DB
:10089000FD155CF017FF02C081E301C080E3F701A2
:1008A0000995000F111FD394F2CF0F90DF91CF91D4
:1008B0001F910F91FF90EF90DF9008950F931F937A
:1008C000CF93DF938C01EB018991882319F0F80114
:1008D0000995FACFDF91CF911F910F9108950F9352
:1008E0001F93CF93DF938C01FB018491EB01219641
:1008F000882321F0F8010995BE01F6CFDF91CF9151
:100900001F910F910895662319F06EE171E002C006
:1009100068E171E0E4CFEF92FF920F931F93CF93C2
:10092000DF937C01CFEFC40FFB01CF3F99F084919F
:100930008F010F5F1F4FDFEFDC0F811106C0C15029
:1009400048F080E2F7010995FACFF7010995F8011F
:10095000CD2FEBCFDF91CF911F910F91FF90EF90B3
:100960000895CF93DF93EC016EE071E0B8DF62E0B1
:1009700071E0CE01B4DF6FEF70E0CE01DF91CF9177
:10098000AECFCF93DF93EC0163ED70E0A8DF67ECAF
:1009900070E0CE01A4DF64EC70E0CE01DF91CF9176
:1009A0009ECF45DD8AE090E079DD6EDD811104C0E7
:1009B000F3DD80E076DCFECFD2DCC5DBE4DC3BDCC3
:1009C000F2DC80E06EDCF8CFAA1BBB1B51E107C054
:1009D000AA1FBB1FA617B70710F0A61BB70B881FCF
:1009E000991F5A95A9F780959095BC01CD0108955E
:0409F000F894FFCFA9
:00000001FF
