:10000000B1C00000CCC00000CAC00000C8C00000E1
:10001000C6C00000C4C00000C2C000000C94890E1D
:10002000BEC00000BCC00000BAC00000B8C00000E4
:10003000B6C00000B4C000000C94370FB0C0000080
:10004000AEC00000ACC00000AAC00000A8C0000004
:10005000A6C00000A4C00000A2C00000A0C0000014
:100060009EC000009CC00000C70FC90FCC0FCE0F70
:10007000D10FD30FD60FD80FDC0FDE0FE10FE40F37
:10008000E90FE60FED0FF00FF40FF80FFA0FFE0F68
:10009000C30FC50F101012101410161018101A10DC
:1000A0001C101E10201022100D0A000D0A003136FF
:1000B000303030303030003A20002020465F43504E
:1000C0005500726F626F6C69622F64656C61792F85
:1000D00064656C61792E632032372E30392E3230D0
:1000E00031352056312E302E300D0A000D0A0020F9
:1000F000205B656D7074795D0D0A0064656C6179D3
:100100003A0D0A000D0A0020205B656D7074795D60
:100110000D0A00726F626F6C69622F737472696E80
:10012000672F737472696E672E632030352E3130FD
:100130002E323031352056312E312E300D0A000D41
:100140000A0020205B656D7074795D0D0A00737480
:1001500072696E673A0D0A0066616C7365007472AD
:100160007565000011241FBECFEFD8E0DEBFCDBF04
:1001700013E0A0E0B1E0E6E6FEE202C005900D92D9
:10018000A03FB107D9F725E0A0EFB3E001C01D9271
:10019000AB36B207E1F70E9488160C94311730CFC6
:1001A00081E080935F050E940814E0916205F09160
:1001B000630540E061E080E0099490915205913040
:1001C000E9F481111BC01092200490E08091550544
:1001D000981790F4E92FF0E0EE0FFF1FDF01A05118
:1001E000BC4F8C9181608C93EF50FC4F80818F705D
:1001F000806580839F5FEACF80E0089581E0089565
:100200000F931F93CF9382E00E94081381111092E5
:10021000200400E010E0802F0E94300D882369F058
:10022000F801EE0FFF1FE051FC4F80818E7F80832D
:10023000809120048D5F809320040F5F1F4F083151
:10024000110549F7C0E080915505C81708F040C076
:100250000C2F10E0000F111FF801E051FC4F8081BE
:1002600080FF09C066E08C2F0E94680F61E08C2F30
:100270000E94D30C2BC061E08C2F0E94D30CF8019C
:10028000EF50FC4F808182958F70E1F080FF02C0BB
:1002900062E101C06DE08C2F0E94680FF801EF5001
:1002A000FC4F8081982F9F7029F0915F9F70807F15
:1002B000892B06C082958F7049F0815F8295807F7F
:1002C000808304C06DE08C2F0E94680FCF5FBBCF8E
:1002D00080912004CF911F910F910C946A114F923D
:1002E0005F926F927F928F929F92AF92BF92CF92C6
:1002F000DF92EF92FF920F931F93CF93DF93609063
:10030000550580905505482C881508F4482E809195
:1003100020040E946A11862D880F680E712CE12C32
:10032000F12CC4E1D0E008E010E0512C912C81E0E8
:10033000881A91088CE0C82ED12C98E1A92EB12CF6
:10034000541409F44DC020912004C701B4010E9447
:10035000E216822F90E068177907E8F48091520541
:10036000813031F487E1851578F0CE01B50109C0FF
:1003700080915205823051F48BE0851548F0C80118
:10038000B6010E94F61605C088E103C0852D01C0A4
:100390008CE062E11CC080915205813031F487E12C
:1003A000851578F0CE01B50109C0809152058230E3
:1003B00051F48BE0851548F0C801B6010E94F6168D
:1003C00005C088E103C0852D01C08CE06DE00E946E
:1003D000680F53940F5F1F4F2196E60CF71CB0CFA8
:1003E000DF91CF911F910F91FF90EF90DF90CF9011
:1003F000BF90AF909F908F907F906F905F904F9045
:100400000895DB01811107C08DE591E08D939C93E8
:1004100085E691E015C06AE00E94D616E82FF0E06C
:10042000EE0FFF1FEF5FFE4F208131812D933C9334
:10043000E92FF0E0EE0FFF1FEF5FFE4F808191810B
:10044000FA01918380830895EF92FF920F931F9397
:10045000CF93DF9381E080935F050E940814E091C1
:100460006205F091630540E061E080E00995C0E03D
:10047000D0E0FE01EE5DFB4F8081807F8460808351
:100480006DE08C2F0E94680F2196C831D10589F745
:1004900040E050E030E081E06AE073E196E0F92E60
:1004A00022E1E22EC1E1D5E1813089F048F08230CD
:1004B000A1F48093740410927304C09375040DC06A
:1004C000F0924A0410924904E0924B0406C06093F3
:1004D0005F0410925E0470936004D89FF0011124B1
:1004E000E30FF11DE55CFB4F942F9F71292F220F25
:1004F0009081917C922B90838A010E5D1B4F282F57
:100500002F70932F9295907F922BD8019C9390817E
:1005100091609083882329F08150813019F43F5FE6
:1005200001C082E04F5F5F4F4831510509F0BCCFF9
:10053000DF91CF911F910F91FF90EF900895CF938E
:1005400020E030E0C5E148E0C29FC001C39F900DAC
:100550001124FC01E65CFB4F108211864287DC010E
:10056000A25BBB4F5C915F715C93DC01A45BBB4FF2
:100570005C915F715C9344874587468760E070E0DB
:10058000FC01E60FF71FE55CFB4F50815160508383
:100590006F5F7F4F6830710599F72F5F3F4F2330B2
:1005A000310591F680E0CF9108952F923F924F92BE
:1005B0005F926F927F928F929F92AF92BF92CF92F3
:1005C000DF92EF92FF920F931F93CF93DF9300D0B0
:1005D00000D0CDB7DEB7C12CD12C65E1F62EAA2410
:1005E000A394B12CE8E06E2E77247394F7E08F2E5D
:1005F000A6E09A2E8C2D0E94300D811108C02FEF9D
:10060000C21AD20A38E1C316D104A1F72CC2F601EE
:10061000EE5DFB4F4081342F32953F704F70642F59
:1006200070E07A836983F69EC001F79E900D1124D5
:10063000FC01E30FF11DE55CFB4F4081FC01E65C32
:10064000FB4F232F277040FF9AC181858F5F8187E1
:10065000858586878485858734878185833110F0F9
:1006600012862CC08185803110F0728627C081856A
:100670008D3010F082E004C081858A3018F083E06C
:1006800082871CC08185873010F084E0F9CF818596
:10069000843010F085E0F4CF8185823010F09286AE
:1006A0000DC08185882351F089819A81F89EF001DF
:1006B000F99EF00D1124E65CFB4F8286E981FA81F8
:1006C000FE9EC001FF9E900D1124DC01A65CBB4F75
:1006D0001B961C921B97FC01E45BFB4F3081387F1B
:1006E000232B208320812861208320812F71206A81
:1006F0002083FC01E35BFB4F208128612083208164
:100700002F71206A20831A962C91462D421B20E0DF
:1007100030E058E0452E00E010E0BC01FB01E20FA4
:10072000F31FE55CFB4F908196959F71983151F4D2
:10073000C501022E02C0880F991F0A94E2F7082B08
:10074000192B4A942F5F3F4F2830310539F7141683
:10075000B4F080E090E049815A81F49E9001F59ECA
:10076000300D1124F901E80FF91FE55CFB4F4081C2
:1007700041604083019688309105A1F740CF842FD6
:10078000042E000C990B242D30E082179307B4F04F
:1007900080E090E069817A81F69E9001F79E300DAD
:1007A0001124F901E80FF91FE55CFB4F40814E7FF2
:1007B0004083019688309105A1F721CF69817A8124
:1007C000F69EF001F79EF00D1124E65CFB4F538579
:1007D000850F911D821793078CF055245A94540C61
:1007E00021E030E040E050E089819A81F89EB0013C
:1007F000F99E700D1124665C7B4F28C05384540E03
:10080000EFCFFB01E40FF51F8485883010F5848558
:10081000F50102C0EE0FFF1F8A95E2F70E2B1F2B8A
:100820005A944A94E22E2330310599F0852D57FED3
:1008300002C081E0850D8595082E000C990B2817C4
:1008400039073CF44F5F5F4F2F5F3F4FE42E51104D
:10085000D8CF29813A81F29EF001F39EF00D112448
:10086000E65CFB4F828590E0252D052C000C330BB8
:100870002817390744F093858285981738F45284F5
:100880008385581A05C03324339403C055245394E8
:10089000312C0E94141415147CF5642D70E00E9414
:1008A000E216582FCB0120E030E0E8E040E0F22FE4
:1008B000B501022E02C0660F771F0A94E2F760238B
:1008C0007123672B21F45413FE2F4F5FEF2F2F5FFF
:1008D0003F4F2830310559F7541758F4950102C09D
:1008E000220F331FEA95E2F7022B132B5A944A94F6
:1008F000D2CF00E010E004C0332011F00095109535
:1009000080E090E069817A81F69EA001F79E500D0B
:100910001124FA01E65CFB4F898320E030E02E15BC
:10092000C8F4B901DF01A20FB31F1C96AC912F5F71
:100930003F4FB981AB13F3CFDF01A60FB71F1C9652
:100940002C91DA01A20FB11DA55CBB4F2C912E7F1B
:100950002C9310C0DA01A80FB91FA55CBB4F6C9196
:100960009801082E02C0369527950A94E2F720FBDD
:1009700060F96C9301968830910571F640CE4385FD
:100980004F5F438745854687448545873487FC010B
:10099000E25BFB4F3081387F232B2083208128614D
:1009A000208320812F71206A208320E030E010E036
:1009B00000E0AC01FA01E20FF31FE55CFB4F808120
:1009C00080FF0DC0908196959F71983141F0C501CF
:1009D000022E01C0880F0A94EAF7082B1F5F2F5FD1
:1009E0003F4F2830310531F712300CF408CE0E9409
:1009F0001414612F110F770B0E94E21620E030E0F3
:100A0000E12C10E0E981FA81FE9EA001FF9E500DCD
:100A10001124FA01E45BFB4FB801022E02C0759568
:100A200067950A94E2F760FF18C08E1115C0DA01CD
:100A3000A20FB31FA55CBB4F9C919E7F9C9390819E
:100A4000987F622F6770962B908390819861908336
:100A500090819F71906A9083E3942F5F3F4F28307D
:100A60003105D1F6CCCD80912104882331F081501D
:100A700080932104A12CB12C22C086E0F9CFF6018D
:100A8000EE0DFF1DE55CFB4F808186958F71782E02
:100A9000F7E1F817C8F5FFEFEF1AFF0A28E0E216B2
:100AA000F10469F780912104882309F4CCC04FEF49
:100AB000A41AB40A53E0A516B10409F4F2C0E12C5B
:100AC000F12C65E16A9D60016B9DD00C1124C6017B
:100AD000835B9B4F9A8389838601045B1B4FF601DE
:100AE000E25BFB4FFC83EB83C601865C9B4F4C01B2
:100AF000F0E18F0E911C2C012FE0420E511C1C01C5
:100B000031E1230E311CBBCFE981FA81808185FF61
:100B100007C0F1016081872D0E94680F20E001C0AD
:100B200021E0F8018081877090E0E816F90699F5D8
:100B3000808185FF06C0F4016081872D0E94680FC7
:100B400020E080912104811126C0F80180818695E2
:100B500086958695837071F08081869586958695B9
:100B60008D5F8370982F990F990F990F8081877EE1
:100B7000892B10C0F801808182958695877059F085
:100B80008081807E90EE980F80818F71892B808389
:100B9000808188618083EB81FC818081877090E017
:100BA000E816F906A9F5808185FF06C0F20160818B
:100BB000872D0E94680F20E080912104811128C0B8
:100BC000EB81FC818081869586958695837071F096
:100BD00080818695869586958D5F8370982F990F75
:100BE000990F990F8081877E892B11C0EB81FC8141
:100BF000808182958695877059F08081807E90EE05
:100C0000980F80818F71892B808380818861808398
:100C1000F601EE0DFF1DE55CFB4F808180FF09C0F2
:100C2000222329F0F4016081872D0E94680F61E082
:100C300007C0222321F06DE0872D0E94680F60E03D
:100C4000872DB1D628CF35E13A9DF0013B9DF00DBF
:100C50001124E35BFB4F8081869586958695837092
:100C600071F080818695869586958D5F8370982F2B
:100C7000990F990F990F8081877E892B10C08081F1
:100C800082958695877009F412CF8081807E90EEE0
:100C9000980F80818F71892B808380818861808308
:100CA00006CF80916D04809364048091430488236F
:100CB00049F08091430490916404282F220F820F01
:100CC000890F01C080E080933A0480915804882302
:100CD00049F08091580490916404282F220F820FCC
:100CE000890F01C080E080934F0460914F04809190
:100CF0003A040F900F900F900F90DF91CF911F91BA
:100D00000F91FF90EF90DF90CF90BF90AF909F90AA
:100D10008F907F906F905F904F903F902F900C94AA
:100D20001F117F928F929F92AF92BF92CF92DF92CC
:100D3000EF92FF920F931F93CF93DF93782E8CE067
:100D4000871510F42CE0722E60FF0AC060914F04EA
:100D500080913A040E941F118BE4C1E000E007C0BB
:100D6000809164040E946A1182E1C2E002E0E82EF0
:100D7000F12CC12CD12CD0E0E5E10E9F8001112493
:100D8000065C1B4F9BE0A92EB12C4801F0E18F0EB1
:100D9000911CD715B1F0F8012081C601B5010E9460
:100DA000E216822F90E06817790718F4F401608149
:100DB00001C06DE08D2F0E94680FDF5FCE0CDF1C3D
:100DC000E8CF07E10D1BC12CD12C17E1F5E1CF9F36
:100DD000E0011124C65CDB4F8BE0A82EB12C4E0144
:100DE00080E1880E911C1017A9F02881C601B50179
:100DF0000E94E216822F90E06817790718F4F40138
:100E0000608101C06DE0812F0E94680F1150CE0CEF
:100E1000DF1CE9CFDF91CF911F910F91FF90EF90F1
:100E2000DF90CF90BF90AF909F908F907F9008956C
:100E3000DB016AE00E94D616E82FF0E0EE0FFF1FFC
:100E4000E359FE4F208131812D933C93E92FF0E04F
:100E5000EE0FFF1FE359FE4F80819181FA019183CC
:100E60008083089582E080935F050E940814E091DA
:100E70006205F091630540E061E080E009941F9312
:100E8000CF93DF9390915205913011F4813059F056
:100E900090915205913029F090915205923009F0CD
:100EA000A7C08111A5C0C82F60937A04409379042C
:100EB00081E08093530582E08093540586E080931F
:100EC000A20493E09093A1041092940410929304CE
:100ED0001092A3048093A4048AE08093B4049093B6
:100EE000B3041092A6041092A5041092B504809346
:100EF000B604109295041092990410929D041092D9
:100F0000A7041092AB041092AF040E941414AC0119
:100F1000C13019F4A2E0B0E002C0A1E0B0E090E07E
:100F200012E1692F70E06A177B07ECF420E030E0F3
:100F3000169FE001179FD00D1124842F81708F5FC1
:100F4000F901EE0FFF1FEE0FFF1FEC0FFD1FED5617
:100F5000FB4F8283569547952F5F3F4F23303105D6
:100F600061F79F5FDECF20E030E04CE052E18091FE
:100F70005505869586953817C8F5832F642F0E94EE
:100F8000D61696959695E22FF0E0E558FB4F6081D6
:100F90006C7F62606083E1E0E20F589FD001112412
:100FA00064E0969FA00DB11D1124AD56BB4F139662
:100FB000EC93F0E08370E558FB4F990F990F682F81
:100FC000692B6083E2E0E20FF0E0E558FB4F962FDB
:100FD00090629083E3E0E20FF0E0E558FB4F808100
:100FE0008C7F826080833F5F2C5FC1CF80E001C037
:100FF00081E0DF91CF911F9108952F923F924F9200
:101000005F926F927F928F929F92AF92BF92CF9298
:10101000DF92EF92FF920F931F93CF93DF93CDB7A1
:10102000DEB727970FB6F894DEBF0FBECDBF1D8287
:101030001C82ACE06A2E712CB8E1EB2EF12C12E18F
:10104000912E0BEA402E84E0582E8C81909152050F
:10105000913029F48C819D814496B7010AC090910A
:101060005205923049F48C3048F48C819D81089669
:10107000B3010E94F61603C08C8101C08CE0F0D44D
:10108000882309F4B9C0EC81FD81E558FB4F20812C
:10109000022F0370023008F0AFC0822E869486942F
:1010A000882D8770882E10E090E06C01CC0CDD1C40
:1010B000CC0CDD1C909EF001919EF00D1124D60108
:1010C000AE0FBF1FAD56BB4F12963C911297332304
:1010D00009F492C0229526952770ED56FB4F318179
:1010E0003F5F318312964C91129750E030E02F5FB2
:1010F0003F4F4217530729F420812D5F2083218918
:1011000001C0208915962C93DC011196AA0FBB1FF4
:10111000AA0FBB1F909EF001919EF00D1124AE0FFF
:10112000BF1FAD56BB4F9CE79C9380917A04811101
:101130003AC0ED56FB4F81818530A8F1809179044A
:10114000811105C012821682128656862CC0A0809C
:10115000A49CA12C1124A6942784312CA314D1F093
:10116000BB24B39480915505B81690F49DD7622D99
:101170008B2DAED682E390E0B2D796D7622D81E078
:101180008B0DA6D682E390E0AAD724E0B20EEACF78
:101190003394E4CF909EF001919EF00D1124ED5612
:1011A000FB4F10821182909E5001919EB00C112431
:1011B000F601EA0DFB1DED56FB4F1282F501ED56CF
:1011C000FB4F8685833080F4C684D12C0E94141492
:1011D00081708F5FF601EE0FFF1FEE0FFF1FEA0D0C
:1011E000FB1DED56FB4F8283909EF001919EF00D0A
:1011F0001124ED56FB4F86868C819D8101969D833F
:101200008C83489709F021CF8DE02CD7A12CB12CED
:101210005CE0E52EF12C68E1C62ED12C92E19A9D7E
:1012200090019B9D300D1124F901ED56FB4F8785F0
:101230008A8380E090E03901FC01EE0FFF1FEE0F82
:10124000FF1FE60DF71DED56FB4F228129835380CA
:101250001C012FEF221A320AD101AA0FBB1FAA0FBD
:10126000BB1FA60DB71DAD56BB4F8C918B83458020
:10127000052D10E088248394912C1F830E8399817F
:10128000892F90E09D838C832981282180915205AC
:10129000813039F4083111059CF4C8014496B60137
:1012A0000AC080915205823049F40C30110554F483
:1012B000C8010896B7010E94F61605C0802F03C02A
:1012C00088E101C08CE0622F6ED38C819D818821E2
:1012D0009921892BF9F080915205813039F4083138
:1012E00011059CF4C8014496B6010AC080915205CC
:1012F000823049F40C30110554F4C8010896B70146
:101300000E94F61605C0802F03C088E101C08CE062
:101310006A81DED52FEF821A920A0F5F1F4F83E09A
:101320008816910409F0B0CF9B81992309F493C0EA
:10133000F101EE0FFF1FEE0FFF1FE60DF71DED563B
:10134000FB4F80818150808380915205813041F430
:101350008E819F8189319105A4F44396B6010BC01B
:1013600080915205823051F48E819F818D3091059C
:1013700054F40796B7010E94F61606C08FEF850D4C
:1013800003C088E101C08CE0642DA2D58091520594
:10139000813041F497E1951598F08E819F814496B4
:1013A000B6010BC080915205823061F42BE0251507
:1013B00058F08E819F810896B7010E94F61605C0ED
:1013C00088E103C0852D01C08CE0642D81D580911A
:1013D0005205813041F48E819F8187319105A4F4BB
:1013E0004596B6010BC080915205823051F48E8132
:1013F0009F818B30910554F40996B7010E94F6162F
:1014000006C081E0850D03C088E101C08CE0642D39
:101410005FD580915205813041F48E819F81863164
:101420009105A4F44696B6010BC080915205823016
:1014300051F48E819F818A30910554F40A96B70148
:101440000E94F61606C082E0850D03C088E101C047
:101450008CE0642D3DD5C1018330910509F0ECCEBF
:101460009FEFA91AB90A22E0A216B10409F0D6CE5C
:101470006091A5048091930427960FB6F894DEBF7F
:101480000FBECDBFDF91CF911F910F91FF90EF90D5
:10149000DF90CF90BF90AF909F908F907F906F9094
:1014A0005F904F903F902F90CAC65F926F927F924D
:1014B0008F929F92AF92BF92CF92DF92EF92FF9264
:1014C0000F931F93CF93DF93709055057694672CFD
:1014D000871508F4682E6091A50480919304AFD617
:1014E000E12CF12C04E110E0C8E0D0E0512C872C75
:1014F000912C81E0881A91082CE0C22ED12C38E181
:10150000A32EB12C561409F44FC020919304C701A7
:10151000B4010E94E216822F90E068177907F8F470
:101520002091A20480915205813031F487E1851524
:1015300078F0C801B50109C080915205823051F49C
:101540008BE0851548F0CE01B6010E94F61605C065
:1015500088E103C0852D01C08CE0622F1CC0809102
:101560005205813031F487E1851578F0C801B50165
:1015700009C080915205823051F48BE0851548F006
:10158000CE01B6010E94F61605C088E103C0852D84
:1015900001C08CE06DE09CD4539421960F5F1F4FE7
:1015A0008FE0E80EF11CAECF80915205813009F03A
:1015B00064C0E12CF12C04E110E0C8E0D0E0512C33
:1015C000872C912C81E0881A91088CE0C82ED12CB0
:1015D00098E1A92EB12C561409F44FC02091A5040E
:1015E000C701B4010E94E216822F90E068177907C4
:1015F000F8F42091B40480915205813031F487E1F0
:10160000851578F0C801B50109C080915205823076
:1016100051F48BE0851548F0CE01B6010E94F61614
:1016200005C088E103C0852D01C08CE0622F1CC07D
:1016300080915205813031F487E1851578F0C80139
:10164000B50109C080915205823051F48BE08515B7
:1016500048F0CE01B6010E94F61605C088E103C02D
:10166000852D01C08CE06DE033D4539421960F5F3B
:101670001F4F8FE0E80EF11CAECFDF91CF911F918D
:101680000F91FF90EF90DF90CF90BF90AF909F9021
:101690008F907F906F905F900895CF93DF93EB01D1
:1016A000DA01882329F0813051F485E292E002C00A
:1016B0008DE292E09983888385E392E015C06AE029
:1016C0000E94D616E82FF0E0EE0FFF1FEF52FE4FFC
:1016D0002081318139832883E92FF0E0EE0FFF1F4D
:1016E000EF52FE4F808191818D939C93DF91CF913A
:1016F000089583E080935F05E0916205F0916305B2
:1017000040E061E080E009948093B7041092C8043F
:101710001092B904EAECF4E0ABEBB4E011921D9244
:1017200084E0E63DF807D1F780E00895EF92FF925C
:101730000F931F93CF93DF93C0E011E0DCE70AE043
:1017400098E0F92E8C2F8CD1882309F445C0C43041
:1017500010F498E005C09CEF9C0F9C3038F090EF9F
:101760009C0F48EB54E0E7ECF4E004C047EC54E095
:10177000E8EBF4E03091B704892F90E0323011F5B6
:10178000DF01A80FB91F13962C9113972223D1F0D4
:1017900021812F5F2183223039F0233041F0213025
:1017A00081F4D083F2820EC0D08312820BC0D0832A
:1017B0000283118213961C92FA01E80FF91F13831A
:1017C0000BC01182E80FF91F13833150323020F41F
:1017D000FA01E80FF91F1382CF5FC83109F0B2CFC9
:1017E00087ECE82E84E0F82E08EB14E0C0E0C83067
:1017F00010F4D0E101C0D8EFDC0F8091C70488233A
:1018000041F081508093C7046091C9048D2F60D34B
:1018100019C0F7018381882329F066E08D2F58D302
:1018200061E00EC08091B704882331F0F801838114
:10183000882311F06EE001C06DE08D2F49D360E088
:101840008D2FB1D0D4E0DC0F8091B804882341F013
:1018500081508093B8046091BA048D2F39D319C098
:10186000F8018381882329F062E08D2F31D361E074
:101870000EC08091B704882331F0F701838188235B
:1018800011F06FE001C06DE08D2F22D360E08D2F4D
:101890008AD0CF5FFFEFEF1AFF0A0F5F1F4FCC30E8
:1018A00009F0A5CFDF91CF911F910F91FF90EF909D
:1018B00008959091B804EAECF4E060E080E02191B2
:1018C00021118D5F91116D5F24E0E63DF207B9F7BC
:1018D000B6C4CF93DF93EB01DA01813069F048F0B1
:1018E000823089F481EB92E09983888389EA92E0DF
:1018F0001FC089E992E002C081E992E09983888360
:1019000081EA92E015C06AE00E94D616E82FF0E066
:10191000EE0FFF1FE35CFD4F208131813983288367
:10192000E92FF0E0EE0FFF1FE35CFD4F8081918116
:101930008D939C93DF91CF910895549837C6823050
:1019400031F489B18295817091E08927089580E012
:10195000089508950895089508950895089508959F
:10196000089508950895089508950895089508958F
:1019700088E18093550581E0809352050895883170
:1019800088F490E0FC01EE0FFF1F8E0F9F1FFC01FB
:10199000E85FFA4F60834183228380915005846021
:1019A000809350050895883188F4E82FF0E091E0A5
:1019B000611101C090E0E852FB4F808190FB80F9FB
:1019C000808380915005806180935005089580E068
:1019D00090E0FC01E051FB4F20812D7F2083019698
:1019E00088319105B1F7089520E030E0F901E05128
:1019F000FB4F80818E7F808380818D7F808380817B
:101A000083708C6780832F5F3F4F2831310571F7DA
:101A1000DECFCF938EE084B987E087B988E28AB9B8
:101A200020983B9882E08093B000C1E0C093B10061
:101A300092ED9093B3008093700082E390E0D7D74B
:101A4000789496DF10925305C0935405C0935605C1
:101A50002BD343D3C9DF85E180935005CF910895FF
:101A6000883158F4E82FF0E0E051FB4F80819081FD
:101A70009D7F908386958170089580E008952091E0
:101A80000001205F209300018091530590E0FC014C
:101A9000EE0FFF1F8E0F9F1FFC01E85FFA4F808142
:101AA000821710F0299A01C029988091530590E07F
:101AB000FC01EE0FFF1F8E0F9F1FFC01E85FFA4F26
:101AC000918180910001981710F02A9A01C02A98FC
:101AD0008091530590E0FC01EE0FFF1F8E0F9F1FBA
:101AE000FC01E85FFA4F928180910001981710F095
:101AF0005D9A01C05D988091540590E0FC01EE0F65
:101B0000FF1F8E0F9F1FFC01E85FFA4F90818091AD
:101B10000001981710F0409A01C040988091540538
:101B200090E0FC01EE0FFF1F8E0F9F1FFC01E85F8E
:101B3000FA4F918180910001981710F0419A01C0ED
:101B400041988091540590E0FC01EE0FFF1F8E0F2D
:101B50009F1FFC01E85FFA4F928180910001981766
:101B600010F0429A0895429808958091D6048823EF
:101B700011F0815001C088E08093D604E0915305B4
:101B8000F0E0E852FB4F90818091510590FB80F985
:101B90008093510583B1817091E09827E0915305BE
:101BA000F0E0E051FB4F20812170291731F1E091E5
:101BB0005305F0E0E051FB4F208190FB20F920839A
:101BC000E0915305F0E0E051FB4F9081969596959A
:101BD000A1F4E0915305F0E0E051FB4F882329F098
:101BE000808183708C67808308C08081826080835D
:101BF000809150058061809350052091D604211179
:101C000016C0E0915305F0E0E051FB4F80818695CE
:101C1000869569F0E0915305F0E0E051FB4F80813B
:101C20008C7F9CEF980F80818370892B8083E0915B
:101C30005405F0E0E852FB4F90818091510590FBF4
:101C400081F98093510596B181E0392F387093FD69
:101C500080E0E0915405F0E0E051FB4F90819170FD
:101C60008917F9F0E0915405F0E0E051FB4F9081C5
:101C700080FB90F99083E0915405F0E0E051FB4F38
:101C800080818695869569F4E0915405F0E0E051F5
:101C9000FB4F8081332319F083708C6701C0826011
:101CA0008083211116C0E0915405F0E0E051FB4F14
:101CB00080818695869569F0E0915405F0E0E051C9
:101CC000FB4F80818C7F9CEF980F80818370892BE4
:101CD000808308958091500584FF0BC080E158D522
:101CE000882339F0809150058F7E8093500580E1E4
:101CF0005DD58091500582FF0BC084E049D58823D3
:101D000039F0809150058B7F8093500584E04EC55B
:101D100008951F920F920FB60F9211248F93809106
:101D2000510582FF12C0809151058B7F8093510530
:101D30008091510580FF02C05B9A01C05B98809141
:101D4000510581FF08C02B9A07C08091510584601E
:101D5000809351055B982B988F910F900FBE0F9039
:101D60001F901895EADD55DEF4DD74D080E0BAD519
:101D700084E690E0B4D184E690E0B1D184E690E0CE
:101D8000AEC192D181E09CD18AE06CD184EF91E028
:101D9000A6D186E067D184EF91E0A1D182E062D143
:101DA00084EF91E09CD199D17FC1CF93DF93D09103
:101DB000530510925305C091540581E0809354055A
:101DC00073D16AE080E084D061E080E0ECDD8AEFEE
:101DD00090E085D169D181D168E081E079D061E07E
:101DE00081E0E1DD8AEF90E07AD15ED176D166E0E4
:101DF00080E06ED061E080E0D6DD8AEF90E06FD1C8
:101E000053D16BD164E081E063D061E081E0CBDD50
:101E10008AEF90E064D148D160D162E080E058D090
:101E200061E080E0C0DD8AEF90E059D13DD155D12D
:101E300060E081E04DD061E081E0B5DD8AEF90E0C7
:101E40004ED132D14AD1D0935305C0935405DF917E
:101E5000CF9108951092B60082E084BD94E095BDC4
:101E600016BC9AEF97BD80936E0085BB28C41F9265
:101E70000F920FB60F9211242F933F934F935F93BE
:101E80006F937F938F939F93AF93BF93CF93DF9382
:101E9000EF93FF93CEE6D0E088818D7F888378949E
:101EA0008BD4F894888182608883FF91EF91DF91D1
:101EB000CF91BF91AF919F918F917F916F915F91E2
:101EC0004F913F912F910F900FBE0F901F9018953B
:101ED0007F928F929F92AF92BF92CF92DF92EF92BA
:101EE000FF920F931F93CF93DF93382FE62FC82FC6
:101EF000D0E00CE010E0CE01B80178D7282FCE0159
:101F00000196B80173D7782ECE010B96B8016ED723
:101F1000482FCE010A96B80169D7F82ECE0109964E
:101F2000B80164D7E82ECE010896B8015FD7D82E45
:101F3000CE010796B8015AD7C82ECE010696B80131
:101F400055D7B82ECE010596B80150D7A82ECE0190
:101F50000496B8014BD7982ECE010396B80146D708
:101F6000882ECE010296B80141D7582F383108F09B
:101F70006BC08E2F90E08032910508F065C0FC01A7
:101F8000EC5CFF4F68C7E42FF1CFEF2DEFCF2FEFC1
:101F900019C02FEF40E00EC02FEF19C02FEF4EE118
:101FA0002BC02FEF01C02EE14FEF26C020E0FCCF69
:101FB00020E04FEF6EE125C020E00CC020E04EE1B4
:101FC0000AC020E040E007C02EE1FCCF20E040E066
:101FD00013C02FEF4FEF6FEF14C022E34AE002C0AF
:101FE0002AE042E36AE00DC02AE04AE062E309C069
:101FF00024E6EDCF20E044E660E003C020E040E0CE
:1020000064E6832FDF91CF911F910F91FF90EF90A6
:10201000DF90CF90BF90AF909F908F907F90AFCC8C
:10202000EE2DA4CFED2DA2CFEC2DA0CFEB2D9ECF8A
:10203000EA2D9CCFE92D9ACFE82D98CFE52F96CFAA
:10204000E72D94CFE22F92CFDF91CF911F910F9187
:10205000FF90EF90DF90CF90BF90AF909F908F90C8
:102060007F900895CF93DF93D82FC0E06D2F8C2FF2
:102070002FDFCF5FC831D1F7DF91CF9108950F9354
:102080001F93CF93DF93D82F162F042FC0E0202F5C
:10209000412F6D2F8C2F73DCCF5FC831C1F7DF91DB
:1020A000CF911F910F910895CF93C0E020E040E0C1
:1020B00060E08C2F64DCCF5FC831C1F7CF91089509
:1020C000CF93DF93D82FC0E06D2F8C2F6CDCCF5FC8
:1020D000C831D1F7DF91CF91089580E0F1CF8F9291
:1020E0009F92AF92BF92CF92DF92EF92FF926C01DC
:1020F000F4D24B015C01E12CF12C39DCEBDDEDD2AB
:10210000DC01CB0188199909AA09BB098C159D0529
:10211000AE05BF0590F3FF90EF90DF90CF90BF909A
:10212000AF909F908F90089580E090E0D8CFCF92AD
:10213000DF92EF92FF920F931F93CF93DF938C0167
:10214000D62F662321F081E08093D70402C010923D
:10215000D704C8016AE070E035D67B016C01FC0150
:10216000EE0FFF1FE754FD4F63E080819181F2DBAA
:10217000CC2011F0C8E001C0C0E0C701DD2341F070
:1021800066E070E01FD6D82FC8016CE370E007C08E
:102190006AE070E017D6D82FC80164E670E012D666
:1021A0008B01ED2FF0E0EE0FFF1FE754FD4F62E0D3
:1021B00080819181CFDBD111C460C8016AE070E0F9
:1021C00001D67B018C01FC01EE0FFF1FE754FD4F90
:1021D00061E080819181BEDB0111C260C7016AE0CC
:1021E00070E0F0D58C01FC01EE0FFF1FE754FD4FAE
:1021F00060E080819181AEDB011118C060E08DE765
:1022000093E0A8DBC1FD12C061E08DE793E0A2DBA3
:10221000C2FD0CC062E08DE793E0DF91CF911F918A
:102220000F91FF90EF90DF90CF9094CBDF91CF9103
:102230001F910F91FF90EF90DF90CF900895CF9373
:10224000DF93D62F91E09093D704843640F060E07E
:1022500085E293E07FDB61E085E293E016C06AE00F
:10226000A5D5C92FE82FF0E0EE0FFF1FE754FD4F73
:1022700060E0808191816EDBEC2FF0E0EE0FFF1FBC
:10228000E754FD4F61E08081918164DBD43640F0FA
:1022900062E085E293E05EDB63E085E293E017C0F5
:1022A0008D2F6AE083D5C92FE82FF0E0EE0FFF1FD6
:1022B000E754FD4F62E0808191814CDBEC2FF0E030
:1022C000EE0FFF1FE754FD4F63E080819181DF91A6
:1022D000CF9140CBCF93C82F1092D70460E08DE709
:1022E00093E038DB61E08DE793E034DBC43640F007
:1022F00062E085E293E02EDB63E085E293E017C0C5
:102300008C2F6AE053D5C92FE82FF0E0EE0FFF1FA6
:10231000E754FD4F62E0808191811CDBEC2FF0E0FF
:10232000EE0FFF1FE754FD4F63E080819181CF9155
:1023300011CB0F931F93CF93DF93CDB7DEB72897C1
:102340000FB6F894DEBF0FBECDBF162F1092D70484
:10235000813051F138F0823009F458C0833009F4EB
:1023600092C0E3C080E067FD08C0F7DA41E060E0BA
:102370008DE593E0F5DA41E021C0EFDA41E060E07D
:102380008DE593E0EDDA41E060E085E793E0E8DA9F
:1023900081E0E3DA41E061E08DE493E0E1DA41E0FD
:1023A00061E085E693E0E6C080E067FD24C0D5DA11
:1023B00040E060E085E393E0D3DA40E060E08DE464
:1023C00093E0CEDA81E0C9DA80915F0590E0212FB9
:1023D000012E000C330B2817390741F59E01295FA8
:1023E0003F4FAE014B5F5F4FBE016D5F7F4FCE0130
:1023F00001966CD2B6C0B1DA41E060E085E393E0CB
:10240000AFDA41E060E085E693E030C080E067FD50
:1024100023C0A3DA41E060E085E593E0A1DA41E082
:1024200060E08DE593E09CDA81E097DAE091660563
:10243000F0916705AE014D5F5F4FBE016F5F7F4F4B
:10244000812F099541E061E089819A8189DA41E033
:1024500061E08B819C818EC080DA41E060E085E59F
:1024600093E07EDA41E060E085E793E079DA81E0AD
:1024700074DA41E061E08DE393E072DA41E061E01B
:1024800085E393E077C06623D9F0613009F035C069
:1024900080E063DA41E060E08DE393E061DA41E0FF
:1024A00060E08DE493E05CDA81E057DA41E061E0DE
:1024B00085E393E055DA41E061E08DE493E05AC0B2
:1024C00080E04BDA41E060E08DE393E049DA41E0FF
:1024D00060E08DE493E044DA81E03FDA41E061E0DE
:1024E00085E493E03DDA40E061E08DE293E038DAA4
:1024F00040E061E08DE193E03DC080E02EDA41E014
:1025000060E08DE393E02CDA41E060E08DE693E05B
:1025100027DA81E022DA41E061E085E793E020DA22
:1025200041E061E085E493E025C08E01095F1F4F23
:102530009E012B5F3F4FAE014D5F5F4FBE016F5F4E
:102540007F4F835079D180E008DA41E060E08981F3
:102550009A8106DA41E060E08B819C8101DA81E0BA
:10256000FCD941E061E08D819E81FAD941E061E0D2
:102570008F819885F5D928960FB6F894DEBF0FBEE7
:10258000CDBFDF91CF911F910F910895E7E5F5E061
:1025900080818D7F8083E8E5F5E080818D7F808379
:1025A000E9E5F5E080818D7F80830895E7E5F5E03A
:1025B00080818E7F808380818C6F808380818D7FFE
:1025C0008083E8E5F5E080818E7F808380818C6F59
:1025D000808380818D7F8083E9E5F5E080818E7F37
:1025E000808380818C6F808380818D7F8083CECF3C
:1025F0008150833058F4E82FF0E0E95AFA4F808197
:1026000090819D7F908386958170089580E00895E4
:1026100081508330B0F4E82FF0E0E95AFA4F80811E
:1026200081FF06C080818095282F217030E002C094
:1026300020E030E0232B29F080818D7F808381E0B2
:10264000089580E008958150833038F4E82FF0E059
:10265000E95AFA4F80818170089580E00895CF9300
:10266000DF93C0E0D0E08C2F6AD9FE01E95AFA4F1F
:1026700090819170891781F0908180FB90F990830F
:10268000908196959695A1F4811103C080818C6FFD
:102690000EC0808182600BC080818695869541F056
:1026A00080818C7F9CEF980F80818370892B808341
:1026B0002196C330D105B9F6DF91CF9108958FB738
:1026C000F89410925A0510925B0510925C051092D6
:1026D0005D0510925E058FBF08952FB7F894609145
:1026E0005A0570915B0580915C0590915D052FBF47
:1026F00008958F929F92AF92BF92CF92DF92EF9206
:10270000FF926C01EADF4B015C01E12CF12CE5DF6B
:10271000DC01CB0188199909AA09BB098C159D0513
:10272000AE05BF0510F47894F2CFFF90EF90DF90E4
:10273000CF90BF90AF909F908F90089520E83EEE8D
:1027400046E350E066D3822F089520E63AEE40E05B
:1027500050E05FD3CA01B9012CE330E040E050E023
:1027600058D3862F089528EE33E040E050E051D34F
:10277000CA01B9012CE330E040E050E04AD3862F93
:10278000089528EE33E040E050E043D3CB010895B4
:1027900090915E0597FD08C090915E058095892314
:1027A00080935E0581E0089580E0089590915E0534
:1027B000892B80935E05089580915A0590915B0561
:1027C000A0915C05B0915D050196A11DB11D80939E
:1027D0005A0590935B05A0935C05B0935D058091CD
:1027E0005E05806880935E0580915E0580FDBED8A1
:1027F00080915E0582FD43D980915E0584FF02C011
:10280000B4D92DDF80915E058F7780935E050895A2
:102810001092800081E080938100109285001092D8
:10282000840010926F0008952FB7F894809184006F
:10283000909185002FBF0895EF92FF920F931F9301
:10284000CF93DF93EB017A01811101C084E0E82F7F
:10285000F0E0EE0FFF1FEE57FC4F8081918168EE94
:1028600073E0B0D2660F771FFB01E457FC4F408145
:1028700051815983488364E670E0A4D2660F771FC4
:10288000FB01E457FC4F40815181F70151834083A4
:102890006AE070E097D2660F771FFB01E457FC4FA8
:1028A00040815181F90151834083FC01EE0FFF1FEC
:1028B000E457FC4F80819181F80191838083DF91FF
:1028C000CF911F910F91FF90EF9008950F931F9359
:1028D00089019A01AB01BC0180916805ADDF1F91B0
:1028E0000F91089580936805882309F45DC08230B4
:1028F00029F1F0F4813009F075C089E79BE09093ED
:1029000065058093640584E89BE09093630580935C
:10291000620586E99BE090936A058093690589E5E5
:102920009CE0909361058093600589E69CE056C029
:102930008330F9F0843009F055C036C084E292E06B
:1029400090936505809364058FE992E09093630509
:102950008093620585ED92E090936A058093690506
:1029600081E996E0909361058093600588E197E0A6
:1029700035C082E397E090936505809364058FE30B
:1029800097E090936305809362058DEF97E09093B5
:102990006A058093690585E59AE0909361058093C7
:1029A00060058DE49BE01AC080ED90E09093650592
:1029B000809364058DED90E09093630580936205AC
:1029C00080E091E090936A05809369058FE691E03D
:1029D000909361058093600581E092E09093670594
:1029E00080936605E0916405F09165050994009770
:1029F00059F020ED37E000000000000000002150F9
:102A00003109C9F70197F3CF08958A95F1F7089531
:102A100034E3009729F0232F2A95F1F70197F9CF96
:102A20000895CF93DF93EC016BEF70E00FD16FEE61
:102A300070E0CE010BD16CEE70E0CE01DF91CF9152
:102A400005C1CF93DF93EC0162EC70E0FFD04FE063
:102A50006AEB70E0CE0116D167EB70E0CE01F6D0E4
:102A60006EEA70E0CE01F2D06BEA70E0CE01EED0FB
:102A700068EA70E0CE01DF91CF91E8C0DF92EF927B
:102A8000FF920F931F93CF93DF9300D000D01F923C
:102A9000CDB7DEB77C01CB01042F413208F000E254
:102AA00010E02AE030E0DD24D394D10EE1E0F0E044
:102AB000EC0FFD1FE10FF11DB90184D1805D808312
:102AC000CB01009711F01D2DEECFD01628F480E237
:102AD000F70109950150F9CF1F3F59F0E1E0F0E00F
:102AE000EC0FFD1FE10FF11D8081F70109951150D9
:102AF000F3CF0F900F900F900F900F90DF91CF9129
:102B00001F910F91FF90EF90DF900895EF92FF9249
:102B10000F931F93CF937C018B01C42F77FF0DC0C0
:102B20001195019511098DE2F7010995C13218F44B
:102B3000CC2319F001C0C0E2C1504C2FB801C7012D
:102B4000CF911F910F91FF90EF9098CFEF92FF924E
:102B50000F931F93CF938C017B01C42F47FF07C0B6
:102B6000C19580E3F801099588E7F8010995C5301A
:102B700054F484E090E08C1B9109C7FD9395C82F15
:102B8000CC0FCC0F01C0C0E00C2E02C0EE0CFF1C1D
:102B90000A94E2F7C0318CF48F2D82958F708A30C1
:102BA00010F4805D01C0895CF801099584E0EE0CA9
:102BB000FF1C8A95E1F7CC5FEDCFCF911F910F916C
:102BC000FF90EF900895EF92FF920F931F93CF9392
:102BD000DF937C018B01D42F47FF07C0D19580E3A1
:102BE000F701099582E6F7010995D1311CF4C0E19E
:102BF000CD1B01C0C0E00C2E02C0000F111F0A94B3
:102C0000E2F7C0315CF417FF02C081E301C080E34A
:102C1000F7010995000F111FCF5FF3CFDF91CF911F
:102C20001F910F91FF90EF9008950F931F93CF93F3
:102C3000DF938C01EB018991882319F0F801099544
:102C4000FACFDF91CF911F910F9108950F931F93AA
:102C5000CF93DF938C01FB018491EB0121968823B4
:102C600021F0F8010995BE01F6CFDF91CF911F91B8
:102C70000F910895662319F06EE571E002C068E5D2
:102C800071E0E4CFEF92FF920F931F93CF93DF9306
:102C90007C01CFEFC40FFB01CF3F99F084918F01EE
:102CA0000F5F1F4FDFEFDC0F811106C0C15048F0EE
:102CB00080E2F7010995FACFF7010995F801CD2FC8
:102CC000EBCFDF91CF911F910F91FF90EF9008957F
:102CD000CF93DF93EC016EE471E0B8DF62E471E062
:102CE000CE01B4DF6FE371E0CE01DF91CF91AECFC3
:102CF000CF93DF93EC0163E171E0A8DF67E071E05F
:102D0000CE01A4DF64E071E0CE01DF91CF919ECFD0
:102D100029D883E098DC81110BC033D8E09162059B
:102D2000F091630541E061E080E00995C0E00AC0F0
:102D30003CD8E0916205F091630541E060E081E0FC
:102D40000995C1E00E94F40CE0916905F0916A05D3
:102D50000995EAD983E05CDC8823B1F3CC23E9F060
:102D60009091560580915305890F8093530560918A
:102D70005505809153051AD09093530590915605AF
:102D800080915405890F8093540560915505809179
:102D900054050CD090935405D7CFE0916205F09183
:102DA000630541E061E080E00995CECF991B79E0B1
:102DB00004C0991F961708F0961B881F7A95C9F7CB
:102DC00080950895AA1BBB1B51E107C0AA1FBB1F1A
:102DD000A617B70710F0A61BB70B881F991F5A95A7
:102DE000A9F780959095BC01CD01089597FB072E1A
:102DF00016F4009406D077FD08D0E4DF07FC05D078
:102E00003EF4909581959F4F0895709561957F4F01
:102E10000895A1E21A2EAA1BBB1BFD010DC0AA1F1B
:102E2000BB1FEE1FFF1FA217B307E407F50720F033
:102E3000A21BB30BE40BF50B661F771F881F991FAE
:102E40001A9469F760957095809590959B01AC01F7
:102E5000BD01CF010895EE0FFF1F0590F491E02D05
:062E60000994F894FFCF75
:102E66000115015D0155014D0145013D0135012D5C
:102E76000125011D01060909090909067406090942
:102E8600070101067406090906090906740F0102FD
:102E960004040404740608080E090906740F080ED3
:102EA600010109067402040A0F02020274060901EE
:102EB60006010906740609010204080F7402060ACF
:102EC60002020202740E09090E080808748101C97B
:102ED60001C101B901B101A901A1019901910189BC
:102EE6000106090909090906740609090701010607
:102EF6007406090906090906740F0102040404048C
:102F0600740608080E090906740F080E0101090661
:102F16007402040A0F020202740609010601090678
:102F2600740609010204080F7402060A020202026C
:102F360074E5012D0225021D0215020D020502FD92
:102F460001F501ED010609090909090674060909D1
:102F5600070101067406090906090906740F01022C
:102F660004040404740608080E090906740F080E02
:102F7600010109067402040A0F020202740609011D
:102F860006010906740609010204080F7402060AFE
:102F960002020202740E09090E0808087451029909
:102FA6000291028902810279027102690261025963
:102FB6000206090909090906740609090701010635
:102FC6007406090906090906740F010204040404BB
:102FD600740608080E090906740F080E0101090691
:102FE6007402040A0F0202027406090106010906A8
:102FF600740609010204080F7402060A020202029C
:10300600740E09090E08080874111B1F15111111F9
:10301600750909090F09090974CD0215030D030580
:1030260003FD02F502ED02E502DD02D502060909FD
:103036000909090674060909070101067406090942
:1030460006090906740F010204040404740608083C
:103056000E090906740F080E010109067402040A16
:103066000F02020274060901060109067406090127
:103076000204080F7402060A02020202740000002B
:10308600000000017106090102020002740000003E
:103096000B040404741F15040404040475060908CB
:1030A600060109067411191D1713111175111B1F3D
:1030B60015111111750808080808080F7407090882
:1030C600080B0907740F08080F08080F740708088B
:1030D60008080807740609090F09090974000000A1
:1030E60000000000E207E307E407E607A003E803A1
:1030F600E003D803D003C803C003B803B003A80392
:103106000609090909090674060909070101067471
:1031160006090906090906740F0102040404047469
:103126000608080E090906740F080E01010906743F
:1031360002040A0F02020274060901060109067456
:103146000609010204080F7402060A02020202744A
:00000001FF
