:1000000033C000004DC000004BC0000049C00000DC
:1000100047C0000045C0000043C0000041C00000D0
:100020003FC000003DC000000C94A30E39C000008A
:1000300037C0000035C0000033C0000031C00000F0
:100040002FC000002DC000002BC0000029C0000000
:1000500027C0000025C0000023C0000021C0000010
:100060001FC000001DC0000011241FBECFEFD8E04C
:10007000DEBFCDBF11E0A0E0B1E0E8E1FFE102C0EA
:1000800005900D92AC3AB107D9F723E0ACEAB1E0A4
:1000900001C01D92AF35B207E1F7CFD20C945B0FD0
:1000A000AFCFCF93DF93519A549A599A5C983C986A
:1000B0003D982298CCEAD1E088818E7F8883888120
:1000C000837084668883ADEAB1E08C918E7F8C93D7
:1000D0008C91837084668C93EEEAF1E080818E7F50
:1000E0008083808183708466808388818D7F88830C
:1000F0008C918D7F8C9380818D7F8083DF91CF91D8
:1001000008958150833058F4E82FF0E0E455FE4F15
:1001100080818695817090819D7F9083089580E095
:1001200008958150833038F4E82FF0E0E455FE4F15
:1001300080818170089580E0089586B191E0282F34
:10014000207184FD90E08091AC01817098135AC0B9
:100150008091AC018695869559F08091AC018C7F99
:100160009CEF980F8091AC018370892B8093AC0138
:1001700086B191E0282F207285FD2BC08091AD01C2
:10018000817098132CC08091AD018695869509F0F9
:1001900069C083B191E0282F247082FD90E08091A6
:1001A000AE018170981709F441C08091AE0190FBB7
:1001B00080F98093AE018091AE01211164C08695D3
:1001C000869509F043C08091AE0182608093AE01B4
:1001D000089590E08091AD0181709817A1F280910F
:1001E000AD0190FB80F98093AD018091AD012111AB
:1001F00045C08695869569F68091AD0182608093B1
:10020000AD01C7CF8091AC0190FB80F98093AC0128
:100210008091AC0121111BC08695869509F0A8CF6D
:100220008091AC0182608093AC01A2CF8091AE013D
:100230008695869559F08091AE018C7F9CEF980F42
:100240008091AE018370892B8093AE0108958370F5
:1002500084668093AC0186B191E0282F207285FFDF
:100260008DCFB7CF8091AD018C7F9CEF980F80919F
:10027000AD018370892B8093AD018BCF8370846631
:100280008093AD0186CF837084668093AE0108951C
:10029000389A399A239A259A3A9A3B9A1092CB0126
:1002A0000895DC016430A0F587E0689FF001112417
:1002B000E155FE4F8C91880F880F880F808311962F
:1002C0008C911197880F880F880F818312968C91DB
:1002D0001297880F880F880F828313968C9113973B
:1002E000880F880F880F838314968C911497880F3A
:1002F000880F880F848315968C911597880F880F27
:10030000880F858316968C91880F880F880F8683B7
:100310000895E091CC0130E020E0E73009F42CC1F1
:10032000C901880F991F880F991F880F991FAC0169
:10033000421B530B41555E4FE40FF52FF11D4081D9
:1003400040FD0AC12B982D9A00000000000000001B
:10035000000000000000000000002D9800000000D8
:100360000000000000000000000000000000E0911C
:10037000CC01AC01421B530B41555E4FE40FF52FEE
:10038000F11D408141FDF6C02B982D9A0000000020
:1003900000000000000000000000000000002D9898
:1003A000000000000000000000000000000000004D
:1003B0000000E091CC01AC01421B530B41555E4F54
:1003C000E40FF52FF11D408142FDD2C02B982D9AEC
:1003D000000000000000000000000000000000001D
:1003E00000002D9800000000000000000000000048
:1003F000000000000000E091CC01AC01421B530B57
:1004000041555E4FE40FF52FF11D408143FDAEC015
:100410002B982D9A00000000000000000000000052
:100420000000000000002D98000000000000000007
:1004300000000000000000000000E091CC01AC01D1
:10044000421B530B41555E4FE40FF52FF11D4081C8
:1004500044FD8AC02B982D9A000000000000000087
:10046000000000000000000000002D9800000000C7
:100470000000000000000000000000000000E0910B
:10048000CC01AC01421B530B41555E4FE40FF52FDD
:10049000F11D408145FD66C02B982D9A000000009B
:1004A00000000000000000000000000000002D9887
:1004B000000000000000000000000000000000003C
:1004C0000000E091CC01AC01421B530B41555E4F43
:1004D000E40FF52FF11D408146FD42C02B982D9A67
:1004E000000000000000000000000000000000000C
:1004F00000002D9800000000000000000000000037
:100500000000000000004091CC01821B930B81553C
:100510009E4F840F911DFC01808187FD1FC02B9889
:100520002D9A000000000000000000000000000004
:10053000000000002D9800000000000000000000F6
:1005400000000000000000002F5F3F4F2430310505
:10055000B9F0E091CC01E4CE2B9AF5CE2B9AE0CF06
:100560002B9ABDCF2B9A99CF2B9A75CF2B9A51CF1F
:100570002B9A2DCF2B9A09CF8091CB018823A1F004
:10058000429A00000000000000000000000000008F
:100590000000000042980000000000000000000081
:1005A00000000000000000000895CF93DF93EC01ED
:1005B000892BF9F427C01092CC01409A419A00008F
:1005C000000000000000000000000000000000002B
:1005D0004198000000000000000000000000000042
:1005E0000000000096DE81E090E00E94000D21975F
:1005F00049F08091CC018F5F8093CC018830D8F690
:100600004098DCCFDF91CF9108954BDDD2D740DE0B
:100610000E94760E1092CB0160E088E291E041DE0C
:1006200061E081E291E03DDE62E08FE291E039DE5F
:100630008AE090E00C94AB0B0895CDB7DEB76097DD
:100640000FB6F894DEBF0FBECDBFDFDFADD10E9485
:10065000970E6B017C014B015C012B013C01CF82A9
:10066000D886E986FA861B861F86312C212C1E82AD
:100670001D8210E000E0DC01CB018C599F4FAF4F91
:10068000BF4F89839A83AB83BC8390E0988B033000
:10069000110508F453C00730110509F44FC00E943A
:1006A000970E6B017C0183E02CDD882309F4F6C0F2
:1006B000F801E35AF04F0C94FB0E82E032DD882300
:1006C00009F4ECC081E01DDD882331F09FEF291A89
:1006D000390AA1E02A22332482E013DD01E010E090
:1006E000882329F0B1E02B1A310801E010E0988945
:1006F000D501913009F476C0C4018C599F4FAF4F9A
:10070000BF4F8C159D05AE05BF0528F0C814D90450
:10071000EA04FB0438F4C8010197029708F41BC1EE
:10072000460157010E948D0C0E94670C06DD88E08F
:1007300090E03BDF0330110508F0ADCF89819A814D
:10074000AB81BC818C159D05AE05BF0530F0C4148E
:10075000D504E604F70408F0A2CF9F859F5FABEABB
:100760009A9FA12D1124A695A6958A2F880FA80FD0
:10077000AA0F9A1B9F87E92FF0E0EE0FFF1FE050B2
:10078000FF4F80819181E7D726013701D701C6014C
:100790008C599F4FAF4FBF4F89839A83AB83BC83E4
:1007A0007ECF03E010E032E02316310408F09FCF43
:1007B0008D819E8132D30E943A0C2114310409F0BC
:1007C000EDC00E948B0E0E94970E6B017C01CF82C0
:1007D000D886E986FA8606E010E09889D50191303E
:1007E00009F08ACFC40188539F4FAF4FBF4F8C157C
:1007F0009D05AE05BF0530F0C814D904EA04FB041A
:1008000008F090CF0130110509F4AEC00230110597
:1008100009F086CF62E08CE091E043DD63E08CE09C
:1008200091E03FDDBCE9CB16BFEFDB06EB06FB0634
:1008300008F091C046015701188A74CF81E061DC4D
:100840008823C1F04D815E814F5F5F4F9A01ABEA13
:10085000BAEA0E94010F969587959E838D83880F33
:10086000991F2D813E81820F931FDA01A81BB90BBE
:10087000BE83AD8382E045DC02E010E0882309F40A
:1008800036CF2D813E81215031093E832D8302E0F8
:1008900010E02DCF81E045DC81110FCFF8013197B9
:1008A000E730F10508F023CFEB59F04F0C94FB0E25
:1008B0008F819885A985BA85805E9044AD4FBF4FE2
:1008C0008B879C87AD87BE87BC01CD016C197D09E4
:1008D0008E099F0928EE33E040E050E00E94D90ED7
:1008E00061E0C9010E94170D8B859C85AD85BE8591
:1008F0008C159D05AE05BF0508F0F9CE1092CB0111
:1009000060E081E291E0CDDC61E08AE191E0C9DC68
:1009100062E083E191E0C5DC07E010E0E8CE8AE028
:1009200090E019D78F819885A985BA858A5F984DFF
:10093000AF4FBF4F8C159D05AE05BF05F0F49AD79C
:10094000CF82D886E986FA8606E010E0D0CEC4D4FD
:10095000CECE13D3CCCE6D81C1010E94230E4601B1
:100960005701A1E0A88BDECE60E08CE091E099DC3D
:1009700061E08CE091E095DC55CFBC01CD016C19B4
:100980007D098E099F092AE030E040E050E00E9496
:10099000D90E60E0C9010E94170DA9CE222423942C
:1009A000312C04E010E0A3CEACE0B0E0EAEDF4E0DE
:1009B0000C94100F1092E6011092E5011092E701DD
:1009C0001092F00188E08093F1019091FA019F73F9
:1009D0009093FA019091F9019F739093F90180939C
:1009E000F2018093F3018093F4019091E80191600A
:1009F0009093E8019091E90191609093E9019091C1
:100A0000EA0191609093EA019091EB0191609093DB
:100A1000EB019091EC0191609093EC019091ED01CC
:100A200091609093ED019091EE0191609093EE01B1
:100A30009091EF0191609093EF011092FB01109261
:100A400004028093050290910E029F7390930E0210
:100A500090910D029F7390930D02809306028093F4
:100A60000702809308029091FC0191609093FC0131
:100A70009091FD0191609093FD019091FE01916034
:100A80009093FE019091FF0191609093FF019091EE
:100A90000002916090930002909101029160909306
:100AA00001029091020291609093020290910302E0
:100AB00091609093030210920F021092180280939B
:100AC0001902909122029F73909322029091210229
:100AD0009F739093210280931A0280931B0280934C
:100AE0001C0280911002816080931002809111029B
:100AF00081608093110280911202816080931202C2
:100B000080911302816080931302809114028160AE
:100B10008093140280911502816080931502809168
:100B20001602816080931602809117028160809383
:100B3000170230E020E0F901E353FE4F8081807F0F
:100B4000846080832F5F3F4F28313105A1F707EE86
:100B500011E01A870987D12CC12C84E8A82E8C2D8E
:100B6000813009F453C1823009F449C123E030E0F7
:100B70003093F8012093F701E4E1EC9DD001ED9D65
:100B8000B00D1124BA83A983BD0168517E4FDB01EA
:100B90008C91817C80638C9349815A8147515E4F4F
:100BA000FA018081817C8063808329813A8126518A
:100BB0003E4FD9018C91817C80638C9389819A818D
:100BC00085519E4FDC01EC91E17CE063EC93A981BF
:100BD000BA81A451BE4FEC91E17CE063EC93E981D2
:100BE000FA81E351FE4FF887EF831081117C106387
:100BF000108309811A8102511E4FF8011081117C66
:100C00001063108309811A8101511E4FF801108170
:100C1000117C10631083212C4B012A0139019C8324
:100C20008B83BE83AD83322C09811A811C870B878D
:100C300074D64DD688E090E0B8DC10E000E08B85FB
:100C40009C8582519E4F7C01AB85BC85A151BE4FD6
:100C5000BA83A983BC2DBF70BB2E06C00F5F1F4F88
:100C60000831110509F49EC0202E802F21D688233B
:100C7000A9F3F801E353FE4F80818F708C151D049A
:100C80006CF3D4018C9186958F7120E0801711064A
:100C900009F028E0883108F49BC090E080E040E053
:100CA000D2013C9136953F713017110609F421E0CD
:100CB000383118F081E090E041E0D3013C91369565
:100CC0003F713017110609F422E0383118F082E044
:100CD00090E042E0AB81BC813C9136953F7130178A
:100CE000110609F423E0383118F083E090E043E086
:100CF000AD81BE813C9136953F713017110609F4E4
:100D000024E0383118F084E090E044E0AF81B88509
:100D10003C9136953F713017110609F425E03831C2
:100D200018F085E090E045E0D7013C9136953F71A1
:100D30003017110609F426E0383118F086E090E00B
:100D400046E0A981BA813C9136953F713017110672
:100D500009F442C0383118F087E090E047E030E015
:100D60002830E1F54295407F4B294083EB85FC8597
:100D70008E0F9F1FFC01E851FE4F902F9F71990F1E
:100D80008081817C892B8083A985BA8550966D915D
:100D90007C91822D64D433940F5F1F4F083111056D
:100DA00009F062CFB7E0B31508F042CFEFEFCE1AEB
:100DB000DE0A09851A850C5E1F4F1A87098713E022
:100DC000C116D10409F0CBCE2C96E2E10C942C0F85
:100DD00088E090E048E064CF27E030E0A082EB8537
:100DE000FC85E20FF31FE851FE4F8081817C806318
:100DF000808367E070E0822D32D43A942FCF21E0D7
:100E000030E03093200220931F02B6CE85E090E0C0
:100E100090930C0280930B02AFCE9093E6018093E7
:100E2000E501E7EEF1E01082118688E08287AAEF03
:100E3000B1E09C919F739C93A9EFB1E09C919F734B
:100E40009C93838784878587A8EEB1E09C9191600D
:100E50009C93A9EEB1E09C9191609C93AAEEB1E0C5
:100E60009C9191609C93ABEEB1E09C9191609C93BE
:100E7000ACEEB1E09C9191609C93ADEEB1E09C91A1
:100E800091609C93AEEEB1E09C9191609C93AFEE2B
:100E9000B1E09C9191609C93148A158E868FAEE090
:100EA000B2E09C919F739C93ADE0B2E09C919F73E4
:100EB0009C93878F80A381A3ACEFB1E09C9191605C
:100EC0009C93ADEFB1E09C9191609C93AEEFB1E04B
:100ED0009C9191609C93AFEFB1E09C9191609C9349
:100EE000A0E0B2E09C9191609C93A1E0B2E09C9163
:100EF00091609C93A2E0B2E09C9191609C93A3E0EE
:100F0000B2E09C9191609C9310A611AA82ABA2E2E0
:100F1000B2E09C919F739C93A1E2B2E09C919F737D
:100F20009C9383AB84AB85ABE0E1F2E08081816090
:100F30008083E1E1F2E0808181608083E2E1F2E0A0
:100F4000808181608083E3E1F2E080818160808341
:100F5000E4E1F2E0808181608083E5E1F2E080817C
:100F600081608083E6E1F2E0808181608083E7E157
:100F7000F2E08081816080830895E7EEF1E064898A
:100F80008081F1C508954F925F926F928F929F92E8
:100F9000AF92BF92CF92DF92EF92FF921F93CF93C7
:100FA000DF9387EEC82E81E0D82EB12CA12C94E1DE
:100FB000692ED0E0C0E06A9C40016B9C900C11242B
:100FC000F401E750FE4F2F01C40186509E4F7C0173
:100FD00015C0F7019081292F27702C171D0609F4E1
:100FE0006EC080FD66C067E070E0812F38D360E09E
:100FF000812F35D42196C830D105A1F1F401EC0F31
:10100000FD1FE851FE4F8081182F16951F71F201C8
:101010009081292F27702C171D06D9F621E096FD07
:1010200063C0F2019081892F869586958695877099
:10103000B9F5892F829586958695837011F4906C09
:101040009083F401EC0FFD1FE851FE4F808180FF7B
:1010500023C021112EC061E0812F01D42196C83018
:10106000D10561F6FFEFAF1ABF0A84E1C80ED11CAB
:1010700093E0A916B10409F09CCFDF91CF911F91A5
:10108000FF90EF90DF90CF90BF90AF909F908F90A8
:101090006F905F904F900895222309F4A8CFA3CFBB
:1010A000895F8770880F880F880F977C892B8083D2
:1010B000C8CFF60160897189812FD1D2CCCF21E0D0
:1010C00096FD19C0F7019081892F869586958695A2
:1010D000877031F7892F829586958695837009F000
:1010E000B0CF906C9083ADCFF60160897189812F6C
:1010F000B6D220E096CF64E070E0812FB0D220E03D
:10110000E1CFE82FF0E0E353FE4F8081282F2295B6
:101110002F708F70482F50E034E1839FC00111245D
:10112000FC01E20FF11DE851FE4F308130FF27C076
:10113000DC01A951BE4F19963C9119973F5F199652
:101140003C931997FC01EE50FE4F70816181FC01C8
:10115000ED50FE4F708361831B962C931B973830A4
:1011600008F47BC01A961C9284E1849FF001859F4D
:10117000F00D1124E750FE4F286F208326C0FC019C
:10118000E951FE4F8285823010F08150828784E1E0
:10119000849FF001859FF00D1124E951FE4F858554
:1011A000883008F471C08485883008F47CC0838559
:1011B000883008F47BC084E1849FF001859FF00DA6
:1011C0001124E650FE4F286F208324E1249FC001A4
:1011D000259F900D1124FC01E851FE4F20812160D4
:1011E0002083FC01E751FE4F208121602083FC0118
:1011F000E651FE4F208121602083FC01E551FE4F26
:10120000208121602083FC01E451FE4F2081216078
:101210002083FC01E351FE4F208121602083FC01EB
:10122000E251FE4F208121602083FC01E151FE4FFD
:10123000208121602083FC01E951FE4F2285283066
:1012400059F0E385E83040F4E80FF92FF11DE8513B
:10125000FE4F80818E7F80830895373031F03630A5
:1012600041F482E01A968C937FCF81E01A968C939A
:101270007BCF353029F03430E1F41A963C9374CFAB
:1012800083E01A968C9370CF82E090E034E1349F33
:10129000F001359FF00D1124E951FE4FE80FF91FC1
:1012A00088E0838788CF81E090E0F0CF90E080E015
:1012B000EDCF333021F485E01A968C9355CF323040
:1012C00021F486E01A968C934FCF332309F44CCF48
:1012D00087E01A968C9348CFCF93C0E003C0CF5FCE
:1012E000C83149F08C2FE4D28823C9F38C2F09DF51
:1012F000CF5FC831B9F747DE909118022091F00115
:10130000822F880F820F890F8093E70120910402BA
:10131000622F660F620F690F6093FB0124D4CF9197
:101320000895A82FB0E09BE0899FF0011124ED5AA9
:10133000FD4F60834183228382E18383848385839D
:1013400086838783808781878287818187FD03C029
:1013500093819160938386FD0BC09BE09A9FF0017F
:101360009B9FF00D1124ED5AFD4F9381986093835C
:1013700085FD0BC09BE09A9FF0019B9FF00D11240F
:10138000ED5AFD4F93819064938384FD0BC09BE0E5
:101390009A9FF0019B9FF00D1124ED5AFD4F94810F
:1013A0009160948383FD0BC09BE09A9FF0019B9F0B
:1013B000F00D1124ED5AFD4F94819860948382FDC5
:1013C0000BC09BE09A9FF0019B9FF00D1124ED5AFA
:1013D000FD4F94819064948381FD0BC09BE09A9FA4
:1013E000F0019B9FF00D1124ED5AFD4F9581916006
:1013F000958380FD0BC08BE08A9FF0018B9FF00DE1
:101400001124ED5AFD4F8581886085838BE08A9F8A
:10141000F0018B9FF00D1124ED5AFD4F808187FD67
:1014200003C095819064958386FD0BC09BE09A9FD5
:10143000F0019B9FF00D1124ED5AFD4F96819160B4
:10144000968385FD0BC09BE09A9FF0019B9FF00D5A
:101450001124ED5AFD4F96819860968384FD0BC050
:101460009BE09A9FF0019B9FF00D1124ED5AFD4FD8
:1014700096819064968383FD0BC09BE09A9FF00158
:101480009B9FF00D1124ED5AFD4F9781916097833A
:1014900082FD0BC09BE09A9FF0019B9FF00D1124F1
:1014A000ED5AFD4F97819860978381FD0BC09BE0BB
:1014B0009A9FF0019B9FF00D1124ED5AFD4F9781EB
:1014C0009064978380FD0BC08BE08A9FF0018B9F17
:1014D000F00D1124ED5AFD4F8085816080878BE0EF
:1014E0008A9FF0018B9FF00D1124ED5AFD4F8281F0
:1014F00087FD03C090859860908786FD0BC09BE0B8
:101500009A9FF0019B9FF00D1124ED5AFD4F90859D
:101510009064908785FD0BC09BE09A9FF0019B9F94
:10152000F00D1124ED5AFD4F91859160918784FD56
:101530000BC09BE09A9FF0019B9FF00D1124ED5A88
:10154000FD4F91859860918783FD0BC09BE09A9F2A
:10155000F0019B9FF00D1124ED5AFD4F9185906491
:10156000918782FD0BC09BE09A9FF0019B9FF00D3D
:101570001124ED5AFD4F92859160928781FD0BC039
:101580009BE09A9FF0019B9FF00D1124ED5AFD4FB7
:1015900092859860928780FD0BC08BE08A9FF00156
:1015A0008B9FF00D1124ED5AFD4F82858064828758
:1015B0000895CF935298539A5B98549A5C98579A8F
:1015C0005F98559A5D98569A5E98519A599A509894
:1015D000209A289882E48093C00088E08093C1001C
:1015E00084E08093C2001092C5001092C400519A0A
:1015F00082E184BD82E085BD80E287BDC0E020E05D
:1016000040E060E08C2F8DDECF5FC831C1F787E10D
:1016100090E0FC01ED5DFD4F10820197D0F730E0C6
:1016200020E0F901E55CFD4F80818E7F8083808121
:101630008370806F80832F5F3F4F2831310589F79A
:1016400090E080E0FC01E55CFD4F20812D7F208350
:10165000019688319105B1F77894CF910895B0E063
:10166000A0E0E4E3FBE0E2C3382FFB01883160F542
:10167000082F10E0C8010596C6E0D0E0BE0186D371
:101680007C01C8010496BE0181D36C01C801039698
:10169000BE017CD35C01C8010296BE0177D34C0128
:1016A000C8010196BE0172D3482F292FC801BE017F
:1016B0006DD3E031F10540F4E459F04F9CC322E3CF
:1016C0004AE06AE0832F2DDECDB7DEB7ECE0CAC377
:1016D000E42FF22FEECFF401ECCFF501EACFF601C3
:1016E000E8CFF701E6CF2FEF40E06FEF832F19DE51
:1016F000EBCF2FEF40E060E0832F13DEE5CF2FEF3D
:101700004FEF60E0832F0DDEDFCF20E04FEF60E092
:10171000832F07DED9CF20E04FEF6FEF832F01DE5D
:10172000D3CF20E040E06FEF832FFBDDCDCF2FEF55
:101730004FEF6FEF832FF5DDC7CF20E040E060E093
:10174000832FEFDDC1CF2AE042E36AE0832FE9DD9A
:10175000BBCFFC01AECFB0E0A0E0E0EBFBE064C3A8
:10176000982EA92ED0E0C0E006E010E03C2FED2F2F
:10177000CE010596B8010AD33C01CE010496B8010A
:1017800005D3882EB92ECE010396B801FFD26C0185
:10179000CE010296B801FAD27C012196CE01B801A1
:1017A000F5D2482F292F832F9E2FB801EFD2E92D94
:1017B000FA2DE031F10568F4E458F04F1CC3E42F32
:1017C000F22FF7CFFC01F5CF2AE042E36AE0832F46
:1017D000A8DDC831D10551F6CDB7DEB7EEE040C384
:1017E00022E34AE06AE0832F9CDDF3CF20E040E073
:1017F00060E0832F96DDEDCF2FEF4FEF6FEF832F5C
:1018000090DDE7CF20E040E06FEF832F8ADDE1CF6E
:1018100020E04FEF6FEF832F84DDDBCF20E04FEF31
:1018200060E0832F7EDDD5CF2FEF4FEF60E0832F79
:1018300078DDCFCF2FEF40E060E0832F72DDC9CF9E
:10184000E82DFB2DB6CF2FEF40E06FEF832F69DD42
:10185000C0CFF301AECFF601ACCFF701AACF8831EC
:1018600040F427E130E0281B3109F901ED5DFD4F1F
:101870006083089530E020E0F901E55CFD4F808150
:101880008E7F808380818370806F80832F5F3F4F46
:101890002831310589F790E080E0FC01E55CFD4FDF
:1018A00020812D7F2083019688319105B1F708951D
:1018B000883158F4E82FF0E0E55CFD4F8081869593
:1018C000817090819D7F9083089580E00895599A5A
:1018D000F89470E060E09BE030E020E0969FA0018B
:1018E000979F500D11244D5A5D4F01C0000080910B
:1018F000C00085FFFBCFFA01E20FF31F83818093C5
:10190000C6002F5F3F4F2830310589F76F5F7F4F4B
:101910006831710509F77894089528985B9A81E0F9
:1019200090E07CD090E080E010C0208130FB20F976
:1019300020832081442309F45BC02370206F20831F
:1019400001968831910509F43CC0FC01ED5DFD4F25
:101950002081222309F44AC05C9A5E9A00000000AC
:1019600000000000000000000000000000005E9881
:101970000000000000000000000000000000000067
:10198000000029B131E0422F447022FD30E05B9825
:10199000FC01E55CFD4F208121703213C6CF208110
:1019A0002695269509F4CCCF20812C7F3CEF320F71
:1019B00020812370232B208301968831910509F023
:1019C000C4CF5F9A0000000000000000000000008B
:1019D0000000000000005F98000000000000000010
:1019E0000000000000000000000008955C98B5CFE2
:1019F0002695269509F0A4CF208122602083A0CFD0
:101A0000009759F024EC39E00000000000000000CD
:101A100021503109C9F70197A9F70895009731F0CE
:101A200031E4232F2A95F1F70197D9F70895B0E013
:101A3000A0E0ECE1FDE0FCC1EC01462F9C01ADEC27
:101A4000BCECDFD196958795969587959695879569
:101A50009C01220F331F220F331F280F391F220F23
:101A6000331FFE01E21BF30BEE0FFF1FEA5CFE4F7C
:101A7000E080F1800AE010E0B80188D1FC01EE0FAF
:101A8000FF1FEA5CFE4FA080B1809E01369527952E
:101A900036952795ABE7B4E1B4D16C01D694C794E1
:101AA0004423C9F181E08093CB0163E0C7010E9428
:101AB000510162E0C5010E945101C60166E070E07B
:101AC00065D1FC01EE0FFF1FEA5CFE4F61E08081F3
:101AD00091810E9451019E01369527953695279553
:101AE00036952795AFE4BBE18CD196958795969571
:101AF000879596958795B80149D1FC01EE0FFF1F98
:101B0000EA5CFE4F60E0808191810E945101CDB777
:101B1000DEB7EAE0A9C11092CB0163E0C7010E94E1
:101B2000510162E0C5010E945101C601B8012ED1E8
:101B3000FC01EE0FFF1FEA5CFE4F61E080819181A6
:101B40000E9451019E013695279536952795369529
:101B50002795A5ECB0E255D1929582958F70892793
:101B60009F708927C8CF1F93CF93DF93D82FC62F9D
:101B700081E08093CB01D436D0F060E080E991E041
:101B80000E94510161E080E991E00E945101C43658
:101B900098F162E080E991E00E94510163E080E900
:101BA00091E00E945101DF91CF911F9108951DECAA
:101BB000D19F112D1124169516951695E12FF0E061
:101BC000EE0FFF1FEA5CFE4F60E0808191810E9472
:101BD0005101812F880F880F180F110FD11BED2F86
:101BE000F0E0EE0FFF1FEA5CFE4F61E08081918123
:101BF0000E945101C43668F6DDECCD9FD12D112431
:101C0000D695D695D695ED2FF0E0EE0FFF1FEA5C46
:101C1000FE4F62E0808191810E9451018D2F880FDB
:101C2000880FD80FDD0FCD1BEC2FF0E0EE0FFF1F5C
:101C3000EA5CFE4F63E0808191810E945101DF9157
:101C4000CF911F910895CF93DF93D62F0097D1F0B6
:101C5000019709F447C060E080E991E00E945101DA
:101C600061E080E991E00E94510162E080E991E049
:101C70000E94510163E080E991E00E945101DF91EF
:101C8000CF91089560E085EA91E00E94510161E002
:101C90008EE991E00E945101CDECDC9FC12D112411
:101CA000C695C695C695EC2FF0E0EE0FFF1FEA5CD7
:101CB000FE4F62E0808191810E9451018C2F880F3C
:101CC000880FC80FCC0FED2FEC1BF0E0EE0FFF1FBD
:101CD000EA5CFE4F63E0808191810E945101DF91B7
:101CE000CF91089560E087E991E0CFCF1092800016
:101CF00089E180938100109285001092840080E237
:101D00009EE4909387008093860080E280936F002A
:101D100086BB789408958FB7F89410925B03109265
:101D20005C0310925D0310925E038FBF08952FB77E
:101D3000F89460915B0370915C0380915D039091D6
:101D40005E032FBF08951F921FB61F9211248F9319
:101D50009F93AF93BF9380915B0390915C03A0919D
:101D60005D03B0915E030196A11DB11D80935B03DD
:101D700090935C03A0935D03B0935E03BF91AF911A
:101D80009F918F911F901FBE1F90189597FB072E54
:101D900016F4009406D077FD08D079D007FC05D062
:101DA0003EF4909581959F4F0895709561957F4F72
:101DB0000895A1E21A2EAA1BBB1BFD010DC0AA1F8C
:101DC000BB1FEE1FFF1FA217B307E407F50720F0A4
:101DD000A21BB30BE40BF50B661F771F881F991F1F
:101DE0001A9469F760957095809590959B01AC0168
:101DF000BD01CF010895EE0FFF1F0590F491E02D76
:101E00000994A29FB001B39FC001A39F700D811DD3
:101E10001124911DB29F700D811D1124911D0895F3
:101E20002F923F924F925F926F927F928F929F92EA
:101E3000AF92BF92CF92DF92EF92FF920F931F93D8
:101E4000CF93DF93CDB7DEB7CA1BDB0B0FB6F89489
:101E5000DEBF0FBECDBF09942A88398848885F84C9
:101E60006E847D848C849B84AA84B984C884DF803A
:101E7000EE80FD800C811B81AA81B981CE0FD11D1E
:101E80000FB6F894DEBF0FBECDBFED010895AA1BBB
:101E9000BB1B51E107C0AA1FBB1FA617B70710F055
:101EA000A61BB70B881F991F5A95A9F78095909587
:101EB000BC01CD010895F894FFCF62031E04D10345
:101EC000620362034A044A04620362031E04D103EC
:101ED000A7048F045804A904730B790B7F0B850B9F
:101EE0008B0B910B970B9D0B5F0BA30BA90B680B37
:101EF0006B0B6D0B6F0B710B230C1A0C140C0E0C6F
:101F0000080C020CFC0BF60BF00BE40BE20BDF0BE6
:081F10002D0C2B0C200C290CF8
:101F18000A000B000C000D000E000F000E11080443
:101F2800000C0C1818121C1208060303150F0102E6
:101F38000C0A0A0A04111F0E1F151F1B0E151B0081
:101F48000000000000004A01890182017B01740140
:101F58006D0166015F015801510106090909090966
:101F6800060E11110F01010E0E11110E11110E1F87
:101F78000204080808080E10101E11110E0E101089
:101F88000E01010E02040A1F0202020E11010E01C7
:101F9800110E0609010204080F02060A02020202D3
:101FA8000E110804000C0C1F0404040404040A1B8A
:0C1FB80015151111110F101016110F015A
:00000001FF
