:1000000091C0000097C0000095C0000093C00000A0
:1000100091C000008FC000008DC000008BC00000A8
:1000200089C0000087C0000085C0000083C00000B8
:1000300081C000007FC000007DC000007BC00000C8
:1000400079C0000077C0000075C0000073C00000D8
:1000500071C000006FC000006DC000006BC00000E8
:1000600069C0000067C000000D0A000D0A003136AB
:10007000303030303030003A20002020465F43508E
:100080005500726F626F6C69622F64656C61792FC5
:1000900064656C61792E632032372E30392E323010
:1000A00031352056312E302E300D0A000D0A002039
:1000B000205B656D7074795D0D0A0064656C617913
:1000C0003A0D0A000D0A0020205B656D7074795DA1
:1000D0000D0A00726F626F6C69622F737472696EC1
:1000E000672F737472696E672E632030352E31303E
:1000F0002E323031352056312E312E300D0A000D82
:100100000A0020205B656D7074795D0D0A007374C0
:1001100072696E673A0D0A0066616C7365007472ED
:100120007565000011241FBECFEFD8E0DEBFCDBF44
:10013000EED137C265CF8EE084B987E087B988E217
:100140008AB9089529982A985D985B9840984198B3
:1001500042982B980895F6DF299A84EF91E02FD0EA
:100160002A9A299884EF91E02AD05D9A2A9884EF00
:1001700091E025D05D98409A84EF91E020D0419A9B
:10018000409884EF91E01BD0429A419884EF91E02F
:1001900016D042985B9A84EF91E011D02B9A5B982D
:1001A00084EF91E00CD05B9A2B9884EF91E007D01C
:1001B0002B9A5B9884EF91E002D02B9808950097DA
:1001C00059F020ED37E00000000000000000215051
:1001D0003109C9F70197F3CF08958A95F1F708958A
:1001E00034E3009729F0232F2A95F1F70197F9CFEF
:1001F0000895CF93DF93EC016BEB70E026D16FEAAB
:1002000070E0CE0122D16CEA70E0CE01DF91CF9197
:100210001CC1CF93DF93EC0162E870E016D14FE090
:100220006AE770E0CE012DD167E770E0CE010DD115
:100230006EE670E0CE0109D16BE670E0CE0105D12B
:1002400068E670E0CE01DF91CF91FFC0EF92FF92A0
:100250001F93CF93DF9300D000D000D0CDB7DEB78F
:100260007C01CB01413208F040E220E0EAE0F0E01E
:1002700011E0120F61E070E06C0F7D1F620F711DC5
:100280009B01BF017AD190E3980FD9019C93CB01D8
:10029000212F009769F7141738F480E24E83F70195
:1002A00009954E814150F7CF115050F0E1E0F0E058
:1002B000EC0FFD1FE10FF11D8081F7010995F4CFCF
:1002C00026960FB6F894DEBF0FBECDBFDF91CF915B
:1002D0001F91FF90EF9008950F931F93CF93DF939B
:1002E00000D01F92CDB7DEB78C0177FF13C0719598
:1002F000619571098DE24B8369837A83F8010995D1
:100300004B8169817A81413218F4442319F001C08C
:1003100040E24150C8010F900F900F90DF91CF91B4
:100320001F910F9193CFEF92FF920F931F93CF9353
:10033000DF931F92CDB7DEB77C018B0147FF09C069
:10034000419580E34983F701099588E7F70109950D
:10035000498145304CF424E030E0241B310947FD4D
:100360003395220F220F01C020E0022E02C0000FA1
:10037000111F0A94E2F72031A4F4912F92959F70F7
:100380009A3010F480E301C087E3890F2983F701D5
:10039000099584E0000F111F8A95E1F729812C5FF0
:1003A000EACF0F90DF91CF911F910F91FF90EF90C7
:1003B0000895DF92EF92FF920F931F93CF93DF93F5
:1003C0001F92CDB7DEB77C018B0147FF09C0419575
:1003D00080E34983F701099582E6F7010995498190
:1003E000413124F480E1D82ED41A01C0D12C0D2C37
:1003F00002C0000F111F0A94E2F7FFE0FD155CF048
:1004000017FF02C081E301C080E3F7010995000FE7
:10041000111FD394F2CF0F90DF91CF911F910F91C5
:10042000FF90EF90DF9008950F931F93CF93DF938A
:100430008C01EB018991882319F0F8010995FACF15
:10044000DF91CF911F910F9108950F931F93CF9339
:10045000DF938C01FB018491EB012196882321F02D
:10046000F8010995BE01F6CFDF91CF911F910F9151
:100470000895662319F06EE171E002C068E171E051
:10048000E4CFEF92FF920F931F93CF93DF937C0102
:10049000CFEFC40FFB01CF3F99F084918F010F5F25
:1004A0001F4FDFEFDC0F811106C0C15048F080E222
:1004B000F7010995FACFF7010995F801CD2FEBCF98
:1004C000DF91CF911F910F91FF90EF900895CF93FF
:1004D000DF93EC016EE071E0B8DF62E071E0CE0125
:1004E000B4DF6FEF70E0CE01DF91CF91AECFCF934D
:1004F000DF93EC0163ED70E0A8DF67EC70E0CE0104
:10050000A4DF64EC70E0CE01DF91CF919ECF13DECB
:1005100022DEC0E0189903C05D9A81E002C05D98B8
:1005200080E0339903C0429A81E001C042984C991F
:1005300003C0299A409A0EC02998409881110AC098
:10054000C11103C02A9A419809C0C23351F4419A9B
:100550002A9809C02A984198C11103C05B9A2B9828
:1005600004C0C23311F42B9A5B98CF5FC53608F0F4
:10057000C0E08AE090E023DECDCFAA1BBB1B51E197
:1005800007C0AA1FBB1FA617B70710F0A61BB70B03
:10059000881F991F5A95A9F780959095BC01CD01A8
:0605A0000895F894FFCF5E
:00000001FF
