:1000000091C00000ACC00000AAC00000A8C0000061
:10001000A6C00000A4C00000A2C000000C94CD093E
:100020009EC000009CC000009AC0000098C0000064
:1000300096C0000094C0000092C0000090C0000074
:100040008EC000008CC000008AC0000088C0000084
:1000500086C0000084C0000082C0000080C0000094
:100060007EC000007CC000000D0A000D0A00323086
:10007000303030303030003A20002020465F43508E
:100080005500726F626F6C69622F64656C61792FC5
:1000900064656C61792E632032372E30392E323010
:1000A00031352056312E302E300D0A000D0A002039
:1000B000205B656D7074795D0D0A0064656C617913
:1000C0003A0D0A000D0A0020205B656D7074795DA1
:1000D0000D0A00726F626F6C69622F737472696EC1
:1000E000672F737472696E672E632030352E31303E
:1000F0002E323031352056312E312E300D0A000D82
:100100000A0020205B656D7074795D0D0A007374C0
:1001100072696E673A0D0A0066616C7365007472ED
:100120007565000011241FBECFEFD8E0DEBFCDBF44
:1001300012E0A0E0B1E0E8E0FFE202C005900D921D
:10014000A43AB107D9F724E0A4EAB2E001C01D92B5
:10015000AC39B207E1F70E9495120C94591750CFB1
:1001600008950895CF93DF9384E08093F302A7EA84
:10017000B2E0FD0120E030E05DE046E099E1529F11
:10018000E001539FD00D1124C955DD4F8881807F38
:1001900088608883118642879183928397839087B2
:1001A0002F5F3F4F3D962430310549F720E030E086
:1001B000E22F822F87702830C8F411962C93119764
:1001C00090E0F901E552FD4F880F880F880F892BC9
:1001D0008F739081907C892B80832F5F3F4F119686
:1001E0002831310529F7DF91CF9108952C3050F453
:1001F000EAEFE20FF0E0E955FD4F26878E5F87704A
:1002000091E0DFCF243148F4EC50F0E0E955FD4FA8
:10021000238F8C5F877092E0D4CFE251F0E0E955F4
:10022000FD4F20A78A5F877093E0CBCF5F926F92DC
:100230007F928F929F92AF92BF92CF92DF92EF9276
:10024000FF920F931F93CF93DF938DE00E94E50AF7
:1002500010E08DE0982ECC24C394D12C8091F30231
:10026000181780F0DF91CF911F910F91FF90EF90C1
:10027000DF90CF90BF90AF909F908F907F906F90C6
:100280005F900895919EE0011124C955DD4F8A8445
:1002900079840B856C84E12CF12C5E01F501808161
:1002A0008F70E81638F0011519F083858150838727
:1002B0001F5FD4CFB6010E2C01C0660F0A94EAF777
:1002C000572C5622652D89818CD4662D011103C0CF
:1002D000511421F0682D89810E94670A8FEFE81A76
:1002E000F80A2196DBCFDF92EF92FF920F931F93D4
:1002F000CF93DF93F62ED42E90E0E12C2DE0829F59
:10030000E0011124C055DD4F01E010E09883EF10AB
:1003100008C0DF91CF911F910F91FF90EF90DF9078
:1003200008950E943B104881282F217033272D5FAC
:100330003F4FC80102C0880F991F2A95E2F79C0120
:10034000942F90959D219223942BE394DFCF1F93BC
:10035000CF93DF93D82F162FC0E08091F302C817F8
:1003600020F0DF91CF911F910895412F6D2F8C2F99
:10037000BADFCF5FF2CF0F931F93CF93DF93D82FC6
:10038000162FC0E00DE08091F302C81728F0DF912E
:10039000CF911F910F9108950C9FF0011124E95501
:1003A000FD4F8185811104C0412F6D2F8C2F9BDF64
:1003B000CF5FE9CF81E0809384040E942F10E09109
:1003C0008B04F0918C0440E061E080E00994CF93CD
:1003D000982FC62F80919204813079F491110BC02F
:1003E0001092A6021092A502BDDE68E181E0AFDFA7
:1003F000C093A40280E0CF91089581E0FCCFCF921A
:10040000DF92EF92FF920F931F93CF93DF93E12C34
:10041000F12C8DE0D82E01E010E09CE7C92E8E2D46
:1004200019D4811509F444C0F701E552FD4F8081CC
:10043000C82FC770DC9EE0011124FE01E955FD4F75
:1004400091859115A9F18695869586958770980175
:10045000082E01C0220F0A94EAF792239115F9F0B1
:100460008091A6028F5F8093A60292E1FE01E9557A
:10047000FD4F94878091A5028F5F8093A502C3866C
:100480009091A402911129C0863038F11092B002E7
:100490001092BD021092CA021092D70209C028E140
:1004A00030E002C0359527958A95E2F720FDDECF32
:1004B0008FEFE81AF80A88E1E816F10409F0AFCFE7
:1004C000B5DE8091A602DF91CF911F910F91FF9031
:1004D000EF90DF90CF900C94D30C68E181E04BDF7C
:1004E000C955DD4F1986E4CFCF93DF9300D000D0FC
:1004F00000D0CDB7DEB74091A5022091A60236E02C
:100500005EE066E070E080E090E00F900F900F906A
:100510000F900F900F90DF91CF910895CF93DF93BD
:10052000EB01DA0181110BC08CE591E0998388839E
:1005300084E691E08D939C93DF91CF9108956AE0DA
:100540000E94FE16E82FF0E0EE0FFF1FE050FF4F75
:100550002081318139832883E92FF0E0EE0FFF1FDE
:10056000E050FF4F80819181E5CF389A399A239AE4
:10057000259A3A9A3B9A1092FA021092F802109237
:10058000F70281E08093F402E5EFF2E08FE08083F0
:10059000818308950F931F93CF93DF93643008F006
:1005A0004BC070E0FB01E059FE4F308164597E4F33
:1005B000DB014C912CEF241B632F70E0FB01EB500F
:1005C000FD4F3081230F422FEFE1F0E0DF0102C049
:1005D000AA0FBB1F2A95E2F79D0120953095E09167
:1005E000F702DB01AE0FB11DAE0FB11DFD0154E0EE
:1005F000EE0FFF1F5A95E1F7E550FD4FDC01BC01FE
:10060000695F7F4F0191119102231323EF011A9328
:100610000A938D918F7190E0042E02C0880F991F6C
:100620000A94E2F7802B912B99838883A617B7074A
:1006300049F781E08093F402DF91CF911F910F91F0
:1006400008958430A0F590E0FC01E059FE4F208130
:1006500084599E4FFC0190818CEF891B30E0F90199
:10066000EB50FD4F9081890F4FE150E002C0440FE5
:10067000551F8A95E2F7E091F702C9018E0F911D8F
:100680008E0F911DFC0184E0EE0FFF1F8A95E1F7AC
:10069000E550FD4F87E021913191DF012427352777
:1006A0003E932E938A95B9F781E08093F4020895E2
:1006B000DC016230C0F51E964C911E971F962C915E
:1006C0001F978091F702E82FF0E070E0EE0FFF1F18
:1006D000E60FF71F94E0EE0FFF1F9A95E1F7E55044
:1006E000FD4F4B30D0F446872787BD01625F7F4FB7
:1006F00020E130E0241B31098D919D91022E02C032
:10070000880F991F0A94E2F781939193A617B70770
:1007100099F781E08093F402089580E1DF011D9252
:100720008A95E9F7F6CF08958230B8F49091F702F0
:10073000E82FF0E0E90FF11DE90FF11D84E0EE0F65
:10074000FF1F8A95E1F7E550FD4F80E1DF011D9223
:100750008A95E9F781E08093F40208958230E0F40D
:100760009091F702E82FF0E0E90FF11DE90FF11D7C
:1007700084E0EE0FFF1F8A95E1F7E550FD4F87E01B
:1007800021913191DF01209530953E932E938A95EA
:10079000B9F781E08093F4020895FF920F931F93BD
:1007A000CF93DF93DC01623068F517965C91179761
:1007B0005F708091F70290E0C62FD0E09C01220F7D
:1007C000331FF901E60FF11D14E0EE0FFF1F1A951C
:1007D000E1F7E550FD4F7685672F4115C9F071159A
:1007E000C9F041E0072F050F1127111F0A3011052D
:1007F0000CF040E0F42E6F2D670F6B3060F081E05D
:100800008093F402DF91CF911F910F91FF90089593
:10081000F12CF1CFF12CF901EC0FFD1F24E0EE0FCC
:10082000FF1F2A95E1F7E550FD4F70E07787668757
:1008300021E030E0052E02C0220F331F0A94E2F7B8
:1008400021503109FC01EE0FFF1FEC0FFD1F64E08A
:10085000EE0FFF1F6A95E1F7E550FD4FBD01695F9F
:100860007F4F80E190E0EC01C51BD109AE01019101
:1008700011910F2C02C0169507950A94E2F7EF012B
:100880001A930A938D9190E082239323042E02C041
:10089000880F991F0A94E2F7802B912B9983888304
:1008A000A617B70721F7ABCF0F931F93CF93DF9313
:1008B000DC01623008F06FC017963C9117973F70CB
:1008C0008091F70290E0C62FD0E08C01000F111F3D
:1008D000600F712F711DF4E0660F771FFA95E1F735
:1008E00065507D4FFB015685411549F0511539F092
:1008F00021E0E52FE30FFF27FF1F3A970CF020E0E0
:10090000250F432F420F4B3008F042C0F801EC0F87
:10091000FD1F54E0EE0FFF1F5A95E1F7E550FD4F24
:1009200050E05787468741E050E0032E02C0440F55
:10093000551F0A94E2F741505109FC01EE0FFF1FC9
:10094000EC0FFD1F74E0EE0FFF1F7A95E1F7E55005
:10095000FD4FBD01695F7F4F80E190E0821B9109EF
:10096000EC01C31BD1099E01019111918D91EF0101
:1009700090E084239523022E02C0880F991F0A94C9
:10098000E2F7802B912B9A938A93A617B70761F70A
:1009900081E08093F402DF91CF911F910F91089530
:1009A0008091F402811509F181E00E94AA1081155D
:1009B000E1F01092F80281E08093F70280E1EBE130
:1009C000F3E0ABEFB2E001900D928A95E1F780E1A0
:1009D000EBE2F3E0ABE0B3E001900D928A95E1F732
:1009E0001092F40281E00C94B81008952D9A000042
:1009F00000000000000000000000000000000000F7
:100A00002D98000000000000000000000000000021
:100A1000000000000895603110F02B9823C09091E1
:100A2000F802E42FF0E0E90FF11DE90FF11D93E06A
:100A3000EE0FFF1F9A95E1F7E80FF11DEE0FFF1F74
:100A4000E550FD4F81E090E09C0102C0220F331F72
:100A50006A95E2F7B9018081918168237923672B38
:100A6000E1F22B9AC3CF419A000000000000000081
:100A7000000000000000000000004198000000009D
:100A800000000000000000000000000000000895C9
:100A90008091F9028F5F8093F902883020F01092E4
:100AA000F902409AE0CF4098FDCFCF931092F9021F
:100AB000C0E0C73039F4409AD6DFCF5FC830C9F7FD
:100AC000CF9108954098F8CF429A000000000000AE
:100AD000000000000000000000000000429800003C
:100AE0000000000000000000000000000000000006
:100AF0000895BF92CF92DF92EF92FF920F931F93D0
:100B0000CF93DF938091F902C3E0D0E09CEFC92E30
:100B100026E0B22E873041F58091FA028115A1F1CD
:100B2000DF91CF911F910F91FF90EF90DF90CF90C9
:100B3000BF90CACFF7014081F8016081FC2DF61B00
:100B40006F2FE42FF0E0EB50FD4F8081680F6D0DAB
:100B50008091F9029B2D981B892F5DDFDA94EFEFCE
:100B6000DE12E8CF2197E0F22B9840DF2B983EDF92
:100B70002B983CDF84E0D82ECE0180599E4F7C011B
:100B80008E0104591E4FD6CFDF91CF911F910F9147
:100B9000FF90EF90DF90CF90BF900895CF93DF93B9
:100BA000EC01209719F4DF91CF91089571DFA1DF57
:100BB00081E090E00E94ED102197F3CF69DF99CF9B
:100BC000883170F49BE0899FF0011124EC5AFC4FAE
:100BD00060834183228380913B03846080933B0345
:100BE0000895909193048917A0F4E0919304E81B71
:100BF000FF0B319791E0611101C090E0E45CFC4F84
:100C0000808190FB81F9808380913B038061809398
:100C10003B03089580E090E0FC01E45AFB4F208103
:100C20002B7F2083019688319105B1F7089580E0EC
:100C300090E0FC01E45AFB4F20812E7F208320812D
:100C40002D7F20832081286F208301968831910594
:100C500081F7E0CF883160F4E82FF0E0E45AFB4FF1
:100C6000808182FB882780F990819B7F9083089503
:100C700080E00895599AF89480E090E06BE020E0DD
:100C800030E0689FA001699F500D11244C5A5C4FC1
:100C900001C000007091C00075FFFBCFFA01E20FA8
:100CA000F31F73817093C6002F5F3F4F28303105CB
:100CB00089F701968831910511F77894089580910C
:100CC0003B0384FF2DC080E10E94AA10811541F1F1
:100CD00080E090E0FC01E45CFC4F3081208131FB3E
:100CE00020F92083FC01E45AFB4F308136953170A6
:100CF000208122FB222720F9232B308120FB32F98F
:100D0000308320812D7F208301968831910511F752
:100D100080913B038F7E80933B0380E10E94B8105B
:100D200080913B0382FF42C184E00E94AA1081119E
:100D300001C0089580E090E02BE042E1289FF0019F
:100D4000299FF00D1124EC5AFC4F438344834583C3
:100D500046834783408741874287318137FD03C0FF
:100D600053815160538336FD0AC0289FF001299FAB
:100D7000F00D1124EC5AFC4F53815860538335FD1C
:100D80000AC0289FF001299FF00D1124EC5AFC4F56
:100D900053815064538334FD0AC0289FF001299F7A
:100DA000F00D1124EC5AFC4F54815160548333FDF3
:100DB0000AC0289FF001299FF00D1124EC5AFC4F26
:100DC00054815860548332FD0AC0289FF001299F46
:100DD000F00D1124EC5AFC4F54815064548331FDC2
:100DE0000AC0289FF001299FF00D1124EC5AFC4FF6
:100DF00055815160558330FD0AC0289FF001299F1D
:100E0000F00D1124EC5AFC4F358138603583289F52
:100E1000F001299FF00D1124EC5AFC4F308137FD71
:100E200003C055815064558336FD0AC0289FF001E8
:100E3000299FF00D1124EC5AFC4F568151605683C6
:100E400035FD0AC0289FF001299FF00D1124EC5AAE
:100E5000FC4F56815860568334FD0AC0289FF0012C
:100E6000299FF00D1124EC5AFC4F56815064568393
:100E700033FD0AC0289FF001299FF00D1124EC5A80
:100E8000FC4F57815160578332FD0AC0289FF00103
:100E9000299FF00D1124EC5AFC4F5781586057835D
:100EA00031FD0AC0289FF001299FF00D1124EC5A52
:100EB000FC4F57815064578330FD0AC0289FF001D2
:100EC000299FF00D1124EC5AFC4F3085316030879A
:100ED000289FF001299FF00D1124EC5AFC4F32811C
:100EE00037FD03C050855860508736FD0AC0289FE3
:100EF000F001299FF00D1124EC5AFC4F50855064ED
:100F0000508735FD0AC0289FF001299FF00D11245C
:100F1000EC5AFC4F51855160518734FD0AC0289F1F
:100F2000F001299FF00D1124EC5AFC4F51855860B7
:100F3000518733FD0AC0289FF001299FF00D11242D
:100F4000EC5AFC4F51855064518732FD0AC0289FEE
:100F5000F001299FF00D1124EC5AFC4F528551608D
:100F6000528731FD0AC0289FF001299FF00D1124FE
:100F7000EC5AFC4F52855860528730FD0AC0289FBA
:100F8000F001299FF00D1124EC5AFC4F328530649A
:100F9000328701968831910509F0D0CE80913B03CC
:100FA0008B7F80933B0384E00C94B81008955E9A85
:100FB0000000000000000000000000000000000031
:100FC00000005E980000000000000000000000002B
:100FD0000000000000000895CF93DF9328985B9AEB
:100FE00084E690E00E940011D0EF289AC9B15B9886
:100FF000DEDFDA95D1F78827C2FF8395109293043C
:10100000C1E081110BC02898D2DF809193048F5FDB
:101010008093930480919304893188F080919304A4
:10102000883199F481E0809392048091930489310E
:1010300018F088E180939304DF91CF910895882779
:101040004A9983958C275B98DCCF809193048C30F0
:1010500011F482E0E8CF10929204E7CF5298539AAD
:101060005B98549A5C98579A5F98559A5D98569AEF
:101070005E98519A599A5098209A289882E48093C1
:10108000C00088E08093C10084E08093C200109289
:10109000C5001092C400519A82E184BD82E085BDF2
:1010A00080E287BDD7D2EFD2C2DD789495DF85E1AB
:1010B00080933B0308955F9A000000000000000049
:1010C000000000000000000000005F980000000029
:1010D0000000000000000000000000000000089573
:1010E0001F93CF93DF9328985B9A81E090E00E9452
:1010F000001180917404811569F18150809374040A
:10110000C0E0D0E011E0FE01E45CFC4F808180FF94
:1011100023C05C9A4CDF89B1282F247082FB88277A
:1011200080F981275B98FE01E45AFB4F9081917012
:10113000891719F1908180FB90F9908380818695C1
:1011400086958695811111C08081211539F0886FAF
:1011500080830BC088E0D2CF5C98DCCF8260808334
:1011600080913B03806180933B032196C831D10578
:1011700051F6DF91CF911F919ECF80917404811120
:10118000F4CF8081869586958695811571F390813F
:10119000987F985080818770892BDACF8F929F92A9
:1011A000AF92BF92CF92DF92EF92FF921F93CF93B5
:1011B000DF9377D76B017C0146015701D0E0C0E097
:1011C0001CE0D501C4018C509E4FAF4FBF4F8C1512
:1011D0009D05AE05BF0528F0C814D904EA04FB0438
:1011E00070F481E08C0F612F0E94FE16C92FE92F49
:1011F000F0E0EC58FE4F8081E8D14601570151D70D
:101200006B017C0183E097D2D82BD115C9F083E024
:101210006ED2811569F081E0DF91CF911F91FF902F
:10122000EF90DF90CF90BF90AF909F908F9010C1C4
:1012300081E05DD282E05BD260E084E07DD5D1E0E8
:10124000DAD2BFCF1092FA0260E080E891E030DAA3
:1012500061E080E991E02CDA84E1B7C173D0FEDE71
:1012600084D98AD080E0F4D084E690E0A1D2EADF8D
:1012700083E061D2811192DFE5CFCF93CCE0811181
:1012800006C0AADE8091930468E1CF9139C309D7E3
:101290006C307E4F8F4F9F4F40F0809176048F5F70
:1012A0006C2F0E94FE1690937604D4D1E0917604C0
:1012B000F0E0EC58FE4F60818091750408D1E3D1D5
:1012C00061E0809175048DDC80917504C3DC81152B
:1012D00059F0809175048F5F809375049091930409
:1012E000891710F01092750481E001D2811561F028
:1012F00080917504209193042150330B82171306BB
:10130000CCF48F5F8093750482E0F1D1811539F0C0
:1013100080917504811589F081508093750483E074
:10132000E6D181110DC06091930480917504E8D2DB
:1013300062D2ADCF10927504E7CF80919304ECCFC9
:10134000CF9108953C983D982298AFC1982F813055
:1013500041F0823059F081110DC08827349B83956C
:1013600008958827359983958927089588271A9B9A
:101370008395089580E008951092B60082E08093EE
:10138000B00095E09093B1001092B2009CE9909368
:10139000B3008093700087BB76C61F920F920FB682
:1013A0000F9211242F933F934F935F936F937F93EB
:1013B0008F939F93AF93BF93CF93DF93EF93FF935D
:1013C000C0E7D0E088818D7F88837894D7D6F89461
:1013D000888182608883FF91EF91DF91CF91BF91E7
:1013E000AF919F918F917F916F915F914F913F91BD
:1013F0002F910F900FBE0F901F9018950F931F9372
:1014000089EB91E0FB019183808369EA71E0FA0145
:1014100071836083F9019183808381EB91E0F8010E
:10142000918380831F910F910895E9EBF1E0DC0136
:10143000ED93FC9389EA91E0DB018D939C93DA01B3
:10144000ED93FC9381EB91E0F90191838083089502
:10145000809377048230F0F48AED91E090938E04CB
:1014600080938D0487EE91E090938C0480938B049D
:101470008FEF91E090938A048093890484E792E04F
:1014800090938804809387048EE892E0909386047A
:101490008093850480E29FEBA2E0B0E0809380041B
:1014A00090938104A0938204B093830480EC94ED24
:1014B000A1E0B0E080937C0490937D04A0937E042F
:1014C000B0937F04E0918D04F0918E040994382F3D
:1014D000862F383108F078C0803208F075C0E82FC8
:1014E000F0E0EC59F84E0C9453172FEF40E01BC07E
:1014F0002FEF40E06EE1832F63CB2FEF40E002C07F
:101500002FEF4EE160E0F7CF2FEF4FEFFBCF2EE153
:10151000FCCF20E0FACF20E04FEFECCF20E04FEF00
:1015200002C020E04EE16FEFE6CF20E0DFCF2EE1FA
:10153000DDCF20E0E3CF2FEFF2CF22E34AE06AE0F5
:10154000DACF2AE042E3FBCF2AE04AE062E3D3CFDE
:1015500024E6D4CF20E044E6D5CF20E040E064E6A6
:10156000CACF832F90E00B966CE070E00E941E17AC
:10157000B3CF832F90E00A96F7CF832F90E00996A0
:10158000F3CF832F90E00896EFCF832F90E007965C
:10159000EBCF832F90E00696E7CF832F90E0059660
:1015A000E3CF832F90E00496DFCF832F90E0039664
:1015B000DBCF832F90E00296D7CF832F90E0019668
:1015C000D3CF832F90E0D0CF0895CF93DF93D82F40
:1015D000C0E06D2F8C2F7BDFCF5FC831D1F7DF915B
:1015E000CF9108950F931F93CF93DF93D82F162F8A
:1015F000042FC0E0202F412F6D2F8C2FE1DACF5F19
:10160000C831C1F7DF91CF911F910F9108950F93CA
:101610001F93CF93DF93182F042F80919304869FFD
:10162000C001112464E670E00E940A17D62FC0E0C2
:1016300080919304C81728F0DF91CF911F910F91EB
:101640000895602FDC1708F0612F8C2F40DFCF5FEB
:10165000EFCF0895CF93C0E020E040E060E08C2F12
:10166000AFDACF5FC831C1F7CF910895CF93DF9341
:10167000D82FC0E06D2F8C2FB4DACF5FC831D1F7EF
:10168000DF91CF91089580E0F1CFE4E9F4E080812B
:101690008D7F8083E5E9F4E080818D7F8083E6E9BA
:1016A000F4E080818D7F80830895E4E9F4E0808117
:1016B0008E7F808380818C6F808380818D7F80830B
:1016C000E5E9F4E080818E7F808380818C6F808368
:1016D00080818D7F8083E6E9F4E080818E7F808346
:1016E00080818C6F808380818D7F8083CECF81507D
:1016F000833058F4E82FF0E0EC56FB4F808186955C
:10170000817090819D7F9083089580E0089581503D
:10171000833078F4E82FF0E0EC56FB4F808181FFB6
:1017200008C0808180FD05C080818D7F808381E03D
:10173000089580E008958150833038F4E82FF0E078
:10174000EC56FB4F80818170089580E00895CF931F
:10175000DF93C0E0D0E08C2FF9DDFE01EC56FB4FAB
:10176000908191709817C1F0908180FB90F99083DF
:10177000908196959695911105C081110AC080813E
:101780008C6F80832196C330D10529F7DF91CF91EB
:10179000089580818260F5CF808186958695811538
:1017A00089F390819C7F945080818370892BE9CF4D
:1017B0008F929F92AF92BF92CF92DF92EF92FF9261
:1017C0006C016FD44B015C01E12CF12CE9D877DA84
:1017D00068D4681979098A099B096C157D058E05FD
:1017E0009F05A0F3FF90EF90DF90CF90BF90AF9058
:1017F0009F908F90089580E090E0DACFEF92FF9273
:101800000F931F93CF93DF93D62F21E0611101C077
:1018100020E02093FA026AE070E00E940A178B0130
:101820007C01FC01EE0FFF1FEF53FE4F63E0808150
:1018300091810E94CA02C1E0E11001C0C0E0CC0F5A
:10184000CC0FCC0FC80166E070E0D11102C06AE095
:1018500070E00E940A17D82F8B01E82FF0E0EE0FFE
:10186000FF1FEF53FE4F62E0808191810E94CA0208
:10187000D111C460C8016AE070E00E940A177B01C0
:101880008C01FC01EE0FFF1FEF53FE4F61E08081E2
:1018900091810E94CA02012B09F0C260C7016AE06F
:1018A00070E00E940A178C01FC01EE0FFF1FEF533E
:1018B000FE4F60E0808191810E94CA02012BC9F431
:1018C00060E08DE992E00E94CA02C1FD12C061E0B1
:1018D0008DE992E00E94CA02C2FD0BC062E08DE970
:1018E00092E0DF91CF911F910F91FF90EF900C94B8
:1018F000CA02DF91CF911F910F91FF90EF90089551
:10190000CF93DF93D62F91E09093FA028436C0F004
:1019100060E08DE292E00E94CA0261E08DE292E016
:101920000E94CA02D43628F162E08DE292E00E9461
:10193000CA0263E08DE292E0DF91CF910C94CA027B
:101940006AE00E94FE16C92FE82FF0E0EE0FFF1F9D
:10195000EF53FE4F60E0808191810E94CA02EC2F1C
:10196000F0E0EE0FFF1FEF53FE4F61E080819181A9
:10197000D7CF8D2F6AE00E94FE16C92FE82FF0E026
:10198000EE0FFF1FEF53FE4F62E0808191810E94B6
:10199000CA02EC2FF0E0EE0FFF1FEF53FE4F63E0A3
:1019A00080819181C9CFCF93C82F1092FA0260E055
:1019B0008DE992E00E94CA0261E08DE992E00E9406
:1019C000CA02C43658F062E08DE292E00E94CA0278
:1019D00063E08DE292E0CF910C94CA028C2F6AE012
:1019E0000E94FE16C92FE82FF0E0EE0FFF1FEF5305
:1019F000FE4F62E0808191810E94CA02EC2FF0E0EC
:101A0000EE0FFF1FEF53FE4F63E080819181E3CF24
:101A1000CF93DF9300D000D000D0CDB7DEB7842FB6
:101A20006B83923049F40F900F900F900F900F90AE
:101A30000F90DF91CF91B7CF6B810F900F900F90E8
:101A40000F900F900F90DF91CF915ACF6F927F92AE
:101A50008F929F92AF92BF92CF92DF92EF92FF92BE
:101A60000F931F93CF93DF93C82E762EF42ED22F91
:101A7000CE2D642F45DF8091930486958E1518F442
:101A8000C0919304C69510E083E0682E6C1AA12CD7
:101A9000B12C93E0E92E8C2F8150990B4C01D12C65
:101AA000E6101EC0A12CB12C84E0C82ED12C8C2FA6
:101AB0008150990B4C01EF2CF12C8CEF8C0D8C1775
:101AC00028F1DF91CF911F910F91FF90EF90DF9060
:101AD000CF90BF90AF909F908F907F906F90089520
:101AE0002E2DE7FE03C0209193042E0DC501B401F5
:101AF0000E940A176C157D0538F4672D822FE7DCEC
:101B0000EA94A00EB11ECCCF6DE0F8CF60919304A3
:101B100070E0C6010E941E17282FC501B4010E9463
:101B20000A176E157F0548F46D2F822FD0DC9FEFCA
:101B3000C91AD90AA00EB11EC0CF6DE0F6CF6F92C0
:101B40007F928F929F92AF92BF92CF92DF92EF924D
:101B5000FF920F931F93CF93DF93C82E762EF42E10
:101B6000D22FCE2D642FCCDE8DE02FDD809193041B
:101B70008E1510F4C091930410E083E0682E6C1A67
:101B8000812C912C93E0E92E8C2F8150990B5C01D4
:101B9000D12CE6101EC0812C912C84E0C82ED12CB3
:101BA0008C2F8150990B5C01EF2CF12C8CEF8C0D5C
:101BB0008C1710F1DF91CF911F910F91FF90EF9053
:101BC000DF90CF90BF90AF909F908F907F906F905D
:101BD0000895C401B5010E940A176C157D0540F4F3
:101BE0008E2DE7FE03C0809193048E0D672D6FDC70
:101BF000EA94800E911ECDCFC401B5010E940A1750
:101C00006E157F0540F46091930470E0C6010E9458
:101C10001E176D2F5CDC9FEFC91AD90A800E911E2A
:101C2000C5CF9F92AF92BF92CF92DF92EF92FF9279
:101C30000F931F93CF93DF93C82FE62E942E022F7E
:101C4000B2DEF12CC12CD12C10E0802F8150990BE9
:101C50005C01D0E010130CC0DF91CF911F910F9168
:101C6000FF90EF90DF90CF90BF90AF909F9008953E
:101C7000C601B5010E940A176C177D0738F4692D5B
:101C8000812F25DC1F5FCE0CDF1CE4CF6DE0F8CF89
:101C9000BF92CF92DF92EF92FF920F931F93CF9359
:101CA000DF9300D000D000D0CDB7DEB7142F49832A
:101CB000F52E5A836B837C83082F8D83D92E9E83C8
:101CC000E09093042E1508F4E22E82E0D81216C09C
:101CD000812F69DE2E2D402F6F2D812F0F900F90B9
:101CE0000F900F900F900F90DF91CF911F910F9158
:101CF000FF90EF90DF90CF90BF9093CFCB80BC80D0
:101D00006C2D812FFDDD2B2D4C2D6F2D812FD110B2
:101D100011C09CDE0F900F900F900F900F900F90BE
:101D2000DF91CF911F910F91FF90EF90DF90CF90B7
:101D3000BF90089504DFEECF0F931F93CF93DF93EF
:101D4000CDB7DEB728970FB6F894DEBF0FBECDBF74
:101D5000162F1092FA02823009F4BAC090F4811161
:101D60008EC080E067FD6FC00E94940341E060E098
:101D700085E792E00E94540441E060E08DE592E046
:101D800015C0833009F4E8C0833609F047C180E00C
:101D900067FD32C00E94940341E060E08DE892E06C
:101DA0000E94540441E060E085E692E00E94540401
:101DB00081E00E9494038091840490E0012E001C35
:101DC00000081817090609F097C09E01295F3F4FC8
:101DD000AE014B5F5F4FBE016D5F7F4FCE0101963D
:101DE00024DB41E061E08D819E810E94540441E04A
:101DF00061E08F81988596C00E94940341E060E085
:101E00008DE892E00E94540441E060E085E692E0B3
:101E10000E94540481E00E94940341E061E08DE45B
:101E200092E00E94540441E061E08DE692E0289641
:101E30000FB6F894DEBF0FBECDBFDF91CF911F91DB
:101E40000F910C9454040E94940341E060E085E7F4
:101E500092E00E94540441E060E085E992E00E9433
:101E6000540481E00E94940341E061E08DE592E03A
:101E70000E94540441E061E08DE792E0D8CF80E019
:101E800067FD0AC00E94940340E060E08DE392E0A9
:101E90000E94540440E071CF0E94940341E060E04E
:101EA0008DE392E00E94540441E060E08DE792E00F
:101EB0000E94540481E00E94940341E061E085E4C3
:101EC00092E00E94540441E061E08DE392E0AFCFE4
:101ED00080E067FD34C00E94940341E060E085E645
:101EE00092E00E94540441E060E085E792E00E94A5
:101EF000540481E00E949403E0918504F0918604EB
:101F0000AE014D5F5F4FBE016F5F7F4F812F09951F
:101F100041E061E089819A810E94540441E061E0DE
:101F20008B819C810E94540428960FB6F894DEBFE2
:101F30000FBECDBFDF91CF911F910F9108950E94E9
:101F4000940341E060E085E692E00E94540441E0A1
:101F500060E085E992E0ACCF611501F1613009F4F0
:101F600040C080E00E94940341E060E085E492E09C
:101F70000E94540441E060E085E892E00E9454042D
:101F800081E00E94940341E061E085E992E00E94D3
:101F9000540441E061E085E592E049CF80E00E9491
:101FA000940341E060E085E492E00E94540441E043
:101FB00060E08DE592E00E94540481E00E94940369
:101FC00041E061E085E592E00E94540440E061E078
:101FD00085E392E00E94540440E061E085E292E0F3
:101FE00026CF80E00E94940341E060E085E492E027
:101FF0000E94540441E060E08DE592E00E945404A8
:1020000081E00E94940341E061E08DE392E00E9450
:10201000540441E061E08DE592E009CF8E01095F53
:102020001F4F9E012B5F3F4FAE014D5F5F4FBE01C3
:102030006F5F7F4F8350E2D980E00E94940341E0BC
:1020400060E089819A810E94540441E060E08B81C4
:102050009C810E94540481E00E949403C2CE10929D
:10206000800082E0809381001092850010928400AD
:1020700010926F0008952FB7F8948091840090918A
:1020800085002FBF08958FB7F8941092980410928E
:10209000990410929A0410929B04109297048FBF97
:1020A00008952FB7F89460919804709199048091E5
:1020B0009A0490919B042FBF08958F929F92AF92A4
:1020C000BF92CF92DF92EF92FF926C01EADF4B0159
:1020D0005C01E12CF12CE5DF681979098A099B097B
:1020E0006C157D058E059F0548F0FF90EF90DF9001
:1020F000CF90BF90AF909F908F9008957894EBCF42
:1021000020E83EEE46E350E0ACD6822F089520E66C
:102110003AEE40E050E0A5D6CA01B9012CE330E028
:1021200040E050E09ED6862F089528EE33E040E050
:1021300050E097D6CA01B9012CE330E040E050E00E
:1021400090D6862F089528EE33E040E050E089D6FF
:10215000CB0108959091970497FD08C09091970442
:10216000809589238093970481E0089580E0089505
:1021700090919704982B90939704089580919804D8
:1021800090919904A0919A04B0919B040196A11D8D
:10219000B11D8093980490939904A0939A04B093EE
:1021A0009B048091970480688093970480919704A2
:1021B00080FD0E94DE058091970482FD0E943A0610
:1021C0008091970484FF03C00E947008C0DA809158
:1021D00097048F778093970408959C01211531050A
:1021E00009F4089584EC99E000000000000000006C
:1021F0000197D1F721503109F1CF8A95F1F7089570
:102200009C0191E42115310509F40895892F8A95DF
:10221000F1F721503109F6CFCF93DF93D82FC92F93
:102220006BEB70E018D16FEA70E08D2F9C2F13D10B
:102230006CEA70E08D2F9C2FDF91CF910CC1CF9372
:10224000DF93D82FC92F62E870E005D14FE06AE72D
:1022500070E08D2F9C2F1CD167E770E08D2F9C2F95
:10226000FAD06EE670E08D2F9C2FF5D06BE670E013
:102270008D2F9C2FF0D068E670E08D2F9C2FDF9182
:10228000CF91E9C0AF92BF92DF92EF92FF920F938E
:102290001F93CF93DF9300D000D00F92CDB7DEB75E
:1022A0007C01362F272F142F413208F010E2D12C59
:1022B0008AE0A82EB12C832F922FB501ABD50D2D1E
:1022C000D394DE011196A00FB11D805D8C93E32F96
:1022D000F22F362F272F3A9770F7D11688F00F3F3D
:1022E000A1F40F900F900F900F900F90DF91CF916E
:1022F0001F910F91FF90EF90DF90BF90AF900895E6
:1023000080E2F70109951150E8CFFE013196E00F08
:10231000F11D8081F70109950150E1CFEF92FF9205
:102320000F931F93CF937C018B01C42F77FF0AC0BB
:102330001195019511098DE2F7010995C13258F403
:10234000C111C1504C2FB801C701CF911F910F91FE
:10235000FF90EF9097CFC0E2F4CFEF92FF920F93F0
:102360001F93CF937C018B01C42F47FF07C0C195FA
:1023700080E3F701099588E7F7010995C530BCF4BA
:1023800084E090E08C1B9109C7FD9395C82FCC0F7A
:10239000CC0F0C2E02C0000F111F0A94E2F7C031BF
:1023A00044F0CF911F910F91FF90EF900895C0E0FE
:1023B000F0CF812F82958F70103A50F4805DF70135
:1023C000099584E0000F111F8A95E1F7CC5FE7CFF4
:1023D000895CF5CFEF92FF920F931F93CF93DF931A
:1023E0007C018B01D42F47FF07C0D19580E3F70113
:1023F000099582E6F7010995C0E1CD1BD1310CF0BA
:10240000C0E00C2E02C0000F111F0A94E2F7C03189
:1024100039F4DF91CF911F910F91FF90EF900895C4
:1024200081E317FF80E3F7010995000F111FCF5FCC
:10243000EECF0F931F93CF93DF938C01EB01899124
:10244000811521F0F8010995BE01F8CFDF91CF91F8
:102450001F910F9108950F931F93CF93DF93EC017A
:10246000FB018F010F5F1F4F8491811521F0FE0149
:102470000995F801F6CFDF91CF911F910F91089543
:10248000611519F06EE171E0E6CF68E171E0FCCF13
:10249000EF92FF920F931F93CF93DF938C01FB0179
:1024A000CFEFC40FCF3F59F07F018FEFE81AF80A42
:1024B0008491DFEFDC0F81110DC0C15038F4DF9142
:1024C000CF911F910F91FF90EF90089580E2F80156
:1024D0000995F3CFF8010995CD2FF701E3CFCF93FD
:1024E000DF93D82FC92F6EE071E0B5DF62E071E0B5
:1024F0008D2F9C2FB0DF6FEF70E08D2F9C2FDF9121
:10250000CF91A9CFCF93DF93D82FC92F63ED70E080
:10251000A2DF67EC70E08D2F9C2F9DDF64EC70E0F4
:102520008D2F9C2FDF91CF9196CFCDB7DEB7C854BA
:10253000D1090FB6F894DEBF0FBECDBF0E942E09A1
:102540008091840489A38AA381E08BA382E08CA379
:10255000A8DD6AA77BA78CA79DA72AA53BA54CA5AC
:102560005DA528573C4E4F4F5F4F2AAF3BAF4CAF56
:102570005DAF80917C0490917D04A0917E04B09128
:102580007F042AA53BA54CA55DA5280F391F4A1F2E
:102590005B1F25962CAF3DAF4EAF5FAF2597B6952D
:1025A000A795979587952AA53BA54CA55DA5280FCE
:1025B000391F4A1F5B1F29962CAF3DAF4EAF5FAF4F
:1025C00029978AA59BA5ACA5BDA588539F4FAF4F62
:1025D000BF4F8AAB9BABACABBDAB4AA45BA46CA4B6
:1025E0007DA4F12CCC24C394E12C312C212CD12CB2
:1025F0001EA21FA218A619A621961FAE21971DA2E2
:1026000050DD4B015C012AAD3BAD4CAD5DAD2815F5
:1026100039054A055B0558F4D501C40188579C4E1D
:10262000AF4FBF4F8AAF9BAFACAFBDAFC3942AA92A
:102630003BA94CA95DA9281539054A055B0558F544
:1026400021963FAD2197313009F0A8C04DA141300E
:1026500009F081C060E080EA91E00E94CA0261E076
:1026600080EA91E00E94CA0262E080EA91E00E9462
:10267000CA0263E080EA91E00E94CA02D501C40167
:1026800088539F4FAF4FBF4F8AAB9BABACABBDAB3B
:1026900021961FAE21978AA59BA5ACA5BDA588153F
:1026A0009905AA05BB0508F0C3C09DA1933018F099
:1026B000963009F041C081E0820D6CE09FD3292E55
:1026C000E92FF0E0EC58FE4F80810E94E50AADA1B1
:1026D000A63009F08CC02091930430E040E050E037
:1026E00060E177E280E090E0BCD38AA59BA5ACA531
:1026F000BDA5820F931FA41FB51F8AA79BA7ACA7D8
:10270000BDA733941EA61FA618AA19AA232D30E030
:1027100040E050E02EAB3FAB48AF59AF2EA53FA5F0
:1027200048A959A98EA99FA9A8ADB9AD28173907FD
:102730004A075B0708F44BC083E00E94870B8115B2
:1027400009F47DC04DA1493008F076C0E42FF0E0D7
:10275000E55AF84EA8C39DA19230A9F462E080EA40
:1027600091E00E94CA0263E080EA91E00E94CA02FE
:10277000A501940128533F4F4F4F5F4F2AAB3BAB0E
:102780004CAB5DAB85CFD501C4018C559E4FAF4F8F
:10279000BF4F8AAB9BABACABBDAB7DCF9DA16FEF09
:1027A000913021F0ADA1A23019F46EA18D2DC4DAC3
:1027B000A50194012C553E4F4F4F5F4F2AAB3BABC9
:1027C0004CAB5DAB31E021963FAF219764CF6DE01C
:1027D0008EA50E94670A8EA59FA5A8A9B9A90196F2
:1027E000A11DB11D8EA79FA7A8ABB9AB97CFA5011F
:1027F00094012C503E4F4F4F5F4F2AA73BA74CA749
:102800005DA7F11499F005E010E08AE00E94E50A66
:102810008DE491E00E94D80B8DE00E94E50A8DE4E2
:1028200091E00E94D80B0150104079F7F12C84CF31
:102830003DA1333030F380CFF12C54E05DA381E033
:102840000E94770B811541F02DA1213009F0C2C003
:10285000D3943D2D3370D32E82E00E94770B8115E7
:1028600009F4F9C05DA1513009F0CEC0D11409F4CA
:10287000C2C2DA940E94FB0BC3CE81E00E949B0B84
:10288000811104C081E0E826F12CD9CF82E00E94BA
:102890009B0B8115B9F3F12C91E09DA3D0CFFE01E4
:1028A000B196ED0DF11D8081823008F088C0813035
:1028B00009F44EC0F12C1EA21FA218A619A6BFCF64
:1028C00081E00E949B0B811529F082E00E949B0B06
:1028D0008111E1CF52E0D51608F059C080918404EF
:1028E0002EA13FA148A559A528173105410551053D
:1028F000A0F10E941706FF24F394FE01B196ED0D9E
:10290000F11D30813DA3323008F061C0313009F44F
:1029100096CF43E04DA393CF81E00E949B0B81159E
:10292000A1F082E00E949B0B811579F0A501940132
:1029300028573C4E4F4F5F4F2AAF3BAF4CAF5DAF78
:10294000F12CC12C38E03DA37ACF41E0E4269CCFA6
:102950001EA21FA218A619A6BDCFE0918B04F0916C
:102960008C0440E060E0D11061E08EA10995F82E62
:102970000E941706F110C1CF2401350152ED450E1A
:1029800054E0551E611C711C84E08DA358CF92E069
:10299000D91661F243E0D41206C08EA10E943D090F
:1029A00053E05DA371CF8DEF8D0D0E94280A8091B9
:1029B00084048F5F89A38AA3F12C81E0E6CFF12CF8
:1029C0001EA21FA218A619A6A2E0ADA338CFB2E09E
:1029D000BDA335CF4DA1423009F03ECF6EA17FA1FE
:1029E00088A599A56F5F7F4F8F4F9F4FFE01B196CE
:1029F000ED0DF11D208130E040E050E032D26EA3B9
:102A00007FA388A799A728CF8DA1823021F52EA179
:102A10003FA148A559A5232B242B252B81F4FE018A
:102A2000B196ED0DF11D80818150990B9C01990F9C
:102A3000440B550B2EA33FA348A759A71BCF8EA12C
:102A40009FA1A8A5B9A50197A109B1098EA39FA32C
:102A5000A8A7B9A70FCF9DA1943009F067C084142F
:102A60009504A604B70460F59E01295F3F4FAE01AF
:102A70004B5F5F4FBE016D5F7F4FCE0101960E949D
:102A8000150A80E00E94940341E060E089819A8108
:102A90000E94540441E060E08B819C810E945404B8
:102AA00081E00E94940341E061E08D819E810E945B
:102AB000540441E061E08F8198850E945404DACE8D
:102AC000D11419F0A3E6DA122AC0DDDAEADA6AAB29
:102AD0007BAB8CAB9DAB4AA85BA86CA87DA8B0E192
:102AE0004B0EB7E25B1E611C711C2091930430E019
:102AF00040E050E060E177E280E090E0B2D18AA966
:102B00009BA9ACA9BDA9820F931FA41FB51F8AA7BB
:102B10009BA7ACA7BDA7312C96E09DA3ABCEA1E0AF
:102B200092E0DA12FACFB5E0BDA3A4CE2DA12630F3
:102B300039F584149504A604B70480F4C301B201E6
:102B4000681979098A099B092AE030E040E050E0E1
:102B500088D160E0C9010E94FE0B8CCE0E9417064E
:102B600040908004509081046090820470908304AF
:102B7000480C591C6A1C7B1CE12C37E03DA37ACE23
:102B80004DA1473009F07CC0D301C20188199909D1
:102B9000AA09BB098093780490937904A0937A04DE
:102BA000B0937B04E0918904F0918A04099548145C
:102BB00059046A047B0498F5D501C40188579C4EDA
:102BC000AF4FBF4F8AAF9BAFACAFBDAF80917C041E
:102BD00090917D04A0917E04B0917F049C01AD0191
:102BE000280D391D4A1D5B1D25962CAF3DAF4EAFFC
:102BF0005FAF2597B695A795979587959C01AD01F1
:102C0000280D391D4A1D5B1D29962CAF3DAF4EAFD7
:102C10005FAF29970E942209C12C38E0AFCFE114A1
:102C200059F0D301C20188599A43A109B109881505
:102C30009905AA05BB0578F4609178047091790430
:102C400080917A0490917B0428EE33E040E050E0DC
:102C500008D161E07FCFE0918704F09188048C2D4A
:102C60000995F42FE52FCB012B8F3C8FFD8FEE8F35
:102C70006F8F98A3A9016F2F7E2F0E94080DFACDA8
:102C80004DA14530D1F4E0918904F0918A04099571
:102C9000E0918704F09188048C2D0995F42FE52F9D
:102CA000CB012D8B3E8BFF8BE88F698F9A8FA9010B
:102CB0006F2F7E2F0E94080D36CF5DA1583009F08E
:102CC000D9CD83E6D81273C029962CAD3DAD4EAD5B
:102CD0005FAD2997281539054A055B05E0F1E11438
:102CE000D1F1E0918704F09188048C2D09952EA7ED
:102CF0003EAB4EAF5FAF8B012F87388B498B5A8B22
:102D00006B8B1C8BC501B401641975098609970981
:102D100024E630E040E050E0A4D04EA55EA96EADC0
:102D20007FADC8010E94480E25962CAD3DAD4EAD3D
:102D30005FAD2597281539054A055B0508F09ACD42
:102D40002401350132ED430E34E0531E611C711C29
:102D500044E04DA38FCD25968CAD9DADAEADBFADFE
:102D6000259788199909AA09BB098EA79FA7A8AB1F
:102D7000B9ABBC01CD0128EE33E040E050E071D0AA
:102D800061E0C9010E94FE0B00917C0410917D045A
:102D900020917E0430917F049DE0E92E4EA55FA531
:102DA00068A979A986E00E94290BE12CBDCFE091AA
:102DB0008704F09188048C2D099589014EA75EAB9C
:102DC0006EAF7FAF29871A874B875C876D877E87B9
:102DD000C501B401641975098609970924E630E034
:102DE00040E050E03ED0A8016EA57EA98EAD9FAD1B
:102DF0000E94480E3FCD83E0D82E3CCD992778E045
:102E0000880F991F961708F0961B881F7A95C9F7A7
:102E100080950895AA1BBB1B51E107C0AA1FBB1FC9
:102E2000A617B70710F0A61BB70B881F991F5A9556
:102E3000A9F780959095BC01CD01089597FB072EC9
:102E400016F4009406D077FD08D0E4DF07FC05D027
:102E50003EF4909581959F4F0895709561957F4FB1
:102E60000895A1E21A2EAA1BBB1BFD010DC0AA1FCB
:102E7000BB1FEE1FFF1FA217B307E407F50720F0E3
:102E8000A21BB30BE40BF50B661F771F881F991F5E
:102E90001A9469F760957095809590959B01AC01A7
:102EA000BD01CF010895EE0FFF1F0590F491E02DB5
:102EB0000994F894FFCF4B144F1460144B141C1456
:102EC0004B148C148C143D14750A780A7D0A800A00
:102ED000840A870A890A8B0A8E0A910A950A970A38
:102EE0009B0A990A9D0AA10AA40AA80AAA0AAD0A7D
:102EF000B10AB90ABD0AC10AC50AC90ACD0AD10A6E
:082F0000D50AD90ADD0AE10A35
:102F080014015C0154014C0144013C0134012C01C1
:102F180024011C010609090909090674060909079B
:102F28000101067406090906090906740F0102045D
:102F3800040404740608080E090906740F080E0133
:102F48000109067402040A0F020202740609010646
:102F5800010906740609010204080F7402060A0230
:102F6800020202740E09090E08080874000500051B
:102F7800000001011415161718191A1B1C1D1E1F15
:102F8800B5024A01B40078003000780048000A070A
:102F98007800FE01FF03CD023102860178000A079E
:102FA80000000000000000E90706090909090906F0
:102FB800740F080E01010906740609010204080FBE
:102FC80074D5011D0215020D020502FD01F501ED82
:102FD80001E501DD0106090909090906740609095F
:102FE800070101067406090906090906740F01029A
:102FF80004040404740608080E090906740F080E70
:10300800010109067402040A0F020202740609018A
:1030180006010906740609010204080F7402060A6B
:10302800020202027400000000000001710609019A
:1030380002020002740000000B040404741F15044B
:10304800040404047506090806010906740609093A
:10305800090909067411191D1713111175111B1F80
:1030680015111111750808080808080F74090A0ACB
:103078000C0A0A0974070908080B0907740F0808DD
:103088000F08080F7407080808080807740E0909CC
:103098000E09090E740609090F09090974000000D0
:0430A8000000000024
:00000001FF
