:10000000BAC00000D5C00000D3C00000D1C00000BD
:10001000CFC00000CDC00000CBC000000C94511434
:10002000C7C00000C5C00000C3C00000C1C00000C0
:10003000BFC00000BDC00000BBC00000B9C00000D0
:10004000B7C00000B5C00000B3C00000B1C00000E0
:10005000AFC00000ADC00000ABC00000A9C00000F0
:10006000A7C00000A5C000005821401F511F582103
:10007000751F58215A1F5A1F351FEE14F014F31420
:10008000F514F814FA14FD14FF14031505150815DA
:100090000B1510150D15141517151B151F1521150A
:1000A0002515EA14EC14371539153B153D153F1588
:1000B000411543154515471549150D0A000D0A0050
:1000C0003230303030303030003A20002020465F6F
:1000D00043505500726F626F6C69622F64656C618A
:1000E000792F64656C61792E632032372E30392E7A
:1000F000323031352056312E302E300D0A000D0AA7
:100100000020205B656D7074795D0D0A0064656C7C
:1001100061793A0D0A000D0A0020205B656D70744C
:10012000795D0D0A00726F626F6C69622F73747271
:10013000696E672F737472696E672E632030352E77
:1001400031302E323031352056312E312E300D0ADD
:10015000000D0A0020205B656D7074795D0D0A004A
:10016000737472696E673A0D0A0066616C7365009C
:1001700074727565000011241FBECFEFD8E0DEBF9A
:10018000CDBF15E0A0E0B1E0EAEAF3E402C00590DB
:100190000D92A630B107D9F727E0A6E0B5E001C07F
:1001A0001D92AD39B207E1F70E94CE1D0C94D32108
:1001B00027CF83E080938907E0919407F09195071A
:1001C00040E061E080E009948093060510921705F5
:1001D00010920805E9E1F5E0AAE0B5E011921D9260
:1001E00085E0E532F807D1F780E00895EF92FF92BD
:1001F0000F931F93CF93DF93C0E011E0DCE70AE099
:1002000098E0F92E8C2F0E94A810882309F445C08D
:10021000C43010F498E005C09CEF9C0F9C3038F07F
:1002200090EF9C0F47E055E0E6E1F5E004C046E1C1
:1002300055E0E7E0F5E030910605892F90E0323097
:1002400011F5DF01A80FB91F13962C9113972223E4
:10025000D1F021812F5F2183223039F0233041F00A
:10026000213081F4D083F2820EC0D08312820BC081
:10027000D0830283118213961C92FA01E80FF91FB2
:1002800013830BC01182E80FF91F138331503230F2
:1002900020F4FA01E80FF91F1382CF5FC83109F08B
:1002A000B1CF86E1E82E85E0F82E07E015E0C0E04A
:1002B000C83010F4D0E101C0D8EFDC0F80911605F2
:1002C000882349F0815080931605609118058D2F81
:1002D0000E9482141CC0F7018381882331F066E0FC
:1002E0008D2F0E94821461E00FC080910605882343
:1002F00031F0F8018381882311F06EE001C06DE0D8
:100300008D2F0E94821460E08D2F0E946E10D4E029
:10031000DC0F80910705882349F081508093070501
:10032000609109058D2F0E9482141CC0F801838101
:10033000882331F062E08D2F0E94821461E00FC0AB
:1003400080910605882331F0F7018381882311F01D
:100350006FE001C06DE08D2F0E94821460E08D2F50
:100360000E946E10CF5FFFEFEF1AFF0A0F5F1F4F63
:10037000CC3009F09DCFDF91CF911F910F91FF906D
:10038000EF900895CF93DF9300D000D000D0CDB789
:10039000DEB780910705E9E1F5E020E040E09191CA
:1003A00091112D5F81114D5F95E0E532F907B9F7A5
:1003B00036E052E064E270E080E090E026960FB60E
:1003C000F894DEBF0FBECDBFDF91CF910895CF93DC
:1003D000DF93EB01DA01813069F048F0823089F473
:1003E00084E791E0998388838CE691E01FC08CE5D7
:1003F00091E002C084E591E09983888384E691E0EE
:1004000015C06AE00E945F21E82FF0E0EE0FFF1FA9
:10041000E050FF4F2081318139832883E92FF0E0BC
:10042000EE0FFF1FE050FF4F808191818D939C93D1
:10043000DF91CF91089581E0809389070E94071B87
:10044000E0919407F091950740E061E080E0099425
:1004500090917C079130E9F481111BC010925505F1
:1004600090E080917F07981790F4E92FF0E0EE0F6D
:10047000FF1FDF01AB5DBA4F8C9181608C93EA5D09
:10048000FA4F80818F70806580839F5FEACF80E024
:10049000089581E008950F931F93CF9382E00E9407
:1004A000031A81111092550500E010E0802F0E9480
:1004B000A810882369F0F801EE0FFF1FEB5DFA4FDB
:1004C00080818E7F8083809155058D5F8093550557
:1004D0000F5F1F4F0831110549F7C0E080917F077A
:1004E000C81708F040C00C2F10E0000F111FF801D2
:1004F000EB5DFA4F808180FF09C066E08C2F0E947F
:10050000821461E08C2F0E946E102BC061E08C2F52
:100510000E946E10F801EA5DFA4F808182958F701B
:10052000E1F080FF02C062E101C06DE08C2F0E940B
:100530008214F801EA5DFA4F8081982F9F7029F0AC
:10054000915F9F70807F892B06C082958F7049F0E4
:10055000815F8295807F808304C06DE08C2F0E9434
:100560008214CF5FBBCF80915505CF911F910F9122
:100570000C94AA16CF93DF9300D000D000D0CDB753
:10058000DEB760917F0720915505862F880F680F91
:100590004B815C8132E172E080E090E026960FB6FC
:1005A000F894DEBF0FBECDBFDF91CF910895DB0180
:1005B000811107C088ED91E08D939C9380EE91E0CE
:1005C00015C06AE00E945F21E82FF0E0EE0FFF1FE8
:1005D000E458FE4F208131812D933C93E92FF0E0C8
:1005E000EE0FFF1FE458FE4F80819181FA01918345
:1005F0008083089582E0809389070E94071BE09121
:100600009407F091950740E061E080E009941F9322
:10061000CF93DF9390917C07913011F4813059F0A2
:1006200090917C07913029F090917C07923009F0ED
:10063000A7C08111A5C0C82F6093570540935605E8
:1006400081E080937D0782E080937E0786E080933F
:100650007F0593E090937E051092710510927005CE
:1006600010928005809381058AE080939105909394
:100670009005109283051092820510929205809346
:100680009305109272051092760510927A051092D9
:1006900084051092880510928C050E94131BAC01F2
:1006A000C13019F4A2E0B0E002C0A1E0B0E090E0F7
:1006B00012E1692F70E06A177B07ECF420E030E06C
:1006C000169FE001179FD00D1124842F81708F5F3A
:1006D000F901EE0FFF1FEE0FFF1FEC0FFD1FE0599A
:1006E000FA4F8283569547952F5F3F4F2330310550
:1006F00061F79F5FDECF20E030E04CE052E1809177
:100700007F07869586953817C8F5832F642F0E943A
:100710005F2196959695E22FF0E0E85AFA4F6081B6
:100720006C7F62606083E1E0E20F589FD00111248A
:1007300064E0969FA00DB11D1124A059BA4F1396E5
:10074000EC93F0E08370E85AFA4F990F990F682FF5
:10075000692B6083E2E0E20FF0E0E85AFA4F962F4F
:1007600090629083E3E0E20FF0E0E85AFA4F808174
:100770008C7F826080833F5F2C5FC1CF80E001C0AF
:1007800081E0DF91CF911F9108952F923F924F9278
:100790005F926F927F928F929F92AF92BF92CF9211
:1007A000DF92EF92FF920F931F93CF93DF93CDB71A
:1007B000DEB727970FB6F894DEBF0FBECDBF1D8200
:1007C0001C82ACE06A2E712CB8E1EB2EF12C12E108
:1007D000912E0BEA402E84E0582E8C8190917C075C
:1007E000913029F48C819D814496B7010AC0909183
:1007F0007C07923049F48C3048F48C819D810896B6
:10080000B3010E947F2103C08C8101C08CE00E9453
:10081000A810882309F4BFC0EC81FD81E85AFA4F83
:100820002081022F0370023008F0B5C0822E86941A
:100830008694882D8770882E10E090E06C01CC0C97
:10084000DD1CCC0CDD1C909EF001919EF00D11245E
:10085000D601AE0FBF1FA059BA4F12963C91129706
:10086000332309F498C0229526952770E059FA4F52
:1008700031813F5F318312964C91129750E030E006
:100880002F5F3F4F4217530729F420812D5F2083AC
:10089000218901C0208915962C93DC011196AA0F9D
:1008A000BB1FAA0FBB1F909EF001919EF00D11245B
:1008B000AE0FBF1FA059BA4F9CE79C93809157057C
:1008C000811140C0E059FA4F81818530D8F1809183
:1008D0005605811105C0128216821286568632C0D4
:1008E000A080A49CA12C1124A6942784312CA314AD
:1008F00001F1BB24B39480917F07B816C0F40E9425
:100900007B15622D8B2D0E94821482E390E00E9461
:10091000A0150E947B15622D81E08B0D0E94821430
:1009200082E390E00E94A01524E0B20EE4CF33945D
:10093000DECF909EF001919EF00D1124E059FA4F08
:1009400010821182909E5001919EB00C1124F601EC
:10095000EA0DFB1DE059FA4F1282F501E059FA4FFA
:100960008685833080F4C684D12C0E94131B81704D
:100970008F5FF601EE0FFF1FEE0FFF1FEA0DFB1D4D
:10098000E059FA4F8283909EF001919EF00D112460
:10099000E059FA4F86868C819D8101969D838C83D8
:1009A000489709F01ACF8DE00E945915A12CB12C5F
:1009B0005CE0E52EF12C68E1C62ED12C92E19A9DE7
:1009C00090019B9D300D1124F901E059FA4F878564
:1009D0008A8380E090E03901FC01EE0FFF1FEE0FEB
:1009E000FF1FE60DF71DE059FA4F2281298353803E
:1009F0001C012FEF221A320AD101AA0FBB1FAA0F26
:100A0000BB1FA60DB71DA059BA4F8C918B83458093
:100A1000052D10E088248394912C1F830E839981E7
:100A2000892F90E09D838C832981282180917C07E8
:100A3000813039F4083111059CF4C8014496B6019F
:100A40000AC080917C07823049F40C30110554F4BF
:100A5000C8010896B7010E947F2105C0802F03C0FE
:100A600088E101C08CE0622F0E946E108C819D8114
:100A700088219921892B01F180917C07813039F4FB
:100A8000083111059CF4C8014496B6010AC0809152
:100A90007C07823049F40C30110554F4C8010896E3
:100AA000B7010E947F2105C0802F03C088E101C0EB
:100AB0008CE06A810E9482142FEF821A920A0F5FE3
:100AC0001F4F83E08816910409F0AECF9B819923D4
:100AD00009F497C0F101EE0FFF1FEE0FFF1FE60DA7
:100AE000F71DE059FA4F80818150808380917C0707
:100AF000813041F48E819F8189319105A4F4439620
:100B0000B6010BC080917C07823051F48E819F81A9
:100B10008D30910554F40796B7010E947F2106C0DD
:100B20008FEF850D03C088E101C08CE0642D0E9429
:100B3000821480917C07813041F497E1951598F0FB
:100B40008E819F814496B6010BC080917C078230D4
:100B500061F42BE0251558F08E819F810896B7012E
:100B60000E947F2105C088E103C0852D01C08CE073
:100B7000642D0E94821480917C07813041F48E8123
:100B80009F8187319105A4F44596B6010BC08091F1
:100B90007C07823051F48E819F818B30910554F413
:100BA0000996B7010E947F2106C081E0850D03C030
:100BB00088E101C08CE0642D0E94821480917C0742
:100BC000813041F48E819F8186319105A4F446964F
:100BD000B6010BC080917C07823051F48E819F81D9
:100BE0008A30910554F40A96B7010E947F2106C00D
:100BF00082E0850D03C088E101C08CE0642D0E9475
:100C00008214C1018330910509F0E6CE9FEFA91A45
:100C1000B90A22E0A216B10409F0D0CE6091820593
:100C20008091700527960FB6F894DEBF0FBECDBF3A
:100C3000DF91CF911F910F91FF90EF90DF90CF90B8
:100C4000BF90AF909F908F907F906F905F904F90EC
:100C50003F902F900C945D16CF93DF9300D000D07F
:100C600000D0CDB7DEB7E0E7F5E0208142893785D7
:100C700051A16FE070E080E090E026960FB6F89406
:100C8000DEBF0FBECDBFDF91CF910895CF93DF932D
:100C9000EB01DA01882329F0813051F48CE392E0F2
:100CA00002C084E492E0998388838CE492E015C0CA
:100CB0006AE00E945F21E82FF0E0EE0FFF1FE8518D
:100CC000FE4F2081318139832883E92FF0E0EE0F38
:100CD000FF1FE851FE4F808191818D939C93DF919E
:100CE000CF910895EF92FF920F931F93CF93DF93CD
:100CF00081E0809389070E94071BE0919407F0919F
:100D0000950740E061E080E00995C0E0D0E0FE0199
:100D1000EB56FA4F8081807F846080836DE08C2F5A
:100D20000E9482142196C831D10589F740E050E035
:100D300030E081E06AE073E196E0F92E22E1E22EF4
:100D4000C1E1D5E1813089F048F08230A1F480938F
:100D5000E7051092E605C093E8050DC0F092BD05C9
:100D60001092BC05E092BE0506C06093D2051092B9
:100D7000D1057093D305D89FF0011124E30FF11D25
:100D8000E255FA4F942F9F71292F220F9081917C69
:100D9000922B90838A010B561A4F282F2F70932F76
:100DA0009295907F922BD8019C9390819160908333
:100DB000882329F08150813019F43F5F01C082E01F
:100DC0004F5F5F4F4831510509F0BCCFDF91CF91A4
:100DD0001F910F91FF90EF900895CF9320E030E0A6
:100DE000C5E148E0C29FC001C39F900D1124FC01E2
:100DF000E355FA4F108211864287DC01AF53BA4F98
:100E00005C915F715C93DC01A154BA4F5C915F719E
:100E10005C9344874587468760E070E0FC01E60FFD
:100E2000F71FE255FA4F5081516050836F5F7F4F3B
:100E30006830710599F72F5F3F4F2330310591F6E8
:100E400080E0CF9108952F923F924F925F926F92E0
:100E50007F928F929F92AF92BF92CF92DF92EF924A
:100E6000FF920F931F93CF93DF9300D000D0CDB7A5
:100E7000DEB7C12CD12C65E1F62EAA24A394B12CA7
:100E8000E8E06E2E77247394F7E08F2EA6E09A2E7A
:100E90008C2D0E94A810811108C02FEFC21AD20A0F
:100EA00038E1C316D104A1F72CC2F601EB56FA4F74
:100EB0004081342F32953F704F70642F70E07A83F9
:100EC0006983F69EC001F79E900D1124FC01E30F8B
:100ED000F11DE255FA4F4081FC01E355FA4F232FF3
:100EE000277040FF9AC181858F5F818785858687BE
:100EF0008485858734878185833110F012862CC0E4
:100F00008185803110F0728627C081858D3010F088
:100F100082E004C081858A3018F083E082871CC09B
:100F20008185873010F084E0F9CF8185843010F01E
:100F300085E0F4CF8185823010F092860DC08185E6
:100F4000882351F089819A81F89EF001F99EF00D75
:100F50001124E355FA4F8286E981FA81FE9EC00191
:100F6000FF9E900D1124DC01A355BA4F1B961C92D5
:100F70001B97FC01E154FA4F3081387F232B2083EB
:100F800020812861208320812F71206A2083FC0129
:100F9000E054FA4F20812861208320812F71206A3C
:100FA00020831A962C91462D421B20E030E058E019
:100FB000452E00E010E0BC01FB01E20FF31FE255FB
:100FC000FA4F908196959F71983151F4C501022E88
:100FD00002C0880F991F0A94E2F7082B192B4A9434
:100FE0002F5F3F4F2830310539F71416B4F080E0F9
:100FF00090E049815A81F49E9001F59E300D1124B4
:10100000F901E80FF91FE255FA4F40814160408332
:10101000019688309105A1F740CF842F042E000C53
:10102000990B242D30E082179307B4F080E090E014
:1010300069817A81F69E9001F79E300D1124F901A5
:10104000E80FF91FE255FA4F40814E7F4083019629
:1010500088309105A1F721CF69817A81F69EF00150
:10106000F79EF00D1124E355FA4F5385850F911D1E
:10107000821793078CF055245A94540C21E030E0E9
:1010800040E050E089819A81F89EB001F99E700D90
:10109000112463557A4F28C05384540EEFCFFB01BF
:1010A000E40FF51F8485883010F58485F50102C0B2
:1010B000EE0FFF1F8A95E2F70E2B1F2B5A944A94CE
:1010C000E22E2330310599F0852D57FE02C081E0D4
:1010D000850D8595082E000C990B281739073CF4CF
:1010E0004F5F5F4F2F5F3F4FE42E5110D8CF2981C4
:1010F0003A81F29EF001F39EF00D1124E355FA4F70
:10110000828590E0252D052C000C330B281739071C
:1011100044F093858285981738F452848385581A51
:1011200005C03324339403C055245394312C0E94BA
:10113000131B15147CF5642D70E00E946B21582F51
:10114000CB0120E030E0E8E040E0F22FB501022ED4
:1011500002C0660F771F0A94E2F760237123672BA2
:1011600021F45413FE2F4F5FEF2F2F5F3F4F283096
:10117000310559F7541758F4950102C0220F331F57
:10118000EA95E2F7022B132B5A944A94D2CF00E04F
:1011900010E004C0332011F00095109580E090E03D
:1011A00069817A81F69EA001F79E500D1124FA0103
:1011B000E355FA4F898320E030E02E15C8F4B901D9
:1011C000DF01A20FB31F1C96AC912F5F3F4FB98177
:1011D000AB13F3CFDF01A60FB71F1C962C91DA01DA
:1011E000A20FB11DA255BA4F2C912E7F2C9310C087
:1011F000DA01A80FB91FA255BA4F6C919801082EB9
:1012000002C0369527950A94E2F720FB60F96C93AB
:1012100001968830910571F640CE43854F5F438734
:1012200045854687448545873487FC01EF53FA4F4F
:101230003081387F232B20832081286120832081E7
:101240002F71206A208320E030E010E000E0AC0144
:10125000FA01E20FF31FE255FA4F808180FF0DC0C3
:10126000908196959F71983141F0C501022E01C081
:10127000880F0A94EAF7082B1F5F2F5F3F4F283033
:10128000310531F712300CF408CE0E94131B612F88
:10129000110F770B0E946B2120E030E0E12C10E071
:1012A000E981FA81FE9EA001FF9E500D1124FA01F2
:1012B000E154FA4FB801022E02C0759567950A9461
:1012C000E2F760FF18C08E1115C0DA01A20FB31F3C
:1012D000A255BA4F9C919E7F9C939081987F622FDC
:1012E0006770962B908390819861908390819F7115
:1012F000906A9083E3942F5F3F4F28303105D1F6F9
:10130000CCCD80919405882331F081508093940551
:10131000A12CB12C22C086E0F9CFF601EE0DFF1D05
:10132000E255FA4F808186958F71782EF7E1F81794
:10133000C8F5FFEFEF1AFF0A28E0E216F10469F79B
:1013400080919405882309F4CCC04FEFA41AB40A05
:1013500053E0A516B10409F4F2C0E12CF12C65E1CB
:101360006A9D60016B9DD00C1124C60180549A4F78
:101370009A838983860101541A4FF601EF53FA4F7D
:10138000FC83EB83C60183559A4F4C01F0E18F0E2D
:10139000911C2C012FE0420E511C1C0131E1230E47
:1013A000311CBBCFE981FA81808185FF07C0F10143
:1013B0006081872D0E94821420E001C021E0F801A5
:1013C0008081877090E0E816F90699F5808185FFA5
:1013D00006C0F4016081872D0E94821420E0809174
:1013E0009405811126C0F8018081869586958695A1
:1013F000837071F080818695869586958D5F837068
:10140000982F990F990F990F8081877E892B10C093
:10141000F801808182958695877059F08081807E61
:1014200090EE980F80818F71892B808380818861F5
:101430008083EB81FC818081877090E0E816F9065B
:10144000A9F5808185FF06C0F2016081872D0E9489
:10145000821420E080919405811128C0EB81FC81E9
:101460008081869586958695837071F080818695BA
:10147000869586958D5F8370982F990F990F990F98
:101480008081877E892B11C0EB81FC8180818295D0
:101490008695877059F08081807E90EE980F8081CC
:1014A0008F71892B8083808188618083F601EE0DA6
:1014B000FF1DE255FA4F808180FF09C0222329F0E9
:1014C000F4016081872D0E94821461E007C022230D
:1014D00021F06DE0872D0E94821460E0872DFED5FB
:1014E00028CF35E13A9DF0013B9DF00D1124E054E9
:1014F000FA4F8081869586958695837071F08081FC
:101500008695869586958D5F8370982F990F990F94
:10151000990F8081877E892B10C080818295869566
:10152000877009F412CF8081807E90EE980F8081C1
:101530008F71892B808380818861808306CF809121
:10154000E0058093D7058091B605882349F0809106
:10155000B6059091D705282F220F820F890F01C061
:1015600080E08093AD058091CB05882349F0809180
:10157000CB059091D705282F220F820F890F01C02C
:1015800080E08093C2056091C2058091AD050F9007
:101590000F900F900F90DF91CF911F910F91FF90BF
:1015A000EF90DF90CF90BF90AF909F908F907F9003
:1015B0006F905F904F903F902F900C945D16CF935B
:1015C000DF9300D000D000D0CDB7DEB780FD03C0E0
:1015D00062E172E002C06BE470E03091BD055091B1
:1015E000D205272F41E080E090E026960FB6F894D0
:1015F000DEBF0FBECDBFDF91CF910895DB016AE062
:101600000E945F21E82FF0E0EE0FFF1FEC5AFD4F24
:10161000208131812D933C93E92FF0E0EE0FFF1FE5
:10162000EC5AFD4F80819181FA0191838083089566
:10163000833008F0825F0895833010F4845F08954A
:101640008E5F0895833010F48F5F08959FEE980F9A
:10165000933010F48D5008959BEF980F933010F451
:1016600091E005C094EF980F933020F49BE0981B15
:10167000892F089580E0089582E080938907E091A2
:101680009407F091950740E061E080E00994909123
:101690007C079130E9F48230D8F4413029F410927B
:1016A0007D079CE090937E078093EC05A3EFB5E067
:1016B000EDEEF5E091E09D93811102C0908301C0B1
:1016C0001082319625E0E33FF207A9F780E0089504
:1016D00081E00895DF92EF92FF920F931F93CF93D3
:1016E000DF93C0E0DD24D3948C2F32D5882329F1F9
:1016F0008C2FA8DF18164CF4DFEFD80F2DEEE22E5A
:1017000025E0F22E03EF15E00AC0882341F0D82F20
:10171000D09593EFE92E95E0F92E0DEE15E08D2F83
:1017200090E0F801E80FF91F10822091EC052111DB
:1017300004C0F701E80FF91FD082CF5FC831A1F6CE
:101740008DE00E94591580E00E94871503EF15E097
:101750008DEEE82E85E0F82ED0E0C0E0F801808123
:10176000882331F066E08C2F0E94821461E005C06E
:101770006DE08C2F0E94821460E08C2FAFD48D2FEF
:101780005BDFC82FF70181917F01882331F062E090
:101790008C2F0E94821461E005C06DE08C2F0E94A6
:1017A000821460E08C2F9AD481E08D0F863051F046
:1017B000833018F0CFE0CD0F01C0C82F0F5F1F4F4F
:1017C000D82FCCCFDF91CF911F910F91FF90EF9049
:1017D000DF900895CF93DF9300D000D000D0CDB735
:1017E000DEB78091EC05E3EFF5E0813069F489EF35
:1017F00095E020E03191311101C02D5F8E179F07D8
:10180000C9F772E040E012C0ADEEB5E089EF95E0B7
:1018100020E040E03191311101C02D5F3D91311147
:1018200001C04D5F8E179F07A9F771E036E052E0C7
:1018300062E180E090E026960FB6F894DEBF0FBE1E
:10184000CDBFDF91CF910895CF93DF93EB01DA0104
:10185000882329F0813051F484E193E002C08CE0C8
:1018600093E0998388838CE193E015C06AE00E943D
:101870005F21E82FF0E0EE0FFF1FE854FD4F2081BD
:10188000318139832883E92FF0E0EE0FFF1FE85400
:10189000FD4F808191818D939C93DF91CF9108952D
:1018A00081E080938907E0919407F091950740E0EB
:1018B00061E080E0099490917C07913039F48111C6
:1018C00005C081E0413019F080E0089581E008957D
:1018D0008F929F92AF92BF92CF92DF92EF92FF9240
:1018E0000F931F93CF93DF93C0E08C2F31D4CF5F42
:1018F000C831D9F780E00E9487158DE00E94591504
:1019000060918A0770918B0780918C0790918D0769
:1019100020E6822E2AEE922EA12CB12CA501940154
:101920000E94922169017A019B01AC01A0917F077D
:10193000B0E00E94BA21A50194010E949221022FD9
:10194000C114D104E104F10479F081E0C816D10496
:10195000E104F10461F082E0C816D104E104F1046D
:1019600049F016E0D2E008C01DE0DAE005C01AE058
:10197000D8E002C018E0D6E0C0E080917F07C81729
:1019800048F40C1710F4612F01C06D2F8C2FBAD7BB
:10199000CF5FF3CFDF91CF911F910F91FF90EF9029
:1019A000DF90CF90BF90AF909F908F900895CF938E
:1019B000DF9300D000D000D0CDB7DEB724E636E00C
:1019C00044E65AE064E670E080E090E026960FB6C8
:1019D000F894DEBF0FBECDBFDF91CF910895DB013C
:1019E000811105C088E893E08D939C9315C06AE04F
:1019F0000E945F21E82FF0E0EE0FFF1FEC5DFC4F2F
:101A0000208131812D933C93E92FF0E0EE0FFF1FF1
:101A1000EC5DFC4F80819181FA0191838083089570
:101A20003C983D9822980C94D119813061F038F09F
:101A3000823099F483B182FB882780F90BC086B18C
:101A40008295817007C096B1929596959770892777
:101A50008170089591E08927089580E00895389A6B
:101A6000399A239A259A3A9A3B9A109241061092F3
:101A7000FC051092000681E08093FD05EEEFF5E095
:101A80008FE0808381830895CF93DF93643008F0E3
:101A90004AC070E0FB01ED56FC4F2081FB01E1578D
:101AA000FC4F30815CEF531B30E0F901E250FA4FFC
:101AB0004081540F652FEFE1F0E0DF0102C0AA0F73
:101AC000BB1F5A95E2F7AD0140955095E091000695
:101AD000DC01C9018E0F911D8E0F911D24E0880F2E
:101AE000991F2A95E1F7FC01EF5FF94FED01279669
:101AF0002081318124233523318320838D91982FB8
:101B00009F71892F90E0062E02C0880F991F0A94BA
:101B1000E2F7822B932B81939193AC17BD0741F78A
:101B200081E08093FD05DF91CF9108958430E0F549
:101B3000282F30E0F901ED56FC4F8081F901E15783
:101B4000FC4F90814CEF491B90E0FC01E250FA4FB2
:101B50002081420F2FE130E002C0220F331F4A954F
:101B6000E2F72095309540910006840F911D840F77
:101B7000911D44E0880F991F4A95E1F7FC01EF5F42
:101B8000F94F47E080819181B901682B792B6095ED
:101B9000709582239323862B972B819391934150A9
:101BA00089F781E08093FD050895623008F042C016
:101BB000FC01368547852091000670E0620F711D9B
:101BC000620F711D24E0660F771F2A95E1F73B3005
:101BD00018F5FB01EF5FF94F36874787FC0180E07E
:101BE00090E040E150E0431B510921913191DC012B
:101BF000A60FB71FAF5FB94F042E02C0220F331FCD
:101C00000A94E2F72D933C9302968E30910569F782
:101C100081E08093FD05089580E090E0FB01E80FEE
:101C2000F91FEF5FF94F1182108202968031910502
:101C3000A9F7EECF08958230E8F42091000690E0F5
:101C4000820F911D820F911D24E0880F991F2A9504
:101C5000E1F720E030E0F901E80FF91FEF5FF94FFD
:101C6000118210822E5F3F4F20313105A1F781E0B4
:101C70008093FD0508958230D8F42091000690E00D
:101C8000820F911D820F911D24E0880F991F2A95C4
:101C9000E1F7FC01EF5FF94F87E02081318120956A
:101CA0003095219331938150C1F781E08093FD05F8
:101CB0000895EF92FF920F931F93CF93DF93EC0160
:101CC000623008F071C08F818F70E0910006F0E003
:101CD00070E09F01220F331FD901A60FB71F14E038
:101CE000AA0FBB1F1A95E1F7AF5FB94F1E969C91E3
:101CF000442349F0992339F0A82FB0E0A90FB11D72
:101D000041E01A970CF040E0940F9B3020F081E006
:101D10008093FD0549C0D901A60FB71F24E0AA0F83
:101D2000BB1F2A95E1F7AF5FB94F292F30E01F960F
:101D30003C932E931E97A1E0B0E0082E02C0AA0F9C
:101D4000BB1F0A94E2F71197EE0FFF1FE60FF71F74
:101D500054E0EE0FFF1F5A95E1F7EF5FF94F8E0148
:101D6000095F1F4F20E130E07901E81AF108608136
:101D70007181042E02C0769567950A94E2F771830B
:101D800060839991292F30E02A233B230E2C02C037
:101D9000220F331F0A94E2F7262B372B219331931E
:101DA000C017D10721F7B3CFDF91CF911F910F91CA
:101DB000FF90EF9008950F931F93CF93DF938C01C3
:101DC000623008F071C0EC019F819F70E0910006C5
:101DD000F0E070E09F01220F331FD901A60FB71F5B
:101DE000C4E0AA0FBB1FCA95E1F7AF5FB94F1E96BB
:101DF0008C91442351F0882341F0492F50E0480F43
:101E0000511DC1E04A3051050CF0C0E0C80F892FC8
:101E10008C0F8B3020F081E08093FD0545C0D90107
:101E2000A60FB71F24E0AA0FBB1F2A95E1F7AF5FEB
:101E3000B94F282F30E01F963C932E931E9741E018
:101E400050E0092E02C0440F551F0A94E2F741509A
:101E50005109D801EE0FFF1FE60FF71F64E0EE0FE8
:101E6000FF1F6A95E1F7EF5FF94FB801695F7F4F98
:101E700020E130E02C1B3109E901C91BD109CE0159
:101E80002D9130E024233523082E02C0220F331F6A
:101E90000A94E2F700811181202B312B2193319399
:101EA0006A177B0769F7B7CFDF91CF911F910F9129
:101EB00008958091FD05882329F181E00E94C41ACC
:101EC000882301F11092FC0581E080930006A1E0D7
:101ED000B6E0E1E1F6E090968D919C9191978D931B
:101EE0009D93EA17FB07B9F781E296E020A131A1A3
:101EF000219331938E179F07C9F71092FD0581E05A
:101F00000C94D21A08952D9A0000000000000000E1
:101F1000000000000000000000002D9800000000FC
:101F20000000000000000000000000000000089514
:101F3000603110F59091FC0550E0490F511D490F9B
:101F4000511DFA0193E0EE0FFF1F9A95E1F7E80F9C
:101F5000F11DEE0FFF1FEF5FF94F81E090E002C02F
:101F6000880F991F6A95E2F720813181822393239C
:101F7000892B11F02B9A01C02B98C5CF419A0000F4
:101F80000000000000000000000000000000000051
:101F90004198000000000000000000000000000068
:101FA000000000000895809142068F5F80934206F2
:101FB000883020F010924206409A01C04098DECF4F
:101FC000CF9310924206C0E0C73011F4409A01C08E
:101FD0004098D4DFCF5FC830B9F7CF910895429AC7
:101FE00000000000000000000000000000000000F1
:101FF0000000429800000000000000000000000007
:102000000000000000000895EF92FF920F931F93CD
:10201000CF93DF9380914206873041F003E913E0CC
:102020008FE8E82E83E0F82ED6E02CC080914106A0
:10203000882351F1DF91CF911F910F91FF90EF9085
:10204000CECF2B9860DFC150E1F7F8014381E42F38
:10205000F0E0E250FA4F6081F7018381681B6C0F5A
:1020600080914206FD2FF81B8F2F62DFC150CB3FBE
:1020700061F70150110981E0E81AF10893E00F3887
:102080001907C1F2C3E0DDCFDF91CF911F910F910E
:10209000FF90EF900895CF93DF93EC01209741F0EC
:1020A00082DFB2DF81E090E00E943D1C2197F6CFF5
:1020B000DF91CF91089577DFA7CF883170F49BE04F
:1020C000899FF0011124ED58F94F608341832283E9
:1020D00080917B07846080937B07089590917F07B0
:1020E0008917A8F4E0917F07F0E0E81BF109319728
:1020F00091E0611101C090E0ED5BF94F808190FBB0
:1021000081F9808380917B07806180937B070895AC
:1021100080E090E0FC01E55AF94F20812B7F20837D
:10212000019688319105B1F7089580E090E0FC01B7
:10213000E55AF94F20812E7F208320812D7F208337
:102140002081286F208301968831910581F7E0CFA7
:10215000883160F4E82FF0E0E55AF94F80819081F2
:102160009B7F908382FB882780F9089580E0089503
:10217000599AF89480E090E06BE020E030E0689FAE
:10218000A001699F500D11244D58594F7091C00006
:1021900075FD02C00000FACFFA01E20FF31F738150
:1021A0007093C6002F5F3F4F2830310579F70196B5
:1021B0008831910511F77894089580917B0784FF09
:1021C0002FC080E10E94C41A882351F180E090E082
:1021D000FC01ED5BF94F208126952170308120FBB9
:1021E00030F93083FC01E55AF94F208126952170A2
:1021F000308132FB332730F9232B308120FB32F939
:10220000308320812D7F208301968831910501F74D
:1022100080917B078F7E80937B0780E10E94D21A9A
:1022200080917B0782FF46C184E00E94C41A81111D
:1022300001C0089580E090E02BE062E140E050E0D2
:10224000289FF001299FF00D1124ED58F94FDF016F
:10225000A40FB51F13966C934F5F5F4F4830510525
:10226000B1F7318137FD03C043814160438336FDBF
:102270000AC0289FF001299FF00D1124ED58F94F55
:1022800043814860438335FD0AC0289FF001299FA0
:10229000F00D1124ED58F94F43814064438334FD20
:1022A0000AC0289FF001299FF00D1124ED58F94F25
:1022B00044814160448333FD0AC0289FF001299F77
:1022C000F00D1124ED58F94F44814860448332FDEC
:1022D0000AC0289FF001299FF00D1124ED58F94FF5
:1022E00044814064448331FD0AC0289FF001299F46
:1022F000F00D1124ED58F94F45814160458330FDC3
:102300000AC0289FF001299FF00D1124ED58F94FC4
:10231000358138603583289FF001299FF00D112405
:10232000ED58F94F308137FD03C045814064458346
:1023300036FD0AC0289FF001299FF00D1124ED58A9
:10234000F94F46814160468335FD0AC0289FF00160
:10235000299FF00D1124ED58F94F468148604683BE
:1023600034FD0AC0289FF001299FF00D1124ED587B
:10237000F94F46814064468333FD0AC0289FF0012F
:10238000299FF00D1124ED58F94F47814160478393
:1023900032FD0AC0289FF001299FF00D1124ED584D
:1023A000F94F47814860478331FD0AC0289FF001FB
:1023B000299FF00D1124ED58F94F47814064478360
:1023C00030FD0AC0289FF001299FF00D1124ED581F
:1023D000F94F308531603087289FF001299FF00D3B
:1023E0001124ED58F94F328137FD03C04085486014
:1023F000408736FD0AC0289FF001299FF00D112467
:10240000ED58F94F40854064408735FD0AC0289F4C
:10241000F001299FF00D1124ED58F94F41854160DD
:10242000418734FD0AC0289FF001299FF00D112437
:10243000ED58F94F41854860418733FD0AC0289F18
:10244000F001299FF00D1124ED58F94F41854064AA
:10245000418732FD0AC0289FF001299FF00D112409
:10246000ED58F94F42854160428731FD0AC0289FEF
:10247000F001299FF00D1124ED58F94F4285486075
:10248000428730FD0AC0289FF001299FF00D1124DA
:10249000ED58F94F328530643287019688319105C5
:1024A00009F0CCCE80917B078B7F80937B0784E003
:1024B0000C94D21A08955E9A0000000000000000FB
:1024C000000000000000000000005E980000000016
:1024D000000000000000000000000000000008955F
:1024E000CF93DF9328985B9A84E690E00E944E1C7D
:1024F000D0EF289AC9B15B98DEDFD150D1F7C2FB8B
:10250000CC27C0F981E08C2710927F07C1E08111B0
:102510000BC02898D0DF80917F078F5F80937F0763
:1025200080917F07893130F080917F07883149F4AD
:1025300081E00CC089B182FB882780F98C275B98E9
:10254000E6CF80917F078C3021F482E080937C0776
:1025500002C010927C0780917F07893118F088E1D2
:1025600080937F07DF91CF9108955298539A5B989B
:10257000549A5C98579A5F98559A5D98569A5E98C7
:10258000519A599A5098209A289882E48093C000D2
:1025900088E08093C10084E08093C2001092C5005F
:1025A0001092C400519A82E184BD82E085BD80E230
:1025B00087BDA1D2B9D2B9DD789492DF85E180934D
:1025C0007B0708955F9A00000000000000000000F3
:1025D00000000000000000005F9800000000000004
:1025E0000000000000000000000000000895CF93EC
:1025F000DF9328985B9A81E090E00E944E1C8091C6
:10260000F905882311F0815001C088E08093F90515
:10261000C0E0D0E0FE01ED5BF94F808180FF02C099
:102620005C9A01C05C9847DF99B181E0292F247042
:1026300092FD80E05B98FE01E55AF94F9081917020
:102640008917B1F0908180FB90F990838081869505
:1026500086958695F1F48081222311F0886F18C049
:102660008260808380917B07806180937B0711C0AB
:102670008091F90581110DC080818695869586959A
:1026800041F08081887F98EF980F80818770892B37
:1026900080832196C831D10509F0BCCFDF91CF915D
:1026A00091CF7F928F929F92AF92BF92CF92DF9203
:1026B000EF92FF920F931F93CF93DF930AD76B0193
:1026C0007C014B015C01712CD0E0C0E01CE006E015
:1026D000D501C4018C509E4FAF4FBF4F8C159D0547
:1026E000AE05BF0528F0C814D904EA04FB0470F451
:1026F00081E08D0F612F0E945F21D92FE92FF0E03B
:10270000E254FC4F8081D5D146015701E2D66B01DE
:102710007C0183E093D6811102C0772069F183E0C8
:1027200062D6882381F081E08C0FDF91CF911F91D9
:102730000F91FF90EF90DF90CF90BF90AF909F9060
:102740008F907F90CEC781E04ED6882331F081E014
:102750008C0F602F0E945F21C92F82E044D688230E
:1027600029F0CC2311F0C15001C0C5E060E084E045
:102770008C0FADD47724739408D2AACF109241065F
:1027800060E087E993E011DA61E087EA93E00DDA2F
:1027900084E18FC145D9E9DE62D972D080E0A1D74A
:1027A00084E690E0CDD1EADF83E048D6811179DF7D
:1027B000E5CFCF93882309F45BC0CCE08AD66C3098
:1027C0007E4F8F4F9F4F40F08091FB058F5F6C2FA6
:1027D0000E945F219093FB058ED1E091FB05F0E014
:1027E000E254FC4F60818091FA058CD09DD161E06C
:1027F0008091FA0573DC8091FA05AADC882359F0F0
:102800008091FA058F5F8093FA0590917F07891771
:1028100010F01092FA0581E0E6D5882389F0209126
:10282000FA0580917F07422F50E090E0019748170A
:10283000590724F42F5F2093FA0502C01092FA057D
:1028400082E0D1D5882349F08091FA05811102C038
:1028500080917F0781508093FA0583E0C4D5811170
:102860000DC060917F078091FA0527D28ED1A6CF47
:1028700037DE80917F0768E1CF911FC2CF91089525
:102880001092B60082E08093B00095E09093B10082
:102890001092B2009CE99093B3008093700087BBC4
:1028A0000AC61F920F920FB60F9211242F933F93D7
:1028B0004F935F936F937F938F939F93AF93BF9348
:1028C000CF93DF93EF93FF93C0E7D0E088818D7FB4
:1028D000888378946DD6F894888182608883FF918C
:1028E000EF91DF91CF91BF91AF919F918F917F91A8
:1028F0006F915F914F913F912F910F900FBE0F906D
:102900001F9018957F928F929F92AF92BF92CF9215
:10291000DF92EF92FF920F931F93CF93DF93382FA5
:10292000E62FC82FD0E00CE010E0CE01B8010E94E5
:102930007F21282FCE010196B8010E947F21782E99
:10294000CE010B96B8010E947F21482FCE010A9636
:10295000B8010E947F21F82ECE010996B8010E948D
:102960007F21E82ECE010896B8010E947F21D82E43
:10297000CE010796B8010E947F21C82ECE0106968F
:10298000B8010E947F21B82ECE010596B8010E94A1
:102990007F21A82ECE010496B8010E947F21982E97
:1029A000CE010396B8010E947F21882ECE010296A7
:1029B000B8010E947F21582F383108F06CC08E2F4B
:1029C00090E08032910508F066C0FC01E35CFF4FA7
:1029D0000C94B421E42FF0CFEF2DEECF2FEF19C0E0
:1029E0002FEF40E00EC02FEF19C02FEF4EE12BC0AC
:1029F0002FEF01C02EE14FEF26C020E0FCCF20E0FA
:102A00004FEF6EE125C020E00CC020E04EE10AC08F
:102A100020E040E007C02EE1FCCF20E040E013C002
:102A20002FEF4FEF6FEF14C022E34AE002C02AE01D
:102A300042E36AE00DC02AE04AE062E309C024E60E
:102A4000EDCF20E044E660E003C020E040E064E633
:102A5000832FDF91CF911F910F91FF90EF90DF9027
:102A6000CF90BF90AF909F908F907F9026CBEE2D10
:102A7000A3CFED2DA1CFEC2D9FCFEB2D9DCFEA2D38
:102A80009BCFE92D99CFE82D97CFE52F95CFE72D57
:102A900093CFE22F91CFDF91CF911F910F91FF90B4
:102AA000EF90DF90CF90BF90AF909F908F907F90EE
:102AB0000895CF93DF93D82FC0E06D2F8C2F22DFA6
:102AC000CF5FC831D1F7DF91CF9108950F931F9356
:102AD000CF93DF93D82F162F042FC0E0202F412F44
:102AE0006D2F8C2FEADACF5FC831C1F7DF91CF911C
:102AF0001F910F910895CF93C0E020E040E060E087
:102B00008C2FDBDACF5FC831C1F7CF910895CF9317
:102B1000DF93D82FC0E06D2F8C2FE0DACF5FC83164
:102B2000D1F7DF91CF91089580E0F1CF62E086E3A5
:102B300094E00E94440D63E086E394E00C94440D1D
:102B40008F929F92AF92BF92CF92DF92EF92FF92BD
:102B50006C01BFD44B015C01E12CF12CAAD92DDB17
:102B6000B8D4DC01CB0188199909AA09BB098C15D5
:102B70009D05AE05BF0590F3FF90EF90DF90CF90DD
:102B8000BF90AF909F908F90089580E090E0D8CF55
:102B9000CF92DF92EF92FF920F931F93CF93DF9329
:102BA0008C01D62F662321F081E08093410602C07C
:102BB00010924106C8016AE070E00E946B217B011F
:102BC0006C01FC01EE0FFF1FE653FC4F63E08081B8
:102BD00091810E94440DCC2011F0C8E001C0C0E0FA
:102BE000C701DD2349F066E070E00E946B21D82F19
:102BF000C8016CE370E008C06AE070E00E946B21DD
:102C0000D82FC80164E670E00E946B218B01ED2F84
:102C1000F0E0EE0FFF1FE653FC4F62E080819181F0
:102C20000E94440DD111C460C8016AE070E00E94A6
:102C30006B217B018C01FC01EE0FFF1FE653FC4F63
:102C400061E0808191810E94440D0111C260C70141
:102C50006AE070E00E946B218C01FC01EE0FFF1F07
:102C6000E653FC4F60E0808191810E94440D011188
:102C70001BC060E08EE894E00E94440DC1FD14C0CA
:102C800061E08EE894E00E94440DC2FD0DC062E058
:102C90008EE894E0DF91CF911F910F91FF90EF901C
:102CA000DF90CF900C94440DDF91CF911F910F9145
:102CB000FF90EF90DF90CF900895CF93DF93D62FC2
:102CC00091E090934106843648F060E086E394E01A
:102CD0000E94440D61E086E394E018C06AE00E941F
:102CE0005F21C92FE82FF0E0EE0FFF1FE653FC4FE6
:102CF00060E0808191810E94440DEC2FF0E0EE0FA6
:102D0000FF1FE653FC4F61E0808191810E94440DDA
:102D1000D43618F0DF91CF9109CF8D2F6AE00E9451
:102D20005F21C92FE82FF0E0EE0FFF1FE653FC4FA5
:102D300062E0808191810E94440DEC2FF0E0EE0F63
:102D4000FF1FE653FC4F63E080819181DF91CF91BB
:102D50000C94440DCF93C82F1092410660E08EE88A
:102D600094E00E94440D61E08EE894E00E94440DDE
:102D7000C43610F0CF91DACE8C2F6AE00E945F212A
:102D8000C92FE82FF0E0EE0FFF1FE653FC4F62E083
:102D9000808191810E94440DEC2FF0E0EE0FFF1F27
:102DA000E653FC4F63E080819181CF910C94440DF8
:102DB000CF93DF9300D000D000D0CDB7DEB76B83C8
:102DC000842F923049F426960FB6F894DEBF0FBEDA
:102DD000CDBFDF91CF91BECF6B8126960FB6F89411
:102DE000DEBF0FBECDBFDF91CF9167CF6F927F92D5
:102DF0008F929F92AF92BF92CF92DF92EF92FF920B
:102E00000F931F93CF93DF93C82F662EC42EF22EFD
:102E1000642F53DF80917F0786958E1518F4E0901C
:102E20007F07E69410E083E0782E7E18A12CB12C69
:102E300083E0D82E8E2C912C81E0881A9108D0E066
:102E4000D714B1F02D2DD7FE03C020917F072D0D93
:102E5000C501B4010E946B216C177D0710F4662D2B
:102E600001C06DE0822F4EDDDA94A00EB11EE8CFD6
:102E7000A12CB12CC4E0D0E08E2C912C81E0881ADA
:102E80009108D12C8C2F84508E15B8F460917F0757
:102E900070E0CE010E947F21282FC501B4010E945D
:102EA0006B216C157D0510F46F2D01C06DE0822F34
:102EB00029DD2196A00EB11EE5CFDF91CF911F91A4
:102EC0000F91FF90EF90DF90CF90BF90AF909F90C9
:102ED0008F907F906F9008956F927F928F929F92C4
:102EE000AF92BF92CF92DF92EF92FF920F931F9318
:102EF000CF93DF93C82F662EC42EF22E642FDDDE13
:102F00008DE0D7DD80917F078E1510F4E0907F076C
:102F100010E083E0782E7E1883E0D82E812C912C4F
:102F2000AE2CB12C81E0A81AB108D0E0D71499F0EA
:102F3000C401B5010E946B216C177D0740F48D2DF3
:102F4000D7FE03C080917F078D0D662DDBDC800EE0
:102F5000911EDA94EBCFC4E0D0E0A12CB12C8E2CE2
:102F6000912C81E0881A9108D12C8C2F84508E15D9
:102F700098F4C501B4010E946B216C157D0540F4E5
:102F800060917F0770E0CE010E947F216F2DBADC37
:102F9000A00EB11E2196E9CFDF91CF911F910F9125
:102FA000FF90EF90DF90CF90BF90AF909F908F9069
:102FB0007F906F9008959F92AF92BF92CF92DF92D1
:102FC000EF92FF920F931F93CF93DF93082FC62E9C
:102FD000942ED22FBFDED12CE12CF12CC0E0AD2EEF
:102FE000B12C81E0A81AB10810E0CD1781F0C7011B
:102FF000B5010E946B216017710710F4692D01C0A3
:103000006DE08C2F7FDCCF5FEC0CFD1CEECFDF91F1
:10301000CF911F910F91FF90EF90DF90CF90BF90D5
:10302000AF909F900895BF92CF92DF92EF92FF9260
:103030000F931F93CF93DF9300D000D000D0CDB774
:10304000DEB7142F4983F52E5A836B837C838D83DF
:103050009E83082FB92EE0907F072E1508F4E22EEC
:1030600082E0B81216C0812F75DE2E2D402F6F2DF5
:10307000812F26960FB6F894DEBF0FBECDBFDF912D
:10308000CF911F910F91FF90EF90DF90CF90BF9065
:1030900092CFDB80CC806D2D812F0FDE2C2D4D2D1E
:1030A0006F2D812FB11002C0A1DE01C015DF269661
:1030B0000FB6F894DEBF0FBECDBFDF91CF911F9149
:1030C0000F91FF90EF90DF90CF90BF9008950F93F6
:1030D0001F93CF93DF93CDB7DEB728970FB6F89441
:1030E000DEBF0FBECDBF162F10924106813089F191
:1030F00038F0823009F465C0833009F4A9C00AC1F0
:1031000080E067FD0AC00E941B0E41E060E08EE691
:1031100094E00E94DB0E41E028C00E941B0E41E0BB
:1031200060E08EE694E00E94DB0E41E060E086E81D
:1031300094E00E94DB0E81E00E941B0E41E061E002
:103140008EE594E00E94DB0E41E061E086E794E0CA
:103150000BC180E067FD28C00E941B0E40E060E0CC
:1031600086E494E00E94DB0E40E060E08EE594E0AF
:103170000E94DB0E81E00E941B0E8091890790E087
:10318000212F012E000C330B2817390771F59E01F2
:10319000295F3F4FAE014B5F5F4FBE016D5F7F4FB9
:1031A000CE01019692D2D6C00E941B0E41E060E093
:1031B00086E494E00E94DB0E41E060E086E794E064
:1031C00037C080E067FD28C00E941B0E41E060E030
:1031D00086E694E00E94DB0E41E060E08EE694E03B
:1031E0000E94DB0E81E00E941B0EE0919807F09197
:1031F0009907AE014D5F5F4FBE016F5F7F4F812F1B
:10320000099541E061E089819A810E94DB0E41E0ED
:1032100061E08B819C81A8C00E941B0E41E060E0B0
:1032200086E694E00E94DB0E41E060E086E894E0F0
:103230000E94DB0E81E00E941B0E41E061E08EE403
:1032400094E00E94DB0E41E061E086E494E08CC0F3
:10325000662301F1613009F040C080E00E941B0E3E
:1032600041E060E08EE494E00E94DB0E41E060E02B
:103270008EE594E00E94DB0E81E00E941B0E41E08F
:1032800061E086E494E00E94DB0E41E061E08EE5BF
:1032900094E06AC080E00E941B0E41E060E08EE492
:1032A00094E00E94DB0E41E060E08EE594E00E9435
:1032B000DB0E81E00E941B0E41E061E086E594E0B8
:1032C0000E94DB0E40E061E08EE394E00E94DB0EA2
:1032D00040E061E08EE294E047C080E00E941B0E77
:1032E00041E060E08EE494E00E94DB0E41E060E0AB
:1032F0008EE794E00E94DB0E81E00E941B0E41E00D
:1033000061E086E894E00E94DB0E41E061E086E542
:1033100094E02AC08E01095F1F4F9E012B5F3F4F33
:10332000AE014D5F5F4FBE016F5F7F4F835083D112
:1033300080E00E941B0E41E060E089819A810E943A
:10334000DB0E41E060E08B819C810E94DB0E81E01E
:103350000E941B0E41E061E08D819E810E94DB0E88
:1033600041E061E08F8198850E94DB0E28960FB6C0
:10337000F894DEBF0FBECDBFDF91CF911F910F91AB
:103380000895E1E8F7E080818D7F8083E2E8F7E04F
:1033900080818D7F8083E3E8F7E080818D7F80836B
:1033A0000895E1E8F7E080818E7F808380818C6FD3
:1033B000808380818D7F8083E2E8F7E080818E7F4B
:1033C000808380818C6F808380818D7F8083E3E820
:1033D000F7E080818E7F808380818C6F8083808105
:1033E0008D7F8083CECF8150833058F4E82FF0E07A
:1033F000EF57F84F808190819D7F908386958170F3
:10340000089580E0089581508330B0F4E82FF0E013
:10341000EF57F84F808181FF06C080818095282F6B
:10342000217030E002C020E030E0232B29F08081C1
:103430008D7F808381E0089580E0089581508330FE
:1034400038F4E82FF0E0EF57F84F8081817008954D
:1034500080E00895CF93DF93C0E0D0E08C2F0E94EE
:10346000150DFE01EF57F84F90819170891781F08B
:10347000908180FB90F99083908196959695A1F428
:10348000811103C080818C6F0EC0808182600BC06F
:1034900080818695869541F080818C7F9CEF980F86
:1034A00080818370892B80832196C330D105B1F64A
:1034B000DF91CF9108958FB7F894109284071092FE
:1034C00085071092860710928707109288078FBF92
:1034D00008952FB7F89460918407709185078091C3
:1034E0008607909187072FBF08958F929F92AF9282
:1034F000BF92CF92DF92EF92FF926C01EADF4B0115
:103500005C01E12CF12CE5DFDC01CB018819990984
:10351000AA09BB098C159D05AE05BF0510F478946A
:10352000F2CFFF90EF90DF90CF90BF90AF909F9041
:103530008F90089520E83EEE46E350E0F3D6822FC8
:10354000089520E63AEE40E050E0ECD6CA01B90119
:103550002CE330E040E050E0E5D6862F089528EED9
:1035600033E040E050E0DED6CA01B9012CE330E0A0
:1035700040E050E0D7D6862F089528EE33E040E0B3
:1035800050E0D0D6CB0108959091880797FD08C0F0
:1035900090918807809589238093880781E008951A
:1035A00080E0089590918807892B8093880708957B
:1035B0008091840790918507A0918607B091870735
:1035C0000196A11DB11D8093840790938507A09358
:1035D0008607B09387078091880780688093880763
:1035E0008091880780FD0E945B108091880782FD92
:1035F0000E94B8108091880784FF03C00E94F712D0
:1036000029DF809188078F7780938807089510922B
:10361000800081E0809381001092850010928400E8
:1036200010926F0008952FB7F894809184009091C4
:1036300085002FBF0895EF92FF920F931F93CF93B2
:10364000DF93EB017A01811101C086E0E82FF0E001
:10365000EE0FFF1FED56FB4F8081918168EE73E006
:103660003AD6660F771FFB01EF55FB4F4081518122
:103670005983488364E670E02ED6660F771FFB01FE
:10368000EF55FB4F40815181F701518340836AE040
:1036900070E021D6660F771FFB01EF55FB4F40818D
:1036A0005181F90151834083FC01EE0FFF1FEF555B
:1036B000FB4F80819181F80191838083DF91CF91CD
:1036C0001F910F91FF90EF9008950F931F93890121
:1036D0009A01AB01BC0180919A07ADDF1F910F9158
:1036E000089580939A07882309F498C0833009F4D9
:1036F00044C000F5813031F1823009F0ADC082E77D
:1037000096E090939707809396078DEE96E09093BE
:1037100095078093940783E297E090939C078093AA
:103720009B078FED9AE090938F0780938E078EEF23
:103730009AE08EC0853009F456C0D0F1863009F089
:103740008BC06CC089ED90E09093970780939607AB
:1037500084EE90E0909395078093940786EF90E035
:1037600090939C0780939B0782EC91E090938F0746
:1037700080938E0787EE91E06BC08AEF92E0909382
:1037800097078093960787E093E09093950780933F
:10379000940785EC93E090939C0780939B078CE2C1
:1037A00096E090938F0780938E0786E496E050C052
:1037B0008BE192E0909397078093960788E292E0DE
:1037C00090939507809394078BE492E090939C07E5
:1037D00080939B078AEB92E090938F0780938E07EC
:1037E00087ED92E035C08CE39BE090939707809340
:1037F000960787E49BE090939507809394078AE669
:103800009BE090939C0780939B078AEE9BE09093AC
:103810008F0780938E0784E29CE01AC080E59CE0CD
:1038200090939707809396078BE59CE0909395077C
:103830008093940788E69CE090939C0780939B0775
:1038400087ED9CE090938F0780938E078FEE9CE02E
:10385000909399078093980780E29FEBA2E0B0E0F5
:103860008093900790939107A0939207B09393074A
:10387000E0919607F09197070994009759F024EC8E
:1038800039E0000000000000000021503109C9F7B4
:103890000197F3CF08958A95F1F7089531E40097E1
:1038A00029F0232F2A95F1F70197F9CF0895CF93A7
:1038B000DF93EC016DE071E00FD161E071E0CE01CA
:1038C0000BD16EEF70E0CE01DF91CF9105C1CF93A8
:1038D000DF93EC0164ED70E0FFD04FE06CEC70E042
:1038E000CE0116D169EC70E0CE01F6D060EC70E04C
:1038F000CE01F2D06DEB70E0CE01EED06AEB70E05D
:10390000CE01DF91CF91E8C0DF92EF92FF920F934B
:103910001F93CF93DF9300D000D01F92CDB7DEB7B7
:103920007C01CB01042F413208F000E210E02AE0D4
:1039300030E0DD24D394D10EE1E0F0E0EC0FFD1F88
:10394000E10FF11DB901C7D4805D8083CB010097E1
:1039500011F01D2DEECFD01628F480E2F701099565
:103960000150F9CF1F3F59F0E1E0F0E0EC0FFD1FEF
:10397000E10FF11D8081F70109951150F3CF0F90F0
:103980000F900F900F900F90DF91CF911F910F919B
:10399000FF90EF90DF900895EF92FF920F931F93A7
:1039A000CF937C018B01C42F77FF0DC0119501953A
:1039B00011098DE2F7010995C13218F4CC2319F0F1
:1039C00001C0C0E2C1504C2FB801C701CF911F9177
:1039D0000F91FF90EF9098CFEF92FF920F931F936C
:1039E000CF938C017B01C42F47FF07C0C19580E3B3
:1039F000F801099588E7F8010995C53054F484E089
:103A000090E08C1B9109C7FD9395C82FCC0FCC0F6C
:103A100001C0C0E00C2E02C0EE0CFF1C0A94E2F7BD
:103A2000C0318CF48F2D82958F708A3010F4805DB8
:103A300001C0895CF801099584E0EE0CFF1C8A95B1
:103A4000E1F7CC5FEDCFCF911F910F91FF90EF90F9
:103A50000895EF92FF920F931F93CF93DF937C0112
:103A60008B01D42F47FF07C0D19580E3F70109955B
:103A700082E6F7010995D1311CF4C0E1CD1B01C0EC
:103A8000C0E00C2E02C0000F111F0A94E2F7C031F3
:103A90005CF417FF02C081E301C080E3F7010995E0
:103AA000000F111FCF5FF3CFDF91CF911F910F91C7
:103AB000FF90EF9008950F931F93CF93DF938C01A6
:103AC000EB018991882319F0F8010995FACFDF916C
:103AD000CF911F910F9108950F931F93CF93DF9371
:103AE0008C01FB018491EB012196882321F0F801E0
:103AF0000995BE01F6CFDF91CF911F910F910895E7
:103B0000662319F060E771E002C06AE671E0E4CF75
:103B1000EF92FF920F931F93CF93DF937C01CFEF30
:103B2000C40FFB01CF3F99F084918F010F5F1F4FAE
:103B3000DFEFDC0F811106C0C15048F080E2F701D1
:103B40000995FACFF7010995F801CD2FEBCFDF9159
:103B5000CF911F910F91FF90EF900895CF93DF9336
:103B6000EC0160E671E0B8DF64E571E0CE01B4DF3E
:103B700061E571E0CE01DF91CF91AECFCF93DF93BE
:103B8000EC0165E271E0A8DF69E171E0CE01A4DF3C
:103B900066E171E0CE01DF91CF919ECFCF93DF93AD
:103BA000CDB7DEB7EA970FB6F894DEBF0FBECDBF34
:103BB0000E94CA13809189078B8F8C8F81E08D8F33
:103BC00082E08E8F86DC4B015C019B01AC012857A3
:103BD0003C4E4F4F5F4F2CA73DA74EA75FA7DC0180
:103BE000CB0188539F4FAF4FBF4F8BA39CA3ADA377
:103BF000BEA38FA298A6A9A6BAA6212C33243394DB
:103C00001AAA18AA1BA600E0412C512C320119AAAD
:103C100010E05FDC6B017C012CA53DA54EA55FA5E6
:103C2000261737074807590758F4DC01CB01885796
:103C30009C4EAF4FBF4F8CA79DA7AEA7BFA7339495
:103C40002BA13CA14DA15EA12C153D054E055F05A4
:103C500008F05CC039A9313009F043C01130F9F4E3
:103C600060E087EB93E00E94440D61E087EB93E016
:103C70000E94440D62E087EB93E00E94440D63E0F4
:103C800087EB93E00E94440DD701C60188539F4FF4
:103C9000AF4FBF4F8BA39CA3ADA3BEA398C0123060
:103CA000A9F462E087EB93E00E94440D63E087EBA8
:103CB00093E00E94440DA701960128533F4F4F4FB8
:103CC0005F4F2BA33CA34DA35EA381C0D701C601C8
:103CD0008C559E4FAF4FBF4F8BA39CA3ADA3BEA3EC
:103CE00015C0113011F46FEF03C0123019F4642DB8
:103CF000802FEDD9A70196012C553E4F4F4F5F4FB6
:103D00002BA33CA34DA35EA331E039AB8FA198A5B3
:103D1000A9A5BAA58C159D05AE05BF0508F078C00C
:103D2000133018F0163009F091C08BA58F5F6CE04E
:103D3000C6D29BA7E92FF0E0E254FC4F80810E949D
:103D40005915163009F05AC020917F0730E040E045
:103D500050E060E177E280E090E0E4D28FA198A5A6
:103D6000A9A5BAA5820F931FA41FB51F8FA398A75B
:103D7000A9A7BAA798A99F5F98AB1F8E18A219A2EE
:103D80001AA2292F30E040E050E02BAB3CAB4DAB0A
:103D90005EAB2F8D38A149A15AA18BA99CA9ADA9D1
:103DA000BEA9281739074A075B0708F04FC06DE026
:103DB0008F8D0E9482148F8D98A1A9A1BAA101961E
:103DC000A11DB11D8F8F98A3A9A3BAA3E2CF8FA184
:103DD00098A5A9A5BAA58C159D05AE05BF0508F047
:103DE0006CC28BA58F5F6CE06AD29BA7E92FF0E0D5
:103DF000E254FC4F80810E94591519AAA70196012F
:103E00002C503E4F4F4F5F4F2FA338A749A75AA7BB
:103E10001330E0F42220D1F045E050E058A34F8F5A
:103E20008AE00E9459158DE491E00E94A0158DE072
:103E30000E9459158DE491E00E94A0158F8D98A1E4
:103E4000019798A38F8F892B59F7212C83E0DBDA18
:103E5000882309F4BCC0812F90E08930910508F0D7
:103E600044C0FC01EC5CFF4F7FC281E0E7DA8823AD
:103E700009F41FC282E0E2DA882309F41AC218C2E8
:103E8000EBE1F0E0EC0FFD1FE00FF11D8081412C14
:103E9000512C3201823008F009C2813009F009C288
:103EA00027C081E0CBDA882319F182E0C7DA8111DB
:103EB000FFC11EC081E0C2DA882389F082E0BEDA49
:103EC000882369F0A701960128573C4E4F4F5F4F5A
:103ED0002CA73DA74EA75FA7312C18E0EAC181E0CF
:103EE0003AA9311180E08AABE4C1133009F0E1C195
:103EF0000230B8F58091890790E0A0E0B0E0481664
:103F000059066A067B0670F4E0919407F0919507D4
:103F100040E0011102C060E001C061E0842D09951C
:103F2000282E02C0222423940E949510222071F092
:103F3000EBE1F0E0EC0FFD1FE00FF11D808182301E
:103F400008F042C0813009F041C03CC0011109C0F5
:103F50004601570142ED840E44E0941EA11CB11CA1
:103F60000BC0013059F44601570152ED850E54E063
:103F7000951EA11CB11C212C14E029C0023071F443
:103F8000D701C60188579C4EAF4FBF4F8CA79DA746
:103F9000AEA7BFA7212C312C18E019C0033029F49B
:103FA000842D0E94D913212C11C08DEF800F99DB35
:103FB000809189078F5F8B8F8C8F91E09D8F82E03E
:103FC0008E8F212C11E003C012E001C013E081E0CC
:103FD0000ADA8823D1F0113019F40F5F037015C08D
:103FE000123099F4C301B2016F5F7F4F8F4F9F4F23
:103FF000EBE1F0E0EC0FFD1FE00FF11D208130E060
:1040000040E050E08FD12B013C0182E0ECD98823C5
:1040100019F1113029F4002309F44DC1015043C1B5
:104020001230D1F4411451046104710479F4EBE1CC
:10403000F0E0EC0FFD1FE00FF11D608170E06150BA
:1040400071092B01770F660877082DC1A1E04A1A84
:1040500051086108710827C1143009F05EC0C81406
:10406000D904EA04FB0458F59E01295F3F4FAE01D5
:104070004B5F5F4FBE016D5F7F4FCE01019625DB29
:1040800080E00E941B0E41E060E089819A810E94DD
:10409000DB0E41E060E08B819C810E94DB0E81E0C1
:1040A0000E941B0E41E061E08D819E810E94DB0E2B
:1040B00041E061E08F8198850E94DB0EF4C0011120
:1040C00027C0F9D906DA6BA37CA38DA39EA34B016D
:1040D0005C01B0E18B0EB7E29B1EA11CB11C2091CC
:1040E0007F0730E040E050E060E177E280E090E080
:1040F00019D18BA19CA1ADA1BEA1820F931FA41FBA
:10410000B51F8FA398A7A9A7BAA718AA16E0CBC076
:10411000013009F4C7C012E0C6C0163029F5C81432
:10412000D904EA04FB0468F4C501B4016C197D09E3
:104130008E099F092AE030E040E050E0F3D060E0D3
:1041400059C00E9495108091900790919107A0917D
:104150009207B091930746015701880E991EAA1E37
:10416000BB1E1AAA17E09FC0173009F057C0D5012F
:10417000C4018C199D09AE09BF0980938A079093E9
:104180008B07A0938C07B0938D07E0919B07F0916C
:104190009C0709958C149D04AE04BF0478F4A70114
:1041A000960128573C4E4F4F5F4F2CA73DA74EA777
:1041B0005FA70E94BE13312C18E075C03AA93323C3
:1041C00059F0D501C40188599A43A109B1098C1548
:1041D0009D05AE05BF0590F460918A0770918B072D
:1041E00080918C0790918D0728EE33E040E050E0FD
:1041F00099D061E0C9010E94C81555C0E0918E07B1
:10420000F0918F07832D0995F42FE52FCB012D8B8E
:104210003E8BFF8BE88F698F9A8F16C01530D1F4D3
:10422000E0919B07F0919C070995E0918E07F09132
:104230008F07832D0995F42FE52FCB012F87388B1E
:10424000F98BEA8B6B8B9C8BA9016F2F7E2F0E94C1
:10425000D81629C0183039F5E0918E07F0918F07F4
:10426000832D09952F8F3BAB4FAB58AF69AF7AAF1A
:1042700029873A874B875C876D877E87C701B601A0
:10428000681979098A099B0924E630E040E050E08A
:1042900049D04F8D5BA96FA978AD89AD9AAD0E94C9
:1042A000131801C015E00E94C515B3CC12E001C07F
:1042B00011E0212C8CCE03E0F6CF19AAA9CD991BD1
:1042C00079E004C0991F961708F0961B881F7A950D
:1042D000C9F780950895AA1BBB1B51E107C0AA1F0F
:1042E000BB1FA617B70710F0A61BB70B881F991F97
:1042F0005A95A9F780959095BC01CD01089597FB3B
:10430000072E16F4009406D077FD08D0E4DF07FCF2
:1043100005D03EF4909581959F4F089570956195D5
:104320007F4F0895A1E21A2EAA1BBB1BFD010DC0F1
:10433000AA1FBB1FEE1FFF1FA217B307E407F50755
:1043400020F0A21BB30BE40BF50B661F771F881F31
:10435000991F1A9469F760957095809590959B01C7
:10436000AC01BD01CF010895EE0FFF1F0590F49140
:10437000E02D099409D0A59F900DB49F900DA49FA6
:10438000800D911D11240895A29FB001B39FC0011B
:10439000A39F700D811D1124911DB29F700D811D71
:0A43A0001124911D0895F894FFCF39
:1043AA0014015C0154014C0144013C0134012C010B
:1043BA0024011C01060909090909067406090907E5
:1043CA000101067406090906090906740F010204A7
:1043DA00040404740608080E090906740F080E017D
:1043EA000109067402040A0F020202740609010690
:1043FA00010906740609010204080F7402060A027A
:10440A00020202740E09090E08080874111B1F150E
:10441A00111111750909090F090909749001D801C7
:10442A00D001C801C001B801B001A801A0019801DA
:10443A00060909090909067406090907010106742A
:10444A0006090906090906740F0102040404047422
:10445A000608080E090906740F080E0101090674F8
:10446A0002040A0F0202027406090106010906740F
:10447A000609010204080F7402060A020202027403
:10448A000E09090E08080874FC0144023C023402B1
:10449A002C0224021C0214020C0204020609090955
:1044AA0009090674060909070101067406090906BD
:1044BA00090906740F010204040404740608080EAC
:1044CA00090906740F080E010109067402040A0F8D
:1044DA0002020274060901060109067406090102AC
:1044EA0004080F7402060A02020202740E09090E77
:1044FA00080808746802B002A802A0029802900292
:10450A0088028002780270020609090909090674FC
:10451A00060909070101067406090906090906744C
:10452A000F010204040404740608080E090906743B
:10453A000F080E010109067402040A0F020202742E
:10454A0006090106010906740609010204080F7426
:10455A0002060A0202020274CC0214030C030403C8
:10456A00FC02F402EC02E402DC02D40206090909A4
:10457A0009090674060909070101067406090906EC
:10458A00090906740F010204040404740608080EDB
:10459A00090906740F080E010109067402040A0FBC
:1045AA0002020274060901060109067406090102DB
:1045BA0004080F7402060A02020202740E09090EA6
:1045CA0008080874380380037803700368036003DB
:1045DA0058035003480340030609090909090674E8
:1045EA00060909070101067406090906090906747C
:1045FA000F010204040404740608080E090906746B
:10460A000F080E010109067402040A0F020202745D
:10461A0006090106010906740609010204080F7455
:10462A0002060A02020202740000000000000000F2
:10463A0005000500000101B5024A01B40078003006
:10464A0000780048000A077800FE01FF03CD023116
:10465A0002860178000A0700000000000000141515
:10466A00161718191A1B1C1D1E1FDE0326041E040A
:10467A0016040E040604FE03F603EE03E603060917
:10468A0009090909067406090907010106740609D8
:10469A000906090906740F010204040404740608D1
:1046AA00080E090906740F080E01010906740204AE
:1046BA000A0F0202027406090106010906740609B4
:1046CA00010204080F7402060A02020202740000C0
:1046DA0000000000017106090102020002740000D4
:1046EA00000B040404741F15040404040475060969
:1046FA0008060109067411191D1713111175111BEA
:10470A001F15111111750808080808080F74070900
:10471A0008080B0907740F08080F08080F74070820
:10472A000808080807740609090F0909097400002E
:10473A000000000000E207E307E407E607E707E8EE
:10474A0007B504FD04F504ED04E504DD04D504CD44
:10475A0004C504BD040609090909090674060909FC
:10476A00070101067406090906090906740F010200
:10477A0004040404740608080E090906740F080ED6
:10478A00010109067402040A0F02020274060901F1
:10479A0006010906740609010204080F7402060AD2
:0647AA000202020274008D
:00000001FF
