:10000000BCC00000D7C00000D5C00000D3C00000B5
:10001000D1C00000CFC00000CDC000000C94220E63
:10002000C9C00000C7C00000C5C00000C3C00000B8
:10003000C1C00000BFC00000BDC00000BBC00000C8
:10004000B9C00000B7C00000B5C00000B3C00000D8
:10005000B1C00000AFC00000ADC00000ABC00000E8
:10006000A9C00000A7C000006910851085106910A4
:10007000691050105010691069107E1085103211EF
:100080009E10FC103511F008FC08070912091F0921
:100090002A09360940094C09570964096F0988097A
:1000A0007C099409A109EC08EE08AF09B109B3096C
:1000B000B509B709B909BB09BD09BF09C1090D0ACD
:1000C000000D0A003230303030303030003A20003D
:1000D0002020465F43505500726F626F6C69622F3B
:1000E00064656C61792F64656C61792E63203237A9
:1000F0002E30392E323031352056312E302E300D03
:100100000A000D0A0020205B656D7074795D0D0A90
:100110000064656C61793A0D0A000D0A0020205BCD
:10012000656D7074795D0D0A00726F626F6C696243
:100130002F737472696E672F737472696E672E63A2
:100140002030352E31302E323031352056312E319F
:100150002E300D0A000D0A0020205B656D70747949
:100160005D0D0A00737472696E673A0D0A0066616C
:100170006C73650074727565000011241FBECFEFAB
:10018000D8E0DEBFCDBF11E0A0E0B1E0EAEDF3E2E0
:1001900002C005900D92A83DB107D9F723E0A8ED64
:1001A000B1E001C01D92A03BB207E1F70E94F70F3A
:1001B0000C94EB1125CFE8EDF1E080818D7F8083F9
:1001C000E9EDF1E080818D7F8083EAEDF1E08081CF
:1001D0008D7F80830895E8EDF1E080818E7F8083BC
:1001E0008081837084668083E9EDF1E080818E7F79
:1001F00080838081837084668083EAEDF1E0808172
:100200008E7F80838081837084668083D4CF519A6F
:10021000549A599A5C983C983D982298DCCF81502A
:10022000833058F4E82FF0E0E852FE4F808190814F
:100230009D7F908386958170089580E00895815018
:100240008330B0F4E82FF0E0E852FE4F808181FF68
:1002500006C080818095282F217030E002C020E008
:1002600030E0232B29F080818D7F808381E0089509
:1002700080E008958150833038F4E82FF0E0E852B0
:10028000FE4F80818170089580E0089520E030E085
:1002900041E0213031F0223049F086B18295817001
:1002A00009C086B185FB882780F904C083B182FB31
:1002B000882780F98427F901E852FE4F90819170D8
:1002C000891789F0908180FB90F99083811104C097
:1002D00080818370846612C080818695869579F4CA
:1002E000808182600BC080818695869541F08081F7
:1002F0008C7F9CEF980F80818370892B80832F5F88
:100300003F4F2330310529F60895389A399A239AB8
:10031000259A3A9A3B9A10921F021092DB01109292
:10032000DE01ECEDF1E08FE0808381830895CF93CF
:10033000DF93643008F047C070E0FB01EC5FFE4FD4
:100340002081FB01E050FF4F30815CEF531B30E018
:10035000F901E452FE4F4081540F652FEFE1F0E0C8
:10036000DF0102C0AA0FBB1F5A95E2F7AD0140950D
:100370005095E091DE01DC01C9018E0F911D8E0FB9
:10038000911D24E0880F991F2A95E1F7FC01E152A5
:10039000FE4FED01279620813181242335233183BF
:1003A00020838D91982F9F71892F90E0062E02C097
:1003B000880F991F0A94E2F7822B932B81939193D4
:1003C000AC17BD0741F7DF91CF9108958430C8F590
:1003D000282F30E0F901EC5FFE4F8081F901E050F9
:1003E000FF4F90814CEF491B90E0FC01E452FE4F1F
:1003F0002081420F2FE130E002C0220F331F4A95C7
:10040000E2F7209530954091DE01840F911D840F15
:10041000911D44E0880F991F4A95E1F7FC01E152D4
:10042000FE4F47E080819181B901682B792B60955F
:10043000709582239323862B972B81939193415020
:1004400089F708956230F0F5FC01368547852091E3
:10045000DE0170E0620F711D620F711D24E0660FF6
:10046000771F2A95E1F7313100F5FB01E152FE4F8C
:1004700036874787FC0180E090E040E150E0431B75
:10048000510921913191DC01A60FB71FA152BE4F36
:10049000042E02C0220F331F0A94E2F72D933C93DF
:1004A00002968E30910569F7089580E090E0FB0197
:1004B000E80FF91FE152FE4F11821082029680313F
:1004C0009105A9F708958230D0F42091DE0190E0E3
:1004D000820F911D820F911D24E0880F991F2A958C
:1004E000E1F720E030E0F901E80FF91FE152FE4F9B
:1004F000118210822E5F3F4F20313105A1F7089500
:100500008230C0F42091DE0190E0820F911D820FB5
:10051000911D24E0880F991F2A95E1F7FC01E15213
:10052000FE4F87E0208131812095309521933193D2
:100530008150C1F70895EF92FF920F931F93CF93CD
:10054000623008F06BC0E091DE01F0E070E09F01E6
:10055000220F331FD901A60FB71FC4E0AA0FBB1F7C
:10056000CA95E1F7A152BE4F1E965C914523C1E0AA
:1005700009F4C0E04C2F450F413108F04FC0DC01B9
:1005800017965C91D901A60FB71F24E0AA0FBB1FD5
:100590002A95E1F7A152BE4F242F30E01F963C93DD
:1005A0002E931E97252F2F7041E050E0022E02C09F
:1005B000440F551F0A94E2F741505109DC01EE0F38
:1005C000FF1FE60FF71F64E0EE0FFF1F6A95E1F7CC
:1005D000E152FE4F7C0187E0E80EF11C00E110E0E3
:1005E000021B1109608171810C2E02C076956795FE
:1005F0000A94E2F7718360839D91292F30E02423D0
:100600003523002E02C0220F331F0A94E2F7262B57
:10061000372B21933193AE15BF0521F7CF911F9151
:100620000F91FF90EF9008951F93CF93DF93EC010C
:10063000623008F065C01F811F70E091DE01F0E0BC
:1006400070E09F01220F331FD901A60FB71F84E06E
:10065000AA0FBB1F8A95E1F7A152BE4F1E968C913F
:10066000442319F091E0811101C090E0980F812F8F
:10067000890F813108F044C0D901A60FB71F24E0CB
:10068000AA0FBB1F2A95E1F7A152BE4F282F30E0D9
:100690001F963C932E931E9741E050E0012E02C01E
:1006A000440F551F0A94E2F741505109DE01EE0F45
:1006B000FF1FE60FF71F64E0EE0FFF1F6A95E1F7DB
:1006C000E152FE4FBE01695F7F4F20E130E0E9015A
:1006D000C91BD109CE01811B91092D9130E0242342
:1006E0003523082E02C0220F331F0A94E2F7C0817F
:1006F000D1812C2B3D2B219331936A177B0769F70E
:10070000DF91CF911F9108951092DB0181E08093DA
:10071000DE01AFEDB1E0EFEEF1E090968D919C91AE
:1007200091978D939D93EA17FB07B9F780A191A14B
:100730008193919381E0EF3FF807C1F708952D9AD7
:1007400000000000000000000000000000000000A9
:1007500000002D98000000000000000000000000D4
:100760000000000000000895603110F59091DB0159
:1007700050E0490F511D490F511DFA0193E0EE0F52
:10078000FF1F9A95E1F7E80FF11DEE0FFF1FE152F1
:10079000FE4F81E090E002C0880F991F6A95E2F752
:1007A0002081318182239323892B11F02B9A01C060
:1007B0002B98C5CF419A0000000000000000000007
:1007C0000000000000000000419800000000000050
:1007D000000000000000000000000000089580916B
:1007E00020028F5F80932002883020F01092200238
:1007F000409A01C04098DECFCF9310922002C0E013
:10080000C73011F4409A01C04098D4DFCF5FC830A0
:10081000B9F7CF910895429A00000000000000004F
:1008200000000000000000000000429800000000EE
:10083000000000000000000000000000000008951B
:10084000EF92FF920F931F93CF93DF93809120023B
:10085000873041F004E011E080E0E82E81E0F82EDE
:10086000D6E02CC080911F02882351F1DF91CF91F7
:100870001F910F91FF90EF90CECF2B9860DFC1506A
:10088000E1F7F8014381E42FF0E0E452FE4F60818C
:10089000F7018381681B6C0F80912002FD2FF81BEC
:1008A0008F2F62DFC150CB3F61F70150110981E00A
:1008B000E81AF10891E000301907C1F2C3E0DDCF7A
:1008C000DF91CF911F910F91FF90EF900895CF93FB
:1008D000DF93EC01209741F082DFB2DF81E090E00E
:1008E0000E94660E2197F6CFDF91CF91089577DFB2
:1008F000A7CF81E00E94070E07DF81E00E940E0E65
:1009000082E00E94070E21D682E00C940E0E7FDC5E
:10091000BFD5FBDCEEDF0E948C0D43D010921F028E
:1009200060E088E191E08EDD61E088E291E08ADDBF
:1009300080E144C5CF938093390220E030E0C3E1E9
:1009400048E0C29FC001C39F900D1124FC01E65CEA
:10095000FD4F108211864287DC01A45BBD4F5C9184
:100960005F715C93DC01A55BBD4F5C915F715C9333
:1009700044874587468760E070E0FC01E60FF71F7B
:10098000E55CFD4F5081516050836F5F7F4F683051
:10099000710599F72F5F3F4F2330310591F6CF91C5
:1009A0000895CF93DF930E94780D1092390280E072
:1009B000C1DFC0E0D0E0FE01EF5DFD4F8081807FB0
:1009C000846080836DE08C2F9DD32196C831D10542
:1009D00091F740E050E030E081E06AE076E0A3E1AA
:1009E000813049F028F0823041F48093700205C0D4
:1009F00070934A0202C060935D02A89FF001112427
:100A0000E30FF11DE55CFD4F942F9F71292F220FFD
:100A10009081917C922B9083EA01CF5DDD4F282F4E
:100A20002F70932F9295907F922B98839081916055
:100A30009083882329F08150813019F43F5F01C0F1
:100A400082E04F5F5F4F4831510551F6DF91CF9102
:100A50000895EF92FF920F931F93CF93DF936091CE
:100A60004D0280913A0297D7C0E06DE08C2F4AD3B7
:100A7000CF5FC831D1F78091430281110BC08091C3
:100A800056028823C9F1C7E100E010E086E1E82EB4
:100A9000F12C22C0C0E0D0E010E098E1E92EF12C6A
:100AA00020913A02CE01B7010E949C11822F90E062
:100AB0008617970720F060914A02812F23D31F5F8A
:100AC000C856DF4FC03287E0D80751F7D8CF085655
:100AD0001F4FC150CB3081F020914D02C801B701AA
:100AE0000E949C11822F90E08617970780F36091F7
:100AF0005D028C2F07D3EBCFDF91CF911F910F9128
:100B0000FF90EF9008956F927F928F929F92AF9295
:100B1000BF92CF92DF92EF92FF920F931F93CF93EA
:100B2000DF93A12CB12C83E1682EE12CF12C6A9C7F
:100B300060016B9CD00C11248601055B1D4FE60102
:100B4000C45BDD4FC601865B9D4F4C01F601EE0D87
:100B5000FF1DE55CFD4F7080872D86958F71782E87
:100B600087E1871508F484C0F8018081877090E0E0
:100B7000E816F90691F5808185FF06C0F4016081D1
:100B8000872DC0D220E001C021E0F8018081869548
:100B900086958695837071F0808186958695869579
:100BA0008D5F8370982F990F990F990F8081877EA1
:100BB000892B11C0F801808182958695877071F02C
:100BC0008081807E90EE980F80818F71892B808349
:100BD0008081877E8061808301C021E08881877069
:100BE00090E0E816F90661F5888185FF04C060E0B1
:100BF000872D88D220E0888186958695869583709A
:100C000071F088818695869586958D5F8370982F83
:100C1000990F990F990F8881877E892B10C0888141
:100C200082958695877061F08881807E90EE980F1E
:100C300088818F71892B88838881877E80618883F2
:100C4000F601EE0DFF1DE55CFD4F808180FF08C0C1
:100C5000222321F0F4016081872D54D261E006C087
:100C6000222319F06DE0872D4DD260E0872DD8D377
:100C7000FFEFEF1AFF0A88E0E816F10409F066CFEB
:100C80009FEFA91AB90AE3E0AE16B10409F04DCFFF
:100C9000DF91CF911F910F91FF90EF90DF90CF9058
:100CA000BF90AF909F908F907F906F900895FC01C0
:100CB0008185833110F0128623C08185803110F048
:100CC00081E01DC081858D3010F082E018C08185E3
:100CD0008A3010F083E013C08185873010F084E003
:100CE0000EC08185843010F085E009C08185823096
:100CF00010F086E004C08185882311F087E08287A8
:100D0000138608950F931F93CF93DF93EC0120E098
:100D100030E000E010E041E050E0FE01E20FF31FA0
:100D2000818180FF0DC0918196959F71983141F02E
:100D3000CA01022E01C0880F0A94EAF7082B1F5F30
:100D40002F5F3F4F2830310541F7123084F1DCD658
:100D5000612F110F770B0E949C1120E030E070E0B2
:100D6000402F50E0FA01022E02C0F595E7950A9453
:100D7000E2F7E0FF17C0871314C0FE01E20FF31F74
:100D800091819E7F91839989987F622F6770962BBE
:100D9000998B9989977E9061998B99899F71906AB7
:100DA000998B7F5F2F5F3F4F28303105D9F6DF9158
:100DB000CF911F910F910895CF92DF92EF92FF9202
:100DC0000F931F93CF93DF93FC018285C8E0C81B6C
:100DD00080E090E0E12CF12CD8E041E050E0DF0130
:100DE000A80FB91F11962C9126952F71283151F417
:100DF0009A01082E02C0220F331F0A94E2F7E22A5A
:100E0000F32AD15001968830910549F71C1684F0D9
:100E100080E090E0DF01A80FB91F11962C91119787
:100E2000216011962C9301968830910599F7D1C0D5
:100E30008C2F0C2E000C990B2D2F30E0821793076E
:100E400084F080E090E0DF01A80FB91F11962C918B
:100E500011972E7F11962C9301968830910599F762
:100E6000B8C04385840F911D821793071CF0CFEF04
:100E7000CD0F02C08385C80F21E030E040E050E094
:100E800061E070E0D42ECC2349F1DF01A40FB51F3F
:100E90001C968C911C97883008F51C968C91DB0170
:100EA00002C0AA0FBB1F8A95E2F7EA2AFB2AC150AB
:100EB000D150D22E2330310589F08C2FC7FF02C0CC
:100EC00081E08C0F8595082E000C990B28173907A7
:100ED0002CF44F5F5F4F2F5F3F4FD4CF828590E060
:100EE0002C2F0C2E000C330B2817390744F0938558
:100EF0008285981738F4C2858385C81B04C0CC242A
:100F0000C39402C0C1E0C12C8F01FED5E1E0F0E046
:100F10001C167CF56D2F70E00E949C11482FCB01B0
:100F200020E030E050E0A8E0B22FBF01022E02C066
:100F3000660F771F0A94E2F76E217F21672B21F459
:100F40004513BA2F5F5FAB2F2F5F3F4F283031051E
:100F500059F7451758F49F0102C0220F331FAA9575
:100F6000E2F7E22AF32AC150D150D2CFE12CF12C82
:100F700004C0CC2011F0E094F09480E090E0482F81
:100F800020E030E02D1598F4D801A20FB31F1C9675
:100F90005C911C972F5F3F4F5413F4CFFD012485C4
:100FA000F801E20FF11D21812E7F21830EC0F8018F
:100FB000E80FF91F41819701082E02C03695279549
:100FC0000A94E2F720FB40F94183019688309105AD
:100FD000B1F6DF91CF911F910F91FF90EF90DF90CD
:100FE000CF900895FF920F931F93CF93DF93E82F35
:100FF000F0E0EF5DFD4FE0818E2F82958F70EF70F6
:1010000023E1E29F80011124F801E80FF11DE55C66
:10101000FD4F9081E801C65CDD4F282F2770F22E2E
:1010200090FF20C099859F5F99879D859E879C85AD
:101030009D878C87CE013BDEF801E55BFD4F80810B
:10104000887F8F2980838081877E806180838081F3
:101050008F71806A8083CE01DF91CF911F910F91B4
:10106000FF90AACE9B859F5F9B879D859E879C85D1
:101070009D878C87F801E45BFD4F8081887F822B00
:1010800080838081877E8061808380818F71806A88
:101090008083CE01DF91CF911F910F91FF9032CECF
:1010A000CF93C0E08C2F1DD2882311F08C2F9ADFB4
:1010B000CF5FC831B9F727DD80914302882349F01B
:1010C0008091430290916902282F220F820F890F8D
:1010D00001C080E080933A0280915602882349F053
:1010E0008091560290916902282F220F820F890F5A
:1010F00001C080E080934D0260914D0280913A02E0
:10110000CF9149C46F927F928F929F92AF92BF927C
:10111000CF92DF92EF92FF920F931F93CF93DF93C3
:10112000882EE62F282F30E0C9010B964CE0642E64
:10113000712CB3010E94B011C82FC9010A96B301E6
:101140000E94B011982EC901B3010E94B011D82F8E
:10115000C9010196B3010E94B011182FC90102966E
:10116000B3010E94B011082FC9010396B3010E9478
:10117000B011F82EC9010496B3010E94B011E82EF7
:10118000C9010596B3010E94B011D82EC901069677
:10119000B3010E94B011C82EC9010796B3010E9485
:1011A000B011B82EC9010896B3010E94B011A82E43
:1011B000C9010996B3010E94B01197E1981508F48E
:1011C000E2C04E2F50E04C31510508F0DCC0FA016E
:1011D000ED5BFF4F0C94E511ED2FEFCFE12FEDCF3D
:1011E0008BE0829FF001839FF00D1124ED55FD4FA0
:1011F0008FEF80831182B1C08BE0829FF001839FCB
:10120000F00D1124ED55FD4F8EE1808309C08BE078
:10121000829FF001839FF00D1124ED55FD4F108248
:1012200011820BC08BE0829FF001839FF00D11248F
:10123000ED55FD4F10828EE181838FEF8EC08BE0E4
:10124000829FF001839FF00D1124ED55FD4F108218
:101250008FEF68C08BE0829FF001839FF00D112417
:10126000ED55FD4F10828FEF818344C08BE0829F4C
:10127000F001839FF00D1124ED55FD4F10820AC03F
:101280008BE0829FF001839FF00D1124ED55FD4FFF
:101290008EE180838FEF16C08BE0829FF001839FE9
:1012A000F00D1124ED55FD4F8FEF80830BC08BE0C7
:1012B000829FF001839FF00D1124ED55FD4F8FEFBC
:1012C00080838EE1818322C08BE0829FF001839F27
:1012D000F00D1124ED55FD4F8FEF808316C08BE08C
:1012E000829FF001839FF00D1124ED55FD4F8FEF8C
:1012F000808311828EE131C08BE0829FF001839F59
:10130000F00D1124ED55FD4F1082118212823BC069
:101310008BE0829FF001839FF00D1124ED55FD4F6E
:101320008FEF8083818319C08BE0829FF001839FC0
:10133000F00D1124ED55FD4F8AE08083818382E317
:101340000CC08BE0829FF001839FF00D1124ED55BE
:10135000FD4F8AE0808392E39183828314C0E02F63
:101360002CCFEF2D2ACFEE2D28CFED2D26CFEC2D33
:1013700024CFEB2D22CFEA2D20CFE82F1ECFE92D51
:101380001CCFEC2F1ACFDF91CF911F910F91FF90BF
:10139000EF90DF90CF90BF90AF909F908F907F9015
:1013A0006F900895883148F49BE0899FF0011124E3
:1013B000ED55FD4F6083418322830895CF93DF93E2
:1013C000D82FC0E06D2F8C2F9DDECF5FC831D1F7B5
:1013D000DF91CF91089520E030E09BE0929FF001F3
:1013E000939FF00D1124ED55FD4F8083618342835F
:1013F0002F5F3F4F2831310589F7089580E090E055
:101400002BE0289FF001299FF00D1124ED55FD4F91
:1014100010821182128201968831910591F7089508
:10142000883138F4E7E1F0E0E81BF109ED58FD4FB1
:1014300060830895CF93DF93D82FC0E06D2F8C2F5A
:10144000EFDFCF5FC831D1F7DF91CF91089580E012
:10145000F1CF80E090E0FC01E557FD4F20812D7F2A
:101460002083019688319105B1F7089520E030E09E
:10147000F901E557FD4F80818E7F808380818370E5
:10148000806F80832F5F3F4F2831310589F7E1CF8F
:101490005298539A5B98549A5C98579A5F98559AC9
:1014A0005D98569A5E98519A599A5098209A289821
:1014B00082E48093C00088E08093C10084E0809340
:1014C000C2001092C5001092C400519A82E184BDFE
:1014D00082E085BD80E287BD91DFB9DFC7DF789408
:1014E0000895883158F4E82FF0E0E557FD4F8081EA
:1014F00090819D7F908386958170089580E0089506
:10150000599AF89480E090E06BE020E030E0689F2A
:10151000A001699F500D11244D555D4F7091C00081
:1015200075FD02C00000FACFFA01E20FF31F7381CC
:101530007093C6002F5F3F4F2830310579F7019631
:101540008831910511F77894089580E090E02BE0C0
:1015500062E140E050E0289FF001299FF00D112446
:10156000ED55FD4FDF01A40FB51F13966C934F5F30
:101570005F4F48305105B1F7318137FD03C04381DA
:101580004160438336FD0AC0289FF001299FF00D7A
:101590001124ED55FD4F43814860438335FD0AC05A
:1015A000289FF001299FF00D1124ED55FD4F438137
:1015B0004064438334FD0AC0289FF001299FF00D49
:1015C0001124ED55FD4F44814160448333FD0AC031
:1015D000289FF001299FF00D1124ED55FD4F448106
:1015E0004860448332FD0AC0289FF001299FF00D16
:1015F0001124ED55FD4F44814064448331FD0AC000
:10160000289FF001299FF00D1124ED55FD4F4581D4
:101610004160458330FD0AC0289FF001299FF00DED
:101620001124ED55FD4F358138603583289FF00139
:10163000299FF00D1124ED55FD4F308137FD03C07A
:1016400045814064458336FD0AC0289FF001299FEB
:10165000F00D1124ED55FD4F46814160468335FD67
:101660000AC0289FF001299FF00D1124ED55FD4F70
:1016700046814860468334FD0AC0289FF001299FB7
:10168000F00D1124ED55FD4F46814064468333FD36
:101690000AC0289FF001299FF00D1124ED55FD4F40
:1016A00047814160478332FD0AC0289FF001299F8E
:1016B000F00D1124ED55FD4F47814860478331FD02
:1016C0000AC0289FF001299FF00D1124ED55FD4F10
:1016D00047814064478330FD0AC0289FF001299F5D
:1016E000F00D1124ED55FD4F308531603087289F76
:1016F000F001299FF00D1124ED55FD4F328137FD8A
:1017000003C040854860408736FD0AC0289FF0012D
:10171000299FF00D1124ED55FD4F40854064408711
:1017200035FD0AC0289FF001299FF00D1124ED55C9
:10173000FD4F41854160418734FD0AC0289FF0017B
:10174000299FF00D1124ED55FD4F418548604187DB
:1017500033FD0AC0289FF001299FF00D1124ED559B
:10176000FD4F41854064418732FD0AC0289FF0014A
:10177000299FF00D1124ED55FD4F428541604287B0
:1017800031FD0AC0289FF001299FF00D1124ED556D
:10179000FD4F42854860428730FD0AC0289FF00116
:1017A000299FF00D1124ED55FD4F328530643287AD
:1017B00001968831910509F0CCCE08955E9A00001B
:1017C0000000000000000000000000000000000019
:1017D0005E98000000000000000000000000000013
:1017E0000000000008955F9A000000000000000063
:1017F000000000000000000000005F9800000000F2
:10180000000000000000000000000000000008953B
:10181000CF93DF9328985B9A81E090E068D2C0E094
:10182000D0E0FE01ED58FD4F8081882311F05C9AD5
:1018300001C05C98C3DF99B181E0292F247092FD2B
:1018400080E05B98FE01E557FD4F9081917089170C
:1018500081F0908180FB90F990838081222319F0A0
:101860008370806F11C08695869579F4808182603F
:101870000BC080818695869541F080818C7F9CEF9E
:10188000980F80818370892B80832196C831D10580
:1018900041F6DF91CF91A7CFEF92FF920F931F9365
:1018A000CF93DF93EC0110921F020AE010E0662351
:1018B00081F1B80141D57B01FC01EE0FFF1FED5A0C
:1018C000FE4F63E0808191810E949701C70166E02D
:1018D00070E032D5FC01EE0FFF1FED5AFE4F62E0C3
:1018E000808191810E949701CE016CE370E024D544
:1018F000CB01B80121D5FC01EE0FFF1FED5AFE4FC1
:1019000061E0808191810E949701CE0168E572E0DB
:101910002EC0B80111D57B01FC01EE0FFF1FED5A5F
:10192000FE4F63E0808191810E949701C701B80159
:1019300003D5FC01EE0FFF1FED5AFE4F62E08081E0
:1019400091810E949701CE0164E670E0F5D4CB014D
:10195000B801F2D4FC01EE0FFF1FED5AFE4F61E01B
:10196000808191810E949701CE0168EE73E0E4D4FA
:10197000CB01B801E1D4FC01EE0FFF1FED5AFE4F81
:1019800060E080819181DF91CF911F910F91FF9055
:10199000EF900C949701CF93DF93D62F91E0909323
:1019A0001F02843648F060E087EB91E00E949701C7
:1019B00061E087EB91E017C06AE0B2D4C92FE82F4D
:1019C000F0E0EE0FFF1FED5AFE4F60E08081918145
:1019D0000E949701EC2FF0E0EE0FFF1FED5AFE4F33
:1019E00061E0808191810E949701D43648F062E0E5
:1019F00087EB91E00E94970163E087EB91E018C0CC
:101A00008D2F6AE08DD4C92FE82FF0E0EE0FFF1F75
:101A1000ED5AFE4F62E0808191810E949701EC2F88
:101A2000F0E0EE0FFF1FED5AFE4F63E080819181E1
:101A3000DF91CF910C949701CF93C62F10921F0284
:101A4000882369F08130A9F580E00E94630240E0BC
:101A500060E08FEB91E00E94140340E00AC080E058
:101A60000E94630241E060E08FEC91E00E94140369
:101A700041E060E087EC91E00E9414038C2F6AE063
:101A80004FD4C92FE82FF0E0EE0FFF1FED5AFE4FA5
:101A900062E0808191810E949701EC2FF0E0EE0FCF
:101AA000FF1FED5AFE4F63E080819181CF910C942E
:101AB000970180E00E94630241E060E087EB91E0E3
:101AC0000E94140341E060E087EB91E00E94140360
:101AD00081E00E94630241E061E087EB91E00E94B7
:101AE000140341E061E087EB91E0CF910C94140383
:101AF0001092800081E08093810010928500109206
:101B0000840010926F0008952FB7F894809184009C
:101B1000909185002FBF08951092B60082E08093C7
:101B2000B00095E09093B1001092B2009CE99093C0
:101B3000B3008093700087BB81E08093AF0308956A
:101B40008FB7F8941092AB031092AC031092AD03D0
:101B50001092AE038FBF08952FB7F8946091AB0336
:101B60007091AC038091AD039091AE032FBF0895A7
:101B70008F929F92AF92BF92CF92DF92EF92FF929D
:101B80006C01EADF4B015C01E12CF12CE5DFDC01AB
:101B9000CB0188199909AA09BB098C159D05AE05C9
:101BA000BF0510F47894F2CFFF90EF90DF90CF90C4
:101BB000BF90AF909F908F90089520E83EEE46E34F
:101BC00050E0E1D3822F089520E63AEE40E050E065
:101BD000DAD3CA01B9012CE330E040E050E0D3D3BE
:101BE000862F089528EE33E040E050E0CCD3CA01C0
:101BF000B9012CE330E040E050E0C5D3862F0895D2
:101C000028EE33E040E050E0BED3CB010895909140
:101C1000AF03809598239093AF0308959091AF03FD
:101C2000892B8093AF0308958091AF0380FD0E94BC
:101C300077048091AF0381FF04C0EADD61DC0C947E
:101C4000460108951F920F920FB60F9211242F9301
:101C50003F934F935F936F937F938F939F93AF9334
:101C6000BF93CF93DF93EF93FF938091AB0390915A
:101C7000AC03A091AD03B091AE030196A11DB11DBF
:101C80008093AB039093AC03A093AD03B093AE03EA
:101C9000C0E7D0E088818D7F88837894C5DFF89491
:101CA000888182608883FF91EF91DF91CF91BF910E
:101CB000AF919F918F917F916F915F914F913F91E4
:101CC0002F910F900FBE0F901F901895009759F00D
:101CD00024EC39E000000000000000002150310930
:101CE000C9F70197F3CF08958A95F1F7089531E484
:101CF000009729F0232F2A95F1F70197F9CF08953E
:101D0000CF93DF93EC0161E171E00FD165E071E009
:101D1000CE010BD162E071E0CE01DF91CF9105C120
:101D2000CF93DF93EC0168ED70E0FFD04FE060ED02
:101D300070E0CE0116D16DEC70E0CE01F6D064EC0F
:101D400070E0CE01F2D061EC70E0CE01EED06EEB2F
:101D500070E0CE01DF91CF91E8C0DF92EF92FF9269
:101D60000F931F93CF93DF9300D000D01F92CDB776
:101D7000DEB77C01CB01042F413208F000E210E015
:101D80002AE030E0DD24D394D10EE1E0F0E0EC0F66
:101D9000FD1FE10FF11DB901CFD2805D8083CB0122
:101DA000009711F01D2DEECFD01628F480E2F70138
:101DB00009950150F9CF1F3F59F0E1E0F0E0EC0F39
:101DC000FD1FE10FF11D8081F70109951150F3CF3F
:101DD0000F900F900F900F900F90DF91CF911F9168
:101DE0000F91FF90EF90DF900895EF92FF920F9385
:101DF0001F93CF937C018B01C42F77FF0DC01195EA
:101E0000019511098DE2F7010995C13218F4CC232F
:101E100019F001C0C0E2C1504C2FB801C701CF91E9
:101E20001F910F91FF90EF9098CFEF92FF920F9339
:101E30001F93CF938C017B01C42F47FF07C0C1952F
:101E400080E3F801099588E7F8010995C53054F455
:101E500084E090E08C1B9109C7FD9395C82FCC0FAF
:101E6000CC0F01C0C0E00C2E02C0EE0CFF1C0A9487
:101E7000E2F7C0318CF48F2D82958F708A3010F488
:101E8000805D01C0895CF801099584E0EE0CFF1CBF
:101E90008A95E1F7CC5FEDCFCF911F910F91FF9025
:101EA000EF900895EF92FF920F931F93CF93DF93DC
:101EB0007C018B01D42F47FF07C0D19580E3F70148
:101EC000099582E6F7010995D1311CF4C0E1CD1BDB
:101ED00001C0C0E00C2E02C0000F111F0A94E2F7EF
:101EE000C0315CF417FF02C081E301C080E3F70159
:101EF0000995000F111FCF5FF3CFDF91CF911F9195
:101F00000F91FF90EF9008950F931F93CF93DF935E
:101F10008C01EB018991882319F0F8010995FACF1A
:101F2000DF91CF911F910F9108950F931F93CF933E
:101F3000DF938C01FB018491EB012196882321F032
:101F4000F8010995BE01F6CFDF91CF911F910F9156
:101F50000895662319F064E771E002C06EE671E04F
:101F6000E4CFEF92FF920F931F93CF93DF937C0107
:101F7000CFEFC40FFB01CF3F99F084918F010F5F2A
:101F80001F4FDFEFDC0F811106C0C15048F080E227
:101F9000F7010995FACFF7010995F801CD2FEBCF9D
:101FA000DF91CF911F910F91FF90EF900895CF9304
:101FB000DF93EC0164E671E0B8DF68E571E0CE0123
:101FC000B4DF65E571E0CE01DF91CF91AECFCF9365
:101FD000DF93EC0169E271E0A8DF6DE171E0CE0111
:101FE000A4DF6AE171E0CE01DF91CF919ECFCF9364
:101FF000DF93CDB7DEB762970FB6F894DEBF0FBEA2
:10200000CDBF0E948704A8DD6B017C012B013C0140
:102010006D837E838F83988769837A838B839C8388
:10202000212C00E0312C1A8A198A2989233028F5BD
:102030008D819E81AF81B8858C509E4FAF4FBF4F31
:102040008C159D05AE05BF0548F08D819E81AF8141
:10205000B885C816D906EA06FB0678F481E0800F39
:102060006CE05ED1092FE92FF0E0E95BFE4F808143
:10207000A5D9CD82DE82EF82F8866EDD6B017C0110
:1020800083E00E940F019989892E912C8823C1F049
:10209000A8E08A169104A0F4F401EC5CFF4F95C10E
:1020A00081E00E943A01811105C081E0211080E0A9
:1020B000282E06C082E00E943A0181110AC0F5CFA5
:1020C000F4013197E730F10508F0D7C0E45CFF4F29
:1020D0007CC181E00E940F01882321F0BA89BF5F93
:1020E000B170BA8B82E00E940F01882309F4C0C04E
:1020F00081E02A89211180E08A8BBAC081E00E94A8
:102100000F0182E00E940F01B8C080E00E949A0493
:10211000ADD94A8941110BC013DD1EDD69837A8375
:102120008B839C836B017C0155E0598BA6C08A8907
:10213000813009F4A0C093E0998B9FC029813A8136
:102140004B815C81205F384D4F4F5F4F29873A8725
:102150004B875C872C153D054E055F0538F486D905
:10216000C982DA82EB82FC8236E083C010E0812CE7
:10217000912C5401D701C60129813A814B815C81A0
:10218000821B930BA40BB50B8D879E87AF87B88BF3
:10219000C501B40128E130E040E050E0F4D08D8585
:1021A0009E85AF85B889281739074A075B0720F451
:1021B0006DE0812F0E94820890E1890E97E2991EBE
:1021C000A11CB11C1F5FA0E88A16A9EA9A06A3E029
:1021D000AA06B104E9F669857A858B859C856C1918
:1021E0007D098E099F092AE030E040E050E0CBD025
:1021F00060E0C90151DB41C00E94500889809A808B
:10220000AB80BC80B0E28B0EBFEB9B1EB2E0AB1E7E
:10221000B11C21100EC0C501B4016C197D098E09D5
:102220009F0928EE33E040E050E0ADD061E0C90105
:1022300033DB8C149D04AE04BF04F8F410921F022B
:1022400060E088E391E00E94970161E080E191E025
:102250000E94970162E088E091E00E94970127E0E8
:10226000298B0BC00E94500808C00E94290505C098
:1022700031E0398B02C044E0498B51E0351228C06F
:10228000D301C2018C559E4FAF4FBF4F8C159D059A
:10229000AE05BF0528F0C414D504E604F70498F58C
:1022A0008989813049F08230A1F562E080E491E0D3
:1022B0000E94970163E006C060E080E491E00E9424
:1022C000970161E080E491E00E94970126013701C7
:1022D000D301C20188539F4FAF4FBF4F8C159D054F
:1022E000AE05BF0528F0C414D504E604F704B0F425
:1022F00089898150823080F460E08A899DDB2601E3
:102300003701332433940E94790481E090E030DC7B
:102310008CCE26013701F7CF26013701312CF3CFC0
:10232000991B79E004C0991F961708F0961B881F27
:102330007A95C9F780950895AA1BBB1B51E107C088
:10234000AA1FBB1FA617B70710F0A61BB70B881F45
:10235000991F5A95A9F780959095BC01CD010895D4
:1023600097FB072E16F4009406D077FD08D0E4DF23
:1023700007FC05D03EF4909581959F4F0895709588
:1023800061957F4F0895A1E21A2EAA1BBB1BFD0188
:102390000DC0AA1FBB1FEE1FFF1FA217B307E40744
:1023A000F50720F0A21BB30BE40BF50B661F771F9C
:1023B000881F991F1A9469F760957095809590957C
:1023C0009B01AC01BD01CF010895EE0FFF1F0590E9
:0A23D000F491E02D0994F894FFCF7A
:1023DA0000050005000001011818121C12080675F4
:1023EA000303150F01020C75B5024A01B400780007
:1023FA003000780048000A077800FE01FF03CD028A
:10240A003102860178000A070A0A0A04111F0E75AA
:10241A0000000000000000101112131415161718FE
:10242A00191A1B6701AF01A7019F0197018F018745
:10243A00017F0177016F0106090909090906740676
:10244A000909070101067406090906090906740F34
:10245A00020404040404740608080E090906740F29
:10246A00080E010109067402040A0F020202740628
:10247A00090106010906740609010204080F74021B
:10248A00060A020202027406090102020002741F0D
:10249A0015040404040475111B1F15111111750785
:0824AA000908080B0907740082
:00000001FF
